{"contracts/MyGov.sol":{"MyGov":{"abi":[{"inputs":[{"internalType":"address","name":"_tlToken","type":"address"}],"stateMutability":"nonpayable","type":"constructor"},{"inputs":[{"internalType":"address","name":"spender","type":"address"},{"internalType":"uint256","name":"allowance","type":"uint256"},{"internalType":"uint256","name":"needed","type":"uint256"}],"name":"ERC20InsufficientAllowance","type":"error"},{"inputs":[{"internalType":"address","name":"sender","type":"address"},{"internalType":"uint256","name":"balance","type":"uint256"},{"internalType":"uint256","name":"needed","type":"uint256"}],"name":"ERC20InsufficientBalance","type":"error"},{"inputs":[{"internalType":"address","name":"approver","type":"address"}],"name":"ERC20InvalidApprover","type":"error"},{"inputs":[{"internalType":"address","name":"receiver","type":"address"}],"name":"ERC20InvalidReceiver","type":"error"},{"inputs":[{"internalType":"address","name":"sender","type":"address"}],"name":"ERC20InvalidSender","type":"error"},{"inputs":[{"internalType":"address","name":"spender","type":"address"}],"name":"ERC20InvalidSpender","type":"error"},{"inputs":[{"internalType":"address","name":"owner","type":"address"}],"name":"OwnableInvalidOwner","type":"error"},{"inputs":[{"internalType":"address","name":"account","type":"address"}],"name":"OwnableUnauthorizedAccount","type":"error"},{"anonymous":false,"inputs":[{"indexed":true,"internalType":"address","name":"owner","type":"address"},{"indexed":true,"internalType":"address","name":"spender","type":"address"},{"indexed":false,"internalType":"uint256","name":"value","type":"uint256"}],"name":"Approval","type":"event"},{"anonymous":false,"inputs":[{"indexed":true,"internalType":"address","name":"previousOwner","type":"address"},{"indexed":true,"internalType":"address","name":"newOwner","type":"address"}],"name":"OwnershipTransferred","type":"event"},{"anonymous":false,"inputs":[{"indexed":true,"internalType":"address","name":"from","type":"address"},{"indexed":true,"internalType":"address","name":"to","type":"address"},{"indexed":false,"internalType":"uint256","name":"value","type":"uint256"}],"name":"Transfer","type":"event"},{"inputs":[],"name":"MAX_SUPPLY","outputs":[{"internalType":"uint256","name":"","type":"uint256"}],"stateMutability":"view","type":"function"},{"inputs":[{"internalType":"address","name":"owner","type":"address"},{"internalType":"address","name":"spender","type":"address"}],"name":"allowance","outputs":[{"internalType":"uint256","name":"","type":"uint256"}],"stateMutability":"view","type":"function"},{"inputs":[{"internalType":"address","name":"spender","type":"address"},{"internalType":"uint256","name":"value","type":"uint256"}],"name":"approve","outputs":[{"internalType":"bool","name":"","type":"bool"}],"stateMutability":"nonpayable","type":"function"},{"inputs":[{"internalType":"address","name":"account","type":"address"}],"name":"balanceOf","outputs":[{"internalType":"uint256","name":"","type":"uint256"}],"stateMutability":"view","type":"function"},{"inputs":[],"name":"decimals","outputs":[{"internalType":"uint8","name":"","type":"uint8"}],"stateMutability":"view","type":"function"},{"inputs":[{"internalType":"address","name":"memberaddr","type":"address"},{"internalType":"uint256","name":"projectid","type":"uint256"}],"name":"delegateVoteTo","outputs":[],"stateMutability":"nonpayable","type":"function"},{"inputs":[{"internalType":"uint256","name":"amount","type":"uint256"}],"name":"donateMyGovToken","outputs":[],"stateMutability":"nonpayable","type":"function"},{"inputs":[{"internalType":"uint256","name":"amount","type":"uint256"}],"name":"donateTLToken","outputs":[],"stateMutability":"nonpayable","type":"function"},{"inputs":[{"internalType":"uint256","name":"","type":"uint256"},{"internalType":"address","name":"","type":"address"}],"name":"extraVotes","outputs":[{"internalType":"uint256","name":"","type":"uint256"}],"stateMutability":"view","type":"function"},{"inputs":[],"name":"faucet","outputs":[],"stateMutability":"nonpayable","type":"function"},{"inputs":[{"internalType":"address","name":"","type":"address"}],"name":"faucetClaimed","outputs":[{"internalType":"bool","name":"","type":"bool"}],"stateMutability":"view","type":"function"},{"inputs":[{"internalType":"uint256","name":"projectid","type":"uint256"}],"name":"getIsProjectFunded","outputs":[{"internalType":"bool","name":"","type":"bool"}],"stateMutability":"view","type":"function"},{"inputs":[],"name":"getNoOfFundedProjects","outputs":[{"internalType":"uint256","name":"count","type":"uint256"}],"stateMutability":"view","type":"function"},{"inputs":[],"name":"getNoOfProjectProposals","outputs":[{"internalType":"uint256","name":"","type":"uint256"}],"stateMutability":"view","type":"function"},{"inputs":[],"name":"getNoOfSurveys","outputs":[{"internalType":"uint256","name":"","type":"uint256"}],"stateMutability":"view","type":"function"},{"inputs":[{"internalType":"uint256","name":"activityid","type":"uint256"}],"name":"getProjectInfo","outputs":[{"internalType":"string","name":"","type":"string"},{"internalType":"uint256","name":"","type":"uint256"},{"internalType":"uint256[]","name":"","type":"uint256[]"},{"internalType":"uint256[]","name":"","type":"uint256[]"}],"stateMutability":"view","type":"function"},{"inputs":[{"internalType":"uint256","name":"projectid","type":"uint256"}],"name":"getProjectNextTLPayment","outputs":[{"internalType":"int256","name":"","type":"int256"}],"stateMutability":"view","type":"function"},{"inputs":[{"internalType":"uint256","name":"projectid","type":"uint256"}],"name":"getProjectOwner","outputs":[{"internalType":"address","name":"","type":"address"}],"stateMutability":"view","type":"function"},{"inputs":[{"internalType":"uint256","name":"surveyid","type":"uint256"}],"name":"getSurveyInfo","outputs":[{"internalType":"string","name":"","type":"string"},{"internalType":"uint256","name":"","type":"uint256"},{"internalType":"uint256","name":"","type":"uint256"},{"internalType":"uint256","name":"","type":"uint256"}],"stateMutability":"view","type":"function"},{"inputs":[{"internalType":"uint256","name":"surveyid","type":"uint256"}],"name":"getSurveyOwner","outputs":[{"internalType":"address","name":"","type":"address"}],"stateMutability":"view","type":"function"},{"inputs":[{"internalType":"uint256","name":"surveyid","type":"uint256"}],"name":"getSurveyResults","outputs":[{"internalType":"uint256","name":"","type":"uint256"},{"internalType":"uint256[]","name":"","type":"uint256[]"}],"stateMutability":"view","type":"function"},{"inputs":[{"internalType":"uint256","name":"projectid","type":"uint256"}],"name":"getTLReceivedByProject","outputs":[{"internalType":"uint256","name":"total","type":"uint256"}],"stateMutability":"view","type":"function"},{"inputs":[{"internalType":"uint256","name":"","type":"uint256"},{"internalType":"address","name":"","type":"address"}],"name":"hasDelegated","outputs":[{"internalType":"bool","name":"","type":"bool"}],"stateMutability":"view","type":"function"},{"inputs":[{"internalType":"uint256","name":"","type":"uint256"},{"internalType":"address","name":"","type":"address"}],"name":"hasVoted","outputs":[{"internalType":"bool","name":"","type":"bool"}],"stateMutability":"view","type":"function"},{"inputs":[{"internalType":"uint256","name":"","type":"uint256"},{"internalType":"address","name":"","type":"address"}],"name":"hasVotedForPayment","outputs":[{"internalType":"bool","name":"","type":"bool"}],"stateMutability":"view","type":"function"},{"inputs":[{"internalType":"address","name":"user","type":"address"}],"name":"isContractMember","outputs":[{"internalType":"bool","name":"","type":"bool"}],"stateMutability":"view","type":"function"},{"inputs":[{"internalType":"address","name":"","type":"address"}],"name":"isMember","outputs":[{"internalType":"bool","name":"","type":"bool"}],"stateMutability":"view","type":"function"},{"inputs":[],"name":"name","outputs":[{"internalType":"string","name":"","type":"string"}],"stateMutability":"view","type":"function"},{"inputs":[],"name":"owner","outputs":[{"internalType":"address","name":"","type":"address"}],"stateMutability":"view","type":"function"},{"inputs":[{"internalType":"uint256","name":"","type":"uint256"}],"name":"paymentVotes","outputs":[{"internalType":"uint256","name":"","type":"uint256"}],"stateMutability":"view","type":"function"},{"inputs":[{"internalType":"uint256","name":"","type":"uint256"}],"name":"proposals","outputs":[{"internalType":"string","name":"weburl","type":"string"},{"internalType":"uint256","name":"votedeadline","type":"uint256"},{"internalType":"address","name":"owner","type":"address"},{"internalType":"uint256","name":"yesVotes","type":"uint256"},{"internalType":"bool","name":"funded","type":"bool"},{"internalType":"uint256","name":"reservedTime","type":"uint256"},{"internalType":"uint256","name":"lastPaidIndex","type":"uint256"}],"stateMutability":"view","type":"function"},{"inputs":[],"name":"renounceOwnership","outputs":[],"stateMutability":"nonpayable","type":"function"},{"inputs":[{"internalType":"uint256","name":"projectid","type":"uint256"}],"name":"reserveProjectGrant","outputs":[],"stateMutability":"nonpayable","type":"function"},{"inputs":[{"internalType":"string","name":"weburl","type":"string"},{"internalType":"uint256","name":"votedeadline","type":"uint256"},{"internalType":"uint256[]","name":"paymentamounts","type":"uint256[]"},{"internalType":"uint256[]","name":"payschedule","type":"uint256[]"}],"name":"submitProjectProposal","outputs":[{"internalType":"uint256","name":"","type":"uint256"}],"stateMutability":"nonpayable","type":"function"},{"inputs":[{"internalType":"string","name":"weburl","type":"string"},{"internalType":"uint256","name":"surveydeadline","type":"uint256"},{"internalType":"uint256","name":"numchoices","type":"uint256"},{"internalType":"uint256","name":"atmostchoices","type":"uint256"}],"name":"submitSurvey","outputs":[{"internalType":"uint256","name":"","type":"uint256"}],"stateMutability":"nonpayable","type":"function"},{"inputs":[{"internalType":"uint256","name":"","type":"uint256"}],"name":"surveys","outputs":[{"internalType":"string","name":"weburl","type":"string"},{"internalType":"uint256","name":"surveydeadline","type":"uint256"},{"internalType":"uint256","name":"numchoices","type":"uint256"},{"internalType":"uint256","name":"atmostchoices","type":"uint256"},{"internalType":"address","name":"owner","type":"address"},{"internalType":"uint256","name":"takerCount","type":"uint256"}],"stateMutability":"view","type":"function"},{"inputs":[],"name":"symbol","outputs":[{"internalType":"string","name":"","type":"string"}],"stateMutability":"view","type":"function"},{"inputs":[{"internalType":"uint256","name":"surveyid","type":"uint256"},{"internalType":"uint256[]","name":"choices","type":"uint256[]"}],"name":"takeSurvey","outputs":[],"stateMutability":"nonpayable","type":"function"},{"inputs":[],"name":"tlToken","outputs":[{"internalType":"contract ITLToken","name":"","type":"address"}],"stateMutability":"view","type":"function"},{"inputs":[],"name":"totalSupply","outputs":[{"internalType":"uint256","name":"","type":"uint256"}],"stateMutability":"view","type":"function"},{"inputs":[{"internalType":"address","name":"to","type":"address"},{"internalType":"uint256","name":"amount","type":"uint256"}],"name":"transfer","outputs":[{"internalType":"bool","name":"","type":"bool"}],"stateMutability":"nonpayable","type":"function"},{"inputs":[{"internalType":"address","name":"from","type":"address"},{"internalType":"address","name":"to","type":"address"},{"internalType":"uint256","name":"value","type":"uint256"}],"name":"transferFrom","outputs":[{"internalType":"bool","name":"","type":"bool"}],"stateMutability":"nonpayable","type":"function"},{"inputs":[{"internalType":"address","name":"newOwner","type":"address"}],"name":"transferOwnership","outputs":[],"stateMutability":"nonpayable","type":"function"},{"inputs":[{"internalType":"uint256","name":"projectid","type":"uint256"},{"internalType":"bool","name":"choice","type":"bool"}],"name":"voteForProjectPayment","outputs":[],"stateMutability":"nonpayable","type":"function"},{"inputs":[{"internalType":"uint256","name":"projectid","type":"uint256"},{"internalType":"bool","name":"choice","type":"bool"}],"name":"voteForProjectProposal","outputs":[],"stateMutability":"nonpayable","type":"function"},{"inputs":[{"internalType":"uint256","name":"projectid","type":"uint256"}],"name":"withdrawProjectTLPayment","outputs":[],"stateMutability":"nonpayable","type":"function"}],"evm":{"bytecode":{"linkReferences":{},"object":"60806040523480156200001157600080fd5b5060405162003945380380620039458339810160408190526200003491620002cb565b336040518060400160405280600581526020016426bca3b7bb60d91b8152506040518060400160405280600481526020016326a3a7ab60e11b8152508160039081620000819190620003a2565b506004620000908282620003a2565b5050506001600160a01b038116620000c357604051631e4fbdf760e01b8152600060048201526024015b60405180910390fd5b620000ce8162000108565b50600680546001600160a01b0319166001600160a01b03831617905562000101306a084595161401484a0000006200015a565b5062000496565b600580546001600160a01b038381166001600160a01b0319831681179093556040519116919082907f8be0079c531659141344cd1fd0a4f28419497f9722a3daafe3b4186f6b6457e090600090a35050565b6001600160a01b038216620001865760405163ec442f0560e01b815260006004820152602401620000ba565b620001946000838362000198565b5050565b6001600160a01b038316620001c7578060026000828254620001bb91906200046e565b909155506200023b9050565b6001600160a01b038316600090815260208190526040902054818110156200021c5760405163391434e360e21b81526001600160a01b03851660048201526024810182905260448101839052606401620000ba565b6001600160a01b03841660009081526020819052604090209082900390555b6001600160a01b038216620002595760028054829003905562000278565b6001600160a01b03821660009081526020819052604090208054820190555b816001600160a01b0316836001600160a01b03167fddf252ad1be2c89b69c2b068fc378daa952ba7f163c4a11628f55a4df523b3ef83604051620002be91815260200190565b60405180910390a3505050565b600060208284031215620002de57600080fd5b81516001600160a01b0381168114620002f657600080fd5b9392505050565b634e487b7160e01b600052604160045260246000fd5b600181811c908216806200032857607f821691505b6020821081036200034957634e487b7160e01b600052602260045260246000fd5b50919050565b601f8211156200039d57600081815260208120601f850160051c81016020861015620003785750805b601f850160051c820191505b81811015620003995782815560010162000384565b5050505b505050565b81516001600160401b03811115620003be57620003be620002fd565b620003d681620003cf845462000313565b846200034f565b602080601f8311600181146200040e5760008415620003f55750858301515b600019600386901b1c1916600185901b17855562000399565b600085815260208120601f198616915b828110156200043f578886015182559484019460019091019084016200041e565b50858210156200045e5787850151600019600388901b60f8161c191681555b5050505050600190811b01905550565b808201808211156200049057634e487b7160e01b600052601160045260246000fd5b92915050565b61349f80620004a66000396000f3fe608060405234801561001057600080fd5b506004361061028a5760003560e01c806373cbccba1161015c578063a230c524116100ce578063dd62ed3e11610087578063dd62ed3e1461065a578063de5f72fd14610693578063ef269ae31461069b578063f22449ba146106ae578063f2fde38b146106c1578063fabf5968146106d457600080fd5b8063a230c524146105e3578063a5e898e114610606578063a9059cbb14610619578063b70e36ce1461062c578063bd2757641461063f578063bf50556d1461065257600080fd5b806389903dc71161012057806389903dc71461056e5780638da5cb5b1461059157806392256aec146105a257806395d89b41146105b5578063a0b75d8c146105bd578063a1669b32146105d057600080fd5b806373cbccba146104d85780637c405164146104f8578063853cc4b61461050b57806386e68b901461051e578063875b50761461054357600080fd5b806339c94d2d11610200578063619aa727116101b9578063619aa727146104635780636632fa1814610476578063702798df1461048957806370a082311461049c57806370a56c73146104af578063715018a6146104d057600080fd5b806339c94d2d146103c457806342caaeb4146103d957806343859632146103ec57806355f3985b1461041a578063579b5a47146104485780635d801b371461045b57600080fd5b806318160ddd1161025257806318160ddd1461035d57806323b872dd1461036557806323fd498b146103785780632e8f341314610380578063313ce567146103a357806332cb6b0c146103b257600080fd5b8063013cf08b1461028f57806306fdde03146102be578063076ef625146102d3578063095ea7b31461030c5780630eab64091461032f575b600080fd5b6102a261029d366004612cbd565b6106f7565b6040516102b59796959493929190612d1c565b60405180910390f35b6102c66107e1565b6040516102b59190612d69565b6102fe6102e1366004612d98565b600b60209081526000928352604080842090915290825290205481565b6040519081526020016102b5565b61031f61031a366004612dc4565b610873565b60405190151581526020016102b5565b61031f61033d366004612d98565b600e60209081526000928352604080842090915290825290205460ff1681565b6002546102fe565b61031f610373366004612dee565b61088d565b6009546102fe565b61039361038e366004612cbd565b6108b1565b6040516102b59493929190612e2a565b604051601281526020016102b5565b6102fe6a084595161401484a00000081565b6103d76103d2366004612cbd565b610a49565b005b6103d76103e7366004612e67565b610b22565b61031f6103fa366004612d98565b600a60209081526000928352604080842090915290825290205460ff1681565b61031f610428366004612d98565b600c60209081526000928352604080842090915290825290205460ff1681565b6102fe610456366004612cbd565b610d63565b6008546102fe565b61031f610471366004612e97565b610dde565b6102fe610484366004612cbd565b610dfc565b6103d7610497366004612efe565b610e6a565b6102fe6104aa366004612e97565b61102e565b6104c26104bd366004612cbd565b611049565b6040516102b5929190612f85565b6103d76110f1565b6102fe6104e6366004612cbd565b600d6020526000908152604090205481565b61031f610506366004612cbd565b611105565b6103d7610519366004612cbd565b611137565b61053161052c366004612cbd565b61141c565b6040516102b596959493929190612fa6565b610556610551366004612cbd565b6114fb565b6040516001600160a01b0390911681526020016102b5565b61031f61057c366004612e97565b60076020526000908152604090205460ff1681565b6005546001600160a01b0316610556565b6105566105b0366004612cbd565b611533565b6102c661156b565b600654610556906001600160a01b031681565b6103d76105de366004612dc4565b61157a565b61031f6105f1366004612e97565b600f6020526000908152604090205460ff1681565b6102fe61061436600461302d565b6116dc565b61031f610627366004612dc4565b611aac565b6103d761063a366004612cbd565b611b55565b6103d761064d366004612cbd565b611c26565b6102fe611e6c565b6102fe6106683660046130d1565b6001600160a01b03918216600090815260016020908152604080832093909416825291909152205490565b6103d7611ecd565b6102fe6106a93660046130fb565b611f66565b6103d76106bc366004612e67565b6122b0565b6103d76106cf366004612e97565b6124fc565b6106e76106e2366004612cbd565b612537565b6040516102b59493929190613155565b6009818154811061070757600080fd5b906000526020600020906009020160009150905080600001805461072a9061319f565b80601f01602080910402602001604051908101604052809291908181526020018280546107569061319f565b80156107a35780601f10610778576101008083540402835291602001916107a3565b820191906000526020600020905b81548152906001019060200180831161078657829003601f168201915b50505060018401546004850154600586015460068701546007880154600890980154969793966001600160a01b03909316955090935060ff16919087565b6060600380546107f09061319f565b80601f016020809104026020016040519081016040528092919081815260200182805461081c9061319f565b80156108695780601f1061083e57610100808354040283529160200191610869565b820191906000526020600020905b81548152906001019060200180831161084c57829003601f168201915b5050505050905090565b600033610881818585612728565b60019150505b92915050565b60003361089b858285612735565b6108a68585856127b4565b506001949350505050565b6060600080600080600886815481106108cc576108cc6131d3565b90600052602060002090600702016040518060e00160405290816000820180546108f59061319f565b80601f01602080910402602001604051908101604052809291908181526020018280546109219061319f565b801561096e5780601f106109435761010080835404028352916020019161096e565b820191906000526020600020905b81548152906001019060200180831161095157829003601f168201915b505050505081526020016001820154815260200160028201548152602001600382015481526020016004820160009054906101000a90046001600160a01b03166001600160a01b03166001600160a01b0316815260200160058201805480602002602001604051908101604052809291908181526020018280548015610a1357602002820191906000526020600020905b8154815260200190600101908083116109ff575b50505091835250506006919091015460209182015281519082015160408301516060909301519199909850919650945092505050565b80610a533361102e565b1015610ab25760405162461bcd60e51b815260206004820152602360248201527f4e6f7420656e6f756768204d474f5620746f6b656e7320666f7220646f6e617460448201526234b7b760e91b60648201526084015b60405180910390fd5b610abc3382612813565b15610ad95760405162461bcd60e51b8152600401610aa9906131e9565b670de0b6b3a764000081610aec3361102e565b610af69190613298565b1015610b1457336000908152600f60205260409020805460ff191690555b610b1f3330836127b4565b50565b610b2b33610dde565b610b6f5760405162461bcd60e51b81526020600482015260156024820152744f6e6c79206d656d626572732063616e20766f746560581b6044820152606401610aa9565b6000828152600e6020908152604080832033845290915290205460ff1615610bd95760405162461bcd60e51b815260206004820152601e60248201527f416c726561647920766f74656420666f722074686973207061796d656e7400006044820152606401610aa9565b60098281548110610bec57610bec6131d3565b9060005260206000209060090201600101544210610c1c5760405162461bcd60e51b8152600401610aa9906132ab565b60098281548110610c2f57610c2f6131d3565b600091825260209091206006600990920201015460ff16610c875760405162461bcd60e51b8152602060048201526012602482015271141c9bda9958dd081b9bdd08199d5b99195960721b6044820152606401610aa9565b60098281548110610c9a57610c9a6131d3565b90600052602060002090600902016003018054905060098381548110610cc257610cc26131d3565b90600052602060002090600902016008015410610d155760405162461bcd60e51b8152602060048201526011602482015270416c6c207061796d656e7473206d61646560781b6044820152606401610aa9565b6000828152600e602090815260408083203384529091529020805460ff191660011790558015610d5f576000828152600d60205260408120805491610d59836132cc565b91905055505b5050565b60008060098381548110610d7957610d796131d3565b9060005260206000209060090201905060005b8160080154811015610dd757816002018181548110610dad57610dad6131d3565b906000526020600020015483610dc391906132e5565b925080610dcf816132cc565b915050610d8c565b5050919050565b6001600160a01b03166000908152600f602052604090205460ff1690565b60008060098381548110610e1257610e126131d3565b906000526020600020906009020190508060030180549050816008015410610e3e575060001992915050565b80600301816008015481548110610e5757610e576131d3565b9060005260206000200154915050919050565b610e7333610dde565b610ebf5760405162461bcd60e51b815260206004820152601d60248201527f4f6e6c79206d656d626572732063616e2074616b6520737572766579730000006044820152606401610aa9565b600060088481548110610ed457610ed46131d3565b9060005260206000209060070201905080600101544210610f075760405162461bcd60e51b8152600401610aa9906132ab565b6003810154821115610f4e5760405162461bcd60e51b815260206004820152601060248201526f546f6f206d616e792063686f6963657360801b6044820152606401610aa9565b60005b82811015611010578160020154848483818110610f7057610f706131d3565b9050602002013510610fb55760405162461bcd60e51b815260206004820152600e60248201526d496e76616c69642063686f69636560901b6044820152606401610aa9565b81600501848483818110610fcb57610fcb6131d3565b9050602002013581548110610fe257610fe26131d3565b60009182526020822001805491610ff8836132cc565b91905055508080611008906132cc565b915050610f51565b50600681018054906000611023836132cc565b919050555050505050565b6001600160a01b031660009081526020819052604090205490565b6000606060088381548110611060576110606131d3565b90600052602060002090600702016006015460088481548110611085576110856131d3565b9060005260206000209060070201600501808054806020026020016040519081016040528092919081815260200182805480156110e157602002820191906000526020600020905b8154815260200190600101908083116110cd575b5050505050905091509150915091565b6110f9612968565b6111036000612995565b565b60006009828154811061111a5761111a6131d3565b600091825260209091206006600990920201015460ff1692915050565b60006009828154811061114c5761114c6131d3565b60009182526020909120600990910201600681015490915060ff16801561117f575060048101546001600160a01b031633145b6111ba5760405162461bcd60e51b815260206004820152600c60248201526b155b985d5d1a1bdc9a5e995960a21b6044820152606401610aa9565b60038101546008820154106111fc5760405162461bcd60e51b8152602060048201526008602482015267105b1b081c185a5960c21b6044820152606401610aa9565b80600301816008015481548110611215576112156131d3565b9060005260206000200154816007015461122f91906132e5565b42101561126c5760405162461bcd60e51b815260206004820152600b60248201526a139bdd08191d59481e595d60aa1b6044820152606401610aa9565b6112746129e7565b6000838152600d602052604090205461128e9060646132f8565b10156112dc5760405162461bcd60e51b815260206004820152601c60248201527f4e6f7420656e6f75676820766f74657320666f72207061796d656e74000000006044820152606401610aa9565b600654600482015460088301546002840180546001600160a01b039485169463a9059cbb941692908110611312576113126131d3565b6000918252602090912001546040516001600160e01b031960e085901b1681526001600160a01b03909216600483015260248201526044016020604051808303816000875af1158015611369573d6000803e3d6000fd5b505050506040513d601f19601f8201168201806040525081019061138d919061330f565b506008810180549060006113a0836132cc565b90915550506000828152600d602052604081208190555b600954811015611417576000838152600e6020908152604080832033845290915290205460ff1615611405576000838152600e602090815260408083203384529091529020805460ff191690555b8061140f816132cc565b9150506113b7565b505050565b6008818154811061142c57600080fd5b906000526020600020906007020160009150905080600001805461144f9061319f565b80601f016020809104026020016040519081016040528092919081815260200182805461147b9061319f565b80156114c85780601f1061149d576101008083540402835291602001916114c8565b820191906000526020600020905b8154815290600101906020018083116114ab57829003601f168201915b50505050600183015460028401546003850154600486015460069096015494959294919350916001600160a01b03169086565b600060088281548110611510576115106131d3565b60009182526020909120600460079092020101546001600160a01b031692915050565b600060098281548110611548576115486131d3565b60009182526020909120600460099092020101546001600160a01b031692915050565b6060600480546107f09061319f565b6000818152600a6020908152604080832033845290915290205460ff16156115d45760405162461bcd60e51b815260206004820152600d60248201526c105b1c9958591e481d9bdd1959609a1b6044820152606401610aa9565b6000818152600c6020908152604080832033845290915290205460ff16156116325760405162461bcd60e51b8152602060048201526011602482015270105b1c9958591e4819195b1959d85d1959607a1b6044820152606401610aa9565b61163b82610dde565b6116915760405162461bcd60e51b815260206004820152602160248201527f596f752063616e6e6f742064656c656761746520746f206e6f6e2d6d656d62656044820152603960f91b6064820152608401610aa9565b6000818152600c602090815260408083203384528252808320805460ff19166001179055838352600b82528083206001600160a01b03861684529091528120805491610d59836132cc565b60006116e733610dde565b6117455760405162461bcd60e51b815260206004820152602960248201527f4f6e6c79206d656d626572732063616e207375626d69742070726f6a6563742060448201526870726f706f73616c7360b81b6064820152608401610aa9565b674563918244f400006117573361102e565b101561179e5760405162461bcd60e51b81526020600482015260166024820152750d481351d3d5881d1bdad95b9cc81c995c5d5a5c995960521b6044820152606401610aa9565b6117b033674563918244f40000612813565b156117cd5760405162461bcd60e51b8152600401610aa9906131e9565b6006546040516323b872dd60e01b815233600482015230602482015268d8d726b7177a80000060448201526001600160a01b03909116906323b872dd906064016020604051808303816000875af115801561182c573d6000803e3d6000fd5b505050506040513d601f19601f82011682018060405250810190611850919061330f565b61189c5760405162461bcd60e51b815260206004820152601860248201527f3430303020544c20746f6b656e732072657175697265642e00000000000000006044820152606401610aa9565b670de0b6b3a7640000674563918244f400006118b73361102e565b6118c19190613298565b10156118df57336000908152600f60205260409020805460ff191690555b6118f23330674563918244f400006127b4565b604080516101406020601f8b01819004028201810190925261012081018981526009928291908c908c908190850183828082843760009201919091525050509082525060208082018a905260408051898302818101840183528a82529190930192918a918a918291908501908490808284376000920191909152505050908252506040805160208781028281018201909352878252928301929091889188918291850190849080828437600092018290525093855250503360208085019190915260408401839052606084018390526080840183905260a09093018290525083546001810185559381522081519192600902019081906119f29082613390565b50602082810151600183015560408301518051611a159260028501920190612c66565b5060608201518051611a31916003840191602090910190612c66565b5060808201516004820180546001600160a01b0319166001600160a01b0390921691909117905560a0820151600582015560c082015160068201805460ff191691151591909117905560e0820151600782015561010090910151600890910155600954611aa090600190613298565b98975050505050505050565b6000611ab83383612813565b15611ad55760405162461bcd60e51b8152600401610aa9906131e9565b670de0b6b3a7640000821115611b09576001600160a01b0383166000908152600f60205260409020805460ff191660011790555b670de0b6b3a764000082611b1c3361102e565b611b269190613298565b1015611b4457336000908152600f60205260409020805460ff191690555b611b4e8383612a59565b9392505050565b6006546040516323b872dd60e01b8152336004820152306024820152604481018390526001600160a01b03909116906323b872dd906064016020604051808303816000875af1158015611bac573d6000803e3d6000fd5b505050506040513d601f19601f82011682018060405250810190611bd0919061330f565b610b1f5760405162461bcd60e51b815260206004820152602160248201527f4e6f7420656e6f75676820544c20746f6b656e7320666f7220646f6e6174696f6044820152603760f91b6064820152608401610aa9565b600060098281548110611c3b57611c3b6131d3565b6000918252602090912060099091020160048101549091506001600160a01b03163314611c965760405162461bcd60e51b81526020600482015260096024820152682737ba1037bbb732b960b91b6044820152606401610aa9565b80600101544210611cb95760405162461bcd60e51b8152600401610aa9906132ab565b600681015460ff1615611cff5760405162461bcd60e51b815260206004820152600e60248201526d105b1c9958591e48199d5b99195960921b6044820152606401610aa9565b611d076129e7565b6005820154611d1790600a6132f8565b1015611d585760405162461bcd60e51b815260206004820152601060248201526f4e6f7420656e6f75676820766f74657360801b6044820152606401610aa9565b6000805b6002830154811015611da757826002018181548110611d7d57611d7d6131d3565b906000526020600020015482611d9391906132e5565b915080611d9f816132cc565b915050611d5c565b506006546040516370a0823160e01b815230600482015282916001600160a01b0316906370a0823190602401602060405180830381865afa158015611df0573d6000803e3d6000fd5b505050506040513d601f19601f82011682018060405250810190611e149190613450565b1015611e525760405162461bcd60e51b815260206004820152600d60248201526c139bdd08195b9bdd59da081513609a1b6044820152606401610aa9565b5060068101805460ff191660011790554260079091015550565b6000805b600954811015611ec95760098181548110611e8d57611e8d6131d3565b600091825260209091206006600990920201015460ff1615611eb75781611eb3816132cc565b9250505b80611ec1816132cc565b915050611e70565b5090565b3360009081526007602052604090205460ff1615611f1f5760405162461bcd60e51b815260206004820152600f60248201526e105b1c9958591e4818db185a5b5959608a1b6044820152606401610aa9565b611f323033670de0b6b3a76400006127b4565b336000908152600f602090815260408083208054600160ff1991821681179092556007909352922080549091169091179055565b6000671bc16d674ec80000683635c9adc5dea00000611f8433610dde565b611fd05760405162461bcd60e51b815260206004820152601f60248201527f4f6e6c79206d656d626572732063616e207375626d69742073757276657973006044820152606401610aa9565b81611fda3361102e565b10156120285760405162461bcd60e51b815260206004820152601f60248201527f4174206c656173742032204d474f5620746f6b656e73207265717569726564006044820152606401610aa9565b6120323383612813565b1561204f5760405162461bcd60e51b8152600401610aa9906131e9565b6006546040516323b872dd60e01b8152336004820152306024820152604481018390526001600160a01b03909116906323b872dd906064016020604051808303816000875af11580156120a6573d6000803e3d6000fd5b505050506040513d601f19601f820116820180604052508101906120ca919061330f565b6121205760405162461bcd60e51b815260206004820152602160248201527f4174206c65617374203130303020544c20746f6b656e732072657175697265646044820152601760f91b6064820152608401610aa9565b670de0b6b3a7640000826121333361102e565b61213d9190613298565b101561215b57336000908152600f60205260409020805460ff191690555b6121663330846127b4565b604080516101006020601f8b01819004028201810190925260e081018981526008928291908c908c908190850183828082843760009201919091525050509082525060208101899052604081018890526060810187905233608082015260a0018767ffffffffffffffff8111156121df576121df61332c565b604051908082528060200260200182016040528015612208578160200160208202803683370190505b5081526000602091820181905283546001810185559381522081519192600702019081906122369082613390565b506020828101516001830155604083015160028301556060830151600383015560808301516004830180546001600160a01b0319166001600160a01b0390921691909117905560a083015180516122939260058501920190612c66565b5060c09190910151600690910155600854611aa090600190613298565b6122b933610dde565b6122fd5760405162461bcd60e51b81526020600482015260156024820152744f6e6c79206d656d626572732063616e20766f746560581b6044820152606401610aa9565b6000828152600a6020908152604080832033845290915290205460ff16158061233e57506000828152600b6020908152604080832033845290915290205415155b61238a5760405162461bcd60e51b815260206004820152601760248201527f596f752068617665206e6f20766f746573206c6566742e0000000000000000006044820152606401610aa9565b6009828154811061239d5761239d6131d3565b600091825260209091206006600990920201015460ff16156123f25760405162461bcd60e51b815260206004820152600e60248201526d105b1c9958591e48199d5b99195960921b6044820152606401610aa9565b60098281548110612405576124056131d3565b90600052602060002090600902016001015442106124355760405162461bcd60e51b8152600401610aa9906132ab565b6000828152600a6020908152604080832033845290915290205460ff1615612498576000828152600b6020908152604080832033845290915290205461247d90600190613298565b6000838152600b602090815260408083203384529091529020555b80156124d557600982815481106124b1576124b16131d3565b6000918252602082206005600990920201018054916124cf836132cc565b91905055505b506000908152600a602090815260408083203384529091529020805460ff19166001179055565b612504612968565b6001600160a01b03811661252e57604051631e4fbdf760e01b815260006004820152602401610aa9565b610b1f81612995565b60606000606080600060098681548110612553576125536131d3565b90600052602060002090600902016040518061012001604052908160008201805461257d9061319f565b80601f01602080910402602001604051908101604052809291908181526020018280546125a99061319f565b80156125f65780601f106125cb576101008083540402835291602001916125f6565b820191906000526020600020905b8154815290600101906020018083116125d957829003601f168201915b50505050508152602001600182015481526020016002820180548060200260200160405190810160405280929190818152602001828054801561265857602002820191906000526020600020905b815481526020019060010190808311612644575b50505050508152602001600382018054806020026020016040519081016040528092919081815260200182805480156126b057602002820191906000526020600020905b81548152602001906001019080831161269c575b505050918352505060048201546001600160a01b03166020808301919091526005830154604080840191909152600684015460ff1615156060808501919091526007850154608085015260089094015460a0909301929092528351908401519184015193909201519199909850919650945092505050565b6114178383836001612a67565b6001600160a01b038381166000908152600160209081526040808320938616835292905220546000198110156127ae578181101561279f57604051637dc7a0d960e11b81526001600160a01b03841660048201526024810182905260448101839052606401610aa9565b6127ae84848484036000612a67565b50505050565b6001600160a01b0383166127de57604051634b637e8f60e11b815260006004820152602401610aa9565b6001600160a01b0382166128085760405163ec442f0560e01b815260006004820152602401610aa9565b611417838383612b3c565b60008080805b6009548110156128985760098181548110612836576128366131d3565b9060005260206000209060090201600101544210801561287857506000818152600a602090815260408083206001600160a01b038a16845290915290205460ff165b156128865760019250612898565b80612890816132cc565b915050612819565b5060005b60095481101561291b57600981815481106128b9576128b96131d3565b906000526020600020906009020160010154421080156128fb57506000818152600c602090815260408083206001600160a01b038a16845290915290205460ff165b15612909576001915061291b565b80612913816132cc565b91505061289c565b5060006129278661102e565b905060006129358683613298565b905080158015612949575083806129495750825b1561295b576001945050505050610887565b5060009695505050505050565b6005546001600160a01b031633146111035760405163118cdaa760e01b8152336004820152602401610aa9565b600580546001600160a01b038381166001600160a01b0319831681179093556040519116919082907f8be0079c531659141344cd1fd0a4f28419497f9722a3daafe3b4186f6b6457e090600090a35050565b600080805b600854811015612a5357612a2e60088281548110612a0c57612a0c6131d3565b60009182526020909120600460079092020101546001600160a01b0316610dde565b15612a415781612a3d816132cc565b9250505b80612a4b816132cc565b9150506129ec565b50919050565b6000336108818185856127b4565b6001600160a01b038416612a915760405163e602df0560e01b815260006004820152602401610aa9565b6001600160a01b038316612abb57604051634a1406b160e11b815260006004820152602401610aa9565b6001600160a01b03808516600090815260016020908152604080832093871683529290522082905580156127ae57826001600160a01b0316846001600160a01b03167f8c5be1e5ebec7d5bd14f71427d1e84f3dd0314c0f7b2291e5b200ac8c7c3b92584604051612b2e91815260200190565b60405180910390a350505050565b6001600160a01b038316612b67578060026000828254612b5c91906132e5565b90915550612bd99050565b6001600160a01b03831660009081526020819052604090205481811015612bba5760405163391434e360e21b81526001600160a01b03851660048201526024810182905260448101839052606401610aa9565b6001600160a01b03841660009081526020819052604090209082900390555b6001600160a01b038216612bf557600280548290039055612c14565b6001600160a01b03821660009081526020819052604090208054820190555b816001600160a01b0316836001600160a01b03167fddf252ad1be2c89b69c2b068fc378daa952ba7f163c4a11628f55a4df523b3ef83604051612c5991815260200190565b60405180910390a3505050565b828054828255906000526020600020908101928215612ca1579160200282015b82811115612ca1578251825591602001919060010190612c86565b50611ec99291505b80821115611ec95760008155600101612ca9565b600060208284031215612ccf57600080fd5b5035919050565b6000815180845260005b81811015612cfc57602081850181015186830182015201612ce0565b506000602082860101526020601f19601f83011685010191505092915050565b60e081526000612d2f60e083018a612cd6565b6020830198909852506001600160a01b039590951660408601526060850193909352901515608084015260a083015260c090910152919050565b602081526000611b4e6020830184612cd6565b80356001600160a01b0381168114612d9357600080fd5b919050565b60008060408385031215612dab57600080fd5b82359150612dbb60208401612d7c565b90509250929050565b60008060408385031215612dd757600080fd5b612de083612d7c565b946020939093013593505050565b600080600060608486031215612e0357600080fd5b612e0c84612d7c565b9250612e1a60208501612d7c565b9150604084013590509250925092565b608081526000612e3d6080830187612cd6565b6020830195909552506040810192909252606090910152919050565b8015158114610b1f57600080fd5b60008060408385031215612e7a57600080fd5b823591506020830135612e8c81612e59565b809150509250929050565b600060208284031215612ea957600080fd5b611b4e82612d7c565b60008083601f840112612ec457600080fd5b50813567ffffffffffffffff811115612edc57600080fd5b6020830191508360208260051b8501011115612ef757600080fd5b9250929050565b600080600060408486031215612f1357600080fd5b83359250602084013567ffffffffffffffff811115612f3157600080fd5b612f3d86828701612eb2565b9497909650939450505050565b600081518084526020808501945080840160005b83811015612f7a57815187529582019590820190600101612f5e565b509495945050505050565b828152604060208201526000612f9e6040830184612f4a565b949350505050565b60c081526000612fb960c0830189612cd6565b602083019790975250604081019490945260608401929092526001600160a01b0316608083015260a090910152919050565b60008083601f840112612ffd57600080fd5b50813567ffffffffffffffff81111561301557600080fd5b602083019150836020828501011115612ef757600080fd5b60008060008060008060006080888a03121561304857600080fd5b873567ffffffffffffffff8082111561306057600080fd5b61306c8b838c01612feb565b909950975060208a0135965060408a013591508082111561308c57600080fd5b6130988b838c01612eb2565b909650945060608a01359150808211156130b157600080fd5b506130be8a828b01612eb2565b989b979a50959850939692959293505050565b600080604083850312156130e457600080fd5b6130ed83612d7c565b9150612dbb60208401612d7c565b60008060008060006080868803121561311357600080fd5b853567ffffffffffffffff81111561312a57600080fd5b61313688828901612feb565b9099909850602088013597604081013597506060013595509350505050565b6080815260006131686080830187612cd6565b85602084015282810360408401526131808186612f4a565b905082810360608401526131948185612f4a565b979650505050505050565b600181811c908216806131b357607f821691505b602082108103612a5357634e487b7160e01b600052602260045260246000fd5b634e487b7160e01b600052603260045260246000fd5b6020808252606d908201527f53696e63652074686973207472616e7366657220656e647320796f7572206d6560408201527f6d626572736869702064756520746f2062616c616e636520616e6420796f752060608201527f6861766520756e66696e697368656420766f74696e672c2070726f636573732060808201526c34b99031b0b731b2b63632b21760991b60a082015260c00190565b634e487b7160e01b600052601160045260246000fd5b8181038181111561088757610887613282565b602080825260079082015266115e1c1a5c995960ca1b604082015260600190565b6000600182016132de576132de613282565b5060010190565b8082018082111561088757610887613282565b808202811582820484141761088757610887613282565b60006020828403121561332157600080fd5b8151611b4e81612e59565b634e487b7160e01b600052604160045260246000fd5b601f82111561141757600081815260208120601f850160051c810160208610156133695750805b601f850160051c820191505b8181101561338857828155600101613375565b505050505050565b815167ffffffffffffffff8111156133aa576133aa61332c565b6133be816133b8845461319f565b84613342565b602080601f8311600181146133f357600084156133db5750858301515b600019600386901b1c1916600185901b178555613388565b600085815260208120601f198616915b8281101561342257888601518255948401946001909101908401613403565b50858210156134405787850151600019600388901b60f8161c191681555b5050505050600190811b01905550565b60006020828403121561346257600080fd5b505191905056fea2646970667358221220fddaa3e9fee7264a75a2e2ddb9bce12157afe3eb0e6ed3a25e226bbd4a80955e64736f6c63430008140033","opcodes":"PUSH1 0x80 PUSH1 0x40 MSTORE CALLVALUE DUP1 ISZERO PUSH3 0x11 JUMPI PUSH1 0x0 DUP1 REVERT JUMPDEST POP PUSH1 0x40 MLOAD PUSH3 0x3945 CODESIZE SUB DUP1 PUSH3 0x3945 DUP4 CODECOPY DUP2 ADD PUSH1 0x40 DUP2 SWAP1 MSTORE PUSH3 0x34 SWAP2 PUSH3 0x2CB JUMP JUMPDEST CALLER PUSH1 0x40 MLOAD DUP1 PUSH1 0x40 ADD PUSH1 0x40 MSTORE DUP1 PUSH1 0x5 DUP2 MSTORE PUSH1 0x20 ADD PUSH5 0x26BCA3B7BB PUSH1 0xD9 SHL DUP2 MSTORE POP PUSH1 0x40 MLOAD DUP1 PUSH1 0x40 ADD PUSH1 0x40 MSTORE DUP1 PUSH1 0x4 DUP2 MSTORE PUSH1 0x20 ADD PUSH4 0x26A3A7AB PUSH1 0xE1 SHL DUP2 MSTORE POP DUP2 PUSH1 0x3 SWAP1 DUP2 PUSH3 0x81 SWAP2 SWAP1 PUSH3 0x3A2 JUMP JUMPDEST POP PUSH1 0x4 PUSH3 0x90 DUP3 DUP3 PUSH3 0x3A2 JUMP JUMPDEST POP POP POP PUSH1 0x1 PUSH1 0x1 PUSH1 0xA0 SHL SUB DUP2 AND PUSH3 0xC3 JUMPI PUSH1 0x40 MLOAD PUSH4 0x1E4FBDF7 PUSH1 0xE0 SHL DUP2 MSTORE PUSH1 0x0 PUSH1 0x4 DUP3 ADD MSTORE PUSH1 0x24 ADD JUMPDEST PUSH1 0x40 MLOAD DUP1 SWAP2 SUB SWAP1 REVERT JUMPDEST PUSH3 0xCE DUP2 PUSH3 0x108 JUMP JUMPDEST POP PUSH1 0x6 DUP1 SLOAD PUSH1 0x1 PUSH1 0x1 PUSH1 0xA0 SHL SUB NOT AND PUSH1 0x1 PUSH1 0x1 PUSH1 0xA0 SHL SUB DUP4 AND OR SWAP1 SSTORE PUSH3 0x101 ADDRESS PUSH11 0x84595161401484A000000 PUSH3 0x15A JUMP JUMPDEST POP PUSH3 0x496 JUMP JUMPDEST PUSH1 0x5 DUP1 SLOAD PUSH1 0x1 PUSH1 0x1 PUSH1 0xA0 SHL SUB DUP4 DUP2 AND PUSH1 0x1 PUSH1 0x1 PUSH1 0xA0 SHL SUB NOT DUP4 AND DUP2 OR SWAP1 SWAP4 SSTORE PUSH1 0x40 MLOAD SWAP2 AND SWAP2 SWAP1 DUP3 SWAP1 PUSH32 0x8BE0079C531659141344CD1FD0A4F28419497F9722A3DAAFE3B4186F6B6457E0 SWAP1 PUSH1 0x0 SWAP1 LOG3 POP POP JUMP JUMPDEST PUSH1 0x1 PUSH1 0x1 PUSH1 0xA0 SHL SUB DUP3 AND PUSH3 0x186 JUMPI PUSH1 0x40 MLOAD PUSH4 0xEC442F05 PUSH1 0xE0 SHL DUP2 MSTORE PUSH1 0x0 PUSH1 0x4 DUP3 ADD MSTORE PUSH1 0x24 ADD PUSH3 0xBA JUMP JUMPDEST PUSH3 0x194 PUSH1 0x0 DUP4 DUP4 PUSH3 0x198 JUMP JUMPDEST POP POP JUMP JUMPDEST PUSH1 0x1 PUSH1 0x1 PUSH1 0xA0 SHL SUB DUP4 AND PUSH3 0x1C7 JUMPI DUP1 PUSH1 0x2 PUSH1 0x0 DUP3 DUP3 SLOAD PUSH3 0x1BB SWAP2 SWAP1 PUSH3 0x46E JUMP JUMPDEST SWAP1 SWAP2 SSTORE POP PUSH3 0x23B SWAP1 POP JUMP JUMPDEST PUSH1 0x1 PUSH1 0x1 PUSH1 0xA0 SHL SUB DUP4 AND PUSH1 0x0 SWAP1 DUP2 MSTORE PUSH1 0x20 DUP2 SWAP1 MSTORE PUSH1 0x40 SWAP1 KECCAK256 SLOAD DUP2 DUP2 LT ISZERO PUSH3 0x21C JUMPI PUSH1 0x40 MLOAD PUSH4 0x391434E3 PUSH1 0xE2 SHL DUP2 MSTORE PUSH1 0x1 PUSH1 0x1 PUSH1 0xA0 SHL SUB DUP6 AND PUSH1 0x4 DUP3 ADD MSTORE PUSH1 0x24 DUP2 ADD DUP3 SWAP1 MSTORE PUSH1 0x44 DUP2 ADD DUP4 SWAP1 MSTORE PUSH1 0x64 ADD PUSH3 0xBA JUMP JUMPDEST PUSH1 0x1 PUSH1 0x1 PUSH1 0xA0 SHL SUB DUP5 AND PUSH1 0x0 SWAP1 DUP2 MSTORE PUSH1 0x20 DUP2 SWAP1 MSTORE PUSH1 0x40 SWAP1 KECCAK256 SWAP1 DUP3 SWAP1 SUB SWAP1 SSTORE JUMPDEST PUSH1 0x1 PUSH1 0x1 PUSH1 0xA0 SHL SUB DUP3 AND PUSH3 0x259 JUMPI PUSH1 0x2 DUP1 SLOAD DUP3 SWAP1 SUB SWAP1 SSTORE PUSH3 0x278 JUMP JUMPDEST PUSH1 0x1 PUSH1 0x1 PUSH1 0xA0 SHL SUB DUP3 AND PUSH1 0x0 SWAP1 DUP2 MSTORE PUSH1 0x20 DUP2 SWAP1 MSTORE PUSH1 0x40 SWAP1 KECCAK256 DUP1 SLOAD DUP3 ADD SWAP1 SSTORE JUMPDEST DUP2 PUSH1 0x1 PUSH1 0x1 PUSH1 0xA0 SHL SUB AND DUP4 PUSH1 0x1 PUSH1 0x1 PUSH1 0xA0 SHL SUB AND PUSH32 0xDDF252AD1BE2C89B69C2B068FC378DAA952BA7F163C4A11628F55A4DF523B3EF DUP4 PUSH1 0x40 MLOAD PUSH3 0x2BE SWAP2 DUP2 MSTORE PUSH1 0x20 ADD SWAP1 JUMP JUMPDEST PUSH1 0x40 MLOAD DUP1 SWAP2 SUB SWAP1 LOG3 POP POP POP JUMP JUMPDEST PUSH1 0x0 PUSH1 0x20 DUP3 DUP5 SUB SLT ISZERO PUSH3 0x2DE JUMPI PUSH1 0x0 DUP1 REVERT JUMPDEST DUP2 MLOAD PUSH1 0x1 PUSH1 0x1 PUSH1 0xA0 SHL SUB DUP2 AND DUP2 EQ PUSH3 0x2F6 JUMPI PUSH1 0x0 DUP1 REVERT JUMPDEST SWAP4 SWAP3 POP POP POP JUMP JUMPDEST PUSH4 0x4E487B71 PUSH1 0xE0 SHL PUSH1 0x0 MSTORE PUSH1 0x41 PUSH1 0x4 MSTORE PUSH1 0x24 PUSH1 0x0 REVERT JUMPDEST PUSH1 0x1 DUP2 DUP2 SHR SWAP1 DUP3 AND DUP1 PUSH3 0x328 JUMPI PUSH1 0x7F DUP3 AND SWAP2 POP JUMPDEST PUSH1 0x20 DUP3 LT DUP2 SUB PUSH3 0x349 JUMPI PUSH4 0x4E487B71 PUSH1 0xE0 SHL PUSH1 0x0 MSTORE PUSH1 0x22 PUSH1 0x4 MSTORE PUSH1 0x24 PUSH1 0x0 REVERT JUMPDEST POP SWAP2 SWAP1 POP JUMP JUMPDEST PUSH1 0x1F DUP3 GT ISZERO PUSH3 0x39D JUMPI PUSH1 0x0 DUP2 DUP2 MSTORE PUSH1 0x20 DUP2 KECCAK256 PUSH1 0x1F DUP6 ADD PUSH1 0x5 SHR DUP2 ADD PUSH1 0x20 DUP7 LT ISZERO PUSH3 0x378 JUMPI POP DUP1 JUMPDEST PUSH1 0x1F DUP6 ADD PUSH1 0x5 SHR DUP3 ADD SWAP2 POP JUMPDEST DUP2 DUP2 LT ISZERO PUSH3 0x399 JUMPI DUP3 DUP2 SSTORE PUSH1 0x1 ADD PUSH3 0x384 JUMP JUMPDEST POP POP POP JUMPDEST POP POP POP JUMP JUMPDEST DUP2 MLOAD PUSH1 0x1 PUSH1 0x1 PUSH1 0x40 SHL SUB DUP2 GT ISZERO PUSH3 0x3BE JUMPI PUSH3 0x3BE PUSH3 0x2FD JUMP JUMPDEST PUSH3 0x3D6 DUP2 PUSH3 0x3CF DUP5 SLOAD PUSH3 0x313 JUMP JUMPDEST DUP5 PUSH3 0x34F JUMP JUMPDEST PUSH1 0x20 DUP1 PUSH1 0x1F DUP4 GT PUSH1 0x1 DUP2 EQ PUSH3 0x40E JUMPI PUSH1 0x0 DUP5 ISZERO PUSH3 0x3F5 JUMPI POP DUP6 DUP4 ADD MLOAD JUMPDEST PUSH1 0x0 NOT PUSH1 0x3 DUP7 SWAP1 SHL SHR NOT AND PUSH1 0x1 DUP6 SWAP1 SHL OR DUP6 SSTORE PUSH3 0x399 JUMP JUMPDEST PUSH1 0x0 DUP6 DUP2 MSTORE PUSH1 0x20 DUP2 KECCAK256 PUSH1 0x1F NOT DUP7 AND SWAP2 JUMPDEST DUP3 DUP2 LT ISZERO PUSH3 0x43F JUMPI DUP9 DUP7 ADD MLOAD DUP3 SSTORE SWAP5 DUP5 ADD SWAP5 PUSH1 0x1 SWAP1 SWAP2 ADD SWAP1 DUP5 ADD PUSH3 0x41E JUMP JUMPDEST POP DUP6 DUP3 LT ISZERO PUSH3 0x45E JUMPI DUP8 DUP6 ADD MLOAD PUSH1 0x0 NOT PUSH1 0x3 DUP9 SWAP1 SHL PUSH1 0xF8 AND SHR NOT AND DUP2 SSTORE JUMPDEST POP POP POP POP POP PUSH1 0x1 SWAP1 DUP2 SHL ADD SWAP1 SSTORE POP JUMP JUMPDEST DUP1 DUP3 ADD DUP1 DUP3 GT ISZERO PUSH3 0x490 JUMPI PUSH4 0x4E487B71 PUSH1 0xE0 SHL PUSH1 0x0 MSTORE PUSH1 0x11 PUSH1 0x4 MSTORE PUSH1 0x24 PUSH1 0x0 REVERT JUMPDEST SWAP3 SWAP2 POP POP JUMP JUMPDEST PUSH2 0x349F DUP1 PUSH3 0x4A6 PUSH1 0x0 CODECOPY PUSH1 0x0 RETURN INVALID PUSH1 0x80 PUSH1 0x40 MSTORE CALLVALUE DUP1 ISZERO PUSH2 0x10 JUMPI PUSH1 0x0 DUP1 REVERT JUMPDEST POP PUSH1 0x4 CALLDATASIZE LT PUSH2 0x28A JUMPI PUSH1 0x0 CALLDATALOAD PUSH1 0xE0 SHR DUP1 PUSH4 0x73CBCCBA GT PUSH2 0x15C JUMPI DUP1 PUSH4 0xA230C524 GT PUSH2 0xCE JUMPI DUP1 PUSH4 0xDD62ED3E GT PUSH2 0x87 JUMPI DUP1 PUSH4 0xDD62ED3E EQ PUSH2 0x65A JUMPI DUP1 PUSH4 0xDE5F72FD EQ PUSH2 0x693 JUMPI DUP1 PUSH4 0xEF269AE3 EQ PUSH2 0x69B JUMPI DUP1 PUSH4 0xF22449BA EQ PUSH2 0x6AE JUMPI DUP1 PUSH4 0xF2FDE38B EQ PUSH2 0x6C1 JUMPI DUP1 PUSH4 0xFABF5968 EQ PUSH2 0x6D4 JUMPI PUSH1 0x0 DUP1 REVERT JUMPDEST DUP1 PUSH4 0xA230C524 EQ PUSH2 0x5E3 JUMPI DUP1 PUSH4 0xA5E898E1 EQ PUSH2 0x606 JUMPI DUP1 PUSH4 0xA9059CBB EQ PUSH2 0x619 JUMPI DUP1 PUSH4 0xB70E36CE EQ PUSH2 0x62C JUMPI DUP1 PUSH4 0xBD275764 EQ PUSH2 0x63F JUMPI DUP1 PUSH4 0xBF50556D EQ PUSH2 0x652 JUMPI PUSH1 0x0 DUP1 REVERT JUMPDEST DUP1 PUSH4 0x89903DC7 GT PUSH2 0x120 JUMPI DUP1 PUSH4 0x89903DC7 EQ PUSH2 0x56E JUMPI DUP1 PUSH4 0x8DA5CB5B EQ PUSH2 0x591 JUMPI DUP1 PUSH4 0x92256AEC EQ PUSH2 0x5A2 JUMPI DUP1 PUSH4 0x95D89B41 EQ PUSH2 0x5B5 JUMPI DUP1 PUSH4 0xA0B75D8C EQ PUSH2 0x5BD JUMPI DUP1 PUSH4 0xA1669B32 EQ PUSH2 0x5D0 JUMPI PUSH1 0x0 DUP1 REVERT JUMPDEST DUP1 PUSH4 0x73CBCCBA EQ PUSH2 0x4D8 JUMPI DUP1 PUSH4 0x7C405164 EQ PUSH2 0x4F8 JUMPI DUP1 PUSH4 0x853CC4B6 EQ PUSH2 0x50B JUMPI DUP1 PUSH4 0x86E68B90 EQ PUSH2 0x51E JUMPI DUP1 PUSH4 0x875B5076 EQ PUSH2 0x543 JUMPI PUSH1 0x0 DUP1 REVERT JUMPDEST DUP1 PUSH4 0x39C94D2D GT PUSH2 0x200 JUMPI DUP1 PUSH4 0x619AA727 GT PUSH2 0x1B9 JUMPI DUP1 PUSH4 0x619AA727 EQ PUSH2 0x463 JUMPI DUP1 PUSH4 0x6632FA18 EQ PUSH2 0x476 JUMPI DUP1 PUSH4 0x702798DF EQ PUSH2 0x489 JUMPI DUP1 PUSH4 0x70A08231 EQ PUSH2 0x49C JUMPI DUP1 PUSH4 0x70A56C73 EQ PUSH2 0x4AF JUMPI DUP1 PUSH4 0x715018A6 EQ PUSH2 0x4D0 JUMPI PUSH1 0x0 DUP1 REVERT JUMPDEST DUP1 PUSH4 0x39C94D2D EQ PUSH2 0x3C4 JUMPI DUP1 PUSH4 0x42CAAEB4 EQ PUSH2 0x3D9 JUMPI DUP1 PUSH4 0x43859632 EQ PUSH2 0x3EC JUMPI DUP1 PUSH4 0x55F3985B EQ PUSH2 0x41A JUMPI DUP1 PUSH4 0x579B5A47 EQ PUSH2 0x448 JUMPI DUP1 PUSH4 0x5D801B37 EQ PUSH2 0x45B JUMPI PUSH1 0x0 DUP1 REVERT JUMPDEST DUP1 PUSH4 0x18160DDD GT PUSH2 0x252 JUMPI DUP1 PUSH4 0x18160DDD EQ PUSH2 0x35D JUMPI DUP1 PUSH4 0x23B872DD EQ PUSH2 0x365 JUMPI DUP1 PUSH4 0x23FD498B EQ PUSH2 0x378 JUMPI DUP1 PUSH4 0x2E8F3413 EQ PUSH2 0x380 JUMPI DUP1 PUSH4 0x313CE567 EQ PUSH2 0x3A3 JUMPI DUP1 PUSH4 0x32CB6B0C EQ PUSH2 0x3B2 JUMPI PUSH1 0x0 DUP1 REVERT JUMPDEST DUP1 PUSH4 0x13CF08B EQ PUSH2 0x28F JUMPI DUP1 PUSH4 0x6FDDE03 EQ PUSH2 0x2BE JUMPI DUP1 PUSH4 0x76EF625 EQ PUSH2 0x2D3 JUMPI DUP1 PUSH4 0x95EA7B3 EQ PUSH2 0x30C JUMPI DUP1 PUSH4 0xEAB6409 EQ PUSH2 0x32F JUMPI JUMPDEST PUSH1 0x0 DUP1 REVERT JUMPDEST PUSH2 0x2A2 PUSH2 0x29D CALLDATASIZE PUSH1 0x4 PUSH2 0x2CBD JUMP JUMPDEST PUSH2 0x6F7 JUMP JUMPDEST PUSH1 0x40 MLOAD PUSH2 0x2B5 SWAP8 SWAP7 SWAP6 SWAP5 SWAP4 SWAP3 SWAP2 SWAP1 PUSH2 0x2D1C JUMP JUMPDEST PUSH1 0x40 MLOAD DUP1 SWAP2 SUB SWAP1 RETURN JUMPDEST PUSH2 0x2C6 PUSH2 0x7E1 JUMP JUMPDEST PUSH1 0x40 MLOAD PUSH2 0x2B5 SWAP2 SWAP1 PUSH2 0x2D69 JUMP JUMPDEST PUSH2 0x2FE PUSH2 0x2E1 CALLDATASIZE PUSH1 0x4 PUSH2 0x2D98 JUMP JUMPDEST PUSH1 0xB PUSH1 0x20 SWAP1 DUP2 MSTORE PUSH1 0x0 SWAP3 DUP4 MSTORE PUSH1 0x40 DUP1 DUP5 KECCAK256 SWAP1 SWAP2 MSTORE SWAP1 DUP3 MSTORE SWAP1 KECCAK256 SLOAD DUP2 JUMP JUMPDEST PUSH1 0x40 MLOAD SWAP1 DUP2 MSTORE PUSH1 0x20 ADD PUSH2 0x2B5 JUMP JUMPDEST PUSH2 0x31F PUSH2 0x31A CALLDATASIZE PUSH1 0x4 PUSH2 0x2DC4 JUMP JUMPDEST PUSH2 0x873 JUMP JUMPDEST PUSH1 0x40 MLOAD SWAP1 ISZERO ISZERO DUP2 MSTORE PUSH1 0x20 ADD PUSH2 0x2B5 JUMP JUMPDEST PUSH2 0x31F PUSH2 0x33D CALLDATASIZE PUSH1 0x4 PUSH2 0x2D98 JUMP JUMPDEST PUSH1 0xE PUSH1 0x20 SWAP1 DUP2 MSTORE PUSH1 0x0 SWAP3 DUP4 MSTORE PUSH1 0x40 DUP1 DUP5 KECCAK256 SWAP1 SWAP2 MSTORE SWAP1 DUP3 MSTORE SWAP1 KECCAK256 SLOAD PUSH1 0xFF AND DUP2 JUMP JUMPDEST PUSH1 0x2 SLOAD PUSH2 0x2FE JUMP JUMPDEST PUSH2 0x31F PUSH2 0x373 CALLDATASIZE PUSH1 0x4 PUSH2 0x2DEE JUMP JUMPDEST PUSH2 0x88D JUMP JUMPDEST PUSH1 0x9 SLOAD PUSH2 0x2FE JUMP JUMPDEST PUSH2 0x393 PUSH2 0x38E CALLDATASIZE PUSH1 0x4 PUSH2 0x2CBD JUMP JUMPDEST PUSH2 0x8B1 JUMP JUMPDEST PUSH1 0x40 MLOAD PUSH2 0x2B5 SWAP5 SWAP4 SWAP3 SWAP2 SWAP1 PUSH2 0x2E2A JUMP JUMPDEST PUSH1 0x40 MLOAD PUSH1 0x12 DUP2 MSTORE PUSH1 0x20 ADD PUSH2 0x2B5 JUMP JUMPDEST PUSH2 0x2FE PUSH11 0x84595161401484A000000 DUP2 JUMP JUMPDEST PUSH2 0x3D7 PUSH2 0x3D2 CALLDATASIZE PUSH1 0x4 PUSH2 0x2CBD JUMP JUMPDEST PUSH2 0xA49 JUMP JUMPDEST STOP JUMPDEST PUSH2 0x3D7 PUSH2 0x3E7 CALLDATASIZE PUSH1 0x4 PUSH2 0x2E67 JUMP JUMPDEST PUSH2 0xB22 JUMP JUMPDEST PUSH2 0x31F PUSH2 0x3FA CALLDATASIZE PUSH1 0x4 PUSH2 0x2D98 JUMP JUMPDEST PUSH1 0xA PUSH1 0x20 SWAP1 DUP2 MSTORE PUSH1 0x0 SWAP3 DUP4 MSTORE PUSH1 0x40 DUP1 DUP5 KECCAK256 SWAP1 SWAP2 MSTORE SWAP1 DUP3 MSTORE SWAP1 KECCAK256 SLOAD PUSH1 0xFF AND DUP2 JUMP JUMPDEST PUSH2 0x31F PUSH2 0x428 CALLDATASIZE PUSH1 0x4 PUSH2 0x2D98 JUMP JUMPDEST PUSH1 0xC PUSH1 0x20 SWAP1 DUP2 MSTORE PUSH1 0x0 SWAP3 DUP4 MSTORE PUSH1 0x40 DUP1 DUP5 KECCAK256 SWAP1 SWAP2 MSTORE SWAP1 DUP3 MSTORE SWAP1 KECCAK256 SLOAD PUSH1 0xFF AND DUP2 JUMP JUMPDEST PUSH2 0x2FE PUSH2 0x456 CALLDATASIZE PUSH1 0x4 PUSH2 0x2CBD JUMP JUMPDEST PUSH2 0xD63 JUMP JUMPDEST PUSH1 0x8 SLOAD PUSH2 0x2FE JUMP JUMPDEST PUSH2 0x31F PUSH2 0x471 CALLDATASIZE PUSH1 0x4 PUSH2 0x2E97 JUMP JUMPDEST PUSH2 0xDDE JUMP JUMPDEST PUSH2 0x2FE PUSH2 0x484 CALLDATASIZE PUSH1 0x4 PUSH2 0x2CBD JUMP JUMPDEST PUSH2 0xDFC JUMP JUMPDEST PUSH2 0x3D7 PUSH2 0x497 CALLDATASIZE PUSH1 0x4 PUSH2 0x2EFE JUMP JUMPDEST PUSH2 0xE6A JUMP JUMPDEST PUSH2 0x2FE PUSH2 0x4AA CALLDATASIZE PUSH1 0x4 PUSH2 0x2E97 JUMP JUMPDEST PUSH2 0x102E JUMP JUMPDEST PUSH2 0x4C2 PUSH2 0x4BD CALLDATASIZE PUSH1 0x4 PUSH2 0x2CBD JUMP JUMPDEST PUSH2 0x1049 JUMP JUMPDEST PUSH1 0x40 MLOAD PUSH2 0x2B5 SWAP3 SWAP2 SWAP1 PUSH2 0x2F85 JUMP JUMPDEST PUSH2 0x3D7 PUSH2 0x10F1 JUMP JUMPDEST PUSH2 0x2FE PUSH2 0x4E6 CALLDATASIZE PUSH1 0x4 PUSH2 0x2CBD JUMP JUMPDEST PUSH1 0xD PUSH1 0x20 MSTORE PUSH1 0x0 SWAP1 DUP2 MSTORE PUSH1 0x40 SWAP1 KECCAK256 SLOAD DUP2 JUMP JUMPDEST PUSH2 0x31F PUSH2 0x506 CALLDATASIZE PUSH1 0x4 PUSH2 0x2CBD JUMP JUMPDEST PUSH2 0x1105 JUMP JUMPDEST PUSH2 0x3D7 PUSH2 0x519 CALLDATASIZE PUSH1 0x4 PUSH2 0x2CBD JUMP JUMPDEST PUSH2 0x1137 JUMP JUMPDEST PUSH2 0x531 PUSH2 0x52C CALLDATASIZE PUSH1 0x4 PUSH2 0x2CBD JUMP JUMPDEST PUSH2 0x141C JUMP JUMPDEST PUSH1 0x40 MLOAD PUSH2 0x2B5 SWAP7 SWAP6 SWAP5 SWAP4 SWAP3 SWAP2 SWAP1 PUSH2 0x2FA6 JUMP JUMPDEST PUSH2 0x556 PUSH2 0x551 CALLDATASIZE PUSH1 0x4 PUSH2 0x2CBD JUMP JUMPDEST PUSH2 0x14FB JUMP JUMPDEST PUSH1 0x40 MLOAD PUSH1 0x1 PUSH1 0x1 PUSH1 0xA0 SHL SUB SWAP1 SWAP2 AND DUP2 MSTORE PUSH1 0x20 ADD PUSH2 0x2B5 JUMP JUMPDEST PUSH2 0x31F PUSH2 0x57C CALLDATASIZE PUSH1 0x4 PUSH2 0x2E97 JUMP JUMPDEST PUSH1 0x7 PUSH1 0x20 MSTORE PUSH1 0x0 SWAP1 DUP2 MSTORE PUSH1 0x40 SWAP1 KECCAK256 SLOAD PUSH1 0xFF AND DUP2 JUMP JUMPDEST PUSH1 0x5 SLOAD PUSH1 0x1 PUSH1 0x1 PUSH1 0xA0 SHL SUB AND PUSH2 0x556 JUMP JUMPDEST PUSH2 0x556 PUSH2 0x5B0 CALLDATASIZE PUSH1 0x4 PUSH2 0x2CBD JUMP JUMPDEST PUSH2 0x1533 JUMP JUMPDEST PUSH2 0x2C6 PUSH2 0x156B JUMP JUMPDEST PUSH1 0x6 SLOAD PUSH2 0x556 SWAP1 PUSH1 0x1 PUSH1 0x1 PUSH1 0xA0 SHL SUB AND DUP2 JUMP JUMPDEST PUSH2 0x3D7 PUSH2 0x5DE CALLDATASIZE PUSH1 0x4 PUSH2 0x2DC4 JUMP JUMPDEST PUSH2 0x157A JUMP JUMPDEST PUSH2 0x31F PUSH2 0x5F1 CALLDATASIZE PUSH1 0x4 PUSH2 0x2E97 JUMP JUMPDEST PUSH1 0xF PUSH1 0x20 MSTORE PUSH1 0x0 SWAP1 DUP2 MSTORE PUSH1 0x40 SWAP1 KECCAK256 SLOAD PUSH1 0xFF AND DUP2 JUMP JUMPDEST PUSH2 0x2FE PUSH2 0x614 CALLDATASIZE PUSH1 0x4 PUSH2 0x302D JUMP JUMPDEST PUSH2 0x16DC JUMP JUMPDEST PUSH2 0x31F PUSH2 0x627 CALLDATASIZE PUSH1 0x4 PUSH2 0x2DC4 JUMP JUMPDEST PUSH2 0x1AAC JUMP JUMPDEST PUSH2 0x3D7 PUSH2 0x63A CALLDATASIZE PUSH1 0x4 PUSH2 0x2CBD JUMP JUMPDEST PUSH2 0x1B55 JUMP JUMPDEST PUSH2 0x3D7 PUSH2 0x64D CALLDATASIZE PUSH1 0x4 PUSH2 0x2CBD JUMP JUMPDEST PUSH2 0x1C26 JUMP JUMPDEST PUSH2 0x2FE PUSH2 0x1E6C JUMP JUMPDEST PUSH2 0x2FE PUSH2 0x668 CALLDATASIZE PUSH1 0x4 PUSH2 0x30D1 JUMP JUMPDEST PUSH1 0x1 PUSH1 0x1 PUSH1 0xA0 SHL SUB SWAP2 DUP3 AND PUSH1 0x0 SWAP1 DUP2 MSTORE PUSH1 0x1 PUSH1 0x20 SWAP1 DUP2 MSTORE PUSH1 0x40 DUP1 DUP4 KECCAK256 SWAP4 SWAP1 SWAP5 AND DUP3 MSTORE SWAP2 SWAP1 SWAP2 MSTORE KECCAK256 SLOAD SWAP1 JUMP JUMPDEST PUSH2 0x3D7 PUSH2 0x1ECD JUMP JUMPDEST PUSH2 0x2FE PUSH2 0x6A9 CALLDATASIZE PUSH1 0x4 PUSH2 0x30FB JUMP JUMPDEST PUSH2 0x1F66 JUMP JUMPDEST PUSH2 0x3D7 PUSH2 0x6BC CALLDATASIZE PUSH1 0x4 PUSH2 0x2E67 JUMP JUMPDEST PUSH2 0x22B0 JUMP JUMPDEST PUSH2 0x3D7 PUSH2 0x6CF CALLDATASIZE PUSH1 0x4 PUSH2 0x2E97 JUMP JUMPDEST PUSH2 0x24FC JUMP JUMPDEST PUSH2 0x6E7 PUSH2 0x6E2 CALLDATASIZE PUSH1 0x4 PUSH2 0x2CBD JUMP JUMPDEST PUSH2 0x2537 JUMP JUMPDEST PUSH1 0x40 MLOAD PUSH2 0x2B5 SWAP5 SWAP4 SWAP3 SWAP2 SWAP1 PUSH2 0x3155 JUMP JUMPDEST PUSH1 0x9 DUP2 DUP2 SLOAD DUP2 LT PUSH2 0x707 JUMPI PUSH1 0x0 DUP1 REVERT JUMPDEST SWAP1 PUSH1 0x0 MSTORE PUSH1 0x20 PUSH1 0x0 KECCAK256 SWAP1 PUSH1 0x9 MUL ADD PUSH1 0x0 SWAP2 POP SWAP1 POP DUP1 PUSH1 0x0 ADD DUP1 SLOAD PUSH2 0x72A SWAP1 PUSH2 0x319F JUMP JUMPDEST DUP1 PUSH1 0x1F ADD PUSH1 0x20 DUP1 SWAP2 DIV MUL PUSH1 0x20 ADD PUSH1 0x40 MLOAD SWAP1 DUP2 ADD PUSH1 0x40 MSTORE DUP1 SWAP3 SWAP2 SWAP1 DUP2 DUP2 MSTORE PUSH1 0x20 ADD DUP3 DUP1 SLOAD PUSH2 0x756 SWAP1 PUSH2 0x319F JUMP JUMPDEST DUP1 ISZERO PUSH2 0x7A3 JUMPI DUP1 PUSH1 0x1F LT PUSH2 0x778 JUMPI PUSH2 0x100 DUP1 DUP4 SLOAD DIV MUL DUP4 MSTORE SWAP2 PUSH1 0x20 ADD SWAP2 PUSH2 0x7A3 JUMP JUMPDEST DUP3 ADD SWAP2 SWAP1 PUSH1 0x0 MSTORE PUSH1 0x20 PUSH1 0x0 KECCAK256 SWAP1 JUMPDEST DUP2 SLOAD DUP2 MSTORE SWAP1 PUSH1 0x1 ADD SWAP1 PUSH1 0x20 ADD DUP1 DUP4 GT PUSH2 0x786 JUMPI DUP3 SWAP1 SUB PUSH1 0x1F AND DUP3 ADD SWAP2 JUMPDEST POP POP POP PUSH1 0x1 DUP5 ADD SLOAD PUSH1 0x4 DUP6 ADD SLOAD PUSH1 0x5 DUP7 ADD SLOAD PUSH1 0x6 DUP8 ADD SLOAD PUSH1 0x7 DUP9 ADD SLOAD PUSH1 0x8 SWAP1 SWAP9 ADD SLOAD SWAP7 SWAP8 SWAP4 SWAP7 PUSH1 0x1 PUSH1 0x1 PUSH1 0xA0 SHL SUB SWAP1 SWAP4 AND SWAP6 POP SWAP1 SWAP4 POP PUSH1 0xFF AND SWAP2 SWAP1 DUP8 JUMP JUMPDEST PUSH1 0x60 PUSH1 0x3 DUP1 SLOAD PUSH2 0x7F0 SWAP1 PUSH2 0x319F JUMP JUMPDEST DUP1 PUSH1 0x1F ADD PUSH1 0x20 DUP1 SWAP2 DIV MUL PUSH1 0x20 ADD PUSH1 0x40 MLOAD SWAP1 DUP2 ADD PUSH1 0x40 MSTORE DUP1 SWAP3 SWAP2 SWAP1 DUP2 DUP2 MSTORE PUSH1 0x20 ADD DUP3 DUP1 SLOAD PUSH2 0x81C SWAP1 PUSH2 0x319F JUMP JUMPDEST DUP1 ISZERO PUSH2 0x869 JUMPI DUP1 PUSH1 0x1F LT PUSH2 0x83E JUMPI PUSH2 0x100 DUP1 DUP4 SLOAD DIV MUL DUP4 MSTORE SWAP2 PUSH1 0x20 ADD SWAP2 PUSH2 0x869 JUMP JUMPDEST DUP3 ADD SWAP2 SWAP1 PUSH1 0x0 MSTORE PUSH1 0x20 PUSH1 0x0 KECCAK256 SWAP1 JUMPDEST DUP2 SLOAD DUP2 MSTORE SWAP1 PUSH1 0x1 ADD SWAP1 PUSH1 0x20 ADD DUP1 DUP4 GT PUSH2 0x84C JUMPI DUP3 SWAP1 SUB PUSH1 0x1F AND DUP3 ADD SWAP2 JUMPDEST POP POP POP POP POP SWAP1 POP SWAP1 JUMP JUMPDEST PUSH1 0x0 CALLER PUSH2 0x881 DUP2 DUP6 DUP6 PUSH2 0x2728 JUMP JUMPDEST PUSH1 0x1 SWAP2 POP POP JUMPDEST SWAP3 SWAP2 POP POP JUMP JUMPDEST PUSH1 0x0 CALLER PUSH2 0x89B DUP6 DUP3 DUP6 PUSH2 0x2735 JUMP JUMPDEST PUSH2 0x8A6 DUP6 DUP6 DUP6 PUSH2 0x27B4 JUMP JUMPDEST POP PUSH1 0x1 SWAP5 SWAP4 POP POP POP POP JUMP JUMPDEST PUSH1 0x60 PUSH1 0x0 DUP1 PUSH1 0x0 DUP1 PUSH1 0x8 DUP7 DUP2 SLOAD DUP2 LT PUSH2 0x8CC JUMPI PUSH2 0x8CC PUSH2 0x31D3 JUMP JUMPDEST SWAP1 PUSH1 0x0 MSTORE PUSH1 0x20 PUSH1 0x0 KECCAK256 SWAP1 PUSH1 0x7 MUL ADD PUSH1 0x40 MLOAD DUP1 PUSH1 0xE0 ADD PUSH1 0x40 MSTORE SWAP1 DUP2 PUSH1 0x0 DUP3 ADD DUP1 SLOAD PUSH2 0x8F5 SWAP1 PUSH2 0x319F JUMP JUMPDEST DUP1 PUSH1 0x1F ADD PUSH1 0x20 DUP1 SWAP2 DIV MUL PUSH1 0x20 ADD PUSH1 0x40 MLOAD SWAP1 DUP2 ADD PUSH1 0x40 MSTORE DUP1 SWAP3 SWAP2 SWAP1 DUP2 DUP2 MSTORE PUSH1 0x20 ADD DUP3 DUP1 SLOAD PUSH2 0x921 SWAP1 PUSH2 0x319F JUMP JUMPDEST DUP1 ISZERO PUSH2 0x96E JUMPI DUP1 PUSH1 0x1F LT PUSH2 0x943 JUMPI PUSH2 0x100 DUP1 DUP4 SLOAD DIV MUL DUP4 MSTORE SWAP2 PUSH1 0x20 ADD SWAP2 PUSH2 0x96E JUMP JUMPDEST DUP3 ADD SWAP2 SWAP1 PUSH1 0x0 MSTORE PUSH1 0x20 PUSH1 0x0 KECCAK256 SWAP1 JUMPDEST DUP2 SLOAD DUP2 MSTORE SWAP1 PUSH1 0x1 ADD SWAP1 PUSH1 0x20 ADD DUP1 DUP4 GT PUSH2 0x951 JUMPI DUP3 SWAP1 SUB PUSH1 0x1F AND DUP3 ADD SWAP2 JUMPDEST POP POP POP POP POP DUP2 MSTORE PUSH1 0x20 ADD PUSH1 0x1 DUP3 ADD SLOAD DUP2 MSTORE PUSH1 0x20 ADD PUSH1 0x2 DUP3 ADD SLOAD DUP2 MSTORE PUSH1 0x20 ADD PUSH1 0x3 DUP3 ADD SLOAD DUP2 MSTORE PUSH1 0x20 ADD PUSH1 0x4 DUP3 ADD PUSH1 0x0 SWAP1 SLOAD SWAP1 PUSH2 0x100 EXP SWAP1 DIV PUSH1 0x1 PUSH1 0x1 PUSH1 0xA0 SHL SUB AND PUSH1 0x1 PUSH1 0x1 PUSH1 0xA0 SHL SUB AND PUSH1 0x1 PUSH1 0x1 PUSH1 0xA0 SHL SUB AND DUP2 MSTORE PUSH1 0x20 ADD PUSH1 0x5 DUP3 ADD DUP1 SLOAD DUP1 PUSH1 0x20 MUL PUSH1 0x20 ADD PUSH1 0x40 MLOAD SWAP1 DUP2 ADD PUSH1 0x40 MSTORE DUP1 SWAP3 SWAP2 SWAP1 DUP2 DUP2 MSTORE PUSH1 0x20 ADD DUP3 DUP1 SLOAD DUP1 ISZERO PUSH2 0xA13 JUMPI PUSH1 0x20 MUL DUP3 ADD SWAP2 SWAP1 PUSH1 0x0 MSTORE PUSH1 0x20 PUSH1 0x0 KECCAK256 SWAP1 JUMPDEST DUP2 SLOAD DUP2 MSTORE PUSH1 0x20 ADD SWAP1 PUSH1 0x1 ADD SWAP1 DUP1 DUP4 GT PUSH2 0x9FF JUMPI JUMPDEST POP POP POP SWAP2 DUP4 MSTORE POP POP PUSH1 0x6 SWAP2 SWAP1 SWAP2 ADD SLOAD PUSH1 0x20 SWAP2 DUP3 ADD MSTORE DUP2 MLOAD SWAP1 DUP3 ADD MLOAD PUSH1 0x40 DUP4 ADD MLOAD PUSH1 0x60 SWAP1 SWAP4 ADD MLOAD SWAP2 SWAP10 SWAP1 SWAP9 POP SWAP2 SWAP7 POP SWAP5 POP SWAP3 POP POP POP JUMP JUMPDEST DUP1 PUSH2 0xA53 CALLER PUSH2 0x102E JUMP JUMPDEST LT ISZERO PUSH2 0xAB2 JUMPI PUSH1 0x40 MLOAD PUSH3 0x461BCD PUSH1 0xE5 SHL DUP2 MSTORE PUSH1 0x20 PUSH1 0x4 DUP3 ADD MSTORE PUSH1 0x23 PUSH1 0x24 DUP3 ADD MSTORE PUSH32 0x4E6F7420656E6F756768204D474F5620746F6B656E7320666F7220646F6E6174 PUSH1 0x44 DUP3 ADD MSTORE PUSH3 0x34B7B7 PUSH1 0xE9 SHL PUSH1 0x64 DUP3 ADD MSTORE PUSH1 0x84 ADD JUMPDEST PUSH1 0x40 MLOAD DUP1 SWAP2 SUB SWAP1 REVERT JUMPDEST PUSH2 0xABC CALLER DUP3 PUSH2 0x2813 JUMP JUMPDEST ISZERO PUSH2 0xAD9 JUMPI PUSH1 0x40 MLOAD PUSH3 0x461BCD PUSH1 0xE5 SHL DUP2 MSTORE PUSH1 0x4 ADD PUSH2 0xAA9 SWAP1 PUSH2 0x31E9 JUMP JUMPDEST PUSH8 0xDE0B6B3A7640000 DUP2 PUSH2 0xAEC CALLER PUSH2 0x102E JUMP JUMPDEST PUSH2 0xAF6 SWAP2 SWAP1 PUSH2 0x3298 JUMP JUMPDEST LT ISZERO PUSH2 0xB14 JUMPI CALLER PUSH1 0x0 SWAP1 DUP2 MSTORE PUSH1 0xF PUSH1 0x20 MSTORE PUSH1 0x40 SWAP1 KECCAK256 DUP1 SLOAD PUSH1 0xFF NOT AND SWAP1 SSTORE JUMPDEST PUSH2 0xB1F CALLER ADDRESS DUP4 PUSH2 0x27B4 JUMP JUMPDEST POP JUMP JUMPDEST PUSH2 0xB2B CALLER PUSH2 0xDDE JUMP JUMPDEST PUSH2 0xB6F JUMPI PUSH1 0x40 MLOAD PUSH3 0x461BCD PUSH1 0xE5 SHL DUP2 MSTORE PUSH1 0x20 PUSH1 0x4 DUP3 ADD MSTORE PUSH1 0x15 PUSH1 0x24 DUP3 ADD MSTORE PUSH21 0x4F6E6C79206D656D626572732063616E20766F7465 PUSH1 0x58 SHL PUSH1 0x44 DUP3 ADD MSTORE PUSH1 0x64 ADD PUSH2 0xAA9 JUMP JUMPDEST PUSH1 0x0 DUP3 DUP2 MSTORE PUSH1 0xE PUSH1 0x20 SWAP1 DUP2 MSTORE PUSH1 0x40 DUP1 DUP4 KECCAK256 CALLER DUP5 MSTORE SWAP1 SWAP2 MSTORE SWAP1 KECCAK256 SLOAD PUSH1 0xFF AND ISZERO PUSH2 0xBD9 JUMPI PUSH1 0x40 MLOAD PUSH3 0x461BCD PUSH1 0xE5 SHL DUP2 MSTORE PUSH1 0x20 PUSH1 0x4 DUP3 ADD MSTORE PUSH1 0x1E PUSH1 0x24 DUP3 ADD MSTORE PUSH32 0x416C726561647920766F74656420666F722074686973207061796D656E740000 PUSH1 0x44 DUP3 ADD MSTORE PUSH1 0x64 ADD PUSH2 0xAA9 JUMP JUMPDEST PUSH1 0x9 DUP3 DUP2 SLOAD DUP2 LT PUSH2 0xBEC JUMPI PUSH2 0xBEC PUSH2 0x31D3 JUMP JUMPDEST SWAP1 PUSH1 0x0 MSTORE PUSH1 0x20 PUSH1 0x0 KECCAK256 SWAP1 PUSH1 0x9 MUL ADD PUSH1 0x1 ADD SLOAD TIMESTAMP LT PUSH2 0xC1C JUMPI PUSH1 0x40 MLOAD PUSH3 0x461BCD PUSH1 0xE5 SHL DUP2 MSTORE PUSH1 0x4 ADD PUSH2 0xAA9 SWAP1 PUSH2 0x32AB JUMP JUMPDEST PUSH1 0x9 DUP3 DUP2 SLOAD DUP2 LT PUSH2 0xC2F JUMPI PUSH2 0xC2F PUSH2 0x31D3 JUMP JUMPDEST PUSH1 0x0 SWAP2 DUP3 MSTORE PUSH1 0x20 SWAP1 SWAP2 KECCAK256 PUSH1 0x6 PUSH1 0x9 SWAP1 SWAP3 MUL ADD ADD SLOAD PUSH1 0xFF AND PUSH2 0xC87 JUMPI PUSH1 0x40 MLOAD PUSH3 0x461BCD PUSH1 0xE5 SHL DUP2 MSTORE PUSH1 0x20 PUSH1 0x4 DUP3 ADD MSTORE PUSH1 0x12 PUSH1 0x24 DUP3 ADD MSTORE PUSH18 0x141C9BDA9958DD081B9BDD08199D5B991959 PUSH1 0x72 SHL PUSH1 0x44 DUP3 ADD MSTORE PUSH1 0x64 ADD PUSH2 0xAA9 JUMP JUMPDEST PUSH1 0x9 DUP3 DUP2 SLOAD DUP2 LT PUSH2 0xC9A JUMPI PUSH2 0xC9A PUSH2 0x31D3 JUMP JUMPDEST SWAP1 PUSH1 0x0 MSTORE PUSH1 0x20 PUSH1 0x0 KECCAK256 SWAP1 PUSH1 0x9 MUL ADD PUSH1 0x3 ADD DUP1 SLOAD SWAP1 POP PUSH1 0x9 DUP4 DUP2 SLOAD DUP2 LT PUSH2 0xCC2 JUMPI PUSH2 0xCC2 PUSH2 0x31D3 JUMP JUMPDEST SWAP1 PUSH1 0x0 MSTORE PUSH1 0x20 PUSH1 0x0 KECCAK256 SWAP1 PUSH1 0x9 MUL ADD PUSH1 0x8 ADD SLOAD LT PUSH2 0xD15 JUMPI PUSH1 0x40 MLOAD PUSH3 0x461BCD PUSH1 0xE5 SHL DUP2 MSTORE PUSH1 0x20 PUSH1 0x4 DUP3 ADD MSTORE PUSH1 0x11 PUSH1 0x24 DUP3 ADD MSTORE PUSH17 0x416C6C207061796D656E7473206D616465 PUSH1 0x78 SHL PUSH1 0x44 DUP3 ADD MSTORE PUSH1 0x64 ADD PUSH2 0xAA9 JUMP JUMPDEST PUSH1 0x0 DUP3 DUP2 MSTORE PUSH1 0xE PUSH1 0x20 SWAP1 DUP2 MSTORE PUSH1 0x40 DUP1 DUP4 KECCAK256 CALLER DUP5 MSTORE SWAP1 SWAP2 MSTORE SWAP1 KECCAK256 DUP1 SLOAD PUSH1 0xFF NOT AND PUSH1 0x1 OR SWAP1 SSTORE DUP1 ISZERO PUSH2 0xD5F JUMPI PUSH1 0x0 DUP3 DUP2 MSTORE PUSH1 0xD PUSH1 0x20 MSTORE PUSH1 0x40 DUP2 KECCAK256 DUP1 SLOAD SWAP2 PUSH2 0xD59 DUP4 PUSH2 0x32CC JUMP JUMPDEST SWAP2 SWAP1 POP SSTORE POP JUMPDEST POP POP JUMP JUMPDEST PUSH1 0x0 DUP1 PUSH1 0x9 DUP4 DUP2 SLOAD DUP2 LT PUSH2 0xD79 JUMPI PUSH2 0xD79 PUSH2 0x31D3 JUMP JUMPDEST SWAP1 PUSH1 0x0 MSTORE PUSH1 0x20 PUSH1 0x0 KECCAK256 SWAP1 PUSH1 0x9 MUL ADD SWAP1 POP PUSH1 0x0 JUMPDEST DUP2 PUSH1 0x8 ADD SLOAD DUP2 LT ISZERO PUSH2 0xDD7 JUMPI DUP2 PUSH1 0x2 ADD DUP2 DUP2 SLOAD DUP2 LT PUSH2 0xDAD JUMPI PUSH2 0xDAD PUSH2 0x31D3 JUMP JUMPDEST SWAP1 PUSH1 0x0 MSTORE PUSH1 0x20 PUSH1 0x0 KECCAK256 ADD SLOAD DUP4 PUSH2 0xDC3 SWAP2 SWAP1 PUSH2 0x32E5 JUMP JUMPDEST SWAP3 POP DUP1 PUSH2 0xDCF DUP2 PUSH2 0x32CC JUMP JUMPDEST SWAP2 POP POP PUSH2 0xD8C JUMP JUMPDEST POP POP SWAP2 SWAP1 POP JUMP JUMPDEST PUSH1 0x1 PUSH1 0x1 PUSH1 0xA0 SHL SUB AND PUSH1 0x0 SWAP1 DUP2 MSTORE PUSH1 0xF PUSH1 0x20 MSTORE PUSH1 0x40 SWAP1 KECCAK256 SLOAD PUSH1 0xFF AND SWAP1 JUMP JUMPDEST PUSH1 0x0 DUP1 PUSH1 0x9 DUP4 DUP2 SLOAD DUP2 LT PUSH2 0xE12 JUMPI PUSH2 0xE12 PUSH2 0x31D3 JUMP JUMPDEST SWAP1 PUSH1 0x0 MSTORE PUSH1 0x20 PUSH1 0x0 KECCAK256 SWAP1 PUSH1 0x9 MUL ADD SWAP1 POP DUP1 PUSH1 0x3 ADD DUP1 SLOAD SWAP1 POP DUP2 PUSH1 0x8 ADD SLOAD LT PUSH2 0xE3E JUMPI POP PUSH1 0x0 NOT SWAP3 SWAP2 POP POP JUMP JUMPDEST DUP1 PUSH1 0x3 ADD DUP2 PUSH1 0x8 ADD SLOAD DUP2 SLOAD DUP2 LT PUSH2 0xE57 JUMPI PUSH2 0xE57 PUSH2 0x31D3 JUMP JUMPDEST SWAP1 PUSH1 0x0 MSTORE PUSH1 0x20 PUSH1 0x0 KECCAK256 ADD SLOAD SWAP2 POP POP SWAP2 SWAP1 POP JUMP JUMPDEST PUSH2 0xE73 CALLER PUSH2 0xDDE JUMP JUMPDEST PUSH2 0xEBF JUMPI PUSH1 0x40 MLOAD PUSH3 0x461BCD PUSH1 0xE5 SHL DUP2 MSTORE PUSH1 0x20 PUSH1 0x4 DUP3 ADD MSTORE PUSH1 0x1D PUSH1 0x24 DUP3 ADD MSTORE PUSH32 0x4F6E6C79206D656D626572732063616E2074616B652073757276657973000000 PUSH1 0x44 DUP3 ADD MSTORE PUSH1 0x64 ADD PUSH2 0xAA9 JUMP JUMPDEST PUSH1 0x0 PUSH1 0x8 DUP5 DUP2 SLOAD DUP2 LT PUSH2 0xED4 JUMPI PUSH2 0xED4 PUSH2 0x31D3 JUMP JUMPDEST SWAP1 PUSH1 0x0 MSTORE PUSH1 0x20 PUSH1 0x0 KECCAK256 SWAP1 PUSH1 0x7 MUL ADD SWAP1 POP DUP1 PUSH1 0x1 ADD SLOAD TIMESTAMP LT PUSH2 0xF07 JUMPI PUSH1 0x40 MLOAD PUSH3 0x461BCD PUSH1 0xE5 SHL DUP2 MSTORE PUSH1 0x4 ADD PUSH2 0xAA9 SWAP1 PUSH2 0x32AB JUMP JUMPDEST PUSH1 0x3 DUP2 ADD SLOAD DUP3 GT ISZERO PUSH2 0xF4E JUMPI PUSH1 0x40 MLOAD PUSH3 0x461BCD PUSH1 0xE5 SHL DUP2 MSTORE PUSH1 0x20 PUSH1 0x4 DUP3 ADD MSTORE PUSH1 0x10 PUSH1 0x24 DUP3 ADD MSTORE PUSH16 0x546F6F206D616E792063686F69636573 PUSH1 0x80 SHL PUSH1 0x44 DUP3 ADD MSTORE PUSH1 0x64 ADD PUSH2 0xAA9 JUMP JUMPDEST PUSH1 0x0 JUMPDEST DUP3 DUP2 LT ISZERO PUSH2 0x1010 JUMPI DUP2 PUSH1 0x2 ADD SLOAD DUP5 DUP5 DUP4 DUP2 DUP2 LT PUSH2 0xF70 JUMPI PUSH2 0xF70 PUSH2 0x31D3 JUMP JUMPDEST SWAP1 POP PUSH1 0x20 MUL ADD CALLDATALOAD LT PUSH2 0xFB5 JUMPI PUSH1 0x40 MLOAD PUSH3 0x461BCD PUSH1 0xE5 SHL DUP2 MSTORE PUSH1 0x20 PUSH1 0x4 DUP3 ADD MSTORE PUSH1 0xE PUSH1 0x24 DUP3 ADD MSTORE PUSH14 0x496E76616C69642063686F696365 PUSH1 0x90 SHL PUSH1 0x44 DUP3 ADD MSTORE PUSH1 0x64 ADD PUSH2 0xAA9 JUMP JUMPDEST DUP2 PUSH1 0x5 ADD DUP5 DUP5 DUP4 DUP2 DUP2 LT PUSH2 0xFCB JUMPI PUSH2 0xFCB PUSH2 0x31D3 JUMP JUMPDEST SWAP1 POP PUSH1 0x20 MUL ADD CALLDATALOAD DUP2 SLOAD DUP2 LT PUSH2 0xFE2 JUMPI PUSH2 0xFE2 PUSH2 0x31D3 JUMP JUMPDEST PUSH1 0x0 SWAP2 DUP3 MSTORE PUSH1 0x20 DUP3 KECCAK256 ADD DUP1 SLOAD SWAP2 PUSH2 0xFF8 DUP4 PUSH2 0x32CC JUMP JUMPDEST SWAP2 SWAP1 POP SSTORE POP DUP1 DUP1 PUSH2 0x1008 SWAP1 PUSH2 0x32CC JUMP JUMPDEST SWAP2 POP POP PUSH2 0xF51 JUMP JUMPDEST POP PUSH1 0x6 DUP2 ADD DUP1 SLOAD SWAP1 PUSH1 0x0 PUSH2 0x1023 DUP4 PUSH2 0x32CC JUMP JUMPDEST SWAP2 SWAP1 POP SSTORE POP POP POP POP POP JUMP JUMPDEST PUSH1 0x1 PUSH1 0x1 PUSH1 0xA0 SHL SUB AND PUSH1 0x0 SWAP1 DUP2 MSTORE PUSH1 0x20 DUP2 SWAP1 MSTORE PUSH1 0x40 SWAP1 KECCAK256 SLOAD SWAP1 JUMP JUMPDEST PUSH1 0x0 PUSH1 0x60 PUSH1 0x8 DUP4 DUP2 SLOAD DUP2 LT PUSH2 0x1060 JUMPI PUSH2 0x1060 PUSH2 0x31D3 JUMP JUMPDEST SWAP1 PUSH1 0x0 MSTORE PUSH1 0x20 PUSH1 0x0 KECCAK256 SWAP1 PUSH1 0x7 MUL ADD PUSH1 0x6 ADD SLOAD PUSH1 0x8 DUP5 DUP2 SLOAD DUP2 LT PUSH2 0x1085 JUMPI PUSH2 0x1085 PUSH2 0x31D3 JUMP JUMPDEST SWAP1 PUSH1 0x0 MSTORE PUSH1 0x20 PUSH1 0x0 KECCAK256 SWAP1 PUSH1 0x7 MUL ADD PUSH1 0x5 ADD DUP1 DUP1 SLOAD DUP1 PUSH1 0x20 MUL PUSH1 0x20 ADD PUSH1 0x40 MLOAD SWAP1 DUP2 ADD PUSH1 0x40 MSTORE DUP1 SWAP3 SWAP2 SWAP1 DUP2 DUP2 MSTORE PUSH1 0x20 ADD DUP3 DUP1 SLOAD DUP1 ISZERO PUSH2 0x10E1 JUMPI PUSH1 0x20 MUL DUP3 ADD SWAP2 SWAP1 PUSH1 0x0 MSTORE PUSH1 0x20 PUSH1 0x0 KECCAK256 SWAP1 JUMPDEST DUP2 SLOAD DUP2 MSTORE PUSH1 0x20 ADD SWAP1 PUSH1 0x1 ADD SWAP1 DUP1 DUP4 GT PUSH2 0x10CD JUMPI JUMPDEST POP POP POP POP POP SWAP1 POP SWAP2 POP SWAP2 POP SWAP2 POP SWAP2 JUMP JUMPDEST PUSH2 0x10F9 PUSH2 0x2968 JUMP JUMPDEST PUSH2 0x1103 PUSH1 0x0 PUSH2 0x2995 JUMP JUMPDEST JUMP JUMPDEST PUSH1 0x0 PUSH1 0x9 DUP3 DUP2 SLOAD DUP2 LT PUSH2 0x111A JUMPI PUSH2 0x111A PUSH2 0x31D3 JUMP JUMPDEST PUSH1 0x0 SWAP2 DUP3 MSTORE PUSH1 0x20 SWAP1 SWAP2 KECCAK256 PUSH1 0x6 PUSH1 0x9 SWAP1 SWAP3 MUL ADD ADD SLOAD PUSH1 0xFF AND SWAP3 SWAP2 POP POP JUMP JUMPDEST PUSH1 0x0 PUSH1 0x9 DUP3 DUP2 SLOAD DUP2 LT PUSH2 0x114C JUMPI PUSH2 0x114C PUSH2 0x31D3 JUMP JUMPDEST PUSH1 0x0 SWAP2 DUP3 MSTORE PUSH1 0x20 SWAP1 SWAP2 KECCAK256 PUSH1 0x9 SWAP1 SWAP2 MUL ADD PUSH1 0x6 DUP2 ADD SLOAD SWAP1 SWAP2 POP PUSH1 0xFF AND DUP1 ISZERO PUSH2 0x117F JUMPI POP PUSH1 0x4 DUP2 ADD SLOAD PUSH1 0x1 PUSH1 0x1 PUSH1 0xA0 SHL SUB AND CALLER EQ JUMPDEST PUSH2 0x11BA JUMPI PUSH1 0x40 MLOAD PUSH3 0x461BCD PUSH1 0xE5 SHL DUP2 MSTORE PUSH1 0x20 PUSH1 0x4 DUP3 ADD MSTORE PUSH1 0xC PUSH1 0x24 DUP3 ADD MSTORE PUSH12 0x155B985D5D1A1BDC9A5E9959 PUSH1 0xA2 SHL PUSH1 0x44 DUP3 ADD MSTORE PUSH1 0x64 ADD PUSH2 0xAA9 JUMP JUMPDEST PUSH1 0x3 DUP2 ADD SLOAD PUSH1 0x8 DUP3 ADD SLOAD LT PUSH2 0x11FC JUMPI PUSH1 0x40 MLOAD PUSH3 0x461BCD PUSH1 0xE5 SHL DUP2 MSTORE PUSH1 0x20 PUSH1 0x4 DUP3 ADD MSTORE PUSH1 0x8 PUSH1 0x24 DUP3 ADD MSTORE PUSH8 0x105B1B081C185A59 PUSH1 0xC2 SHL PUSH1 0x44 DUP3 ADD MSTORE PUSH1 0x64 ADD PUSH2 0xAA9 JUMP JUMPDEST DUP1 PUSH1 0x3 ADD DUP2 PUSH1 0x8 ADD SLOAD DUP2 SLOAD DUP2 LT PUSH2 0x1215 JUMPI PUSH2 0x1215 PUSH2 0x31D3 JUMP JUMPDEST SWAP1 PUSH1 0x0 MSTORE PUSH1 0x20 PUSH1 0x0 KECCAK256 ADD SLOAD DUP2 PUSH1 0x7 ADD SLOAD PUSH2 0x122F SWAP2 SWAP1 PUSH2 0x32E5 JUMP JUMPDEST TIMESTAMP LT ISZERO PUSH2 0x126C JUMPI PUSH1 0x40 MLOAD PUSH3 0x461BCD PUSH1 0xE5 SHL DUP2 MSTORE PUSH1 0x20 PUSH1 0x4 DUP3 ADD MSTORE PUSH1 0xB PUSH1 0x24 DUP3 ADD MSTORE PUSH11 0x139BDD08191D59481E595D PUSH1 0xAA SHL PUSH1 0x44 DUP3 ADD MSTORE PUSH1 0x64 ADD PUSH2 0xAA9 JUMP JUMPDEST PUSH2 0x1274 PUSH2 0x29E7 JUMP JUMPDEST PUSH1 0x0 DUP4 DUP2 MSTORE PUSH1 0xD PUSH1 0x20 MSTORE PUSH1 0x40 SWAP1 KECCAK256 SLOAD PUSH2 0x128E SWAP1 PUSH1 0x64 PUSH2 0x32F8 JUMP JUMPDEST LT ISZERO PUSH2 0x12DC JUMPI PUSH1 0x40 MLOAD PUSH3 0x461BCD PUSH1 0xE5 SHL DUP2 MSTORE PUSH1 0x20 PUSH1 0x4 DUP3 ADD MSTORE PUSH1 0x1C PUSH1 0x24 DUP3 ADD MSTORE PUSH32 0x4E6F7420656E6F75676820766F74657320666F72207061796D656E7400000000 PUSH1 0x44 DUP3 ADD MSTORE PUSH1 0x64 ADD PUSH2 0xAA9 JUMP JUMPDEST PUSH1 0x6 SLOAD PUSH1 0x4 DUP3 ADD SLOAD PUSH1 0x8 DUP4 ADD SLOAD PUSH1 0x2 DUP5 ADD DUP1 SLOAD PUSH1 0x1 PUSH1 0x1 PUSH1 0xA0 SHL SUB SWAP5 DUP6 AND SWAP5 PUSH4 0xA9059CBB SWAP5 AND SWAP3 SWAP1 DUP2 LT PUSH2 0x1312 JUMPI PUSH2 0x1312 PUSH2 0x31D3 JUMP JUMPDEST PUSH1 0x0 SWAP2 DUP3 MSTORE PUSH1 0x20 SWAP1 SWAP2 KECCAK256 ADD SLOAD PUSH1 0x40 MLOAD PUSH1 0x1 PUSH1 0x1 PUSH1 0xE0 SHL SUB NOT PUSH1 0xE0 DUP6 SWAP1 SHL AND DUP2 MSTORE PUSH1 0x1 PUSH1 0x1 PUSH1 0xA0 SHL SUB SWAP1 SWAP3 AND PUSH1 0x4 DUP4 ADD MSTORE PUSH1 0x24 DUP3 ADD MSTORE PUSH1 0x44 ADD PUSH1 0x20 PUSH1 0x40 MLOAD DUP1 DUP4 SUB DUP2 PUSH1 0x0 DUP8 GAS CALL ISZERO DUP1 ISZERO PUSH2 0x1369 JUMPI RETURNDATASIZE PUSH1 0x0 DUP1 RETURNDATACOPY RETURNDATASIZE PUSH1 0x0 REVERT JUMPDEST POP POP POP POP PUSH1 0x40 MLOAD RETURNDATASIZE PUSH1 0x1F NOT PUSH1 0x1F DUP3 ADD AND DUP3 ADD DUP1 PUSH1 0x40 MSTORE POP DUP2 ADD SWAP1 PUSH2 0x138D SWAP2 SWAP1 PUSH2 0x330F JUMP JUMPDEST POP PUSH1 0x8 DUP2 ADD DUP1 SLOAD SWAP1 PUSH1 0x0 PUSH2 0x13A0 DUP4 PUSH2 0x32CC JUMP JUMPDEST SWAP1 SWAP2 SSTORE POP POP PUSH1 0x0 DUP3 DUP2 MSTORE PUSH1 0xD PUSH1 0x20 MSTORE PUSH1 0x40 DUP2 KECCAK256 DUP2 SWAP1 SSTORE JUMPDEST PUSH1 0x9 SLOAD DUP2 LT ISZERO PUSH2 0x1417 JUMPI PUSH1 0x0 DUP4 DUP2 MSTORE PUSH1 0xE PUSH1 0x20 SWAP1 DUP2 MSTORE PUSH1 0x40 DUP1 DUP4 KECCAK256 CALLER DUP5 MSTORE SWAP1 SWAP2 MSTORE SWAP1 KECCAK256 SLOAD PUSH1 0xFF AND ISZERO PUSH2 0x1405 JUMPI PUSH1 0x0 DUP4 DUP2 MSTORE PUSH1 0xE PUSH1 0x20 SWAP1 DUP2 MSTORE PUSH1 0x40 DUP1 DUP4 KECCAK256 CALLER DUP5 MSTORE SWAP1 SWAP2 MSTORE SWAP1 KECCAK256 DUP1 SLOAD PUSH1 0xFF NOT AND SWAP1 SSTORE JUMPDEST DUP1 PUSH2 0x140F DUP2 PUSH2 0x32CC JUMP JUMPDEST SWAP2 POP POP PUSH2 0x13B7 JUMP JUMPDEST POP POP POP JUMP JUMPDEST PUSH1 0x8 DUP2 DUP2 SLOAD DUP2 LT PUSH2 0x142C JUMPI PUSH1 0x0 DUP1 REVERT JUMPDEST SWAP1 PUSH1 0x0 MSTORE PUSH1 0x20 PUSH1 0x0 KECCAK256 SWAP1 PUSH1 0x7 MUL ADD PUSH1 0x0 SWAP2 POP SWAP1 POP DUP1 PUSH1 0x0 ADD DUP1 SLOAD PUSH2 0x144F SWAP1 PUSH2 0x319F JUMP JUMPDEST DUP1 PUSH1 0x1F ADD PUSH1 0x20 DUP1 SWAP2 DIV MUL PUSH1 0x20 ADD PUSH1 0x40 MLOAD SWAP1 DUP2 ADD PUSH1 0x40 MSTORE DUP1 SWAP3 SWAP2 SWAP1 DUP2 DUP2 MSTORE PUSH1 0x20 ADD DUP3 DUP1 SLOAD PUSH2 0x147B SWAP1 PUSH2 0x319F JUMP JUMPDEST DUP1 ISZERO PUSH2 0x14C8 JUMPI DUP1 PUSH1 0x1F LT PUSH2 0x149D JUMPI PUSH2 0x100 DUP1 DUP4 SLOAD DIV MUL DUP4 MSTORE SWAP2 PUSH1 0x20 ADD SWAP2 PUSH2 0x14C8 JUMP JUMPDEST DUP3 ADD SWAP2 SWAP1 PUSH1 0x0 MSTORE PUSH1 0x20 PUSH1 0x0 KECCAK256 SWAP1 JUMPDEST DUP2 SLOAD DUP2 MSTORE SWAP1 PUSH1 0x1 ADD SWAP1 PUSH1 0x20 ADD DUP1 DUP4 GT PUSH2 0x14AB JUMPI DUP3 SWAP1 SUB PUSH1 0x1F AND DUP3 ADD SWAP2 JUMPDEST POP POP POP POP PUSH1 0x1 DUP4 ADD SLOAD PUSH1 0x2 DUP5 ADD SLOAD PUSH1 0x3 DUP6 ADD SLOAD PUSH1 0x4 DUP7 ADD SLOAD PUSH1 0x6 SWAP1 SWAP7 ADD SLOAD SWAP5 SWAP6 SWAP3 SWAP5 SWAP2 SWAP4 POP SWAP2 PUSH1 0x1 PUSH1 0x1 PUSH1 0xA0 SHL SUB AND SWAP1 DUP7 JUMP JUMPDEST PUSH1 0x0 PUSH1 0x8 DUP3 DUP2 SLOAD DUP2 LT PUSH2 0x1510 JUMPI PUSH2 0x1510 PUSH2 0x31D3 JUMP JUMPDEST PUSH1 0x0 SWAP2 DUP3 MSTORE PUSH1 0x20 SWAP1 SWAP2 KECCAK256 PUSH1 0x4 PUSH1 0x7 SWAP1 SWAP3 MUL ADD ADD SLOAD PUSH1 0x1 PUSH1 0x1 PUSH1 0xA0 SHL SUB AND SWAP3 SWAP2 POP POP JUMP JUMPDEST PUSH1 0x0 PUSH1 0x9 DUP3 DUP2 SLOAD DUP2 LT PUSH2 0x1548 JUMPI PUSH2 0x1548 PUSH2 0x31D3 JUMP JUMPDEST PUSH1 0x0 SWAP2 DUP3 MSTORE PUSH1 0x20 SWAP1 SWAP2 KECCAK256 PUSH1 0x4 PUSH1 0x9 SWAP1 SWAP3 MUL ADD ADD SLOAD PUSH1 0x1 PUSH1 0x1 PUSH1 0xA0 SHL SUB AND SWAP3 SWAP2 POP POP JUMP JUMPDEST PUSH1 0x60 PUSH1 0x4 DUP1 SLOAD PUSH2 0x7F0 SWAP1 PUSH2 0x319F JUMP JUMPDEST PUSH1 0x0 DUP2 DUP2 MSTORE PUSH1 0xA PUSH1 0x20 SWAP1 DUP2 MSTORE PUSH1 0x40 DUP1 DUP4 KECCAK256 CALLER DUP5 MSTORE SWAP1 SWAP2 MSTORE SWAP1 KECCAK256 SLOAD PUSH1 0xFF AND ISZERO PUSH2 0x15D4 JUMPI PUSH1 0x40 MLOAD PUSH3 0x461BCD PUSH1 0xE5 SHL DUP2 MSTORE PUSH1 0x20 PUSH1 0x4 DUP3 ADD MSTORE PUSH1 0xD PUSH1 0x24 DUP3 ADD MSTORE PUSH13 0x105B1C9958591E481D9BDD1959 PUSH1 0x9A SHL PUSH1 0x44 DUP3 ADD MSTORE PUSH1 0x64 ADD PUSH2 0xAA9 JUMP JUMPDEST PUSH1 0x0 DUP2 DUP2 MSTORE PUSH1 0xC PUSH1 0x20 SWAP1 DUP2 MSTORE PUSH1 0x40 DUP1 DUP4 KECCAK256 CALLER DUP5 MSTORE SWAP1 SWAP2 MSTORE SWAP1 KECCAK256 SLOAD PUSH1 0xFF AND ISZERO PUSH2 0x1632 JUMPI PUSH1 0x40 MLOAD PUSH3 0x461BCD PUSH1 0xE5 SHL DUP2 MSTORE PUSH1 0x20 PUSH1 0x4 DUP3 ADD MSTORE PUSH1 0x11 PUSH1 0x24 DUP3 ADD MSTORE PUSH17 0x105B1C9958591E4819195B1959D85D1959 PUSH1 0x7A SHL PUSH1 0x44 DUP3 ADD MSTORE PUSH1 0x64 ADD PUSH2 0xAA9 JUMP JUMPDEST PUSH2 0x163B DUP3 PUSH2 0xDDE JUMP JUMPDEST PUSH2 0x1691 JUMPI PUSH1 0x40 MLOAD PUSH3 0x461BCD PUSH1 0xE5 SHL DUP2 MSTORE PUSH1 0x20 PUSH1 0x4 DUP3 ADD MSTORE PUSH1 0x21 PUSH1 0x24 DUP3 ADD MSTORE PUSH32 0x596F752063616E6E6F742064656C656761746520746F206E6F6E2D6D656D6265 PUSH1 0x44 DUP3 ADD MSTORE PUSH1 0x39 PUSH1 0xF9 SHL PUSH1 0x64 DUP3 ADD MSTORE PUSH1 0x84 ADD PUSH2 0xAA9 JUMP JUMPDEST PUSH1 0x0 DUP2 DUP2 MSTORE PUSH1 0xC PUSH1 0x20 SWAP1 DUP2 MSTORE PUSH1 0x40 DUP1 DUP4 KECCAK256 CALLER DUP5 MSTORE DUP3 MSTORE DUP1 DUP4 KECCAK256 DUP1 SLOAD PUSH1 0xFF NOT AND PUSH1 0x1 OR SWAP1 SSTORE DUP4 DUP4 MSTORE PUSH1 0xB DUP3 MSTORE DUP1 DUP4 KECCAK256 PUSH1 0x1 PUSH1 0x1 PUSH1 0xA0 SHL SUB DUP7 AND DUP5 MSTORE SWAP1 SWAP2 MSTORE DUP2 KECCAK256 DUP1 SLOAD SWAP2 PUSH2 0xD59 DUP4 PUSH2 0x32CC JUMP JUMPDEST PUSH1 0x0 PUSH2 0x16E7 CALLER PUSH2 0xDDE JUMP JUMPDEST PUSH2 0x1745 JUMPI PUSH1 0x40 MLOAD PUSH3 0x461BCD PUSH1 0xE5 SHL DUP2 MSTORE PUSH1 0x20 PUSH1 0x4 DUP3 ADD MSTORE PUSH1 0x29 PUSH1 0x24 DUP3 ADD MSTORE PUSH32 0x4F6E6C79206D656D626572732063616E207375626D69742070726F6A65637420 PUSH1 0x44 DUP3 ADD MSTORE PUSH9 0x70726F706F73616C73 PUSH1 0xB8 SHL PUSH1 0x64 DUP3 ADD MSTORE PUSH1 0x84 ADD PUSH2 0xAA9 JUMP JUMPDEST PUSH8 0x4563918244F40000 PUSH2 0x1757 CALLER PUSH2 0x102E JUMP JUMPDEST LT ISZERO PUSH2 0x179E JUMPI PUSH1 0x40 MLOAD PUSH3 0x461BCD PUSH1 0xE5 SHL DUP2 MSTORE PUSH1 0x20 PUSH1 0x4 DUP3 ADD MSTORE PUSH1 0x16 PUSH1 0x24 DUP3 ADD MSTORE PUSH22 0xD481351D3D5881D1BDAD95B9CC81C995C5D5A5C9959 PUSH1 0x52 SHL PUSH1 0x44 DUP3 ADD MSTORE PUSH1 0x64 ADD PUSH2 0xAA9 JUMP JUMPDEST PUSH2 0x17B0 CALLER PUSH8 0x4563918244F40000 PUSH2 0x2813 JUMP JUMPDEST ISZERO PUSH2 0x17CD JUMPI PUSH1 0x40 MLOAD PUSH3 0x461BCD PUSH1 0xE5 SHL DUP2 MSTORE PUSH1 0x4 ADD PUSH2 0xAA9 SWAP1 PUSH2 0x31E9 JUMP JUMPDEST PUSH1 0x6 SLOAD PUSH1 0x40 MLOAD PUSH4 0x23B872DD PUSH1 0xE0 SHL DUP2 MSTORE CALLER PUSH1 0x4 DUP3 ADD MSTORE ADDRESS PUSH1 0x24 DUP3 ADD MSTORE PUSH9 0xD8D726B7177A800000 PUSH1 0x44 DUP3 ADD MSTORE PUSH1 0x1 PUSH1 0x1 PUSH1 0xA0 SHL SUB SWAP1 SWAP2 AND SWAP1 PUSH4 0x23B872DD SWAP1 PUSH1 0x64 ADD PUSH1 0x20 PUSH1 0x40 MLOAD DUP1 DUP4 SUB DUP2 PUSH1 0x0 DUP8 GAS CALL ISZERO DUP1 ISZERO PUSH2 0x182C JUMPI RETURNDATASIZE PUSH1 0x0 DUP1 RETURNDATACOPY RETURNDATASIZE PUSH1 0x0 REVERT JUMPDEST POP POP POP POP PUSH1 0x40 MLOAD RETURNDATASIZE PUSH1 0x1F NOT PUSH1 0x1F DUP3 ADD AND DUP3 ADD DUP1 PUSH1 0x40 MSTORE POP DUP2 ADD SWAP1 PUSH2 0x1850 SWAP2 SWAP1 PUSH2 0x330F JUMP JUMPDEST PUSH2 0x189C JUMPI PUSH1 0x40 MLOAD PUSH3 0x461BCD PUSH1 0xE5 SHL DUP2 MSTORE PUSH1 0x20 PUSH1 0x4 DUP3 ADD MSTORE PUSH1 0x18 PUSH1 0x24 DUP3 ADD MSTORE PUSH32 0x3430303020544C20746F6B656E732072657175697265642E0000000000000000 PUSH1 0x44 DUP3 ADD MSTORE PUSH1 0x64 ADD PUSH2 0xAA9 JUMP JUMPDEST PUSH8 0xDE0B6B3A7640000 PUSH8 0x4563918244F40000 PUSH2 0x18B7 CALLER PUSH2 0x102E JUMP JUMPDEST PUSH2 0x18C1 SWAP2 SWAP1 PUSH2 0x3298 JUMP JUMPDEST LT ISZERO PUSH2 0x18DF JUMPI CALLER PUSH1 0x0 SWAP1 DUP2 MSTORE PUSH1 0xF PUSH1 0x20 MSTORE PUSH1 0x40 SWAP1 KECCAK256 DUP1 SLOAD PUSH1 0xFF NOT AND SWAP1 SSTORE JUMPDEST PUSH2 0x18F2 CALLER ADDRESS PUSH8 0x4563918244F40000 PUSH2 0x27B4 JUMP JUMPDEST PUSH1 0x40 DUP1 MLOAD PUSH2 0x140 PUSH1 0x20 PUSH1 0x1F DUP12 ADD DUP2 SWAP1 DIV MUL DUP3 ADD DUP2 ADD SWAP1 SWAP3 MSTORE PUSH2 0x120 DUP2 ADD DUP10 DUP2 MSTORE PUSH1 0x9 SWAP3 DUP3 SWAP2 SWAP1 DUP13 SWAP1 DUP13 SWAP1 DUP2 SWAP1 DUP6 ADD DUP4 DUP3 DUP1 DUP3 DUP5 CALLDATACOPY PUSH1 0x0 SWAP3 ADD SWAP2 SWAP1 SWAP2 MSTORE POP POP POP SWAP1 DUP3 MSTORE POP PUSH1 0x20 DUP1 DUP3 ADD DUP11 SWAP1 MSTORE PUSH1 0x40 DUP1 MLOAD DUP10 DUP4 MUL DUP2 DUP2 ADD DUP5 ADD DUP4 MSTORE DUP11 DUP3 MSTORE SWAP2 SWAP1 SWAP4 ADD SWAP3 SWAP2 DUP11 SWAP2 DUP11 SWAP2 DUP3 SWAP2 SWAP1 DUP6 ADD SWAP1 DUP5 SWAP1 DUP1 DUP3 DUP5 CALLDATACOPY PUSH1 0x0 SWAP3 ADD SWAP2 SWAP1 SWAP2 MSTORE POP POP POP SWAP1 DUP3 MSTORE POP PUSH1 0x40 DUP1 MLOAD PUSH1 0x20 DUP8 DUP2 MUL DUP3 DUP2 ADD DUP3 ADD SWAP1 SWAP4 MSTORE DUP8 DUP3 MSTORE SWAP3 DUP4 ADD SWAP3 SWAP1 SWAP2 DUP9 SWAP2 DUP9 SWAP2 DUP3 SWAP2 DUP6 ADD SWAP1 DUP5 SWAP1 DUP1 DUP3 DUP5 CALLDATACOPY PUSH1 0x0 SWAP3 ADD DUP3 SWAP1 MSTORE POP SWAP4 DUP6 MSTORE POP POP CALLER PUSH1 0x20 DUP1 DUP6 ADD SWAP2 SWAP1 SWAP2 MSTORE PUSH1 0x40 DUP5 ADD DUP4 SWAP1 MSTORE PUSH1 0x60 DUP5 ADD DUP4 SWAP1 MSTORE PUSH1 0x80 DUP5 ADD DUP4 SWAP1 MSTORE PUSH1 0xA0 SWAP1 SWAP4 ADD DUP3 SWAP1 MSTORE POP DUP4 SLOAD PUSH1 0x1 DUP2 ADD DUP6 SSTORE SWAP4 DUP2 MSTORE KECCAK256 DUP2 MLOAD SWAP2 SWAP3 PUSH1 0x9 MUL ADD SWAP1 DUP2 SWAP1 PUSH2 0x19F2 SWAP1 DUP3 PUSH2 0x3390 JUMP JUMPDEST POP PUSH1 0x20 DUP3 DUP2 ADD MLOAD PUSH1 0x1 DUP4 ADD SSTORE PUSH1 0x40 DUP4 ADD MLOAD DUP1 MLOAD PUSH2 0x1A15 SWAP3 PUSH1 0x2 DUP6 ADD SWAP3 ADD SWAP1 PUSH2 0x2C66 JUMP JUMPDEST POP PUSH1 0x60 DUP3 ADD MLOAD DUP1 MLOAD PUSH2 0x1A31 SWAP2 PUSH1 0x3 DUP5 ADD SWAP2 PUSH1 0x20 SWAP1 SWAP2 ADD SWAP1 PUSH2 0x2C66 JUMP JUMPDEST POP PUSH1 0x80 DUP3 ADD MLOAD PUSH1 0x4 DUP3 ADD DUP1 SLOAD PUSH1 0x1 PUSH1 0x1 PUSH1 0xA0 SHL SUB NOT AND PUSH1 0x1 PUSH1 0x1 PUSH1 0xA0 SHL SUB SWAP1 SWAP3 AND SWAP2 SWAP1 SWAP2 OR SWAP1 SSTORE PUSH1 0xA0 DUP3 ADD MLOAD PUSH1 0x5 DUP3 ADD SSTORE PUSH1 0xC0 DUP3 ADD MLOAD PUSH1 0x6 DUP3 ADD DUP1 SLOAD PUSH1 0xFF NOT AND SWAP2 ISZERO ISZERO SWAP2 SWAP1 SWAP2 OR SWAP1 SSTORE PUSH1 0xE0 DUP3 ADD MLOAD PUSH1 0x7 DUP3 ADD SSTORE PUSH2 0x100 SWAP1 SWAP2 ADD MLOAD PUSH1 0x8 SWAP1 SWAP2 ADD SSTORE PUSH1 0x9 SLOAD PUSH2 0x1AA0 SWAP1 PUSH1 0x1 SWAP1 PUSH2 0x3298 JUMP JUMPDEST SWAP9 SWAP8 POP POP POP POP POP POP POP POP JUMP JUMPDEST PUSH1 0x0 PUSH2 0x1AB8 CALLER DUP4 PUSH2 0x2813 JUMP JUMPDEST ISZERO PUSH2 0x1AD5 JUMPI PUSH1 0x40 MLOAD PUSH3 0x461BCD PUSH1 0xE5 SHL DUP2 MSTORE PUSH1 0x4 ADD PUSH2 0xAA9 SWAP1 PUSH2 0x31E9 JUMP JUMPDEST PUSH8 0xDE0B6B3A7640000 DUP3 GT ISZERO PUSH2 0x1B09 JUMPI PUSH1 0x1 PUSH1 0x1 PUSH1 0xA0 SHL SUB DUP4 AND PUSH1 0x0 SWAP1 DUP2 MSTORE PUSH1 0xF PUSH1 0x20 MSTORE PUSH1 0x40 SWAP1 KECCAK256 DUP1 SLOAD PUSH1 0xFF NOT AND PUSH1 0x1 OR SWAP1 SSTORE JUMPDEST PUSH8 0xDE0B6B3A7640000 DUP3 PUSH2 0x1B1C CALLER PUSH2 0x102E JUMP JUMPDEST PUSH2 0x1B26 SWAP2 SWAP1 PUSH2 0x3298 JUMP JUMPDEST LT ISZERO PUSH2 0x1B44 JUMPI CALLER PUSH1 0x0 SWAP1 DUP2 MSTORE PUSH1 0xF PUSH1 0x20 MSTORE PUSH1 0x40 SWAP1 KECCAK256 DUP1 SLOAD PUSH1 0xFF NOT AND SWAP1 SSTORE JUMPDEST PUSH2 0x1B4E DUP4 DUP4 PUSH2 0x2A59 JUMP JUMPDEST SWAP4 SWAP3 POP POP POP JUMP JUMPDEST PUSH1 0x6 SLOAD PUSH1 0x40 MLOAD PUSH4 0x23B872DD PUSH1 0xE0 SHL DUP2 MSTORE CALLER PUSH1 0x4 DUP3 ADD MSTORE ADDRESS PUSH1 0x24 DUP3 ADD MSTORE PUSH1 0x44 DUP2 ADD DUP4 SWAP1 MSTORE PUSH1 0x1 PUSH1 0x1 PUSH1 0xA0 SHL SUB SWAP1 SWAP2 AND SWAP1 PUSH4 0x23B872DD SWAP1 PUSH1 0x64 ADD PUSH1 0x20 PUSH1 0x40 MLOAD DUP1 DUP4 SUB DUP2 PUSH1 0x0 DUP8 GAS CALL ISZERO DUP1 ISZERO PUSH2 0x1BAC JUMPI RETURNDATASIZE PUSH1 0x0 DUP1 RETURNDATACOPY RETURNDATASIZE PUSH1 0x0 REVERT JUMPDEST POP POP POP POP PUSH1 0x40 MLOAD RETURNDATASIZE PUSH1 0x1F NOT PUSH1 0x1F DUP3 ADD AND DUP3 ADD DUP1 PUSH1 0x40 MSTORE POP DUP2 ADD SWAP1 PUSH2 0x1BD0 SWAP2 SWAP1 PUSH2 0x330F JUMP JUMPDEST PUSH2 0xB1F JUMPI PUSH1 0x40 MLOAD PUSH3 0x461BCD PUSH1 0xE5 SHL DUP2 MSTORE PUSH1 0x20 PUSH1 0x4 DUP3 ADD MSTORE PUSH1 0x21 PUSH1 0x24 DUP3 ADD MSTORE PUSH32 0x4E6F7420656E6F75676820544C20746F6B656E7320666F7220646F6E6174696F PUSH1 0x44 DUP3 ADD MSTORE PUSH1 0x37 PUSH1 0xF9 SHL PUSH1 0x64 DUP3 ADD MSTORE PUSH1 0x84 ADD PUSH2 0xAA9 JUMP JUMPDEST PUSH1 0x0 PUSH1 0x9 DUP3 DUP2 SLOAD DUP2 LT PUSH2 0x1C3B JUMPI PUSH2 0x1C3B PUSH2 0x31D3 JUMP JUMPDEST PUSH1 0x0 SWAP2 DUP3 MSTORE PUSH1 0x20 SWAP1 SWAP2 KECCAK256 PUSH1 0x9 SWAP1 SWAP2 MUL ADD PUSH1 0x4 DUP2 ADD SLOAD SWAP1 SWAP2 POP PUSH1 0x1 PUSH1 0x1 PUSH1 0xA0 SHL SUB AND CALLER EQ PUSH2 0x1C96 JUMPI PUSH1 0x40 MLOAD PUSH3 0x461BCD PUSH1 0xE5 SHL DUP2 MSTORE PUSH1 0x20 PUSH1 0x4 DUP3 ADD MSTORE PUSH1 0x9 PUSH1 0x24 DUP3 ADD MSTORE PUSH9 0x2737BA1037BBB732B9 PUSH1 0xB9 SHL PUSH1 0x44 DUP3 ADD MSTORE PUSH1 0x64 ADD PUSH2 0xAA9 JUMP JUMPDEST DUP1 PUSH1 0x1 ADD SLOAD TIMESTAMP LT PUSH2 0x1CB9 JUMPI PUSH1 0x40 MLOAD PUSH3 0x461BCD PUSH1 0xE5 SHL DUP2 MSTORE PUSH1 0x4 ADD PUSH2 0xAA9 SWAP1 PUSH2 0x32AB JUMP JUMPDEST PUSH1 0x6 DUP2 ADD SLOAD PUSH1 0xFF AND ISZERO PUSH2 0x1CFF JUMPI PUSH1 0x40 MLOAD PUSH3 0x461BCD PUSH1 0xE5 SHL DUP2 MSTORE PUSH1 0x20 PUSH1 0x4 DUP3 ADD MSTORE PUSH1 0xE PUSH1 0x24 DUP3 ADD MSTORE PUSH14 0x105B1C9958591E48199D5B991959 PUSH1 0x92 SHL PUSH1 0x44 DUP3 ADD MSTORE PUSH1 0x64 ADD PUSH2 0xAA9 JUMP JUMPDEST PUSH2 0x1D07 PUSH2 0x29E7 JUMP JUMPDEST PUSH1 0x5 DUP3 ADD SLOAD PUSH2 0x1D17 SWAP1 PUSH1 0xA PUSH2 0x32F8 JUMP JUMPDEST LT ISZERO PUSH2 0x1D58 JUMPI PUSH1 0x40 MLOAD PUSH3 0x461BCD PUSH1 0xE5 SHL DUP2 MSTORE PUSH1 0x20 PUSH1 0x4 DUP3 ADD MSTORE PUSH1 0x10 PUSH1 0x24 DUP3 ADD MSTORE PUSH16 0x4E6F7420656E6F75676820766F746573 PUSH1 0x80 SHL PUSH1 0x44 DUP3 ADD MSTORE PUSH1 0x64 ADD PUSH2 0xAA9 JUMP JUMPDEST PUSH1 0x0 DUP1 JUMPDEST PUSH1 0x2 DUP4 ADD SLOAD DUP2 LT ISZERO PUSH2 0x1DA7 JUMPI DUP3 PUSH1 0x2 ADD DUP2 DUP2 SLOAD DUP2 LT PUSH2 0x1D7D JUMPI PUSH2 0x1D7D PUSH2 0x31D3 JUMP JUMPDEST SWAP1 PUSH1 0x0 MSTORE PUSH1 0x20 PUSH1 0x0 KECCAK256 ADD SLOAD DUP3 PUSH2 0x1D93 SWAP2 SWAP1 PUSH2 0x32E5 JUMP JUMPDEST SWAP2 POP DUP1 PUSH2 0x1D9F DUP2 PUSH2 0x32CC JUMP JUMPDEST SWAP2 POP POP PUSH2 0x1D5C JUMP JUMPDEST POP PUSH1 0x6 SLOAD PUSH1 0x40 MLOAD PUSH4 0x70A08231 PUSH1 0xE0 SHL DUP2 MSTORE ADDRESS PUSH1 0x4 DUP3 ADD MSTORE DUP3 SWAP2 PUSH1 0x1 PUSH1 0x1 PUSH1 0xA0 SHL SUB AND SWAP1 PUSH4 0x70A08231 SWAP1 PUSH1 0x24 ADD PUSH1 0x20 PUSH1 0x40 MLOAD DUP1 DUP4 SUB DUP2 DUP7 GAS STATICCALL ISZERO DUP1 ISZERO PUSH2 0x1DF0 JUMPI RETURNDATASIZE PUSH1 0x0 DUP1 RETURNDATACOPY RETURNDATASIZE PUSH1 0x0 REVERT JUMPDEST POP POP POP POP PUSH1 0x40 MLOAD RETURNDATASIZE PUSH1 0x1F NOT PUSH1 0x1F DUP3 ADD AND DUP3 ADD DUP1 PUSH1 0x40 MSTORE POP DUP2 ADD SWAP1 PUSH2 0x1E14 SWAP2 SWAP1 PUSH2 0x3450 JUMP JUMPDEST LT ISZERO PUSH2 0x1E52 JUMPI PUSH1 0x40 MLOAD PUSH3 0x461BCD PUSH1 0xE5 SHL DUP2 MSTORE PUSH1 0x20 PUSH1 0x4 DUP3 ADD MSTORE PUSH1 0xD PUSH1 0x24 DUP3 ADD MSTORE PUSH13 0x139BDD08195B9BDD59DA081513 PUSH1 0x9A SHL PUSH1 0x44 DUP3 ADD MSTORE PUSH1 0x64 ADD PUSH2 0xAA9 JUMP JUMPDEST POP PUSH1 0x6 DUP2 ADD DUP1 SLOAD PUSH1 0xFF NOT AND PUSH1 0x1 OR SWAP1 SSTORE TIMESTAMP PUSH1 0x7 SWAP1 SWAP2 ADD SSTORE POP JUMP JUMPDEST PUSH1 0x0 DUP1 JUMPDEST PUSH1 0x9 SLOAD DUP2 LT ISZERO PUSH2 0x1EC9 JUMPI PUSH1 0x9 DUP2 DUP2 SLOAD DUP2 LT PUSH2 0x1E8D JUMPI PUSH2 0x1E8D PUSH2 0x31D3 JUMP JUMPDEST PUSH1 0x0 SWAP2 DUP3 MSTORE PUSH1 0x20 SWAP1 SWAP2 KECCAK256 PUSH1 0x6 PUSH1 0x9 SWAP1 SWAP3 MUL ADD ADD SLOAD PUSH1 0xFF AND ISZERO PUSH2 0x1EB7 JUMPI DUP2 PUSH2 0x1EB3 DUP2 PUSH2 0x32CC JUMP JUMPDEST SWAP3 POP POP JUMPDEST DUP1 PUSH2 0x1EC1 DUP2 PUSH2 0x32CC JUMP JUMPDEST SWAP2 POP POP PUSH2 0x1E70 JUMP JUMPDEST POP SWAP1 JUMP JUMPDEST CALLER PUSH1 0x0 SWAP1 DUP2 MSTORE PUSH1 0x7 PUSH1 0x20 MSTORE PUSH1 0x40 SWAP1 KECCAK256 SLOAD PUSH1 0xFF AND ISZERO PUSH2 0x1F1F JUMPI PUSH1 0x40 MLOAD PUSH3 0x461BCD PUSH1 0xE5 SHL DUP2 MSTORE PUSH1 0x20 PUSH1 0x4 DUP3 ADD MSTORE PUSH1 0xF PUSH1 0x24 DUP3 ADD MSTORE PUSH15 0x105B1C9958591E4818DB185A5B5959 PUSH1 0x8A SHL PUSH1 0x44 DUP3 ADD MSTORE PUSH1 0x64 ADD PUSH2 0xAA9 JUMP JUMPDEST PUSH2 0x1F32 ADDRESS CALLER PUSH8 0xDE0B6B3A7640000 PUSH2 0x27B4 JUMP JUMPDEST CALLER PUSH1 0x0 SWAP1 DUP2 MSTORE PUSH1 0xF PUSH1 0x20 SWAP1 DUP2 MSTORE PUSH1 0x40 DUP1 DUP4 KECCAK256 DUP1 SLOAD PUSH1 0x1 PUSH1 0xFF NOT SWAP2 DUP3 AND DUP2 OR SWAP1 SWAP3 SSTORE PUSH1 0x7 SWAP1 SWAP4 MSTORE SWAP3 KECCAK256 DUP1 SLOAD SWAP1 SWAP2 AND SWAP1 SWAP2 OR SWAP1 SSTORE JUMP JUMPDEST PUSH1 0x0 PUSH8 0x1BC16D674EC80000 PUSH9 0x3635C9ADC5DEA00000 PUSH2 0x1F84 CALLER PUSH2 0xDDE JUMP JUMPDEST PUSH2 0x1FD0 JUMPI PUSH1 0x40 MLOAD PUSH3 0x461BCD PUSH1 0xE5 SHL DUP2 MSTORE PUSH1 0x20 PUSH1 0x4 DUP3 ADD MSTORE PUSH1 0x1F PUSH1 0x24 DUP3 ADD MSTORE PUSH32 0x4F6E6C79206D656D626572732063616E207375626D6974207375727665797300 PUSH1 0x44 DUP3 ADD MSTORE PUSH1 0x64 ADD PUSH2 0xAA9 JUMP JUMPDEST DUP2 PUSH2 0x1FDA CALLER PUSH2 0x102E JUMP JUMPDEST LT ISZERO PUSH2 0x2028 JUMPI PUSH1 0x40 MLOAD PUSH3 0x461BCD PUSH1 0xE5 SHL DUP2 MSTORE PUSH1 0x20 PUSH1 0x4 DUP3 ADD MSTORE PUSH1 0x1F PUSH1 0x24 DUP3 ADD MSTORE PUSH32 0x4174206C656173742032204D474F5620746F6B656E7320726571756972656400 PUSH1 0x44 DUP3 ADD MSTORE PUSH1 0x64 ADD PUSH2 0xAA9 JUMP JUMPDEST PUSH2 0x2032 CALLER DUP4 PUSH2 0x2813 JUMP JUMPDEST ISZERO PUSH2 0x204F JUMPI PUSH1 0x40 MLOAD PUSH3 0x461BCD PUSH1 0xE5 SHL DUP2 MSTORE PUSH1 0x4 ADD PUSH2 0xAA9 SWAP1 PUSH2 0x31E9 JUMP JUMPDEST PUSH1 0x6 SLOAD PUSH1 0x40 MLOAD PUSH4 0x23B872DD PUSH1 0xE0 SHL DUP2 MSTORE CALLER PUSH1 0x4 DUP3 ADD MSTORE ADDRESS PUSH1 0x24 DUP3 ADD MSTORE PUSH1 0x44 DUP2 ADD DUP4 SWAP1 MSTORE PUSH1 0x1 PUSH1 0x1 PUSH1 0xA0 SHL SUB SWAP1 SWAP2 AND SWAP1 PUSH4 0x23B872DD SWAP1 PUSH1 0x64 ADD PUSH1 0x20 PUSH1 0x40 MLOAD DUP1 DUP4 SUB DUP2 PUSH1 0x0 DUP8 GAS CALL ISZERO DUP1 ISZERO PUSH2 0x20A6 JUMPI RETURNDATASIZE PUSH1 0x0 DUP1 RETURNDATACOPY RETURNDATASIZE PUSH1 0x0 REVERT JUMPDEST POP POP POP POP PUSH1 0x40 MLOAD RETURNDATASIZE PUSH1 0x1F NOT PUSH1 0x1F DUP3 ADD AND DUP3 ADD DUP1 PUSH1 0x40 MSTORE POP DUP2 ADD SWAP1 PUSH2 0x20CA SWAP2 SWAP1 PUSH2 0x330F JUMP JUMPDEST PUSH2 0x2120 JUMPI PUSH1 0x40 MLOAD PUSH3 0x461BCD PUSH1 0xE5 SHL DUP2 MSTORE PUSH1 0x20 PUSH1 0x4 DUP3 ADD MSTORE PUSH1 0x21 PUSH1 0x24 DUP3 ADD MSTORE PUSH32 0x4174206C65617374203130303020544C20746F6B656E73207265717569726564 PUSH1 0x44 DUP3 ADD MSTORE PUSH1 0x17 PUSH1 0xF9 SHL PUSH1 0x64 DUP3 ADD MSTORE PUSH1 0x84 ADD PUSH2 0xAA9 JUMP JUMPDEST PUSH8 0xDE0B6B3A7640000 DUP3 PUSH2 0x2133 CALLER PUSH2 0x102E JUMP JUMPDEST PUSH2 0x213D SWAP2 SWAP1 PUSH2 0x3298 JUMP JUMPDEST LT ISZERO PUSH2 0x215B JUMPI CALLER PUSH1 0x0 SWAP1 DUP2 MSTORE PUSH1 0xF PUSH1 0x20 MSTORE PUSH1 0x40 SWAP1 KECCAK256 DUP1 SLOAD PUSH1 0xFF NOT AND SWAP1 SSTORE JUMPDEST PUSH2 0x2166 CALLER ADDRESS DUP5 PUSH2 0x27B4 JUMP JUMPDEST PUSH1 0x40 DUP1 MLOAD PUSH2 0x100 PUSH1 0x20 PUSH1 0x1F DUP12 ADD DUP2 SWAP1 DIV MUL DUP3 ADD DUP2 ADD SWAP1 SWAP3 MSTORE PUSH1 0xE0 DUP2 ADD DUP10 DUP2 MSTORE PUSH1 0x8 SWAP3 DUP3 SWAP2 SWAP1 DUP13 SWAP1 DUP13 SWAP1 DUP2 SWAP1 DUP6 ADD DUP4 DUP3 DUP1 DUP3 DUP5 CALLDATACOPY PUSH1 0x0 SWAP3 ADD SWAP2 SWAP1 SWAP2 MSTORE POP POP POP SWAP1 DUP3 MSTORE POP PUSH1 0x20 DUP2 ADD DUP10 SWAP1 MSTORE PUSH1 0x40 DUP2 ADD DUP9 SWAP1 MSTORE PUSH1 0x60 DUP2 ADD DUP8 SWAP1 MSTORE CALLER PUSH1 0x80 DUP3 ADD MSTORE PUSH1 0xA0 ADD DUP8 PUSH8 0xFFFFFFFFFFFFFFFF DUP2 GT ISZERO PUSH2 0x21DF JUMPI PUSH2 0x21DF PUSH2 0x332C JUMP JUMPDEST PUSH1 0x40 MLOAD SWAP1 DUP1 DUP3 MSTORE DUP1 PUSH1 0x20 MUL PUSH1 0x20 ADD DUP3 ADD PUSH1 0x40 MSTORE DUP1 ISZERO PUSH2 0x2208 JUMPI DUP2 PUSH1 0x20 ADD PUSH1 0x20 DUP3 MUL DUP1 CALLDATASIZE DUP4 CALLDATACOPY ADD SWAP1 POP JUMPDEST POP DUP2 MSTORE PUSH1 0x0 PUSH1 0x20 SWAP2 DUP3 ADD DUP2 SWAP1 MSTORE DUP4 SLOAD PUSH1 0x1 DUP2 ADD DUP6 SSTORE SWAP4 DUP2 MSTORE KECCAK256 DUP2 MLOAD SWAP2 SWAP3 PUSH1 0x7 MUL ADD SWAP1 DUP2 SWAP1 PUSH2 0x2236 SWAP1 DUP3 PUSH2 0x3390 JUMP JUMPDEST POP PUSH1 0x20 DUP3 DUP2 ADD MLOAD PUSH1 0x1 DUP4 ADD SSTORE PUSH1 0x40 DUP4 ADD MLOAD PUSH1 0x2 DUP4 ADD SSTORE PUSH1 0x60 DUP4 ADD MLOAD PUSH1 0x3 DUP4 ADD SSTORE PUSH1 0x80 DUP4 ADD MLOAD PUSH1 0x4 DUP4 ADD DUP1 SLOAD PUSH1 0x1 PUSH1 0x1 PUSH1 0xA0 SHL SUB NOT AND PUSH1 0x1 PUSH1 0x1 PUSH1 0xA0 SHL SUB SWAP1 SWAP3 AND SWAP2 SWAP1 SWAP2 OR SWAP1 SSTORE PUSH1 0xA0 DUP4 ADD MLOAD DUP1 MLOAD PUSH2 0x2293 SWAP3 PUSH1 0x5 DUP6 ADD SWAP3 ADD SWAP1 PUSH2 0x2C66 JUMP JUMPDEST POP PUSH1 0xC0 SWAP2 SWAP1 SWAP2 ADD MLOAD PUSH1 0x6 SWAP1 SWAP2 ADD SSTORE PUSH1 0x8 SLOAD PUSH2 0x1AA0 SWAP1 PUSH1 0x1 SWAP1 PUSH2 0x3298 JUMP JUMPDEST PUSH2 0x22B9 CALLER PUSH2 0xDDE JUMP JUMPDEST PUSH2 0x22FD JUMPI PUSH1 0x40 MLOAD PUSH3 0x461BCD PUSH1 0xE5 SHL DUP2 MSTORE PUSH1 0x20 PUSH1 0x4 DUP3 ADD MSTORE PUSH1 0x15 PUSH1 0x24 DUP3 ADD MSTORE PUSH21 0x4F6E6C79206D656D626572732063616E20766F7465 PUSH1 0x58 SHL PUSH1 0x44 DUP3 ADD MSTORE PUSH1 0x64 ADD PUSH2 0xAA9 JUMP JUMPDEST PUSH1 0x0 DUP3 DUP2 MSTORE PUSH1 0xA PUSH1 0x20 SWAP1 DUP2 MSTORE PUSH1 0x40 DUP1 DUP4 KECCAK256 CALLER DUP5 MSTORE SWAP1 SWAP2 MSTORE SWAP1 KECCAK256 SLOAD PUSH1 0xFF AND ISZERO DUP1 PUSH2 0x233E JUMPI POP PUSH1 0x0 DUP3 DUP2 MSTORE PUSH1 0xB PUSH1 0x20 SWAP1 DUP2 MSTORE PUSH1 0x40 DUP1 DUP4 KECCAK256 CALLER DUP5 MSTORE SWAP1 SWAP2 MSTORE SWAP1 KECCAK256 SLOAD ISZERO ISZERO JUMPDEST PUSH2 0x238A JUMPI PUSH1 0x40 MLOAD PUSH3 0x461BCD PUSH1 0xE5 SHL DUP2 MSTORE PUSH1 0x20 PUSH1 0x4 DUP3 ADD MSTORE PUSH1 0x17 PUSH1 0x24 DUP3 ADD MSTORE PUSH32 0x596F752068617665206E6F20766F746573206C6566742E000000000000000000 PUSH1 0x44 DUP3 ADD MSTORE PUSH1 0x64 ADD PUSH2 0xAA9 JUMP JUMPDEST PUSH1 0x9 DUP3 DUP2 SLOAD DUP2 LT PUSH2 0x239D JUMPI PUSH2 0x239D PUSH2 0x31D3 JUMP JUMPDEST PUSH1 0x0 SWAP2 DUP3 MSTORE PUSH1 0x20 SWAP1 SWAP2 KECCAK256 PUSH1 0x6 PUSH1 0x9 SWAP1 SWAP3 MUL ADD ADD SLOAD PUSH1 0xFF AND ISZERO PUSH2 0x23F2 JUMPI PUSH1 0x40 MLOAD PUSH3 0x461BCD PUSH1 0xE5 SHL DUP2 MSTORE PUSH1 0x20 PUSH1 0x4 DUP3 ADD MSTORE PUSH1 0xE PUSH1 0x24 DUP3 ADD MSTORE PUSH14 0x105B1C9958591E48199D5B991959 PUSH1 0x92 SHL PUSH1 0x44 DUP3 ADD MSTORE PUSH1 0x64 ADD PUSH2 0xAA9 JUMP JUMPDEST PUSH1 0x9 DUP3 DUP2 SLOAD DUP2 LT PUSH2 0x2405 JUMPI PUSH2 0x2405 PUSH2 0x31D3 JUMP JUMPDEST SWAP1 PUSH1 0x0 MSTORE PUSH1 0x20 PUSH1 0x0 KECCAK256 SWAP1 PUSH1 0x9 MUL ADD PUSH1 0x1 ADD SLOAD TIMESTAMP LT PUSH2 0x2435 JUMPI PUSH1 0x40 MLOAD PUSH3 0x461BCD PUSH1 0xE5 SHL DUP2 MSTORE PUSH1 0x4 ADD PUSH2 0xAA9 SWAP1 PUSH2 0x32AB JUMP JUMPDEST PUSH1 0x0 DUP3 DUP2 MSTORE PUSH1 0xA PUSH1 0x20 SWAP1 DUP2 MSTORE PUSH1 0x40 DUP1 DUP4 KECCAK256 CALLER DUP5 MSTORE SWAP1 SWAP2 MSTORE SWAP1 KECCAK256 SLOAD PUSH1 0xFF AND ISZERO PUSH2 0x2498 JUMPI PUSH1 0x0 DUP3 DUP2 MSTORE PUSH1 0xB PUSH1 0x20 SWAP1 DUP2 MSTORE PUSH1 0x40 DUP1 DUP4 KECCAK256 CALLER DUP5 MSTORE SWAP1 SWAP2 MSTORE SWAP1 KECCAK256 SLOAD PUSH2 0x247D SWAP1 PUSH1 0x1 SWAP1 PUSH2 0x3298 JUMP JUMPDEST PUSH1 0x0 DUP4 DUP2 MSTORE PUSH1 0xB PUSH1 0x20 SWAP1 DUP2 MSTORE PUSH1 0x40 DUP1 DUP4 KECCAK256 CALLER DUP5 MSTORE SWAP1 SWAP2 MSTORE SWAP1 KECCAK256 SSTORE JUMPDEST DUP1 ISZERO PUSH2 0x24D5 JUMPI PUSH1 0x9 DUP3 DUP2 SLOAD DUP2 LT PUSH2 0x24B1 JUMPI PUSH2 0x24B1 PUSH2 0x31D3 JUMP JUMPDEST PUSH1 0x0 SWAP2 DUP3 MSTORE PUSH1 0x20 DUP3 KECCAK256 PUSH1 0x5 PUSH1 0x9 SWAP1 SWAP3 MUL ADD ADD DUP1 SLOAD SWAP2 PUSH2 0x24CF DUP4 PUSH2 0x32CC JUMP JUMPDEST SWAP2 SWAP1 POP SSTORE POP JUMPDEST POP PUSH1 0x0 SWAP1 DUP2 MSTORE PUSH1 0xA PUSH1 0x20 SWAP1 DUP2 MSTORE PUSH1 0x40 DUP1 DUP4 KECCAK256 CALLER DUP5 MSTORE SWAP1 SWAP2 MSTORE SWAP1 KECCAK256 DUP1 SLOAD PUSH1 0xFF NOT AND PUSH1 0x1 OR SWAP1 SSTORE JUMP JUMPDEST PUSH2 0x2504 PUSH2 0x2968 JUMP JUMPDEST PUSH1 0x1 PUSH1 0x1 PUSH1 0xA0 SHL SUB DUP2 AND PUSH2 0x252E JUMPI PUSH1 0x40 MLOAD PUSH4 0x1E4FBDF7 PUSH1 0xE0 SHL DUP2 MSTORE PUSH1 0x0 PUSH1 0x4 DUP3 ADD MSTORE PUSH1 0x24 ADD PUSH2 0xAA9 JUMP JUMPDEST PUSH2 0xB1F DUP2 PUSH2 0x2995 JUMP JUMPDEST PUSH1 0x60 PUSH1 0x0 PUSH1 0x60 DUP1 PUSH1 0x0 PUSH1 0x9 DUP7 DUP2 SLOAD DUP2 LT PUSH2 0x2553 JUMPI PUSH2 0x2553 PUSH2 0x31D3 JUMP JUMPDEST SWAP1 PUSH1 0x0 MSTORE PUSH1 0x20 PUSH1 0x0 KECCAK256 SWAP1 PUSH1 0x9 MUL ADD PUSH1 0x40 MLOAD DUP1 PUSH2 0x120 ADD PUSH1 0x40 MSTORE SWAP1 DUP2 PUSH1 0x0 DUP3 ADD DUP1 SLOAD PUSH2 0x257D SWAP1 PUSH2 0x319F JUMP JUMPDEST DUP1 PUSH1 0x1F ADD PUSH1 0x20 DUP1 SWAP2 DIV MUL PUSH1 0x20 ADD PUSH1 0x40 MLOAD SWAP1 DUP2 ADD PUSH1 0x40 MSTORE DUP1 SWAP3 SWAP2 SWAP1 DUP2 DUP2 MSTORE PUSH1 0x20 ADD DUP3 DUP1 SLOAD PUSH2 0x25A9 SWAP1 PUSH2 0x319F JUMP JUMPDEST DUP1 ISZERO PUSH2 0x25F6 JUMPI DUP1 PUSH1 0x1F LT PUSH2 0x25CB JUMPI PUSH2 0x100 DUP1 DUP4 SLOAD DIV MUL DUP4 MSTORE SWAP2 PUSH1 0x20 ADD SWAP2 PUSH2 0x25F6 JUMP JUMPDEST DUP3 ADD SWAP2 SWAP1 PUSH1 0x0 MSTORE PUSH1 0x20 PUSH1 0x0 KECCAK256 SWAP1 JUMPDEST DUP2 SLOAD DUP2 MSTORE SWAP1 PUSH1 0x1 ADD SWAP1 PUSH1 0x20 ADD DUP1 DUP4 GT PUSH2 0x25D9 JUMPI DUP3 SWAP1 SUB PUSH1 0x1F AND DUP3 ADD SWAP2 JUMPDEST POP POP POP POP POP DUP2 MSTORE PUSH1 0x20 ADD PUSH1 0x1 DUP3 ADD SLOAD DUP2 MSTORE PUSH1 0x20 ADD PUSH1 0x2 DUP3 ADD DUP1 SLOAD DUP1 PUSH1 0x20 MUL PUSH1 0x20 ADD PUSH1 0x40 MLOAD SWAP1 DUP2 ADD PUSH1 0x40 MSTORE DUP1 SWAP3 SWAP2 SWAP1 DUP2 DUP2 MSTORE PUSH1 0x20 ADD DUP3 DUP1 SLOAD DUP1 ISZERO PUSH2 0x2658 JUMPI PUSH1 0x20 MUL DUP3 ADD SWAP2 SWAP1 PUSH1 0x0 MSTORE PUSH1 0x20 PUSH1 0x0 KECCAK256 SWAP1 JUMPDEST DUP2 SLOAD DUP2 MSTORE PUSH1 0x20 ADD SWAP1 PUSH1 0x1 ADD SWAP1 DUP1 DUP4 GT PUSH2 0x2644 JUMPI JUMPDEST POP POP POP POP POP DUP2 MSTORE PUSH1 0x20 ADD PUSH1 0x3 DUP3 ADD DUP1 SLOAD DUP1 PUSH1 0x20 MUL PUSH1 0x20 ADD PUSH1 0x40 MLOAD SWAP1 DUP2 ADD PUSH1 0x40 MSTORE DUP1 SWAP3 SWAP2 SWAP1 DUP2 DUP2 MSTORE PUSH1 0x20 ADD DUP3 DUP1 SLOAD DUP1 ISZERO PUSH2 0x26B0 JUMPI PUSH1 0x20 MUL DUP3 ADD SWAP2 SWAP1 PUSH1 0x0 MSTORE PUSH1 0x20 PUSH1 0x0 KECCAK256 SWAP1 JUMPDEST DUP2 SLOAD DUP2 MSTORE PUSH1 0x20 ADD SWAP1 PUSH1 0x1 ADD SWAP1 DUP1 DUP4 GT PUSH2 0x269C JUMPI JUMPDEST POP POP POP SWAP2 DUP4 MSTORE POP POP PUSH1 0x4 DUP3 ADD SLOAD PUSH1 0x1 PUSH1 0x1 PUSH1 0xA0 SHL SUB AND PUSH1 0x20 DUP1 DUP4 ADD SWAP2 SWAP1 SWAP2 MSTORE PUSH1 0x5 DUP4 ADD SLOAD PUSH1 0x40 DUP1 DUP5 ADD SWAP2 SWAP1 SWAP2 MSTORE PUSH1 0x6 DUP5 ADD SLOAD PUSH1 0xFF AND ISZERO ISZERO PUSH1 0x60 DUP1 DUP6 ADD SWAP2 SWAP1 SWAP2 MSTORE PUSH1 0x7 DUP6 ADD SLOAD PUSH1 0x80 DUP6 ADD MSTORE PUSH1 0x8 SWAP1 SWAP5 ADD SLOAD PUSH1 0xA0 SWAP1 SWAP4 ADD SWAP3 SWAP1 SWAP3 MSTORE DUP4 MLOAD SWAP1 DUP5 ADD MLOAD SWAP2 DUP5 ADD MLOAD SWAP4 SWAP1 SWAP3 ADD MLOAD SWAP2 SWAP10 SWAP1 SWAP9 POP SWAP2 SWAP7 POP SWAP5 POP SWAP3 POP POP POP JUMP JUMPDEST PUSH2 0x1417 DUP4 DUP4 DUP4 PUSH1 0x1 PUSH2 0x2A67 JUMP JUMPDEST PUSH1 0x1 PUSH1 0x1 PUSH1 0xA0 SHL SUB DUP4 DUP2 AND PUSH1 0x0 SWAP1 DUP2 MSTORE PUSH1 0x1 PUSH1 0x20 SWAP1 DUP2 MSTORE PUSH1 0x40 DUP1 DUP4 KECCAK256 SWAP4 DUP7 AND DUP4 MSTORE SWAP3 SWAP1 MSTORE KECCAK256 SLOAD PUSH1 0x0 NOT DUP2 LT ISZERO PUSH2 0x27AE JUMPI DUP2 DUP2 LT ISZERO PUSH2 0x279F JUMPI PUSH1 0x40 MLOAD PUSH4 0x7DC7A0D9 PUSH1 0xE1 SHL DUP2 MSTORE PUSH1 0x1 PUSH1 0x1 PUSH1 0xA0 SHL SUB DUP5 AND PUSH1 0x4 DUP3 ADD MSTORE PUSH1 0x24 DUP2 ADD DUP3 SWAP1 MSTORE PUSH1 0x44 DUP2 ADD DUP4 SWAP1 MSTORE PUSH1 0x64 ADD PUSH2 0xAA9 JUMP JUMPDEST PUSH2 0x27AE DUP5 DUP5 DUP5 DUP5 SUB PUSH1 0x0 PUSH2 0x2A67 JUMP JUMPDEST POP POP POP POP JUMP JUMPDEST PUSH1 0x1 PUSH1 0x1 PUSH1 0xA0 SHL SUB DUP4 AND PUSH2 0x27DE JUMPI PUSH1 0x40 MLOAD PUSH4 0x4B637E8F PUSH1 0xE1 SHL DUP2 MSTORE PUSH1 0x0 PUSH1 0x4 DUP3 ADD MSTORE PUSH1 0x24 ADD PUSH2 0xAA9 JUMP JUMPDEST PUSH1 0x1 PUSH1 0x1 PUSH1 0xA0 SHL SUB DUP3 AND PUSH2 0x2808 JUMPI PUSH1 0x40 MLOAD PUSH4 0xEC442F05 PUSH1 0xE0 SHL DUP2 MSTORE PUSH1 0x0 PUSH1 0x4 DUP3 ADD MSTORE PUSH1 0x24 ADD PUSH2 0xAA9 JUMP JUMPDEST PUSH2 0x1417 DUP4 DUP4 DUP4 PUSH2 0x2B3C JUMP JUMPDEST PUSH1 0x0 DUP1 DUP1 DUP1 JUMPDEST PUSH1 0x9 SLOAD DUP2 LT ISZERO PUSH2 0x2898 JUMPI PUSH1 0x9 DUP2 DUP2 SLOAD DUP2 LT PUSH2 0x2836 JUMPI PUSH2 0x2836 PUSH2 0x31D3 JUMP JUMPDEST SWAP1 PUSH1 0x0 MSTORE PUSH1 0x20 PUSH1 0x0 KECCAK256 SWAP1 PUSH1 0x9 MUL ADD PUSH1 0x1 ADD SLOAD TIMESTAMP LT DUP1 ISZERO PUSH2 0x2878 JUMPI POP PUSH1 0x0 DUP2 DUP2 MSTORE PUSH1 0xA PUSH1 0x20 SWAP1 DUP2 MSTORE PUSH1 0x40 DUP1 DUP4 KECCAK256 PUSH1 0x1 PUSH1 0x1 PUSH1 0xA0 SHL SUB DUP11 AND DUP5 MSTORE SWAP1 SWAP2 MSTORE SWAP1 KECCAK256 SLOAD PUSH1 0xFF AND JUMPDEST ISZERO PUSH2 0x2886 JUMPI PUSH1 0x1 SWAP3 POP PUSH2 0x2898 JUMP JUMPDEST DUP1 PUSH2 0x2890 DUP2 PUSH2 0x32CC JUMP JUMPDEST SWAP2 POP POP PUSH2 0x2819 JUMP JUMPDEST POP PUSH1 0x0 JUMPDEST PUSH1 0x9 SLOAD DUP2 LT ISZERO PUSH2 0x291B JUMPI PUSH1 0x9 DUP2 DUP2 SLOAD DUP2 LT PUSH2 0x28B9 JUMPI PUSH2 0x28B9 PUSH2 0x31D3 JUMP JUMPDEST SWAP1 PUSH1 0x0 MSTORE PUSH1 0x20 PUSH1 0x0 KECCAK256 SWAP1 PUSH1 0x9 MUL ADD PUSH1 0x1 ADD SLOAD TIMESTAMP LT DUP1 ISZERO PUSH2 0x28FB JUMPI POP PUSH1 0x0 DUP2 DUP2 MSTORE PUSH1 0xC PUSH1 0x20 SWAP1 DUP2 MSTORE PUSH1 0x40 DUP1 DUP4 KECCAK256 PUSH1 0x1 PUSH1 0x1 PUSH1 0xA0 SHL SUB DUP11 AND DUP5 MSTORE SWAP1 SWAP2 MSTORE SWAP1 KECCAK256 SLOAD PUSH1 0xFF AND JUMPDEST ISZERO PUSH2 0x2909 JUMPI PUSH1 0x1 SWAP2 POP PUSH2 0x291B JUMP JUMPDEST DUP1 PUSH2 0x2913 DUP2 PUSH2 0x32CC JUMP JUMPDEST SWAP2 POP POP PUSH2 0x289C JUMP JUMPDEST POP PUSH1 0x0 PUSH2 0x2927 DUP7 PUSH2 0x102E JUMP JUMPDEST SWAP1 POP PUSH1 0x0 PUSH2 0x2935 DUP7 DUP4 PUSH2 0x3298 JUMP JUMPDEST SWAP1 POP DUP1 ISZERO DUP1 ISZERO PUSH2 0x2949 JUMPI POP DUP4 DUP1 PUSH2 0x2949 JUMPI POP DUP3 JUMPDEST ISZERO PUSH2 0x295B JUMPI PUSH1 0x1 SWAP5 POP POP POP POP POP PUSH2 0x887 JUMP JUMPDEST POP PUSH1 0x0 SWAP7 SWAP6 POP POP POP POP POP POP JUMP JUMPDEST PUSH1 0x5 SLOAD PUSH1 0x1 PUSH1 0x1 PUSH1 0xA0 SHL SUB AND CALLER EQ PUSH2 0x1103 JUMPI PUSH1 0x40 MLOAD PUSH4 0x118CDAA7 PUSH1 0xE0 SHL DUP2 MSTORE CALLER PUSH1 0x4 DUP3 ADD MSTORE PUSH1 0x24 ADD PUSH2 0xAA9 JUMP JUMPDEST PUSH1 0x5 DUP1 SLOAD PUSH1 0x1 PUSH1 0x1 PUSH1 0xA0 SHL SUB DUP4 DUP2 AND PUSH1 0x1 PUSH1 0x1 PUSH1 0xA0 SHL SUB NOT DUP4 AND DUP2 OR SWAP1 SWAP4 SSTORE PUSH1 0x40 MLOAD SWAP2 AND SWAP2 SWAP1 DUP3 SWAP1 PUSH32 0x8BE0079C531659141344CD1FD0A4F28419497F9722A3DAAFE3B4186F6B6457E0 SWAP1 PUSH1 0x0 SWAP1 LOG3 POP POP JUMP JUMPDEST PUSH1 0x0 DUP1 DUP1 JUMPDEST PUSH1 0x8 SLOAD DUP2 LT ISZERO PUSH2 0x2A53 JUMPI PUSH2 0x2A2E PUSH1 0x8 DUP3 DUP2 SLOAD DUP2 LT PUSH2 0x2A0C JUMPI PUSH2 0x2A0C PUSH2 0x31D3 JUMP JUMPDEST PUSH1 0x0 SWAP2 DUP3 MSTORE PUSH1 0x20 SWAP1 SWAP2 KECCAK256 PUSH1 0x4 PUSH1 0x7 SWAP1 SWAP3 MUL ADD ADD SLOAD PUSH1 0x1 PUSH1 0x1 PUSH1 0xA0 SHL SUB AND PUSH2 0xDDE JUMP JUMPDEST ISZERO PUSH2 0x2A41 JUMPI DUP2 PUSH2 0x2A3D DUP2 PUSH2 0x32CC JUMP JUMPDEST SWAP3 POP POP JUMPDEST DUP1 PUSH2 0x2A4B DUP2 PUSH2 0x32CC JUMP JUMPDEST SWAP2 POP POP PUSH2 0x29EC JUMP JUMPDEST POP SWAP2 SWAP1 POP JUMP JUMPDEST PUSH1 0x0 CALLER PUSH2 0x881 DUP2 DUP6 DUP6 PUSH2 0x27B4 JUMP JUMPDEST PUSH1 0x1 PUSH1 0x1 PUSH1 0xA0 SHL SUB DUP5 AND PUSH2 0x2A91 JUMPI PUSH1 0x40 MLOAD PUSH4 0xE602DF05 PUSH1 0xE0 SHL DUP2 MSTORE PUSH1 0x0 PUSH1 0x4 DUP3 ADD MSTORE PUSH1 0x24 ADD PUSH2 0xAA9 JUMP JUMPDEST PUSH1 0x1 PUSH1 0x1 PUSH1 0xA0 SHL SUB DUP4 AND PUSH2 0x2ABB JUMPI PUSH1 0x40 MLOAD PUSH4 0x4A1406B1 PUSH1 0xE1 SHL DUP2 MSTORE PUSH1 0x0 PUSH1 0x4 DUP3 ADD MSTORE PUSH1 0x24 ADD PUSH2 0xAA9 JUMP JUMPDEST PUSH1 0x1 PUSH1 0x1 PUSH1 0xA0 SHL SUB DUP1 DUP6 AND PUSH1 0x0 SWAP1 DUP2 MSTORE PUSH1 0x1 PUSH1 0x20 SWAP1 DUP2 MSTORE PUSH1 0x40 DUP1 DUP4 KECCAK256 SWAP4 DUP8 AND DUP4 MSTORE SWAP3 SWAP1 MSTORE KECCAK256 DUP3 SWAP1 SSTORE DUP1 ISZERO PUSH2 0x27AE JUMPI DUP3 PUSH1 0x1 PUSH1 0x1 PUSH1 0xA0 SHL SUB AND DUP5 PUSH1 0x1 PUSH1 0x1 PUSH1 0xA0 SHL SUB AND PUSH32 0x8C5BE1E5EBEC7D5BD14F71427D1E84F3DD0314C0F7B2291E5B200AC8C7C3B925 DUP5 PUSH1 0x40 MLOAD PUSH2 0x2B2E SWAP2 DUP2 MSTORE PUSH1 0x20 ADD SWAP1 JUMP JUMPDEST PUSH1 0x40 MLOAD DUP1 SWAP2 SUB SWAP1 LOG3 POP POP POP POP JUMP JUMPDEST PUSH1 0x1 PUSH1 0x1 PUSH1 0xA0 SHL SUB DUP4 AND PUSH2 0x2B67 JUMPI DUP1 PUSH1 0x2 PUSH1 0x0 DUP3 DUP3 SLOAD PUSH2 0x2B5C SWAP2 SWAP1 PUSH2 0x32E5 JUMP JUMPDEST SWAP1 SWAP2 SSTORE POP PUSH2 0x2BD9 SWAP1 POP JUMP JUMPDEST PUSH1 0x1 PUSH1 0x1 PUSH1 0xA0 SHL SUB DUP4 AND PUSH1 0x0 SWAP1 DUP2 MSTORE PUSH1 0x20 DUP2 SWAP1 MSTORE PUSH1 0x40 SWAP1 KECCAK256 SLOAD DUP2 DUP2 LT ISZERO PUSH2 0x2BBA JUMPI PUSH1 0x40 MLOAD PUSH4 0x391434E3 PUSH1 0xE2 SHL DUP2 MSTORE PUSH1 0x1 PUSH1 0x1 PUSH1 0xA0 SHL SUB DUP6 AND PUSH1 0x4 DUP3 ADD MSTORE PUSH1 0x24 DUP2 ADD DUP3 SWAP1 MSTORE PUSH1 0x44 DUP2 ADD DUP4 SWAP1 MSTORE PUSH1 0x64 ADD PUSH2 0xAA9 JUMP JUMPDEST PUSH1 0x1 PUSH1 0x1 PUSH1 0xA0 SHL SUB DUP5 AND PUSH1 0x0 SWAP1 DUP2 MSTORE PUSH1 0x20 DUP2 SWAP1 MSTORE PUSH1 0x40 SWAP1 KECCAK256 SWAP1 DUP3 SWAP1 SUB SWAP1 SSTORE JUMPDEST PUSH1 0x1 PUSH1 0x1 PUSH1 0xA0 SHL SUB DUP3 AND PUSH2 0x2BF5 JUMPI PUSH1 0x2 DUP1 SLOAD DUP3 SWAP1 SUB SWAP1 SSTORE PUSH2 0x2C14 JUMP JUMPDEST PUSH1 0x1 PUSH1 0x1 PUSH1 0xA0 SHL SUB DUP3 AND PUSH1 0x0 SWAP1 DUP2 MSTORE PUSH1 0x20 DUP2 SWAP1 MSTORE PUSH1 0x40 SWAP1 KECCAK256 DUP1 SLOAD DUP3 ADD SWAP1 SSTORE JUMPDEST DUP2 PUSH1 0x1 PUSH1 0x1 PUSH1 0xA0 SHL SUB AND DUP4 PUSH1 0x1 PUSH1 0x1 PUSH1 0xA0 SHL SUB AND PUSH32 0xDDF252AD1BE2C89B69C2B068FC378DAA952BA7F163C4A11628F55A4DF523B3EF DUP4 PUSH1 0x40 MLOAD PUSH2 0x2C59 SWAP2 DUP2 MSTORE PUSH1 0x20 ADD SWAP1 JUMP JUMPDEST PUSH1 0x40 MLOAD DUP1 SWAP2 SUB SWAP1 LOG3 POP POP POP JUMP JUMPDEST DUP3 DUP1 SLOAD DUP3 DUP3 SSTORE SWAP1 PUSH1 0x0 MSTORE PUSH1 0x20 PUSH1 0x0 KECCAK256 SWAP1 DUP2 ADD SWAP3 DUP3 ISZERO PUSH2 0x2CA1 JUMPI SWAP2 PUSH1 0x20 MUL DUP3 ADD JUMPDEST DUP3 DUP2 GT ISZERO PUSH2 0x2CA1 JUMPI DUP3 MLOAD DUP3 SSTORE SWAP2 PUSH1 0x20 ADD SWAP2 SWAP1 PUSH1 0x1 ADD SWAP1 PUSH2 0x2C86 JUMP JUMPDEST POP PUSH2 0x1EC9 SWAP3 SWAP2 POP JUMPDEST DUP1 DUP3 GT ISZERO PUSH2 0x1EC9 JUMPI PUSH1 0x0 DUP2 SSTORE PUSH1 0x1 ADD PUSH2 0x2CA9 JUMP JUMPDEST PUSH1 0x0 PUSH1 0x20 DUP3 DUP5 SUB SLT ISZERO PUSH2 0x2CCF JUMPI PUSH1 0x0 DUP1 REVERT JUMPDEST POP CALLDATALOAD SWAP2 SWAP1 POP JUMP JUMPDEST PUSH1 0x0 DUP2 MLOAD DUP1 DUP5 MSTORE PUSH1 0x0 JUMPDEST DUP2 DUP2 LT ISZERO PUSH2 0x2CFC JUMPI PUSH1 0x20 DUP2 DUP6 ADD DUP2 ADD MLOAD DUP7 DUP4 ADD DUP3 ADD MSTORE ADD PUSH2 0x2CE0 JUMP JUMPDEST POP PUSH1 0x0 PUSH1 0x20 DUP3 DUP7 ADD ADD MSTORE PUSH1 0x20 PUSH1 0x1F NOT PUSH1 0x1F DUP4 ADD AND DUP6 ADD ADD SWAP2 POP POP SWAP3 SWAP2 POP POP JUMP JUMPDEST PUSH1 0xE0 DUP2 MSTORE PUSH1 0x0 PUSH2 0x2D2F PUSH1 0xE0 DUP4 ADD DUP11 PUSH2 0x2CD6 JUMP JUMPDEST PUSH1 0x20 DUP4 ADD SWAP9 SWAP1 SWAP9 MSTORE POP PUSH1 0x1 PUSH1 0x1 PUSH1 0xA0 SHL SUB SWAP6 SWAP1 SWAP6 AND PUSH1 0x40 DUP7 ADD MSTORE PUSH1 0x60 DUP6 ADD SWAP4 SWAP1 SWAP4 MSTORE SWAP1 ISZERO ISZERO PUSH1 0x80 DUP5 ADD MSTORE PUSH1 0xA0 DUP4 ADD MSTORE PUSH1 0xC0 SWAP1 SWAP2 ADD MSTORE SWAP2 SWAP1 POP JUMP JUMPDEST PUSH1 0x20 DUP2 MSTORE PUSH1 0x0 PUSH2 0x1B4E PUSH1 0x20 DUP4 ADD DUP5 PUSH2 0x2CD6 JUMP JUMPDEST DUP1 CALLDATALOAD PUSH1 0x1 PUSH1 0x1 PUSH1 0xA0 SHL SUB DUP2 AND DUP2 EQ PUSH2 0x2D93 JUMPI PUSH1 0x0 DUP1 REVERT JUMPDEST SWAP2 SWAP1 POP JUMP JUMPDEST PUSH1 0x0 DUP1 PUSH1 0x40 DUP4 DUP6 SUB SLT ISZERO PUSH2 0x2DAB JUMPI PUSH1 0x0 DUP1 REVERT JUMPDEST DUP3 CALLDATALOAD SWAP2 POP PUSH2 0x2DBB PUSH1 0x20 DUP5 ADD PUSH2 0x2D7C JUMP JUMPDEST SWAP1 POP SWAP3 POP SWAP3 SWAP1 POP JUMP JUMPDEST PUSH1 0x0 DUP1 PUSH1 0x40 DUP4 DUP6 SUB SLT ISZERO PUSH2 0x2DD7 JUMPI PUSH1 0x0 DUP1 REVERT JUMPDEST PUSH2 0x2DE0 DUP4 PUSH2 0x2D7C JUMP JUMPDEST SWAP5 PUSH1 0x20 SWAP4 SWAP1 SWAP4 ADD CALLDATALOAD SWAP4 POP POP POP JUMP JUMPDEST PUSH1 0x0 DUP1 PUSH1 0x0 PUSH1 0x60 DUP5 DUP7 SUB SLT ISZERO PUSH2 0x2E03 JUMPI PUSH1 0x0 DUP1 REVERT JUMPDEST PUSH2 0x2E0C DUP5 PUSH2 0x2D7C JUMP JUMPDEST SWAP3 POP PUSH2 0x2E1A PUSH1 0x20 DUP6 ADD PUSH2 0x2D7C JUMP JUMPDEST SWAP2 POP PUSH1 0x40 DUP5 ADD CALLDATALOAD SWAP1 POP SWAP3 POP SWAP3 POP SWAP3 JUMP JUMPDEST PUSH1 0x80 DUP2 MSTORE PUSH1 0x0 PUSH2 0x2E3D PUSH1 0x80 DUP4 ADD DUP8 PUSH2 0x2CD6 JUMP JUMPDEST PUSH1 0x20 DUP4 ADD SWAP6 SWAP1 SWAP6 MSTORE POP PUSH1 0x40 DUP2 ADD SWAP3 SWAP1 SWAP3 MSTORE PUSH1 0x60 SWAP1 SWAP2 ADD MSTORE SWAP2 SWAP1 POP JUMP JUMPDEST DUP1 ISZERO ISZERO DUP2 EQ PUSH2 0xB1F JUMPI PUSH1 0x0 DUP1 REVERT JUMPDEST PUSH1 0x0 DUP1 PUSH1 0x40 DUP4 DUP6 SUB SLT ISZERO PUSH2 0x2E7A JUMPI PUSH1 0x0 DUP1 REVERT JUMPDEST DUP3 CALLDATALOAD SWAP2 POP PUSH1 0x20 DUP4 ADD CALLDATALOAD PUSH2 0x2E8C DUP2 PUSH2 0x2E59 JUMP JUMPDEST DUP1 SWAP2 POP POP SWAP3 POP SWAP3 SWAP1 POP JUMP JUMPDEST PUSH1 0x0 PUSH1 0x20 DUP3 DUP5 SUB SLT ISZERO PUSH2 0x2EA9 JUMPI PUSH1 0x0 DUP1 REVERT JUMPDEST PUSH2 0x1B4E DUP3 PUSH2 0x2D7C JUMP JUMPDEST PUSH1 0x0 DUP1 DUP4 PUSH1 0x1F DUP5 ADD SLT PUSH2 0x2EC4 JUMPI PUSH1 0x0 DUP1 REVERT JUMPDEST POP DUP2 CALLDATALOAD PUSH8 0xFFFFFFFFFFFFFFFF DUP2 GT ISZERO PUSH2 0x2EDC JUMPI PUSH1 0x0 DUP1 REVERT JUMPDEST PUSH1 0x20 DUP4 ADD SWAP2 POP DUP4 PUSH1 0x20 DUP3 PUSH1 0x5 SHL DUP6 ADD ADD GT ISZERO PUSH2 0x2EF7 JUMPI PUSH1 0x0 DUP1 REVERT JUMPDEST SWAP3 POP SWAP3 SWAP1 POP JUMP JUMPDEST PUSH1 0x0 DUP1 PUSH1 0x0 PUSH1 0x40 DUP5 DUP7 SUB SLT ISZERO PUSH2 0x2F13 JUMPI PUSH1 0x0 DUP1 REVERT JUMPDEST DUP4 CALLDATALOAD SWAP3 POP PUSH1 0x20 DUP5 ADD CALLDATALOAD PUSH8 0xFFFFFFFFFFFFFFFF DUP2 GT ISZERO PUSH2 0x2F31 JUMPI PUSH1 0x0 DUP1 REVERT JUMPDEST PUSH2 0x2F3D DUP7 DUP3 DUP8 ADD PUSH2 0x2EB2 JUMP JUMPDEST SWAP5 SWAP8 SWAP1 SWAP7 POP SWAP4 SWAP5 POP POP POP POP JUMP JUMPDEST PUSH1 0x0 DUP2 MLOAD DUP1 DUP5 MSTORE PUSH1 0x20 DUP1 DUP6 ADD SWAP5 POP DUP1 DUP5 ADD PUSH1 0x0 JUMPDEST DUP4 DUP2 LT ISZERO PUSH2 0x2F7A JUMPI DUP2 MLOAD DUP8 MSTORE SWAP6 DUP3 ADD SWAP6 SWAP1 DUP3 ADD SWAP1 PUSH1 0x1 ADD PUSH2 0x2F5E JUMP JUMPDEST POP SWAP5 SWAP6 SWAP5 POP POP POP POP POP JUMP JUMPDEST DUP3 DUP2 MSTORE PUSH1 0x40 PUSH1 0x20 DUP3 ADD MSTORE PUSH1 0x0 PUSH2 0x2F9E PUSH1 0x40 DUP4 ADD DUP5 PUSH2 0x2F4A JUMP JUMPDEST SWAP5 SWAP4 POP POP POP POP JUMP JUMPDEST PUSH1 0xC0 DUP2 MSTORE PUSH1 0x0 PUSH2 0x2FB9 PUSH1 0xC0 DUP4 ADD DUP10 PUSH2 0x2CD6 JUMP JUMPDEST PUSH1 0x20 DUP4 ADD SWAP8 SWAP1 SWAP8 MSTORE POP PUSH1 0x40 DUP2 ADD SWAP5 SWAP1 SWAP5 MSTORE PUSH1 0x60 DUP5 ADD SWAP3 SWAP1 SWAP3 MSTORE PUSH1 0x1 PUSH1 0x1 PUSH1 0xA0 SHL SUB AND PUSH1 0x80 DUP4 ADD MSTORE PUSH1 0xA0 SWAP1 SWAP2 ADD MSTORE SWAP2 SWAP1 POP JUMP JUMPDEST PUSH1 0x0 DUP1 DUP4 PUSH1 0x1F DUP5 ADD SLT PUSH2 0x2FFD JUMPI PUSH1 0x0 DUP1 REVERT JUMPDEST POP DUP2 CALLDATALOAD PUSH8 0xFFFFFFFFFFFFFFFF DUP2 GT ISZERO PUSH2 0x3015 JUMPI PUSH1 0x0 DUP1 REVERT JUMPDEST PUSH1 0x20 DUP4 ADD SWAP2 POP DUP4 PUSH1 0x20 DUP3 DUP6 ADD ADD GT ISZERO PUSH2 0x2EF7 JUMPI PUSH1 0x0 DUP1 REVERT JUMPDEST PUSH1 0x0 DUP1 PUSH1 0x0 DUP1 PUSH1 0x0 DUP1 PUSH1 0x0 PUSH1 0x80 DUP9 DUP11 SUB SLT ISZERO PUSH2 0x3048 JUMPI PUSH1 0x0 DUP1 REVERT JUMPDEST DUP8 CALLDATALOAD PUSH8 0xFFFFFFFFFFFFFFFF DUP1 DUP3 GT ISZERO PUSH2 0x3060 JUMPI PUSH1 0x0 DUP1 REVERT JUMPDEST PUSH2 0x306C DUP12 DUP4 DUP13 ADD PUSH2 0x2FEB JUMP JUMPDEST SWAP1 SWAP10 POP SWAP8 POP PUSH1 0x20 DUP11 ADD CALLDATALOAD SWAP7 POP PUSH1 0x40 DUP11 ADD CALLDATALOAD SWAP2 POP DUP1 DUP3 GT ISZERO PUSH2 0x308C JUMPI PUSH1 0x0 DUP1 REVERT JUMPDEST PUSH2 0x3098 DUP12 DUP4 DUP13 ADD PUSH2 0x2EB2 JUMP JUMPDEST SWAP1 SWAP7 POP SWAP5 POP PUSH1 0x60 DUP11 ADD CALLDATALOAD SWAP2 POP DUP1 DUP3 GT ISZERO PUSH2 0x30B1 JUMPI PUSH1 0x0 DUP1 REVERT JUMPDEST POP PUSH2 0x30BE DUP11 DUP3 DUP12 ADD PUSH2 0x2EB2 JUMP JUMPDEST SWAP9 SWAP12 SWAP8 SWAP11 POP SWAP6 SWAP9 POP SWAP4 SWAP7 SWAP3 SWAP6 SWAP3 SWAP4 POP POP POP JUMP JUMPDEST PUSH1 0x0 DUP1 PUSH1 0x40 DUP4 DUP6 SUB SLT ISZERO PUSH2 0x30E4 JUMPI PUSH1 0x0 DUP1 REVERT JUMPDEST PUSH2 0x30ED DUP4 PUSH2 0x2D7C JUMP JUMPDEST SWAP2 POP PUSH2 0x2DBB PUSH1 0x20 DUP5 ADD PUSH2 0x2D7C JUMP JUMPDEST PUSH1 0x0 DUP1 PUSH1 0x0 DUP1 PUSH1 0x0 PUSH1 0x80 DUP7 DUP9 SUB SLT ISZERO PUSH2 0x3113 JUMPI PUSH1 0x0 DUP1 REVERT JUMPDEST DUP6 CALLDATALOAD PUSH8 0xFFFFFFFFFFFFFFFF DUP2 GT ISZERO PUSH2 0x312A JUMPI PUSH1 0x0 DUP1 REVERT JUMPDEST PUSH2 0x3136 DUP9 DUP3 DUP10 ADD PUSH2 0x2FEB JUMP JUMPDEST SWAP1 SWAP10 SWAP1 SWAP9 POP PUSH1 0x20 DUP9 ADD CALLDATALOAD SWAP8 PUSH1 0x40 DUP2 ADD CALLDATALOAD SWAP8 POP PUSH1 0x60 ADD CALLDATALOAD SWAP6 POP SWAP4 POP POP POP POP JUMP JUMPDEST PUSH1 0x80 DUP2 MSTORE PUSH1 0x0 PUSH2 0x3168 PUSH1 0x80 DUP4 ADD DUP8 PUSH2 0x2CD6 JUMP JUMPDEST DUP6 PUSH1 0x20 DUP5 ADD MSTORE DUP3 DUP2 SUB PUSH1 0x40 DUP5 ADD MSTORE PUSH2 0x3180 DUP2 DUP7 PUSH2 0x2F4A JUMP JUMPDEST SWAP1 POP DUP3 DUP2 SUB PUSH1 0x60 DUP5 ADD MSTORE PUSH2 0x3194 DUP2 DUP6 PUSH2 0x2F4A JUMP JUMPDEST SWAP8 SWAP7 POP POP POP POP POP POP POP JUMP JUMPDEST PUSH1 0x1 DUP2 DUP2 SHR SWAP1 DUP3 AND DUP1 PUSH2 0x31B3 JUMPI PUSH1 0x7F DUP3 AND SWAP2 POP JUMPDEST PUSH1 0x20 DUP3 LT DUP2 SUB PUSH2 0x2A53 JUMPI PUSH4 0x4E487B71 PUSH1 0xE0 SHL PUSH1 0x0 MSTORE PUSH1 0x22 PUSH1 0x4 MSTORE PUSH1 0x24 PUSH1 0x0 REVERT JUMPDEST PUSH4 0x4E487B71 PUSH1 0xE0 SHL PUSH1 0x0 MSTORE PUSH1 0x32 PUSH1 0x4 MSTORE PUSH1 0x24 PUSH1 0x0 REVERT JUMPDEST PUSH1 0x20 DUP1 DUP3 MSTORE PUSH1 0x6D SWAP1 DUP3 ADD MSTORE PUSH32 0x53696E63652074686973207472616E7366657220656E647320796F7572206D65 PUSH1 0x40 DUP3 ADD MSTORE PUSH32 0x6D626572736869702064756520746F2062616C616E636520616E6420796F7520 PUSH1 0x60 DUP3 ADD MSTORE PUSH32 0x6861766520756E66696E697368656420766F74696E672C2070726F6365737320 PUSH1 0x80 DUP3 ADD MSTORE PUSH13 0x34B99031B0B731B2B63632B217 PUSH1 0x99 SHL PUSH1 0xA0 DUP3 ADD MSTORE PUSH1 0xC0 ADD SWAP1 JUMP JUMPDEST PUSH4 0x4E487B71 PUSH1 0xE0 SHL PUSH1 0x0 MSTORE PUSH1 0x11 PUSH1 0x4 MSTORE PUSH1 0x24 PUSH1 0x0 REVERT JUMPDEST DUP2 DUP2 SUB DUP2 DUP2 GT ISZERO PUSH2 0x887 JUMPI PUSH2 0x887 PUSH2 0x3282 JUMP JUMPDEST PUSH1 0x20 DUP1 DUP3 MSTORE PUSH1 0x7 SWAP1 DUP3 ADD MSTORE PUSH7 0x115E1C1A5C9959 PUSH1 0xCA SHL PUSH1 0x40 DUP3 ADD MSTORE PUSH1 0x60 ADD SWAP1 JUMP JUMPDEST PUSH1 0x0 PUSH1 0x1 DUP3 ADD PUSH2 0x32DE JUMPI PUSH2 0x32DE PUSH2 0x3282 JUMP JUMPDEST POP PUSH1 0x1 ADD SWAP1 JUMP JUMPDEST DUP1 DUP3 ADD DUP1 DUP3 GT ISZERO PUSH2 0x887 JUMPI PUSH2 0x887 PUSH2 0x3282 JUMP JUMPDEST DUP1 DUP3 MUL DUP2 ISZERO DUP3 DUP3 DIV DUP5 EQ OR PUSH2 0x887 JUMPI PUSH2 0x887 PUSH2 0x3282 JUMP JUMPDEST PUSH1 0x0 PUSH1 0x20 DUP3 DUP5 SUB SLT ISZERO PUSH2 0x3321 JUMPI PUSH1 0x0 DUP1 REVERT JUMPDEST DUP2 MLOAD PUSH2 0x1B4E DUP2 PUSH2 0x2E59 JUMP JUMPDEST PUSH4 0x4E487B71 PUSH1 0xE0 SHL PUSH1 0x0 MSTORE PUSH1 0x41 PUSH1 0x4 MSTORE PUSH1 0x24 PUSH1 0x0 REVERT JUMPDEST PUSH1 0x1F DUP3 GT ISZERO PUSH2 0x1417 JUMPI PUSH1 0x0 DUP2 DUP2 MSTORE PUSH1 0x20 DUP2 KECCAK256 PUSH1 0x1F DUP6 ADD PUSH1 0x5 SHR DUP2 ADD PUSH1 0x20 DUP7 LT ISZERO PUSH2 0x3369 JUMPI POP DUP1 JUMPDEST PUSH1 0x1F DUP6 ADD PUSH1 0x5 SHR DUP3 ADD SWAP2 POP JUMPDEST DUP2 DUP2 LT ISZERO PUSH2 0x3388 JUMPI DUP3 DUP2 SSTORE PUSH1 0x1 ADD PUSH2 0x3375 JUMP JUMPDEST POP POP POP POP POP POP JUMP JUMPDEST DUP2 MLOAD PUSH8 0xFFFFFFFFFFFFFFFF DUP2 GT ISZERO PUSH2 0x33AA JUMPI PUSH2 0x33AA PUSH2 0x332C JUMP JUMPDEST PUSH2 0x33BE DUP2 PUSH2 0x33B8 DUP5 SLOAD PUSH2 0x319F JUMP JUMPDEST DUP5 PUSH2 0x3342 JUMP JUMPDEST PUSH1 0x20 DUP1 PUSH1 0x1F DUP4 GT PUSH1 0x1 DUP2 EQ PUSH2 0x33F3 JUMPI PUSH1 0x0 DUP5 ISZERO PUSH2 0x33DB JUMPI POP DUP6 DUP4 ADD MLOAD JUMPDEST PUSH1 0x0 NOT PUSH1 0x3 DUP7 SWAP1 SHL SHR NOT AND PUSH1 0x1 DUP6 SWAP1 SHL OR DUP6 SSTORE PUSH2 0x3388 JUMP JUMPDEST PUSH1 0x0 DUP6 DUP2 MSTORE PUSH1 0x20 DUP2 KECCAK256 PUSH1 0x1F NOT DUP7 AND SWAP2 JUMPDEST DUP3 DUP2 LT ISZERO PUSH2 0x3422 JUMPI DUP9 DUP7 ADD MLOAD DUP3 SSTORE SWAP5 DUP5 ADD SWAP5 PUSH1 0x1 SWAP1 SWAP2 ADD SWAP1 DUP5 ADD PUSH2 0x3403 JUMP JUMPDEST POP DUP6 DUP3 LT ISZERO PUSH2 0x3440 JUMPI DUP8 DUP6 ADD MLOAD PUSH1 0x0 NOT PUSH1 0x3 DUP9 SWAP1 SHL PUSH1 0xF8 AND SHR NOT AND DUP2 SSTORE JUMPDEST POP POP POP POP POP PUSH1 0x1 SWAP1 DUP2 SHL ADD SWAP1 SSTORE POP JUMP JUMPDEST PUSH1 0x0 PUSH1 0x20 DUP3 DUP5 SUB SLT ISZERO PUSH2 0x3462 JUMPI PUSH1 0x0 DUP1 REVERT JUMPDEST POP MLOAD SWAP2 SWAP1 POP JUMP INVALID LOG2 PUSH5 0x6970667358 0x22 SLT KECCAK256 REVERT 0xDA LOG3 0xE9 INVALID 0xE7 0x26 0x4A PUSH22 0xA2E2DDB9BCE12157AFE3EB0E6ED3A25E226BBD4A8095 0x5E PUSH5 0x736F6C6343 STOP ADDMOD EQ STOP CALLER "},"methodIdentifiers":{"MAX_SUPPLY()":"32cb6b0c","allowance(address,address)":"dd62ed3e","approve(address,uint256)":"095ea7b3","balanceOf(address)":"70a08231","decimals()":"313ce567","delegateVoteTo(address,uint256)":"a1669b32","donateMyGovToken(uint256)":"39c94d2d","donateTLToken(uint256)":"b70e36ce","extraVotes(uint256,address)":"076ef625","faucet()":"de5f72fd","faucetClaimed(address)":"89903dc7","getIsProjectFunded(uint256)":"7c405164","getNoOfFundedProjects()":"bf50556d","getNoOfProjectProposals()":"23fd498b","getNoOfSurveys()":"5d801b37","getProjectInfo(uint256)":"fabf5968","getProjectNextTLPayment(uint256)":"6632fa18","getProjectOwner(uint256)":"92256aec","getSurveyInfo(uint256)":"2e8f3413","getSurveyOwner(uint256)":"875b5076","getSurveyResults(uint256)":"70a56c73","getTLReceivedByProject(uint256)":"579b5a47","hasDelegated(uint256,address)":"55f3985b","hasVoted(uint256,address)":"43859632","hasVotedForPayment(uint256,address)":"0eab6409","isContractMember(address)":"619aa727","isMember(address)":"a230c524","name()":"06fdde03","owner()":"8da5cb5b","paymentVotes(uint256)":"73cbccba","proposals(uint256)":"013cf08b","renounceOwnership()":"715018a6","reserveProjectGrant(uint256)":"bd275764","submitProjectProposal(string,uint256,uint256[],uint256[])":"a5e898e1","submitSurvey(string,uint256,uint256,uint256)":"ef269ae3","surveys(uint256)":"86e68b90","symbol()":"95d89b41","takeSurvey(uint256,uint256[])":"702798df","tlToken()":"a0b75d8c","totalSupply()":"18160ddd","transfer(address,uint256)":"a9059cbb","transferFrom(address,address,uint256)":"23b872dd","transferOwnership(address)":"f2fde38b","voteForProjectPayment(uint256,bool)":"42caaeb4","voteForProjectProposal(uint256,bool)":"f22449ba","withdrawProjectTLPayment(uint256)":"853cc4b6"}}}}}