{"contracts/MyGov.sol":{"MyGov":{"abi":[{"inputs":[{"internalType":"address","name":"_tlToken","type":"address"}],"stateMutability":"nonpayable","type":"constructor"},{"inputs":[{"internalType":"address","name":"spender","type":"address"},{"internalType":"uint256","name":"allowance","type":"uint256"},{"internalType":"uint256","name":"needed","type":"uint256"}],"name":"ERC20InsufficientAllowance","type":"error"},{"inputs":[{"internalType":"address","name":"sender","type":"address"},{"internalType":"uint256","name":"balance","type":"uint256"},{"internalType":"uint256","name":"needed","type":"uint256"}],"name":"ERC20InsufficientBalance","type":"error"},{"inputs":[{"internalType":"address","name":"approver","type":"address"}],"name":"ERC20InvalidApprover","type":"error"},{"inputs":[{"internalType":"address","name":"receiver","type":"address"}],"name":"ERC20InvalidReceiver","type":"error"},{"inputs":[{"internalType":"address","name":"sender","type":"address"}],"name":"ERC20InvalidSender","type":"error"},{"inputs":[{"internalType":"address","name":"spender","type":"address"}],"name":"ERC20InvalidSpender","type":"error"},{"inputs":[{"internalType":"address","name":"owner","type":"address"}],"name":"OwnableInvalidOwner","type":"error"},{"inputs":[{"internalType":"address","name":"account","type":"address"}],"name":"OwnableUnauthorizedAccount","type":"error"},{"anonymous":false,"inputs":[{"indexed":true,"internalType":"address","name":"owner","type":"address"},{"indexed":true,"internalType":"address","name":"spender","type":"address"},{"indexed":false,"internalType":"uint256","name":"value","type":"uint256"}],"name":"Approval","type":"event"},{"anonymous":false,"inputs":[{"indexed":true,"internalType":"address","name":"previousOwner","type":"address"},{"indexed":true,"internalType":"address","name":"newOwner","type":"address"}],"name":"OwnershipTransferred","type":"event"},{"anonymous":false,"inputs":[{"indexed":true,"internalType":"address","name":"from","type":"address"},{"indexed":true,"internalType":"address","name":"to","type":"address"},{"indexed":false,"internalType":"uint256","name":"value","type":"uint256"}],"name":"Transfer","type":"event"},{"inputs":[],"name":"MAX_SUPPLY","outputs":[{"internalType":"uint256","name":"","type":"uint256"}],"stateMutability":"view","type":"function"},{"inputs":[{"internalType":"address","name":"owner","type":"address"},{"internalType":"address","name":"spender","type":"address"}],"name":"allowance","outputs":[{"internalType":"uint256","name":"","type":"uint256"}],"stateMutability":"view","type":"function"},{"inputs":[{"internalType":"address","name":"spender","type":"address"},{"internalType":"uint256","name":"value","type":"uint256"}],"name":"approve","outputs":[{"internalType":"bool","name":"","type":"bool"}],"stateMutability":"nonpayable","type":"function"},{"inputs":[{"internalType":"address","name":"account","type":"address"}],"name":"balanceOf","outputs":[{"internalType":"uint256","name":"","type":"uint256"}],"stateMutability":"view","type":"function"},{"inputs":[],"name":"decimals","outputs":[{"internalType":"uint8","name":"","type":"uint8"}],"stateMutability":"view","type":"function"},{"inputs":[{"internalType":"address","name":"memberaddr","type":"address"},{"internalType":"uint256","name":"projectid","type":"uint256"}],"name":"delegateVoteTo","outputs":[],"stateMutability":"nonpayable","type":"function"},{"inputs":[{"internalType":"uint256","name":"amount","type":"uint256"}],"name":"donateMyGovToken","outputs":[],"stateMutability":"nonpayable","type":"function"},{"inputs":[{"internalType":"uint256","name":"amount","type":"uint256"}],"name":"donateTLToken","outputs":[],"stateMutability":"nonpayable","type":"function"},{"inputs":[{"internalType":"uint256","name":"","type":"uint256"},{"internalType":"address","name":"","type":"address"}],"name":"extraVotes","outputs":[{"internalType":"uint256","name":"","type":"uint256"}],"stateMutability":"view","type":"function"},{"inputs":[],"name":"faucet","outputs":[],"stateMutability":"nonpayable","type":"function"},{"inputs":[{"internalType":"address","name":"","type":"address"}],"name":"faucetClaimed","outputs":[{"internalType":"bool","name":"","type":"bool"}],"stateMutability":"view","type":"function"},{"inputs":[{"internalType":"uint256","name":"projectid","type":"uint256"}],"name":"getIsProjectFunded","outputs":[{"internalType":"bool","name":"","type":"bool"}],"stateMutability":"view","type":"function"},{"inputs":[],"name":"getNoOfFundedProjects","outputs":[{"internalType":"uint256","name":"count","type":"uint256"}],"stateMutability":"view","type":"function"},{"inputs":[],"name":"getNoOfProjectProposals","outputs":[{"internalType":"uint256","name":"","type":"uint256"}],"stateMutability":"view","type":"function"},{"inputs":[],"name":"getNoOfSurveys","outputs":[{"internalType":"uint256","name":"","type":"uint256"}],"stateMutability":"view","type":"function"},{"inputs":[{"internalType":"uint256","name":"activityid","type":"uint256"}],"name":"getProjectInfo","outputs":[{"internalType":"string","name":"","type":"string"},{"internalType":"uint256","name":"","type":"uint256"},{"internalType":"uint256[]","name":"","type":"uint256[]"},{"internalType":"uint256[]","name":"","type":"uint256[]"}],"stateMutability":"view","type":"function"},{"inputs":[{"internalType":"uint256","name":"projectid","type":"uint256"}],"name":"getProjectNextTLPayment","outputs":[{"internalType":"int256","name":"","type":"int256"}],"stateMutability":"view","type":"function"},{"inputs":[{"internalType":"uint256","name":"projectid","type":"uint256"}],"name":"getProjectOwner","outputs":[{"internalType":"address","name":"","type":"address"}],"stateMutability":"view","type":"function"},{"inputs":[{"internalType":"uint256","name":"surveyid","type":"uint256"}],"name":"getSurveyInfo","outputs":[{"internalType":"string","name":"","type":"string"},{"internalType":"uint256","name":"","type":"uint256"},{"internalType":"uint256","name":"","type":"uint256"},{"internalType":"uint256","name":"","type":"uint256"}],"stateMutability":"view","type":"function"},{"inputs":[{"internalType":"uint256","name":"surveyid","type":"uint256"}],"name":"getSurveyOwner","outputs":[{"internalType":"address","name":"","type":"address"}],"stateMutability":"view","type":"function"},{"inputs":[{"internalType":"uint256","name":"surveyid","type":"uint256"}],"name":"getSurveyResults","outputs":[{"internalType":"uint256","name":"","type":"uint256"},{"internalType":"uint256[]","name":"","type":"uint256[]"}],"stateMutability":"view","type":"function"},{"inputs":[{"internalType":"uint256","name":"projectid","type":"uint256"}],"name":"getTLReceivedByProject","outputs":[{"internalType":"uint256","name":"total","type":"uint256"}],"stateMutability":"view","type":"function"},{"inputs":[{"internalType":"uint256","name":"","type":"uint256"},{"internalType":"address","name":"","type":"address"}],"name":"hasDelegated","outputs":[{"internalType":"bool","name":"","type":"bool"}],"stateMutability":"view","type":"function"},{"inputs":[{"internalType":"uint256","name":"","type":"uint256"},{"internalType":"address","name":"","type":"address"}],"name":"hasVoted","outputs":[{"internalType":"bool","name":"","type":"bool"}],"stateMutability":"view","type":"function"},{"inputs":[{"internalType":"uint256","name":"","type":"uint256"},{"internalType":"address","name":"","type":"address"}],"name":"hasVotedForPayment","outputs":[{"internalType":"bool","name":"","type":"bool"}],"stateMutability":"view","type":"function"},{"inputs":[{"internalType":"address","name":"user","type":"address"}],"name":"isContractMember","outputs":[{"internalType":"bool","name":"","type":"bool"}],"stateMutability":"view","type":"function"},{"inputs":[{"internalType":"address","name":"","type":"address"}],"name":"isMember","outputs":[{"internalType":"bool","name":"","type":"bool"}],"stateMutability":"view","type":"function"},{"inputs":[],"name":"name","outputs":[{"internalType":"string","name":"","type":"string"}],"stateMutability":"view","type":"function"},{"inputs":[],"name":"owner","outputs":[{"internalType":"address","name":"","type":"address"}],"stateMutability":"view","type":"function"},{"inputs":[{"internalType":"uint256","name":"","type":"uint256"}],"name":"paymentVotes","outputs":[{"internalType":"uint256","name":"","type":"uint256"}],"stateMutability":"view","type":"function"},{"inputs":[{"internalType":"uint256","name":"","type":"uint256"}],"name":"proposals","outputs":[{"internalType":"string","name":"weburl","type":"string"},{"internalType":"uint256","name":"votedeadline","type":"uint256"},{"internalType":"address","name":"owner","type":"address"},{"internalType":"uint256","name":"yesVotes","type":"uint256"},{"internalType":"bool","name":"funded","type":"bool"},{"internalType":"uint256","name":"reservedTime","type":"uint256"},{"internalType":"uint256","name":"lastPaidIndex","type":"uint256"}],"stateMutability":"view","type":"function"},{"inputs":[],"name":"renounceOwnership","outputs":[],"stateMutability":"nonpayable","type":"function"},{"inputs":[{"internalType":"uint256","name":"projectid","type":"uint256"}],"name":"reserveProjectGrant","outputs":[],"stateMutability":"nonpayable","type":"function"},{"inputs":[{"internalType":"string","name":"weburl","type":"string"},{"internalType":"uint256","name":"votedeadline","type":"uint256"},{"internalType":"uint256[]","name":"paymentamounts","type":"uint256[]"},{"internalType":"uint256[]","name":"payschedule","type":"uint256[]"}],"name":"submitProjectProposal","outputs":[{"internalType":"uint256","name":"","type":"uint256"}],"stateMutability":"nonpayable","type":"function"},{"inputs":[{"internalType":"string","name":"weburl","type":"string"},{"internalType":"uint256","name":"surveydeadline","type":"uint256"},{"internalType":"uint256","name":"numchoices","type":"uint256"},{"internalType":"uint256","name":"atmostchoices","type":"uint256"}],"name":"submitSurvey","outputs":[{"internalType":"uint256","name":"","type":"uint256"}],"stateMutability":"nonpayable","type":"function"},{"inputs":[{"internalType":"uint256","name":"","type":"uint256"}],"name":"surveys","outputs":[{"internalType":"string","name":"weburl","type":"string"},{"internalType":"uint256","name":"surveydeadline","type":"uint256"},{"internalType":"uint256","name":"numchoices","type":"uint256"},{"internalType":"uint256","name":"atmostchoices","type":"uint256"},{"internalType":"address","name":"owner","type":"address"},{"internalType":"uint256","name":"takerCount","type":"uint256"}],"stateMutability":"view","type":"function"},{"inputs":[],"name":"symbol","outputs":[{"internalType":"string","name":"","type":"string"}],"stateMutability":"view","type":"function"},{"inputs":[{"internalType":"uint256","name":"surveyid","type":"uint256"},{"internalType":"uint256[]","name":"choices","type":"uint256[]"}],"name":"takeSurvey","outputs":[],"stateMutability":"nonpayable","type":"function"},{"inputs":[{"internalType":"address","name":"to","type":"address"},{"internalType":"uint256","name":"amount","type":"uint256"}],"name":"testFund","outputs":[],"stateMutability":"nonpayable","type":"function"},{"inputs":[],"name":"tlToken","outputs":[{"internalType":"contract ITLToken","name":"","type":"address"}],"stateMutability":"view","type":"function"},{"inputs":[],"name":"totalSupply","outputs":[{"internalType":"uint256","name":"","type":"uint256"}],"stateMutability":"view","type":"function"},{"inputs":[{"internalType":"address","name":"to","type":"address"},{"internalType":"uint256","name":"amount","type":"uint256"}],"name":"transfer","outputs":[{"internalType":"bool","name":"","type":"bool"}],"stateMutability":"nonpayable","type":"function"},{"inputs":[{"internalType":"address","name":"from","type":"address"},{"internalType":"address","name":"to","type":"address"},{"internalType":"uint256","name":"value","type":"uint256"}],"name":"transferFrom","outputs":[{"internalType":"bool","name":"","type":"bool"}],"stateMutability":"nonpayable","type":"function"},{"inputs":[{"internalType":"address","name":"newOwner","type":"address"}],"name":"transferOwnership","outputs":[],"stateMutability":"nonpayable","type":"function"},{"inputs":[{"internalType":"uint256","name":"projectid","type":"uint256"},{"internalType":"bool","name":"choice","type":"bool"}],"name":"voteForProjectPayment","outputs":[],"stateMutability":"nonpayable","type":"function"},{"inputs":[{"internalType":"uint256","name":"projectid","type":"uint256"},{"internalType":"bool","name":"choice","type":"bool"}],"name":"voteForProjectProposal","outputs":[],"stateMutability":"nonpayable","type":"function"},{"inputs":[{"internalType":"uint256","name":"projectid","type":"uint256"}],"name":"withdrawProjectTLPayment","outputs":[],"stateMutability":"nonpayable","type":"function"}],"evm":{"bytecode":{"linkReferences":{},"object":"608060405234801561001057600080fd5b5060405161395c38038061395c83398101604081905261002f916102af565b336040518060400160405280600581526020016426bca3b7bb60d91b8152506040518060400160405280600481526020016326a3a7ab60e11b815250816003908161007a919061037e565b506004610087828261037e565b5050506001600160a01b0381166100b957604051631e4fbdf760e01b8152600060048201526024015b60405180910390fd5b6100c2816100f9565b50600680546001600160a01b0319166001600160a01b0383161790556100f3306a084595161401484a00000061014b565b50610463565b600580546001600160a01b038381166001600160a01b0319831681179093556040519116919082907f8be0079c531659141344cd1fd0a4f28419497f9722a3daafe3b4186f6b6457e090600090a35050565b6001600160a01b0382166101755760405163ec442f0560e01b8152600060048201526024016100b0565b61018160008383610185565b5050565b6001600160a01b0383166101b05780600260008282546101a5919061043c565b909155506102229050565b6001600160a01b038316600090815260208190526040902054818110156102035760405163391434e360e21b81526001600160a01b038516600482015260248101829052604481018390526064016100b0565b6001600160a01b03841660009081526020819052604090209082900390555b6001600160a01b03821661023e5760028054829003905561025d565b6001600160a01b03821660009081526020819052604090208054820190555b816001600160a01b0316836001600160a01b03167fddf252ad1be2c89b69c2b068fc378daa952ba7f163c4a11628f55a4df523b3ef836040516102a291815260200190565b60405180910390a3505050565b6000602082840312156102c157600080fd5b81516001600160a01b03811681146102d857600080fd5b9392505050565b634e487b7160e01b600052604160045260246000fd5b600181811c9082168061030957607f821691505b60208210810361032957634e487b7160e01b600052602260045260246000fd5b50919050565b601f82111561037957806000526020600020601f840160051c810160208510156103565750805b601f840160051c820191505b818110156103765760008155600101610362565b50505b505050565b81516001600160401b03811115610397576103976102df565b6103ab816103a584546102f5565b8461032f565b6020601f8211600181146103df57600083156103c75750848201515b600019600385901b1c1916600184901b178455610376565b600084815260208120601f198516915b8281101561040f57878501518255602094850194600190920191016103ef565b508482101561042d5786840151600019600387901b60f8161c191681555b50505050600190811b01905550565b8082018082111561045d57634e487b7160e01b600052601160045260246000fd5b92915050565b6134ea806104726000396000f3fe608060405234801561001057600080fd5b50600436106102955760003560e01c8063715018a611610167578063a230c524116100ce578063dd62ed3e11610087578063dd62ed3e14610678578063de5f72fd146106b1578063ef269ae3146106b9578063f22449ba146106cc578063f2fde38b146106df578063fabf5968146106f257600080fd5b8063a230c52414610601578063a5e898e114610624578063a9059cbb14610637578063b70e36ce1461064a578063bd2757641461065d578063bf50556d1461067057600080fd5b806389903dc71161012057806389903dc71461058c5780638da5cb5b146105af57806392256aec146105c057806395d89b41146105d3578063a0b75d8c146105db578063a1669b32146105ee57600080fd5b8063715018a6146104ee57806373cbccba146104f65780637c40516414610516578063853cc4b61461052957806386e68b901461053c578063875b50761461056157600080fd5b806339c94d2d1161020b578063619aa727116101c4578063619aa7271461046e5780636632fa18146104815780636f98a8a214610494578063702798df146104a757806370a08231146104ba57806370a56c73146104cd57600080fd5b806339c94d2d146103cf57806342caaeb4146103e457806343859632146103f757806355f3985b14610425578063579b5a47146104535780635d801b371461046657600080fd5b806318160ddd1161025d57806318160ddd1461036857806323b872dd1461037057806323fd498b146103835780632e8f34131461038b578063313ce567146103ae57806332cb6b0c146103bd57600080fd5b8063013cf08b1461029a57806306fdde03146102c9578063076ef625146102de578063095ea7b3146103175780630eab64091461033a575b600080fd5b6102ad6102a8366004612cfc565b610715565b6040516102c09796959493929190612d5b565b60405180910390f35b6102d16107ff565b6040516102c09190612da8565b6103096102ec366004612dde565b600b60209081526000928352604080842090915290825290205481565b6040519081526020016102c0565b61032a610325366004612e0a565b610891565b60405190151581526020016102c0565b61032a610348366004612dde565b600e60209081526000928352604080842090915290825290205460ff1681565b600254610309565b61032a61037e366004612e34565b6108ab565b600954610309565b61039e610399366004612cfc565b6108cf565b6040516102c09493929190612e71565b604051601281526020016102c0565b6103096a084595161401484a00000081565b6103e26103dd366004612cfc565b610a67565b005b6103e26103f2366004612eae565b610b46565b61032a610405366004612dde565b600a60209081526000928352604080842090915290825290205460ff1681565b61032a610433366004612dde565b600c60209081526000928352604080842090915290825290205460ff1681565b610309610461366004612cfc565b610d86565b600854610309565b61032a61047c366004612ede565b610df7565b61030961048f366004612cfc565b610e15565b6103e26104a2366004612e0a565b610e83565b6103e26104b5366004612f45565b610e96565b6103096104c8366004612ede565b61104f565b6104e06104db366004612cfc565b61106a565b6040516102c0929190612fcd565b6103e2611112565b610309610504366004612cfc565b600d6020526000908152604090205481565b61032a610524366004612cfc565b611126565b6103e2610537366004612cfc565b611158565b61054f61054a366004612cfc565b611433565b6040516102c096959493929190612fe6565b61057461056f366004612cfc565b611512565b6040516001600160a01b0390911681526020016102c0565b61032a61059a366004612ede565b60076020526000908152604090205460ff1681565b6005546001600160a01b0316610574565b6105746105ce366004612cfc565b61154a565b6102d1611582565b600654610574906001600160a01b031681565b6103e26105fc366004612e0a565b611591565b61032a61060f366004612ede565b600f6020526000908152604090205460ff1681565b61030961063236600461306d565b6116f3565b61032a610645366004612e0a565b611ac3565b6103e2610658366004612cfc565b611bd9565b6103e261066b366004612cfc565b611cad565b610309611ee9565b61030961068636600461311d565b6001600160a01b03918216600090815260016020908152604080832093909416825291909152205490565b6103e2611f40565b6103096106c7366004613147565b611fd9565b6103e26106da366004612eae565b612323565b6103e26106ed366004612ede565b61256f565b610705610700366004612cfc565b6125aa565b6040516102c094939291906131a1565b6009818154811061072557600080fd5b9060005260206000209060090201600091509050806000018054610748906131eb565b80601f0160208091040260200160405190810160405280929190818152602001828054610774906131eb565b80156107c15780601f10610796576101008083540402835291602001916107c1565b820191906000526020600020905b8154815290600101906020018083116107a457829003601f168201915b50505060018401546004850154600586015460068701546007880154600890980154969793966001600160a01b03909316955090935060ff16919087565b60606003805461080e906131eb565b80601f016020809104026020016040519081016040528092919081815260200182805461083a906131eb565b80156108875780601f1061085c57610100808354040283529160200191610887565b820191906000526020600020905b81548152906001019060200180831161086a57829003601f168201915b5050505050905090565b60003361089f81858561279b565b60019150505b92915050565b6000336108b98582856127a8565b6108c4858585612827565b506001949350505050565b6060600080600080600886815481106108ea576108ea61321f565b90600052602060002090600702016040518060e0016040529081600082018054610913906131eb565b80601f016020809104026020016040519081016040528092919081815260200182805461093f906131eb565b801561098c5780601f106109615761010080835404028352916020019161098c565b820191906000526020600020905b81548152906001019060200180831161096f57829003601f168201915b505050505081526020016001820154815260200160028201548152602001600382015481526020016004820160009054906101000a90046001600160a01b03166001600160a01b03166001600160a01b0316815260200160058201805480602002602001604051908101604052809291908181526020018280548015610a3157602002820191906000526020600020905b815481526020019060010190808311610a1d575b50505091835250506006919091015460209182015281519082015160408301516060909301519199909850919650945092505050565b6000610a723361104f565b905081811015610ad55760405162461bcd60e51b815260206004820152602360248201527f4e6f7420656e6f756768204d474f5620746f6b656e7320666f7220646f6e617460448201526234b7b760e91b60648201526084015b60405180910390fd5b610adf3383612886565b15610afc5760405162461bcd60e51b8152600401610acc90613235565b670de0b6b3a764000082610b0f3361104f565b610b1991906132e4565b1015610b3757336000908152600f60205260409020805460ff191690555b610b42333084612827565b5050565b610b4f33610df7565b610b935760405162461bcd60e51b81526020600482015260156024820152744f6e6c79206d656d626572732063616e20766f746560581b6044820152606401610acc565b6000828152600e6020908152604080832033845290915290205460ff1615610bfd5760405162461bcd60e51b815260206004820152601e60248201527f416c726561647920766f74656420666f722074686973207061796d656e7400006044820152606401610acc565b60098281548110610c1057610c1061321f565b9060005260206000209060090201600101544210610c405760405162461bcd60e51b8152600401610acc906132f7565b60098281548110610c5357610c5361321f565b600091825260209091206006600990920201015460ff16610cab5760405162461bcd60e51b8152602060048201526012602482015271141c9bda9958dd081b9bdd08199d5b99195960721b6044820152606401610acc565b60098281548110610cbe57610cbe61321f565b90600052602060002090600902016003018054905060098381548110610ce657610ce661321f565b90600052602060002090600902016008015410610d395760405162461bcd60e51b8152602060048201526011602482015270416c6c207061796d656e7473206d61646560781b6044820152606401610acc565b6000828152600e602090815260408083203384529091529020805460ff191660011790558015610b42576000828152600d60205260408120805491610d7d83613318565b91905055505050565b60008060098381548110610d9c57610d9c61321f565b9060005260206000209060090201905060005b8160080154811015610df057816002018181548110610dd057610dd061321f565b906000526020600020015483610de69190613331565b9250600101610daf565b5050919050565b6001600160a01b03166000908152600f602052604090205460ff1690565b60008060098381548110610e2b57610e2b61321f565b906000526020600020906009020190508060030180549050816008015410610e57575060001992915050565b80600301816008015481548110610e7057610e7061321f565b9060005260206000200154915050919050565b610e8b6129b1565b610b42308383612827565b610e9f33610df7565b610eeb5760405162461bcd60e51b815260206004820152601d60248201527f4f6e6c79206d656d626572732063616e2074616b6520737572766579730000006044820152606401610acc565b600060088481548110610f0057610f0061321f565b9060005260206000209060070201905080600101544210610f335760405162461bcd60e51b8152600401610acc906132f7565b6003810154821115610f7a5760405162461bcd60e51b815260206004820152601060248201526f546f6f206d616e792063686f6963657360801b6044820152606401610acc565b60005b82811015611031578160020154848483818110610f9c57610f9c61321f565b9050602002013510610fe15760405162461bcd60e51b815260206004820152600e60248201526d496e76616c69642063686f69636560901b6044820152606401610acc565b81600501848483818110610ff757610ff761321f565b905060200201358154811061100e5761100e61321f565b6000918252602082200180549161102483613318565b9091555050600101610f7d565b5060068101805490600061104483613318565b919050555050505050565b6001600160a01b031660009081526020819052604090205490565b60006060600883815481106110815761108161321f565b906000526020600020906007020160060154600884815481106110a6576110a661321f565b90600052602060002090600702016005018080548060200260200160405190810160405280929190818152602001828054801561110257602002820191906000526020600020905b8154815260200190600101908083116110ee575b5050505050905091509150915091565b61111a6129b1565b61112460006129de565b565b60006009828154811061113b5761113b61321f565b600091825260209091206006600990920201015460ff1692915050565b60006009828154811061116d5761116d61321f565b60009182526020909120600990910201600681015490915060ff1680156111a0575060048101546001600160a01b031633145b6111db5760405162461bcd60e51b815260206004820152600c60248201526b155b985d5d1a1bdc9a5e995960a21b6044820152606401610acc565b600381015460088201541061121d5760405162461bcd60e51b8152602060048201526008602482015267105b1b081c185a5960c21b6044820152606401610acc565b806003018160080154815481106112365761123661321f565b906000526020600020015481600701546112509190613331565b42101561128d5760405162461bcd60e51b815260206004820152600b60248201526a139bdd08191d59481e595d60aa1b6044820152606401610acc565b611295612a30565b6000838152600d60205260409020546112af906064613344565b10156112fd5760405162461bcd60e51b815260206004820152601c60248201527f4e6f7420656e6f75676820766f74657320666f72207061796d656e74000000006044820152606401610acc565b600654600482015460088301546002840180546001600160a01b039485169463a9059cbb9416929081106113335761133361321f565b6000918252602090912001546040516001600160e01b031960e085901b1681526001600160a01b03909216600483015260248201526044016020604051808303816000875af115801561138a573d6000803e3d6000fd5b505050506040513d601f19601f820116820180604052508101906113ae919061335b565b506008810180549060006113c183613318565b90915550506000828152600d602052604081208190555b60095481101561142e576000838152600e6020908152604080832033845290915290205460ff1615611426576000838152600e602090815260408083203384529091529020805460ff191690555b6001016113d8565b505050565b6008818154811061144357600080fd5b9060005260206000209060070201600091509050806000018054611466906131eb565b80601f0160208091040260200160405190810160405280929190818152602001828054611492906131eb565b80156114df5780601f106114b4576101008083540402835291602001916114df565b820191906000526020600020905b8154815290600101906020018083116114c257829003601f168201915b50505050600183015460028401546003850154600486015460069096015494959294919350916001600160a01b03169086565b6000600882815481106115275761152761321f565b60009182526020909120600460079092020101546001600160a01b031692915050565b60006009828154811061155f5761155f61321f565b60009182526020909120600460099092020101546001600160a01b031692915050565b60606004805461080e906131eb565b6000818152600a6020908152604080832033845290915290205460ff16156115eb5760405162461bcd60e51b815260206004820152600d60248201526c105b1c9958591e481d9bdd1959609a1b6044820152606401610acc565b6000818152600c6020908152604080832033845290915290205460ff16156116495760405162461bcd60e51b8152602060048201526011602482015270105b1c9958591e4819195b1959d85d1959607a1b6044820152606401610acc565b61165282610df7565b6116a85760405162461bcd60e51b815260206004820152602160248201527f596f752063616e6e6f742064656c656761746520746f206e6f6e2d6d656d62656044820152603960f91b6064820152608401610acc565b6000818152600c602090815260408083203384528252808320805460ff19166001179055838352600b82528083206001600160a01b03861684529091528120805491610d7d83613318565b60006116fe33610df7565b61175c5760405162461bcd60e51b815260206004820152602960248201527f4f6e6c79206d656d626572732063616e207375626d69742070726f6a6563742060448201526870726f706f73616c7360b81b6064820152608401610acc565b674563918244f4000061176e3361104f565b10156117b55760405162461bcd60e51b81526020600482015260166024820152750d481351d3d5881d1bdad95b9cc81c995c5d5a5c995960521b6044820152606401610acc565b6117c733674563918244f40000612886565b156117e45760405162461bcd60e51b8152600401610acc90613235565b6006546040516323b872dd60e01b815233600482015230602482015268d8d726b7177a80000060448201526001600160a01b03909116906323b872dd906064016020604051808303816000875af1158015611843573d6000803e3d6000fd5b505050506040513d601f19601f82011682018060405250810190611867919061335b565b6118b35760405162461bcd60e51b815260206004820152601860248201527f3430303020544c20746f6b656e732072657175697265642e00000000000000006044820152606401610acc565b670de0b6b3a7640000674563918244f400006118ce3361104f565b6118d891906132e4565b10156118f657336000908152600f60205260409020805460ff191690555b6119093330674563918244f40000612827565b604080516101406020601f8b01819004028201810190925261012081018981526009928291908c908c908190850183828082843760009201919091525050509082525060208082018a905260408051898302818101840183528a82529190930192918a918a918291908501908490808284376000920191909152505050908252506040805160208781028281018201909352878252928301929091889188918291850190849080828437600092018290525093855250503360208085019190915260408401839052606084018390526080840183905260a0909301829052508354600181018555938152208151919260090201908190611a0990826133dc565b50602082810151600183015560408301518051611a2c9260028501920190612ca5565b5060608201518051611a48916003840191602090910190612ca5565b5060808201516004820180546001600160a01b0319166001600160a01b0390921691909117905560a0820151600582015560c082015160068201805460ff191691151591909117905560e0820151600782015561010090910151600890910155600954611ab7906001906132e4565b98975050505050505050565b6000611acf3383612886565b15611aec5760405162461bcd60e51b8152600401610acc90613235565b670de0b6b3a7640000821115611b20576001600160a01b0383166000908152600f60205260409020805460ff191660011790555b6000611b2b3361104f565b905082811015611b8c5760405162461bcd60e51b815260206004820152602660248201527f45524332303a207472616e7366657220616d6f756e7420657863656564732062604482015265616c616e636560d01b6064820152608401610acc565b670de0b6b3a764000083611b9f3361104f565b611ba991906132e4565b1015611bc757336000908152600f60205260409020805460ff191690555b611bd18484612a98565b949350505050565b6006546040516323b872dd60e01b8152336004820152306024820152604481018390526001600160a01b03909116906323b872dd906064016020604051808303816000875af1158015611c30573d6000803e3d6000fd5b505050506040513d601f19601f82011682018060405250810190611c54919061335b565b611caa5760405162461bcd60e51b815260206004820152602160248201527f4e6f7420656e6f75676820544c20746f6b656e7320666f7220646f6e6174696f6044820152603760f91b6064820152608401610acc565b50565b600060098281548110611cc257611cc261321f565b6000918252602090912060099091020160048101549091506001600160a01b03163314611d1d5760405162461bcd60e51b81526020600482015260096024820152682737ba1037bbb732b960b91b6044820152606401610acc565b80600101544210611d405760405162461bcd60e51b8152600401610acc906132f7565b600681015460ff1615611d865760405162461bcd60e51b815260206004820152600e60248201526d105b1c9958591e48199d5b99195960921b6044820152606401610acc565b611d8e612a30565b6005820154611d9e90600a613344565b1015611ddf5760405162461bcd60e51b815260206004820152601060248201526f4e6f7420656e6f75676820766f74657360801b6044820152606401610acc565b6000805b6002830154811015611e2457826002018181548110611e0457611e0461321f565b906000526020600020015482611e1a9190613331565b9150600101611de3565b506006546040516370a0823160e01b815230600482015282916001600160a01b0316906370a0823190602401602060405180830381865afa158015611e6d573d6000803e3d6000fd5b505050506040513d601f19601f82011682018060405250810190611e91919061349b565b1015611ecf5760405162461bcd60e51b815260206004820152600d60248201526c139bdd08195b9bdd59da081513609a1b6044820152606401610acc565b5060068101805460ff191660011790554260079091015550565b6000805b600954811015611f3c5760098181548110611f0a57611f0a61321f565b600091825260209091206006600990920201015460ff1615611f345781611f3081613318565b9250505b600101611eed565b5090565b3360009081526007602052604090205460ff1615611f925760405162461bcd60e51b815260206004820152600f60248201526e105b1c9958591e4818db185a5b5959608a1b6044820152606401610acc565b611fa53033670de0b6b3a7640000612827565b336000908152600f602090815260408083208054600160ff1991821681179092556007909352922080549091169091179055565b6000671bc16d674ec80000683635c9adc5dea00000611ff733610df7565b6120435760405162461bcd60e51b815260206004820152601f60248201527f4f6e6c79206d656d626572732063616e207375626d69742073757276657973006044820152606401610acc565b8161204d3361104f565b101561209b5760405162461bcd60e51b815260206004820152601f60248201527f4174206c656173742032204d474f5620746f6b656e73207265717569726564006044820152606401610acc565b6120a53383612886565b156120c25760405162461bcd60e51b8152600401610acc90613235565b6006546040516323b872dd60e01b8152336004820152306024820152604481018390526001600160a01b03909116906323b872dd906064016020604051808303816000875af1158015612119573d6000803e3d6000fd5b505050506040513d601f19601f8201168201806040525081019061213d919061335b565b6121935760405162461bcd60e51b815260206004820152602160248201527f4174206c65617374203130303020544c20746f6b656e732072657175697265646044820152601760f91b6064820152608401610acc565b670de0b6b3a7640000826121a63361104f565b6121b091906132e4565b10156121ce57336000908152600f60205260409020805460ff191690555b6121d9333084612827565b604080516101006020601f8b01819004028201810190925260e081018981526008928291908c908c908190850183828082843760009201919091525050509082525060208101899052604081018890526060810187905233608082015260a0018767ffffffffffffffff81111561225257612252613378565b60405190808252806020026020018201604052801561227b578160200160208202803683370190505b5081526000602091820181905283546001810185559381522081519192600702019081906122a990826133dc565b506020828101516001830155604083015160028301556060830151600383015560808301516004830180546001600160a01b0319166001600160a01b0390921691909117905560a083015180516123069260058501920190612ca5565b5060c09190910151600690910155600854611ab7906001906132e4565b61232c33610df7565b6123705760405162461bcd60e51b81526020600482015260156024820152744f6e6c79206d656d626572732063616e20766f746560581b6044820152606401610acc565b6000828152600a6020908152604080832033845290915290205460ff1615806123b157506000828152600b6020908152604080832033845290915290205415155b6123fd5760405162461bcd60e51b815260206004820152601760248201527f596f752068617665206e6f20766f746573206c6566742e0000000000000000006044820152606401610acc565b600982815481106124105761241061321f565b600091825260209091206006600990920201015460ff16156124655760405162461bcd60e51b815260206004820152600e60248201526d105b1c9958591e48199d5b99195960921b6044820152606401610acc565b600982815481106124785761247861321f565b90600052602060002090600902016001015442106124a85760405162461bcd60e51b8152600401610acc906132f7565b6000828152600a6020908152604080832033845290915290205460ff161561250b576000828152600b602090815260408083203384529091529020546124f0906001906132e4565b6000838152600b602090815260408083203384529091529020555b801561254857600982815481106125245761252461321f565b60009182526020822060056009909202010180549161254283613318565b91905055505b506000908152600a602090815260408083203384529091529020805460ff19166001179055565b6125776129b1565b6001600160a01b0381166125a157604051631e4fbdf760e01b815260006004820152602401610acc565b611caa816129de565b606060006060806000600986815481106125c6576125c661321f565b9060005260206000209060090201604051806101200160405290816000820180546125f0906131eb565b80601f016020809104026020016040519081016040528092919081815260200182805461261c906131eb565b80156126695780601f1061263e57610100808354040283529160200191612669565b820191906000526020600020905b81548152906001019060200180831161264c57829003601f168201915b5050505050815260200160018201548152602001600282018054806020026020016040519081016040528092919081815260200182805480156126cb57602002820191906000526020600020905b8154815260200190600101908083116126b7575b505050505081526020016003820180548060200260200160405190810160405280929190818152602001828054801561272357602002820191906000526020600020905b81548152602001906001019080831161270f575b505050918352505060048201546001600160a01b03166020808301919091526005830154604080840191909152600684015460ff1615156060808501919091526007850154608085015260089094015460a0909301929092528351908401519184015193909201519199909850919650945092505050565b61142e8383836001612aa6565b6001600160a01b03838116600090815260016020908152604080832093861683529290522054600019811015612821578181101561281257604051637dc7a0d960e11b81526001600160a01b03841660048201526024810182905260448101839052606401610acc565b61282184848484036000612aa6565b50505050565b6001600160a01b03831661285157604051634b637e8f60e11b815260006004820152602401610acc565b6001600160a01b03821661287b5760405163ec442f0560e01b815260006004820152602401610acc565b61142e838383612b7b565b60008080805b60095481101561290157600981815481106128a9576128a961321f565b906000526020600020906009020160010154421080156128eb57506000818152600a602090815260408083206001600160a01b038a16845290915290205460ff165b156128f95760019250612901565b60010161288c565b5060005b60095481101561297a57600981815481106129225761292261321f565b9060005260206000209060090201600101544210801561296457506000818152600c602090815260408083206001600160a01b038a16845290915290205460ff165b15612972576001915061297a565b600101612905565b506129848561104f565b84118015612996575081806129965750805b156129a6576001925050506108a5565b506000949350505050565b6005546001600160a01b031633146111245760405163118cdaa760e01b8152336004820152602401610acc565b600580546001600160a01b038381166001600160a01b0319831681179093556040519116919082907f8be0079c531659141344cd1fd0a4f28419497f9722a3daafe3b4186f6b6457e090600090a35050565b600080805b600854811015612a9257612a7760088281548110612a5557612a5561321f565b60009182526020909120600460079092020101546001600160a01b0316610df7565b15612a8a5781612a8681613318565b9250505b600101612a35565b50919050565b60003361089f818585612827565b6001600160a01b038416612ad05760405163e602df0560e01b815260006004820152602401610acc565b6001600160a01b038316612afa57604051634a1406b160e11b815260006004820152602401610acc565b6001600160a01b038085166000908152600160209081526040808320938716835292905220829055801561282157826001600160a01b0316846001600160a01b03167f8c5be1e5ebec7d5bd14f71427d1e84f3dd0314c0f7b2291e5b200ac8c7c3b92584604051612b6d91815260200190565b60405180910390a350505050565b6001600160a01b038316612ba6578060026000828254612b9b9190613331565b90915550612c189050565b6001600160a01b03831660009081526020819052604090205481811015612bf95760405163391434e360e21b81526001600160a01b03851660048201526024810182905260448101839052606401610acc565b6001600160a01b03841660009081526020819052604090209082900390555b6001600160a01b038216612c3457600280548290039055612c53565b6001600160a01b03821660009081526020819052604090208054820190555b816001600160a01b0316836001600160a01b03167fddf252ad1be2c89b69c2b068fc378daa952ba7f163c4a11628f55a4df523b3ef83604051612c9891815260200190565b60405180910390a3505050565b828054828255906000526020600020908101928215612ce0579160200282015b82811115612ce0578251825591602001919060010190612cc5565b50611f3c9291505b80821115611f3c5760008155600101612ce8565b600060208284031215612d0e57600080fd5b5035919050565b6000815180845260005b81811015612d3b57602081850181015186830182015201612d1f565b506000602082860101526020601f19601f83011685010191505092915050565b60e081526000612d6e60e083018a612d15565b6020830198909852506001600160a01b039590951660408601526060850193909352901515608084015260a083015260c090910152919050565b602081526000612dbb6020830184612d15565b9392505050565b80356001600160a01b0381168114612dd957600080fd5b919050565b60008060408385031215612df157600080fd5b82359150612e0160208401612dc2565b90509250929050565b60008060408385031215612e1d57600080fd5b612e2683612dc2565b946020939093013593505050565b600080600060608486031215612e4957600080fd5b612e5284612dc2565b9250612e6060208501612dc2565b929592945050506040919091013590565b608081526000612e846080830187612d15565b6020830195909552506040810192909252606090910152919050565b8015158114611caa57600080fd5b60008060408385031215612ec157600080fd5b823591506020830135612ed381612ea0565b809150509250929050565b600060208284031215612ef057600080fd5b612dbb82612dc2565b60008083601f840112612f0b57600080fd5b50813567ffffffffffffffff811115612f2357600080fd5b6020830191508360208260051b8501011115612f3e57600080fd5b9250929050565b600080600060408486031215612f5a57600080fd5b83359250602084013567ffffffffffffffff811115612f7857600080fd5b612f8486828701612ef9565b9497909650939450505050565b600081518084526020840193506020830160005b82811015612fc3578151865260209586019590910190600101612fa5565b5093949350505050565b828152604060208201526000611bd16040830184612f91565b60c081526000612ff960c0830189612d15565b602083019790975250604081019490945260608401929092526001600160a01b0316608083015260a090910152919050565b60008083601f84011261303d57600080fd5b50813567ffffffffffffffff81111561305557600080fd5b602083019150836020828501011115612f3e57600080fd5b60008060008060008060006080888a03121561308857600080fd5b873567ffffffffffffffff81111561309f57600080fd5b6130ab8a828b0161302b565b90985096505060208801359450604088013567ffffffffffffffff8111156130d257600080fd5b6130de8a828b01612ef9565b909550935050606088013567ffffffffffffffff8111156130fe57600080fd5b61310a8a828b01612ef9565b989b979a50959850939692959293505050565b6000806040838503121561313057600080fd5b61313983612dc2565b9150612e0160208401612dc2565b60008060008060006080868803121561315f57600080fd5b853567ffffffffffffffff81111561317657600080fd5b6131828882890161302b565b9099909850602088013597604081013597506060013595509350505050565b6080815260006131b46080830187612d15565b85602084015282810360408401526131cc8186612f91565b905082810360608401526131e08185612f91565b979650505050505050565b600181811c908216806131ff57607f821691505b602082108103612a9257634e487b7160e01b600052602260045260246000fd5b634e487b7160e01b600052603260045260246000fd5b6020808252606d908201527f53696e63652074686973207472616e7366657220656e647320796f7572206d6560408201527f6d626572736869702064756520746f2062616c616e636520616e6420796f752060608201527f6861766520756e66696e697368656420766f74696e672c2070726f636573732060808201526c34b99031b0b731b2b63632b21760991b60a082015260c00190565b634e487b7160e01b600052601160045260246000fd5b818103818111156108a5576108a56132ce565b602080825260079082015266115e1c1a5c995960ca1b604082015260600190565b60006001820161332a5761332a6132ce565b5060010190565b808201808211156108a5576108a56132ce565b80820281158282048414176108a5576108a56132ce565b60006020828403121561336d57600080fd5b8151612dbb81612ea0565b634e487b7160e01b600052604160045260246000fd5b601f82111561142e57806000526020600020601f840160051c810160208510156133b55750805b601f840160051c820191505b818110156133d557600081556001016133c1565b5050505050565b815167ffffffffffffffff8111156133f6576133f6613378565b61340a8161340484546131eb565b8461338e565b6020601f82116001811461343e57600083156134265750848201515b600019600385901b1c1916600184901b1784556133d5565b600084815260208120601f198516915b8281101561346e578785015182556020948501946001909201910161344e565b508482101561348c5786840151600019600387901b60f8161c191681555b50505050600190811b01905550565b6000602082840312156134ad57600080fd5b505191905056fea2646970667358221220047fcb5bd01f6e0f2e5e875a7f6ad123a29707caa3d9b30cc508ad012f7a15fc64736f6c634300081c0033","opcodes":"PUSH1 0x80 PUSH1 0x40 MSTORE CALLVALUE DUP1 ISZERO PUSH2 0x10 JUMPI PUSH1 0x0 DUP1 REVERT JUMPDEST POP PUSH1 0x40 MLOAD PUSH2 0x395C CODESIZE SUB DUP1 PUSH2 0x395C DUP4 CODECOPY DUP2 ADD PUSH1 0x40 DUP2 SWAP1 MSTORE PUSH2 0x2F SWAP2 PUSH2 0x2AF JUMP JUMPDEST CALLER PUSH1 0x40 MLOAD DUP1 PUSH1 0x40 ADD PUSH1 0x40 MSTORE DUP1 PUSH1 0x5 DUP2 MSTORE PUSH1 0x20 ADD PUSH5 0x26BCA3B7BB PUSH1 0xD9 SHL DUP2 MSTORE POP PUSH1 0x40 MLOAD DUP1 PUSH1 0x40 ADD PUSH1 0x40 MSTORE DUP1 PUSH1 0x4 DUP2 MSTORE PUSH1 0x20 ADD PUSH4 0x26A3A7AB PUSH1 0xE1 SHL DUP2 MSTORE POP DUP2 PUSH1 0x3 SWAP1 DUP2 PUSH2 0x7A SWAP2 SWAP1 PUSH2 0x37E JUMP JUMPDEST POP PUSH1 0x4 PUSH2 0x87 DUP3 DUP3 PUSH2 0x37E JUMP JUMPDEST POP POP POP PUSH1 0x1 PUSH1 0x1 PUSH1 0xA0 SHL SUB DUP2 AND PUSH2 0xB9 JUMPI PUSH1 0x40 MLOAD PUSH4 0x1E4FBDF7 PUSH1 0xE0 SHL DUP2 MSTORE PUSH1 0x0 PUSH1 0x4 DUP3 ADD MSTORE PUSH1 0x24 ADD JUMPDEST PUSH1 0x40 MLOAD DUP1 SWAP2 SUB SWAP1 REVERT JUMPDEST PUSH2 0xC2 DUP2 PUSH2 0xF9 JUMP JUMPDEST POP PUSH1 0x6 DUP1 SLOAD PUSH1 0x1 PUSH1 0x1 PUSH1 0xA0 SHL SUB NOT AND PUSH1 0x1 PUSH1 0x1 PUSH1 0xA0 SHL SUB DUP4 AND OR SWAP1 SSTORE PUSH2 0xF3 ADDRESS PUSH11 0x84595161401484A000000 PUSH2 0x14B JUMP JUMPDEST POP PUSH2 0x463 JUMP JUMPDEST PUSH1 0x5 DUP1 SLOAD PUSH1 0x1 PUSH1 0x1 PUSH1 0xA0 SHL SUB DUP4 DUP2 AND PUSH1 0x1 PUSH1 0x1 PUSH1 0xA0 SHL SUB NOT DUP4 AND DUP2 OR SWAP1 SWAP4 SSTORE PUSH1 0x40 MLOAD SWAP2 AND SWAP2 SWAP1 DUP3 SWAP1 PUSH32 0x8BE0079C531659141344CD1FD0A4F28419497F9722A3DAAFE3B4186F6B6457E0 SWAP1 PUSH1 0x0 SWAP1 LOG3 POP POP JUMP JUMPDEST PUSH1 0x1 PUSH1 0x1 PUSH1 0xA0 SHL SUB DUP3 AND PUSH2 0x175 JUMPI PUSH1 0x40 MLOAD PUSH4 0xEC442F05 PUSH1 0xE0 SHL DUP2 MSTORE PUSH1 0x0 PUSH1 0x4 DUP3 ADD MSTORE PUSH1 0x24 ADD PUSH2 0xB0 JUMP JUMPDEST PUSH2 0x181 PUSH1 0x0 DUP4 DUP4 PUSH2 0x185 JUMP JUMPDEST POP POP JUMP JUMPDEST PUSH1 0x1 PUSH1 0x1 PUSH1 0xA0 SHL SUB DUP4 AND PUSH2 0x1B0 JUMPI DUP1 PUSH1 0x2 PUSH1 0x0 DUP3 DUP3 SLOAD PUSH2 0x1A5 SWAP2 SWAP1 PUSH2 0x43C JUMP JUMPDEST SWAP1 SWAP2 SSTORE POP PUSH2 0x222 SWAP1 POP JUMP JUMPDEST PUSH1 0x1 PUSH1 0x1 PUSH1 0xA0 SHL SUB DUP4 AND PUSH1 0x0 SWAP1 DUP2 MSTORE PUSH1 0x20 DUP2 SWAP1 MSTORE PUSH1 0x40 SWAP1 KECCAK256 SLOAD DUP2 DUP2 LT ISZERO PUSH2 0x203 JUMPI PUSH1 0x40 MLOAD PUSH4 0x391434E3 PUSH1 0xE2 SHL DUP2 MSTORE PUSH1 0x1 PUSH1 0x1 PUSH1 0xA0 SHL SUB DUP6 AND PUSH1 0x4 DUP3 ADD MSTORE PUSH1 0x24 DUP2 ADD DUP3 SWAP1 MSTORE PUSH1 0x44 DUP2 ADD DUP4 SWAP1 MSTORE PUSH1 0x64 ADD PUSH2 0xB0 JUMP JUMPDEST PUSH1 0x1 PUSH1 0x1 PUSH1 0xA0 SHL SUB DUP5 AND PUSH1 0x0 SWAP1 DUP2 MSTORE PUSH1 0x20 DUP2 SWAP1 MSTORE PUSH1 0x40 SWAP1 KECCAK256 SWAP1 DUP3 SWAP1 SUB SWAP1 SSTORE JUMPDEST PUSH1 0x1 PUSH1 0x1 PUSH1 0xA0 SHL SUB DUP3 AND PUSH2 0x23E JUMPI PUSH1 0x2 DUP1 SLOAD DUP3 SWAP1 SUB SWAP1 SSTORE PUSH2 0x25D JUMP JUMPDEST PUSH1 0x1 PUSH1 0x1 PUSH1 0xA0 SHL SUB DUP3 AND PUSH1 0x0 SWAP1 DUP2 MSTORE PUSH1 0x20 DUP2 SWAP1 MSTORE PUSH1 0x40 SWAP1 KECCAK256 DUP1 SLOAD DUP3 ADD SWAP1 SSTORE JUMPDEST DUP2 PUSH1 0x1 PUSH1 0x1 PUSH1 0xA0 SHL SUB AND DUP4 PUSH1 0x1 PUSH1 0x1 PUSH1 0xA0 SHL SUB AND PUSH32 0xDDF252AD1BE2C89B69C2B068FC378DAA952BA7F163C4A11628F55A4DF523B3EF DUP4 PUSH1 0x40 MLOAD PUSH2 0x2A2 SWAP2 DUP2 MSTORE PUSH1 0x20 ADD SWAP1 JUMP JUMPDEST PUSH1 0x40 MLOAD DUP1 SWAP2 SUB SWAP1 LOG3 POP POP POP JUMP JUMPDEST PUSH1 0x0 PUSH1 0x20 DUP3 DUP5 SUB SLT ISZERO PUSH2 0x2C1 JUMPI PUSH1 0x0 DUP1 REVERT JUMPDEST DUP2 MLOAD PUSH1 0x1 PUSH1 0x1 PUSH1 0xA0 SHL SUB DUP2 AND DUP2 EQ PUSH2 0x2D8 JUMPI PUSH1 0x0 DUP1 REVERT JUMPDEST SWAP4 SWAP3 POP POP POP JUMP JUMPDEST PUSH4 0x4E487B71 PUSH1 0xE0 SHL PUSH1 0x0 MSTORE PUSH1 0x41 PUSH1 0x4 MSTORE PUSH1 0x24 PUSH1 0x0 REVERT JUMPDEST PUSH1 0x1 DUP2 DUP2 SHR SWAP1 DUP3 AND DUP1 PUSH2 0x309 JUMPI PUSH1 0x7F DUP3 AND SWAP2 POP JUMPDEST PUSH1 0x20 DUP3 LT DUP2 SUB PUSH2 0x329 JUMPI PUSH4 0x4E487B71 PUSH1 0xE0 SHL PUSH1 0x0 MSTORE PUSH1 0x22 PUSH1 0x4 MSTORE PUSH1 0x24 PUSH1 0x0 REVERT JUMPDEST POP SWAP2 SWAP1 POP JUMP JUMPDEST PUSH1 0x1F DUP3 GT ISZERO PUSH2 0x379 JUMPI DUP1 PUSH1 0x0 MSTORE PUSH1 0x20 PUSH1 0x0 KECCAK256 PUSH1 0x1F DUP5 ADD PUSH1 0x5 SHR DUP2 ADD PUSH1 0x20 DUP6 LT ISZERO PUSH2 0x356 JUMPI POP DUP1 JUMPDEST PUSH1 0x1F DUP5 ADD PUSH1 0x5 SHR DUP3 ADD SWAP2 POP JUMPDEST DUP2 DUP2 LT ISZERO PUSH2 0x376 JUMPI PUSH1 0x0 DUP2 SSTORE PUSH1 0x1 ADD PUSH2 0x362 JUMP JUMPDEST POP POP JUMPDEST POP POP POP JUMP JUMPDEST DUP2 MLOAD PUSH1 0x1 PUSH1 0x1 PUSH1 0x40 SHL SUB DUP2 GT ISZERO PUSH2 0x397 JUMPI PUSH2 0x397 PUSH2 0x2DF JUMP JUMPDEST PUSH2 0x3AB DUP2 PUSH2 0x3A5 DUP5 SLOAD PUSH2 0x2F5 JUMP JUMPDEST DUP5 PUSH2 0x32F JUMP JUMPDEST PUSH1 0x20 PUSH1 0x1F DUP3 GT PUSH1 0x1 DUP2 EQ PUSH2 0x3DF JUMPI PUSH1 0x0 DUP4 ISZERO PUSH2 0x3C7 JUMPI POP DUP5 DUP3 ADD MLOAD JUMPDEST PUSH1 0x0 NOT PUSH1 0x3 DUP6 SWAP1 SHL SHR NOT AND PUSH1 0x1 DUP5 SWAP1 SHL OR DUP5 SSTORE PUSH2 0x376 JUMP JUMPDEST PUSH1 0x0 DUP5 DUP2 MSTORE PUSH1 0x20 DUP2 KECCAK256 PUSH1 0x1F NOT DUP6 AND SWAP2 JUMPDEST DUP3 DUP2 LT ISZERO PUSH2 0x40F JUMPI DUP8 DUP6 ADD MLOAD DUP3 SSTORE PUSH1 0x20 SWAP5 DUP6 ADD SWAP5 PUSH1 0x1 SWAP1 SWAP3 ADD SWAP2 ADD PUSH2 0x3EF JUMP JUMPDEST POP DUP5 DUP3 LT ISZERO PUSH2 0x42D JUMPI DUP7 DUP5 ADD MLOAD PUSH1 0x0 NOT PUSH1 0x3 DUP8 SWAP1 SHL PUSH1 0xF8 AND SHR NOT AND DUP2 SSTORE JUMPDEST POP POP POP POP PUSH1 0x1 SWAP1 DUP2 SHL ADD SWAP1 SSTORE POP JUMP JUMPDEST DUP1 DUP3 ADD DUP1 DUP3 GT ISZERO PUSH2 0x45D JUMPI PUSH4 0x4E487B71 PUSH1 0xE0 SHL PUSH1 0x0 MSTORE PUSH1 0x11 PUSH1 0x4 MSTORE PUSH1 0x24 PUSH1 0x0 REVERT JUMPDEST SWAP3 SWAP2 POP POP JUMP JUMPDEST PUSH2 0x34EA DUP1 PUSH2 0x472 PUSH1 0x0 CODECOPY PUSH1 0x0 RETURN INVALID PUSH1 0x80 PUSH1 0x40 MSTORE CALLVALUE DUP1 ISZERO PUSH2 0x10 JUMPI PUSH1 0x0 DUP1 REVERT JUMPDEST POP PUSH1 0x4 CALLDATASIZE LT PUSH2 0x295 JUMPI PUSH1 0x0 CALLDATALOAD PUSH1 0xE0 SHR DUP1 PUSH4 0x715018A6 GT PUSH2 0x167 JUMPI DUP1 PUSH4 0xA230C524 GT PUSH2 0xCE JUMPI DUP1 PUSH4 0xDD62ED3E GT PUSH2 0x87 JUMPI DUP1 PUSH4 0xDD62ED3E EQ PUSH2 0x678 JUMPI DUP1 PUSH4 0xDE5F72FD EQ PUSH2 0x6B1 JUMPI DUP1 PUSH4 0xEF269AE3 EQ PUSH2 0x6B9 JUMPI DUP1 PUSH4 0xF22449BA EQ PUSH2 0x6CC JUMPI DUP1 PUSH4 0xF2FDE38B EQ PUSH2 0x6DF JUMPI DUP1 PUSH4 0xFABF5968 EQ PUSH2 0x6F2 JUMPI PUSH1 0x0 DUP1 REVERT JUMPDEST DUP1 PUSH4 0xA230C524 EQ PUSH2 0x601 JUMPI DUP1 PUSH4 0xA5E898E1 EQ PUSH2 0x624 JUMPI DUP1 PUSH4 0xA9059CBB EQ PUSH2 0x637 JUMPI DUP1 PUSH4 0xB70E36CE EQ PUSH2 0x64A JUMPI DUP1 PUSH4 0xBD275764 EQ PUSH2 0x65D JUMPI DUP1 PUSH4 0xBF50556D EQ PUSH2 0x670 JUMPI PUSH1 0x0 DUP1 REVERT JUMPDEST DUP1 PUSH4 0x89903DC7 GT PUSH2 0x120 JUMPI DUP1 PUSH4 0x89903DC7 EQ PUSH2 0x58C JUMPI DUP1 PUSH4 0x8DA5CB5B EQ PUSH2 0x5AF JUMPI DUP1 PUSH4 0x92256AEC EQ PUSH2 0x5C0 JUMPI DUP1 PUSH4 0x95D89B41 EQ PUSH2 0x5D3 JUMPI DUP1 PUSH4 0xA0B75D8C EQ PUSH2 0x5DB JUMPI DUP1 PUSH4 0xA1669B32 EQ PUSH2 0x5EE JUMPI PUSH1 0x0 DUP1 REVERT JUMPDEST DUP1 PUSH4 0x715018A6 EQ PUSH2 0x4EE JUMPI DUP1 PUSH4 0x73CBCCBA EQ PUSH2 0x4F6 JUMPI DUP1 PUSH4 0x7C405164 EQ PUSH2 0x516 JUMPI DUP1 PUSH4 0x853CC4B6 EQ PUSH2 0x529 JUMPI DUP1 PUSH4 0x86E68B90 EQ PUSH2 0x53C JUMPI DUP1 PUSH4 0x875B5076 EQ PUSH2 0x561 JUMPI PUSH1 0x0 DUP1 REVERT JUMPDEST DUP1 PUSH4 0x39C94D2D GT PUSH2 0x20B JUMPI DUP1 PUSH4 0x619AA727 GT PUSH2 0x1C4 JUMPI DUP1 PUSH4 0x619AA727 EQ PUSH2 0x46E JUMPI DUP1 PUSH4 0x6632FA18 EQ PUSH2 0x481 JUMPI DUP1 PUSH4 0x6F98A8A2 EQ PUSH2 0x494 JUMPI DUP1 PUSH4 0x702798DF EQ PUSH2 0x4A7 JUMPI DUP1 PUSH4 0x70A08231 EQ PUSH2 0x4BA JUMPI DUP1 PUSH4 0x70A56C73 EQ PUSH2 0x4CD JUMPI PUSH1 0x0 DUP1 REVERT JUMPDEST DUP1 PUSH4 0x39C94D2D EQ PUSH2 0x3CF JUMPI DUP1 PUSH4 0x42CAAEB4 EQ PUSH2 0x3E4 JUMPI DUP1 PUSH4 0x43859632 EQ PUSH2 0x3F7 JUMPI DUP1 PUSH4 0x55F3985B EQ PUSH2 0x425 JUMPI DUP1 PUSH4 0x579B5A47 EQ PUSH2 0x453 JUMPI DUP1 PUSH4 0x5D801B37 EQ PUSH2 0x466 JUMPI PUSH1 0x0 DUP1 REVERT JUMPDEST DUP1 PUSH4 0x18160DDD GT PUSH2 0x25D JUMPI DUP1 PUSH4 0x18160DDD EQ PUSH2 0x368 JUMPI DUP1 PUSH4 0x23B872DD EQ PUSH2 0x370 JUMPI DUP1 PUSH4 0x23FD498B EQ PUSH2 0x383 JUMPI DUP1 PUSH4 0x2E8F3413 EQ PUSH2 0x38B JUMPI DUP1 PUSH4 0x313CE567 EQ PUSH2 0x3AE JUMPI DUP1 PUSH4 0x32CB6B0C EQ PUSH2 0x3BD JUMPI PUSH1 0x0 DUP1 REVERT JUMPDEST DUP1 PUSH4 0x13CF08B EQ PUSH2 0x29A JUMPI DUP1 PUSH4 0x6FDDE03 EQ PUSH2 0x2C9 JUMPI DUP1 PUSH4 0x76EF625 EQ PUSH2 0x2DE JUMPI DUP1 PUSH4 0x95EA7B3 EQ PUSH2 0x317 JUMPI DUP1 PUSH4 0xEAB6409 EQ PUSH2 0x33A JUMPI JUMPDEST PUSH1 0x0 DUP1 REVERT JUMPDEST PUSH2 0x2AD PUSH2 0x2A8 CALLDATASIZE PUSH1 0x4 PUSH2 0x2CFC JUMP JUMPDEST PUSH2 0x715 JUMP JUMPDEST PUSH1 0x40 MLOAD PUSH2 0x2C0 SWAP8 SWAP7 SWAP6 SWAP5 SWAP4 SWAP3 SWAP2 SWAP1 PUSH2 0x2D5B JUMP JUMPDEST PUSH1 0x40 MLOAD DUP1 SWAP2 SUB SWAP1 RETURN JUMPDEST PUSH2 0x2D1 PUSH2 0x7FF JUMP JUMPDEST PUSH1 0x40 MLOAD PUSH2 0x2C0 SWAP2 SWAP1 PUSH2 0x2DA8 JUMP JUMPDEST PUSH2 0x309 PUSH2 0x2EC CALLDATASIZE PUSH1 0x4 PUSH2 0x2DDE JUMP JUMPDEST PUSH1 0xB PUSH1 0x20 SWAP1 DUP2 MSTORE PUSH1 0x0 SWAP3 DUP4 MSTORE PUSH1 0x40 DUP1 DUP5 KECCAK256 SWAP1 SWAP2 MSTORE SWAP1 DUP3 MSTORE SWAP1 KECCAK256 SLOAD DUP2 JUMP JUMPDEST PUSH1 0x40 MLOAD SWAP1 DUP2 MSTORE PUSH1 0x20 ADD PUSH2 0x2C0 JUMP JUMPDEST PUSH2 0x32A PUSH2 0x325 CALLDATASIZE PUSH1 0x4 PUSH2 0x2E0A JUMP JUMPDEST PUSH2 0x891 JUMP JUMPDEST PUSH1 0x40 MLOAD SWAP1 ISZERO ISZERO DUP2 MSTORE PUSH1 0x20 ADD PUSH2 0x2C0 JUMP JUMPDEST PUSH2 0x32A PUSH2 0x348 CALLDATASIZE PUSH1 0x4 PUSH2 0x2DDE JUMP JUMPDEST PUSH1 0xE PUSH1 0x20 SWAP1 DUP2 MSTORE PUSH1 0x0 SWAP3 DUP4 MSTORE PUSH1 0x40 DUP1 DUP5 KECCAK256 SWAP1 SWAP2 MSTORE SWAP1 DUP3 MSTORE SWAP1 KECCAK256 SLOAD PUSH1 0xFF AND DUP2 JUMP JUMPDEST PUSH1 0x2 SLOAD PUSH2 0x309 JUMP JUMPDEST PUSH2 0x32A PUSH2 0x37E CALLDATASIZE PUSH1 0x4 PUSH2 0x2E34 JUMP JUMPDEST PUSH2 0x8AB JUMP JUMPDEST PUSH1 0x9 SLOAD PUSH2 0x309 JUMP JUMPDEST PUSH2 0x39E PUSH2 0x399 CALLDATASIZE PUSH1 0x4 PUSH2 0x2CFC JUMP JUMPDEST PUSH2 0x8CF JUMP JUMPDEST PUSH1 0x40 MLOAD PUSH2 0x2C0 SWAP5 SWAP4 SWAP3 SWAP2 SWAP1 PUSH2 0x2E71 JUMP JUMPDEST PUSH1 0x40 MLOAD PUSH1 0x12 DUP2 MSTORE PUSH1 0x20 ADD PUSH2 0x2C0 JUMP JUMPDEST PUSH2 0x309 PUSH11 0x84595161401484A000000 DUP2 JUMP JUMPDEST PUSH2 0x3E2 PUSH2 0x3DD CALLDATASIZE PUSH1 0x4 PUSH2 0x2CFC JUMP JUMPDEST PUSH2 0xA67 JUMP JUMPDEST STOP JUMPDEST PUSH2 0x3E2 PUSH2 0x3F2 CALLDATASIZE PUSH1 0x4 PUSH2 0x2EAE JUMP JUMPDEST PUSH2 0xB46 JUMP JUMPDEST PUSH2 0x32A PUSH2 0x405 CALLDATASIZE PUSH1 0x4 PUSH2 0x2DDE JUMP JUMPDEST PUSH1 0xA PUSH1 0x20 SWAP1 DUP2 MSTORE PUSH1 0x0 SWAP3 DUP4 MSTORE PUSH1 0x40 DUP1 DUP5 KECCAK256 SWAP1 SWAP2 MSTORE SWAP1 DUP3 MSTORE SWAP1 KECCAK256 SLOAD PUSH1 0xFF AND DUP2 JUMP JUMPDEST PUSH2 0x32A PUSH2 0x433 CALLDATASIZE PUSH1 0x4 PUSH2 0x2DDE JUMP JUMPDEST PUSH1 0xC PUSH1 0x20 SWAP1 DUP2 MSTORE PUSH1 0x0 SWAP3 DUP4 MSTORE PUSH1 0x40 DUP1 DUP5 KECCAK256 SWAP1 SWAP2 MSTORE SWAP1 DUP3 MSTORE SWAP1 KECCAK256 SLOAD PUSH1 0xFF AND DUP2 JUMP JUMPDEST PUSH2 0x309 PUSH2 0x461 CALLDATASIZE PUSH1 0x4 PUSH2 0x2CFC JUMP JUMPDEST PUSH2 0xD86 JUMP JUMPDEST PUSH1 0x8 SLOAD PUSH2 0x309 JUMP JUMPDEST PUSH2 0x32A PUSH2 0x47C CALLDATASIZE PUSH1 0x4 PUSH2 0x2EDE JUMP JUMPDEST PUSH2 0xDF7 JUMP JUMPDEST PUSH2 0x309 PUSH2 0x48F CALLDATASIZE PUSH1 0x4 PUSH2 0x2CFC JUMP JUMPDEST PUSH2 0xE15 JUMP JUMPDEST PUSH2 0x3E2 PUSH2 0x4A2 CALLDATASIZE PUSH1 0x4 PUSH2 0x2E0A JUMP JUMPDEST PUSH2 0xE83 JUMP JUMPDEST PUSH2 0x3E2 PUSH2 0x4B5 CALLDATASIZE PUSH1 0x4 PUSH2 0x2F45 JUMP JUMPDEST PUSH2 0xE96 JUMP JUMPDEST PUSH2 0x309 PUSH2 0x4C8 CALLDATASIZE PUSH1 0x4 PUSH2 0x2EDE JUMP JUMPDEST PUSH2 0x104F JUMP JUMPDEST PUSH2 0x4E0 PUSH2 0x4DB CALLDATASIZE PUSH1 0x4 PUSH2 0x2CFC JUMP JUMPDEST PUSH2 0x106A JUMP JUMPDEST PUSH1 0x40 MLOAD PUSH2 0x2C0 SWAP3 SWAP2 SWAP1 PUSH2 0x2FCD JUMP JUMPDEST PUSH2 0x3E2 PUSH2 0x1112 JUMP JUMPDEST PUSH2 0x309 PUSH2 0x504 CALLDATASIZE PUSH1 0x4 PUSH2 0x2CFC JUMP JUMPDEST PUSH1 0xD PUSH1 0x20 MSTORE PUSH1 0x0 SWAP1 DUP2 MSTORE PUSH1 0x40 SWAP1 KECCAK256 SLOAD DUP2 JUMP JUMPDEST PUSH2 0x32A PUSH2 0x524 CALLDATASIZE PUSH1 0x4 PUSH2 0x2CFC JUMP JUMPDEST PUSH2 0x1126 JUMP JUMPDEST PUSH2 0x3E2 PUSH2 0x537 CALLDATASIZE PUSH1 0x4 PUSH2 0x2CFC JUMP JUMPDEST PUSH2 0x1158 JUMP JUMPDEST PUSH2 0x54F PUSH2 0x54A CALLDATASIZE PUSH1 0x4 PUSH2 0x2CFC JUMP JUMPDEST PUSH2 0x1433 JUMP JUMPDEST PUSH1 0x40 MLOAD PUSH2 0x2C0 SWAP7 SWAP6 SWAP5 SWAP4 SWAP3 SWAP2 SWAP1 PUSH2 0x2FE6 JUMP JUMPDEST PUSH2 0x574 PUSH2 0x56F CALLDATASIZE PUSH1 0x4 PUSH2 0x2CFC JUMP JUMPDEST PUSH2 0x1512 JUMP JUMPDEST PUSH1 0x40 MLOAD PUSH1 0x1 PUSH1 0x1 PUSH1 0xA0 SHL SUB SWAP1 SWAP2 AND DUP2 MSTORE PUSH1 0x20 ADD PUSH2 0x2C0 JUMP JUMPDEST PUSH2 0x32A PUSH2 0x59A CALLDATASIZE PUSH1 0x4 PUSH2 0x2EDE JUMP JUMPDEST PUSH1 0x7 PUSH1 0x20 MSTORE PUSH1 0x0 SWAP1 DUP2 MSTORE PUSH1 0x40 SWAP1 KECCAK256 SLOAD PUSH1 0xFF AND DUP2 JUMP JUMPDEST PUSH1 0x5 SLOAD PUSH1 0x1 PUSH1 0x1 PUSH1 0xA0 SHL SUB AND PUSH2 0x574 JUMP JUMPDEST PUSH2 0x574 PUSH2 0x5CE CALLDATASIZE PUSH1 0x4 PUSH2 0x2CFC JUMP JUMPDEST PUSH2 0x154A JUMP JUMPDEST PUSH2 0x2D1 PUSH2 0x1582 JUMP JUMPDEST PUSH1 0x6 SLOAD PUSH2 0x574 SWAP1 PUSH1 0x1 PUSH1 0x1 PUSH1 0xA0 SHL SUB AND DUP2 JUMP JUMPDEST PUSH2 0x3E2 PUSH2 0x5FC CALLDATASIZE PUSH1 0x4 PUSH2 0x2E0A JUMP JUMPDEST PUSH2 0x1591 JUMP JUMPDEST PUSH2 0x32A PUSH2 0x60F CALLDATASIZE PUSH1 0x4 PUSH2 0x2EDE JUMP JUMPDEST PUSH1 0xF PUSH1 0x20 MSTORE PUSH1 0x0 SWAP1 DUP2 MSTORE PUSH1 0x40 SWAP1 KECCAK256 SLOAD PUSH1 0xFF AND DUP2 JUMP JUMPDEST PUSH2 0x309 PUSH2 0x632 CALLDATASIZE PUSH1 0x4 PUSH2 0x306D JUMP JUMPDEST PUSH2 0x16F3 JUMP JUMPDEST PUSH2 0x32A PUSH2 0x645 CALLDATASIZE PUSH1 0x4 PUSH2 0x2E0A JUMP JUMPDEST PUSH2 0x1AC3 JUMP JUMPDEST PUSH2 0x3E2 PUSH2 0x658 CALLDATASIZE PUSH1 0x4 PUSH2 0x2CFC JUMP JUMPDEST PUSH2 0x1BD9 JUMP JUMPDEST PUSH2 0x3E2 PUSH2 0x66B CALLDATASIZE PUSH1 0x4 PUSH2 0x2CFC JUMP JUMPDEST PUSH2 0x1CAD JUMP JUMPDEST PUSH2 0x309 PUSH2 0x1EE9 JUMP JUMPDEST PUSH2 0x309 PUSH2 0x686 CALLDATASIZE PUSH1 0x4 PUSH2 0x311D JUMP JUMPDEST PUSH1 0x1 PUSH1 0x1 PUSH1 0xA0 SHL SUB SWAP2 DUP3 AND PUSH1 0x0 SWAP1 DUP2 MSTORE PUSH1 0x1 PUSH1 0x20 SWAP1 DUP2 MSTORE PUSH1 0x40 DUP1 DUP4 KECCAK256 SWAP4 SWAP1 SWAP5 AND DUP3 MSTORE SWAP2 SWAP1 SWAP2 MSTORE KECCAK256 SLOAD SWAP1 JUMP JUMPDEST PUSH2 0x3E2 PUSH2 0x1F40 JUMP JUMPDEST PUSH2 0x309 PUSH2 0x6C7 CALLDATASIZE PUSH1 0x4 PUSH2 0x3147 JUMP JUMPDEST PUSH2 0x1FD9 JUMP JUMPDEST PUSH2 0x3E2 PUSH2 0x6DA CALLDATASIZE PUSH1 0x4 PUSH2 0x2EAE JUMP JUMPDEST PUSH2 0x2323 JUMP JUMPDEST PUSH2 0x3E2 PUSH2 0x6ED CALLDATASIZE PUSH1 0x4 PUSH2 0x2EDE JUMP JUMPDEST PUSH2 0x256F JUMP JUMPDEST PUSH2 0x705 PUSH2 0x700 CALLDATASIZE PUSH1 0x4 PUSH2 0x2CFC JUMP JUMPDEST PUSH2 0x25AA JUMP JUMPDEST PUSH1 0x40 MLOAD PUSH2 0x2C0 SWAP5 SWAP4 SWAP3 SWAP2 SWAP1 PUSH2 0x31A1 JUMP JUMPDEST PUSH1 0x9 DUP2 DUP2 SLOAD DUP2 LT PUSH2 0x725 JUMPI PUSH1 0x0 DUP1 REVERT JUMPDEST SWAP1 PUSH1 0x0 MSTORE PUSH1 0x20 PUSH1 0x0 KECCAK256 SWAP1 PUSH1 0x9 MUL ADD PUSH1 0x0 SWAP2 POP SWAP1 POP DUP1 PUSH1 0x0 ADD DUP1 SLOAD PUSH2 0x748 SWAP1 PUSH2 0x31EB JUMP JUMPDEST DUP1 PUSH1 0x1F ADD PUSH1 0x20 DUP1 SWAP2 DIV MUL PUSH1 0x20 ADD PUSH1 0x40 MLOAD SWAP1 DUP2 ADD PUSH1 0x40 MSTORE DUP1 SWAP3 SWAP2 SWAP1 DUP2 DUP2 MSTORE PUSH1 0x20 ADD DUP3 DUP1 SLOAD PUSH2 0x774 SWAP1 PUSH2 0x31EB JUMP JUMPDEST DUP1 ISZERO PUSH2 0x7C1 JUMPI DUP1 PUSH1 0x1F LT PUSH2 0x796 JUMPI PUSH2 0x100 DUP1 DUP4 SLOAD DIV MUL DUP4 MSTORE SWAP2 PUSH1 0x20 ADD SWAP2 PUSH2 0x7C1 JUMP JUMPDEST DUP3 ADD SWAP2 SWAP1 PUSH1 0x0 MSTORE PUSH1 0x20 PUSH1 0x0 KECCAK256 SWAP1 JUMPDEST DUP2 SLOAD DUP2 MSTORE SWAP1 PUSH1 0x1 ADD SWAP1 PUSH1 0x20 ADD DUP1 DUP4 GT PUSH2 0x7A4 JUMPI DUP3 SWAP1 SUB PUSH1 0x1F AND DUP3 ADD SWAP2 JUMPDEST POP POP POP PUSH1 0x1 DUP5 ADD SLOAD PUSH1 0x4 DUP6 ADD SLOAD PUSH1 0x5 DUP7 ADD SLOAD PUSH1 0x6 DUP8 ADD SLOAD PUSH1 0x7 DUP9 ADD SLOAD PUSH1 0x8 SWAP1 SWAP9 ADD SLOAD SWAP7 SWAP8 SWAP4 SWAP7 PUSH1 0x1 PUSH1 0x1 PUSH1 0xA0 SHL SUB SWAP1 SWAP4 AND SWAP6 POP SWAP1 SWAP4 POP PUSH1 0xFF AND SWAP2 SWAP1 DUP8 JUMP JUMPDEST PUSH1 0x60 PUSH1 0x3 DUP1 SLOAD PUSH2 0x80E SWAP1 PUSH2 0x31EB JUMP JUMPDEST DUP1 PUSH1 0x1F ADD PUSH1 0x20 DUP1 SWAP2 DIV MUL PUSH1 0x20 ADD PUSH1 0x40 MLOAD SWAP1 DUP2 ADD PUSH1 0x40 MSTORE DUP1 SWAP3 SWAP2 SWAP1 DUP2 DUP2 MSTORE PUSH1 0x20 ADD DUP3 DUP1 SLOAD PUSH2 0x83A SWAP1 PUSH2 0x31EB JUMP JUMPDEST DUP1 ISZERO PUSH2 0x887 JUMPI DUP1 PUSH1 0x1F LT PUSH2 0x85C JUMPI PUSH2 0x100 DUP1 DUP4 SLOAD DIV MUL DUP4 MSTORE SWAP2 PUSH1 0x20 ADD SWAP2 PUSH2 0x887 JUMP JUMPDEST DUP3 ADD SWAP2 SWAP1 PUSH1 0x0 MSTORE PUSH1 0x20 PUSH1 0x0 KECCAK256 SWAP1 JUMPDEST DUP2 SLOAD DUP2 MSTORE SWAP1 PUSH1 0x1 ADD SWAP1 PUSH1 0x20 ADD DUP1 DUP4 GT PUSH2 0x86A JUMPI DUP3 SWAP1 SUB PUSH1 0x1F AND DUP3 ADD SWAP2 JUMPDEST POP POP POP POP POP SWAP1 POP SWAP1 JUMP JUMPDEST PUSH1 0x0 CALLER PUSH2 0x89F DUP2 DUP6 DUP6 PUSH2 0x279B JUMP JUMPDEST PUSH1 0x1 SWAP2 POP POP JUMPDEST SWAP3 SWAP2 POP POP JUMP JUMPDEST PUSH1 0x0 CALLER PUSH2 0x8B9 DUP6 DUP3 DUP6 PUSH2 0x27A8 JUMP JUMPDEST PUSH2 0x8C4 DUP6 DUP6 DUP6 PUSH2 0x2827 JUMP JUMPDEST POP PUSH1 0x1 SWAP5 SWAP4 POP POP POP POP JUMP JUMPDEST PUSH1 0x60 PUSH1 0x0 DUP1 PUSH1 0x0 DUP1 PUSH1 0x8 DUP7 DUP2 SLOAD DUP2 LT PUSH2 0x8EA JUMPI PUSH2 0x8EA PUSH2 0x321F JUMP JUMPDEST SWAP1 PUSH1 0x0 MSTORE PUSH1 0x20 PUSH1 0x0 KECCAK256 SWAP1 PUSH1 0x7 MUL ADD PUSH1 0x40 MLOAD DUP1 PUSH1 0xE0 ADD PUSH1 0x40 MSTORE SWAP1 DUP2 PUSH1 0x0 DUP3 ADD DUP1 SLOAD PUSH2 0x913 SWAP1 PUSH2 0x31EB JUMP JUMPDEST DUP1 PUSH1 0x1F ADD PUSH1 0x20 DUP1 SWAP2 DIV MUL PUSH1 0x20 ADD PUSH1 0x40 MLOAD SWAP1 DUP2 ADD PUSH1 0x40 MSTORE DUP1 SWAP3 SWAP2 SWAP1 DUP2 DUP2 MSTORE PUSH1 0x20 ADD DUP3 DUP1 SLOAD PUSH2 0x93F SWAP1 PUSH2 0x31EB JUMP JUMPDEST DUP1 ISZERO PUSH2 0x98C JUMPI DUP1 PUSH1 0x1F LT PUSH2 0x961 JUMPI PUSH2 0x100 DUP1 DUP4 SLOAD DIV MUL DUP4 MSTORE SWAP2 PUSH1 0x20 ADD SWAP2 PUSH2 0x98C JUMP JUMPDEST DUP3 ADD SWAP2 SWAP1 PUSH1 0x0 MSTORE PUSH1 0x20 PUSH1 0x0 KECCAK256 SWAP1 JUMPDEST DUP2 SLOAD DUP2 MSTORE SWAP1 PUSH1 0x1 ADD SWAP1 PUSH1 0x20 ADD DUP1 DUP4 GT PUSH2 0x96F JUMPI DUP3 SWAP1 SUB PUSH1 0x1F AND DUP3 ADD SWAP2 JUMPDEST POP POP POP POP POP DUP2 MSTORE PUSH1 0x20 ADD PUSH1 0x1 DUP3 ADD SLOAD DUP2 MSTORE PUSH1 0x20 ADD PUSH1 0x2 DUP3 ADD SLOAD DUP2 MSTORE PUSH1 0x20 ADD PUSH1 0x3 DUP3 ADD SLOAD DUP2 MSTORE PUSH1 0x20 ADD PUSH1 0x4 DUP3 ADD PUSH1 0x0 SWAP1 SLOAD SWAP1 PUSH2 0x100 EXP SWAP1 DIV PUSH1 0x1 PUSH1 0x1 PUSH1 0xA0 SHL SUB AND PUSH1 0x1 PUSH1 0x1 PUSH1 0xA0 SHL SUB AND PUSH1 0x1 PUSH1 0x1 PUSH1 0xA0 SHL SUB AND DUP2 MSTORE PUSH1 0x20 ADD PUSH1 0x5 DUP3 ADD DUP1 SLOAD DUP1 PUSH1 0x20 MUL PUSH1 0x20 ADD PUSH1 0x40 MLOAD SWAP1 DUP2 ADD PUSH1 0x40 MSTORE DUP1 SWAP3 SWAP2 SWAP1 DUP2 DUP2 MSTORE PUSH1 0x20 ADD DUP3 DUP1 SLOAD DUP1 ISZERO PUSH2 0xA31 JUMPI PUSH1 0x20 MUL DUP3 ADD SWAP2 SWAP1 PUSH1 0x0 MSTORE PUSH1 0x20 PUSH1 0x0 KECCAK256 SWAP1 JUMPDEST DUP2 SLOAD DUP2 MSTORE PUSH1 0x20 ADD SWAP1 PUSH1 0x1 ADD SWAP1 DUP1 DUP4 GT PUSH2 0xA1D JUMPI JUMPDEST POP POP POP SWAP2 DUP4 MSTORE POP POP PUSH1 0x6 SWAP2 SWAP1 SWAP2 ADD SLOAD PUSH1 0x20 SWAP2 DUP3 ADD MSTORE DUP2 MLOAD SWAP1 DUP3 ADD MLOAD PUSH1 0x40 DUP4 ADD MLOAD PUSH1 0x60 SWAP1 SWAP4 ADD MLOAD SWAP2 SWAP10 SWAP1 SWAP9 POP SWAP2 SWAP7 POP SWAP5 POP SWAP3 POP POP POP JUMP JUMPDEST PUSH1 0x0 PUSH2 0xA72 CALLER PUSH2 0x104F JUMP JUMPDEST SWAP1 POP DUP2 DUP2 LT ISZERO PUSH2 0xAD5 JUMPI PUSH1 0x40 MLOAD PUSH3 0x461BCD PUSH1 0xE5 SHL DUP2 MSTORE PUSH1 0x20 PUSH1 0x4 DUP3 ADD MSTORE PUSH1 0x23 PUSH1 0x24 DUP3 ADD MSTORE PUSH32 0x4E6F7420656E6F756768204D474F5620746F6B656E7320666F7220646F6E6174 PUSH1 0x44 DUP3 ADD MSTORE PUSH3 0x34B7B7 PUSH1 0xE9 SHL PUSH1 0x64 DUP3 ADD MSTORE PUSH1 0x84 ADD JUMPDEST PUSH1 0x40 MLOAD DUP1 SWAP2 SUB SWAP1 REVERT JUMPDEST PUSH2 0xADF CALLER DUP4 PUSH2 0x2886 JUMP JUMPDEST ISZERO PUSH2 0xAFC JUMPI PUSH1 0x40 MLOAD PUSH3 0x461BCD PUSH1 0xE5 SHL DUP2 MSTORE PUSH1 0x4 ADD PUSH2 0xACC SWAP1 PUSH2 0x3235 JUMP JUMPDEST PUSH8 0xDE0B6B3A7640000 DUP3 PUSH2 0xB0F CALLER PUSH2 0x104F JUMP JUMPDEST PUSH2 0xB19 SWAP2 SWAP1 PUSH2 0x32E4 JUMP JUMPDEST LT ISZERO PUSH2 0xB37 JUMPI CALLER PUSH1 0x0 SWAP1 DUP2 MSTORE PUSH1 0xF PUSH1 0x20 MSTORE PUSH1 0x40 SWAP1 KECCAK256 DUP1 SLOAD PUSH1 0xFF NOT AND SWAP1 SSTORE JUMPDEST PUSH2 0xB42 CALLER ADDRESS DUP5 PUSH2 0x2827 JUMP JUMPDEST POP POP JUMP JUMPDEST PUSH2 0xB4F CALLER PUSH2 0xDF7 JUMP JUMPDEST PUSH2 0xB93 JUMPI PUSH1 0x40 MLOAD PUSH3 0x461BCD PUSH1 0xE5 SHL DUP2 MSTORE PUSH1 0x20 PUSH1 0x4 DUP3 ADD MSTORE PUSH1 0x15 PUSH1 0x24 DUP3 ADD MSTORE PUSH21 0x4F6E6C79206D656D626572732063616E20766F7465 PUSH1 0x58 SHL PUSH1 0x44 DUP3 ADD MSTORE PUSH1 0x64 ADD PUSH2 0xACC JUMP JUMPDEST PUSH1 0x0 DUP3 DUP2 MSTORE PUSH1 0xE PUSH1 0x20 SWAP1 DUP2 MSTORE PUSH1 0x40 DUP1 DUP4 KECCAK256 CALLER DUP5 MSTORE SWAP1 SWAP2 MSTORE SWAP1 KECCAK256 SLOAD PUSH1 0xFF AND ISZERO PUSH2 0xBFD JUMPI PUSH1 0x40 MLOAD PUSH3 0x461BCD PUSH1 0xE5 SHL DUP2 MSTORE PUSH1 0x20 PUSH1 0x4 DUP3 ADD MSTORE PUSH1 0x1E PUSH1 0x24 DUP3 ADD MSTORE PUSH32 0x416C726561647920766F74656420666F722074686973207061796D656E740000 PUSH1 0x44 DUP3 ADD MSTORE PUSH1 0x64 ADD PUSH2 0xACC JUMP JUMPDEST PUSH1 0x9 DUP3 DUP2 SLOAD DUP2 LT PUSH2 0xC10 JUMPI PUSH2 0xC10 PUSH2 0x321F JUMP JUMPDEST SWAP1 PUSH1 0x0 MSTORE PUSH1 0x20 PUSH1 0x0 KECCAK256 SWAP1 PUSH1 0x9 MUL ADD PUSH1 0x1 ADD SLOAD TIMESTAMP LT PUSH2 0xC40 JUMPI PUSH1 0x40 MLOAD PUSH3 0x461BCD PUSH1 0xE5 SHL DUP2 MSTORE PUSH1 0x4 ADD PUSH2 0xACC SWAP1 PUSH2 0x32F7 JUMP JUMPDEST PUSH1 0x9 DUP3 DUP2 SLOAD DUP2 LT PUSH2 0xC53 JUMPI PUSH2 0xC53 PUSH2 0x321F JUMP JUMPDEST PUSH1 0x0 SWAP2 DUP3 MSTORE PUSH1 0x20 SWAP1 SWAP2 KECCAK256 PUSH1 0x6 PUSH1 0x9 SWAP1 SWAP3 MUL ADD ADD SLOAD PUSH1 0xFF AND PUSH2 0xCAB JUMPI PUSH1 0x40 MLOAD PUSH3 0x461BCD PUSH1 0xE5 SHL DUP2 MSTORE PUSH1 0x20 PUSH1 0x4 DUP3 ADD MSTORE PUSH1 0x12 PUSH1 0x24 DUP3 ADD MSTORE PUSH18 0x141C9BDA9958DD081B9BDD08199D5B991959 PUSH1 0x72 SHL PUSH1 0x44 DUP3 ADD MSTORE PUSH1 0x64 ADD PUSH2 0xACC JUMP JUMPDEST PUSH1 0x9 DUP3 DUP2 SLOAD DUP2 LT PUSH2 0xCBE JUMPI PUSH2 0xCBE PUSH2 0x321F JUMP JUMPDEST SWAP1 PUSH1 0x0 MSTORE PUSH1 0x20 PUSH1 0x0 KECCAK256 SWAP1 PUSH1 0x9 MUL ADD PUSH1 0x3 ADD DUP1 SLOAD SWAP1 POP PUSH1 0x9 DUP4 DUP2 SLOAD DUP2 LT PUSH2 0xCE6 JUMPI PUSH2 0xCE6 PUSH2 0x321F JUMP JUMPDEST SWAP1 PUSH1 0x0 MSTORE PUSH1 0x20 PUSH1 0x0 KECCAK256 SWAP1 PUSH1 0x9 MUL ADD PUSH1 0x8 ADD SLOAD LT PUSH2 0xD39 JUMPI PUSH1 0x40 MLOAD PUSH3 0x461BCD PUSH1 0xE5 SHL DUP2 MSTORE PUSH1 0x20 PUSH1 0x4 DUP3 ADD MSTORE PUSH1 0x11 PUSH1 0x24 DUP3 ADD MSTORE PUSH17 0x416C6C207061796D656E7473206D616465 PUSH1 0x78 SHL PUSH1 0x44 DUP3 ADD MSTORE PUSH1 0x64 ADD PUSH2 0xACC JUMP JUMPDEST PUSH1 0x0 DUP3 DUP2 MSTORE PUSH1 0xE PUSH1 0x20 SWAP1 DUP2 MSTORE PUSH1 0x40 DUP1 DUP4 KECCAK256 CALLER DUP5 MSTORE SWAP1 SWAP2 MSTORE SWAP1 KECCAK256 DUP1 SLOAD PUSH1 0xFF NOT AND PUSH1 0x1 OR SWAP1 SSTORE DUP1 ISZERO PUSH2 0xB42 JUMPI PUSH1 0x0 DUP3 DUP2 MSTORE PUSH1 0xD PUSH1 0x20 MSTORE PUSH1 0x40 DUP2 KECCAK256 DUP1 SLOAD SWAP2 PUSH2 0xD7D DUP4 PUSH2 0x3318 JUMP JUMPDEST SWAP2 SWAP1 POP SSTORE POP POP POP JUMP JUMPDEST PUSH1 0x0 DUP1 PUSH1 0x9 DUP4 DUP2 SLOAD DUP2 LT PUSH2 0xD9C JUMPI PUSH2 0xD9C PUSH2 0x321F JUMP JUMPDEST SWAP1 PUSH1 0x0 MSTORE PUSH1 0x20 PUSH1 0x0 KECCAK256 SWAP1 PUSH1 0x9 MUL ADD SWAP1 POP PUSH1 0x0 JUMPDEST DUP2 PUSH1 0x8 ADD SLOAD DUP2 LT ISZERO PUSH2 0xDF0 JUMPI DUP2 PUSH1 0x2 ADD DUP2 DUP2 SLOAD DUP2 LT PUSH2 0xDD0 JUMPI PUSH2 0xDD0 PUSH2 0x321F JUMP JUMPDEST SWAP1 PUSH1 0x0 MSTORE PUSH1 0x20 PUSH1 0x0 KECCAK256 ADD SLOAD DUP4 PUSH2 0xDE6 SWAP2 SWAP1 PUSH2 0x3331 JUMP JUMPDEST SWAP3 POP PUSH1 0x1 ADD PUSH2 0xDAF JUMP JUMPDEST POP POP SWAP2 SWAP1 POP JUMP JUMPDEST PUSH1 0x1 PUSH1 0x1 PUSH1 0xA0 SHL SUB AND PUSH1 0x0 SWAP1 DUP2 MSTORE PUSH1 0xF PUSH1 0x20 MSTORE PUSH1 0x40 SWAP1 KECCAK256 SLOAD PUSH1 0xFF AND SWAP1 JUMP JUMPDEST PUSH1 0x0 DUP1 PUSH1 0x9 DUP4 DUP2 SLOAD DUP2 LT PUSH2 0xE2B JUMPI PUSH2 0xE2B PUSH2 0x321F JUMP JUMPDEST SWAP1 PUSH1 0x0 MSTORE PUSH1 0x20 PUSH1 0x0 KECCAK256 SWAP1 PUSH1 0x9 MUL ADD SWAP1 POP DUP1 PUSH1 0x3 ADD DUP1 SLOAD SWAP1 POP DUP2 PUSH1 0x8 ADD SLOAD LT PUSH2 0xE57 JUMPI POP PUSH1 0x0 NOT SWAP3 SWAP2 POP POP JUMP JUMPDEST DUP1 PUSH1 0x3 ADD DUP2 PUSH1 0x8 ADD SLOAD DUP2 SLOAD DUP2 LT PUSH2 0xE70 JUMPI PUSH2 0xE70 PUSH2 0x321F JUMP JUMPDEST SWAP1 PUSH1 0x0 MSTORE PUSH1 0x20 PUSH1 0x0 KECCAK256 ADD SLOAD SWAP2 POP POP SWAP2 SWAP1 POP JUMP JUMPDEST PUSH2 0xE8B PUSH2 0x29B1 JUMP JUMPDEST PUSH2 0xB42 ADDRESS DUP4 DUP4 PUSH2 0x2827 JUMP JUMPDEST PUSH2 0xE9F CALLER PUSH2 0xDF7 JUMP JUMPDEST PUSH2 0xEEB JUMPI PUSH1 0x40 MLOAD PUSH3 0x461BCD PUSH1 0xE5 SHL DUP2 MSTORE PUSH1 0x20 PUSH1 0x4 DUP3 ADD MSTORE PUSH1 0x1D PUSH1 0x24 DUP3 ADD MSTORE PUSH32 0x4F6E6C79206D656D626572732063616E2074616B652073757276657973000000 PUSH1 0x44 DUP3 ADD MSTORE PUSH1 0x64 ADD PUSH2 0xACC JUMP JUMPDEST PUSH1 0x0 PUSH1 0x8 DUP5 DUP2 SLOAD DUP2 LT PUSH2 0xF00 JUMPI PUSH2 0xF00 PUSH2 0x321F JUMP JUMPDEST SWAP1 PUSH1 0x0 MSTORE PUSH1 0x20 PUSH1 0x0 KECCAK256 SWAP1 PUSH1 0x7 MUL ADD SWAP1 POP DUP1 PUSH1 0x1 ADD SLOAD TIMESTAMP LT PUSH2 0xF33 JUMPI PUSH1 0x40 MLOAD PUSH3 0x461BCD PUSH1 0xE5 SHL DUP2 MSTORE PUSH1 0x4 ADD PUSH2 0xACC SWAP1 PUSH2 0x32F7 JUMP JUMPDEST PUSH1 0x3 DUP2 ADD SLOAD DUP3 GT ISZERO PUSH2 0xF7A JUMPI PUSH1 0x40 MLOAD PUSH3 0x461BCD PUSH1 0xE5 SHL DUP2 MSTORE PUSH1 0x20 PUSH1 0x4 DUP3 ADD MSTORE PUSH1 0x10 PUSH1 0x24 DUP3 ADD MSTORE PUSH16 0x546F6F206D616E792063686F69636573 PUSH1 0x80 SHL PUSH1 0x44 DUP3 ADD MSTORE PUSH1 0x64 ADD PUSH2 0xACC JUMP JUMPDEST PUSH1 0x0 JUMPDEST DUP3 DUP2 LT ISZERO PUSH2 0x1031 JUMPI DUP2 PUSH1 0x2 ADD SLOAD DUP5 DUP5 DUP4 DUP2 DUP2 LT PUSH2 0xF9C JUMPI PUSH2 0xF9C PUSH2 0x321F JUMP JUMPDEST SWAP1 POP PUSH1 0x20 MUL ADD CALLDATALOAD LT PUSH2 0xFE1 JUMPI PUSH1 0x40 MLOAD PUSH3 0x461BCD PUSH1 0xE5 SHL DUP2 MSTORE PUSH1 0x20 PUSH1 0x4 DUP3 ADD MSTORE PUSH1 0xE PUSH1 0x24 DUP3 ADD MSTORE PUSH14 0x496E76616C69642063686F696365 PUSH1 0x90 SHL PUSH1 0x44 DUP3 ADD MSTORE PUSH1 0x64 ADD PUSH2 0xACC JUMP JUMPDEST DUP2 PUSH1 0x5 ADD DUP5 DUP5 DUP4 DUP2 DUP2 LT PUSH2 0xFF7 JUMPI PUSH2 0xFF7 PUSH2 0x321F JUMP JUMPDEST SWAP1 POP PUSH1 0x20 MUL ADD CALLDATALOAD DUP2 SLOAD DUP2 LT PUSH2 0x100E JUMPI PUSH2 0x100E PUSH2 0x321F JUMP JUMPDEST PUSH1 0x0 SWAP2 DUP3 MSTORE PUSH1 0x20 DUP3 KECCAK256 ADD DUP1 SLOAD SWAP2 PUSH2 0x1024 DUP4 PUSH2 0x3318 JUMP JUMPDEST SWAP1 SWAP2 SSTORE POP POP PUSH1 0x1 ADD PUSH2 0xF7D JUMP JUMPDEST POP PUSH1 0x6 DUP2 ADD DUP1 SLOAD SWAP1 PUSH1 0x0 PUSH2 0x1044 DUP4 PUSH2 0x3318 JUMP JUMPDEST SWAP2 SWAP1 POP SSTORE POP POP POP POP POP JUMP JUMPDEST PUSH1 0x1 PUSH1 0x1 PUSH1 0xA0 SHL SUB AND PUSH1 0x0 SWAP1 DUP2 MSTORE PUSH1 0x20 DUP2 SWAP1 MSTORE PUSH1 0x40 SWAP1 KECCAK256 SLOAD SWAP1 JUMP JUMPDEST PUSH1 0x0 PUSH1 0x60 PUSH1 0x8 DUP4 DUP2 SLOAD DUP2 LT PUSH2 0x1081 JUMPI PUSH2 0x1081 PUSH2 0x321F JUMP JUMPDEST SWAP1 PUSH1 0x0 MSTORE PUSH1 0x20 PUSH1 0x0 KECCAK256 SWAP1 PUSH1 0x7 MUL ADD PUSH1 0x6 ADD SLOAD PUSH1 0x8 DUP5 DUP2 SLOAD DUP2 LT PUSH2 0x10A6 JUMPI PUSH2 0x10A6 PUSH2 0x321F JUMP JUMPDEST SWAP1 PUSH1 0x0 MSTORE PUSH1 0x20 PUSH1 0x0 KECCAK256 SWAP1 PUSH1 0x7 MUL ADD PUSH1 0x5 ADD DUP1 DUP1 SLOAD DUP1 PUSH1 0x20 MUL PUSH1 0x20 ADD PUSH1 0x40 MLOAD SWAP1 DUP2 ADD PUSH1 0x40 MSTORE DUP1 SWAP3 SWAP2 SWAP1 DUP2 DUP2 MSTORE PUSH1 0x20 ADD DUP3 DUP1 SLOAD DUP1 ISZERO PUSH2 0x1102 JUMPI PUSH1 0x20 MUL DUP3 ADD SWAP2 SWAP1 PUSH1 0x0 MSTORE PUSH1 0x20 PUSH1 0x0 KECCAK256 SWAP1 JUMPDEST DUP2 SLOAD DUP2 MSTORE PUSH1 0x20 ADD SWAP1 PUSH1 0x1 ADD SWAP1 DUP1 DUP4 GT PUSH2 0x10EE JUMPI JUMPDEST POP POP POP POP POP SWAP1 POP SWAP2 POP SWAP2 POP SWAP2 POP SWAP2 JUMP JUMPDEST PUSH2 0x111A PUSH2 0x29B1 JUMP JUMPDEST PUSH2 0x1124 PUSH1 0x0 PUSH2 0x29DE JUMP JUMPDEST JUMP JUMPDEST PUSH1 0x0 PUSH1 0x9 DUP3 DUP2 SLOAD DUP2 LT PUSH2 0x113B JUMPI PUSH2 0x113B PUSH2 0x321F JUMP JUMPDEST PUSH1 0x0 SWAP2 DUP3 MSTORE PUSH1 0x20 SWAP1 SWAP2 KECCAK256 PUSH1 0x6 PUSH1 0x9 SWAP1 SWAP3 MUL ADD ADD SLOAD PUSH1 0xFF AND SWAP3 SWAP2 POP POP JUMP JUMPDEST PUSH1 0x0 PUSH1 0x9 DUP3 DUP2 SLOAD DUP2 LT PUSH2 0x116D JUMPI PUSH2 0x116D PUSH2 0x321F JUMP JUMPDEST PUSH1 0x0 SWAP2 DUP3 MSTORE PUSH1 0x20 SWAP1 SWAP2 KECCAK256 PUSH1 0x9 SWAP1 SWAP2 MUL ADD PUSH1 0x6 DUP2 ADD SLOAD SWAP1 SWAP2 POP PUSH1 0xFF AND DUP1 ISZERO PUSH2 0x11A0 JUMPI POP PUSH1 0x4 DUP2 ADD SLOAD PUSH1 0x1 PUSH1 0x1 PUSH1 0xA0 SHL SUB AND CALLER EQ JUMPDEST PUSH2 0x11DB JUMPI PUSH1 0x40 MLOAD PUSH3 0x461BCD PUSH1 0xE5 SHL DUP2 MSTORE PUSH1 0x20 PUSH1 0x4 DUP3 ADD MSTORE PUSH1 0xC PUSH1 0x24 DUP3 ADD MSTORE PUSH12 0x155B985D5D1A1BDC9A5E9959 PUSH1 0xA2 SHL PUSH1 0x44 DUP3 ADD MSTORE PUSH1 0x64 ADD PUSH2 0xACC JUMP JUMPDEST PUSH1 0x3 DUP2 ADD SLOAD PUSH1 0x8 DUP3 ADD SLOAD LT PUSH2 0x121D JUMPI PUSH1 0x40 MLOAD PUSH3 0x461BCD PUSH1 0xE5 SHL DUP2 MSTORE PUSH1 0x20 PUSH1 0x4 DUP3 ADD MSTORE PUSH1 0x8 PUSH1 0x24 DUP3 ADD MSTORE PUSH8 0x105B1B081C185A59 PUSH1 0xC2 SHL PUSH1 0x44 DUP3 ADD MSTORE PUSH1 0x64 ADD PUSH2 0xACC JUMP JUMPDEST DUP1 PUSH1 0x3 ADD DUP2 PUSH1 0x8 ADD SLOAD DUP2 SLOAD DUP2 LT PUSH2 0x1236 JUMPI PUSH2 0x1236 PUSH2 0x321F JUMP JUMPDEST SWAP1 PUSH1 0x0 MSTORE PUSH1 0x20 PUSH1 0x0 KECCAK256 ADD SLOAD DUP2 PUSH1 0x7 ADD SLOAD PUSH2 0x1250 SWAP2 SWAP1 PUSH2 0x3331 JUMP JUMPDEST TIMESTAMP LT ISZERO PUSH2 0x128D JUMPI PUSH1 0x40 MLOAD PUSH3 0x461BCD PUSH1 0xE5 SHL DUP2 MSTORE PUSH1 0x20 PUSH1 0x4 DUP3 ADD MSTORE PUSH1 0xB PUSH1 0x24 DUP3 ADD MSTORE PUSH11 0x139BDD08191D59481E595D PUSH1 0xAA SHL PUSH1 0x44 DUP3 ADD MSTORE PUSH1 0x64 ADD PUSH2 0xACC JUMP JUMPDEST PUSH2 0x1295 PUSH2 0x2A30 JUMP JUMPDEST PUSH1 0x0 DUP4 DUP2 MSTORE PUSH1 0xD PUSH1 0x20 MSTORE PUSH1 0x40 SWAP1 KECCAK256 SLOAD PUSH2 0x12AF SWAP1 PUSH1 0x64 PUSH2 0x3344 JUMP JUMPDEST LT ISZERO PUSH2 0x12FD JUMPI PUSH1 0x40 MLOAD PUSH3 0x461BCD PUSH1 0xE5 SHL DUP2 MSTORE PUSH1 0x20 PUSH1 0x4 DUP3 ADD MSTORE PUSH1 0x1C PUSH1 0x24 DUP3 ADD MSTORE PUSH32 0x4E6F7420656E6F75676820766F74657320666F72207061796D656E7400000000 PUSH1 0x44 DUP3 ADD MSTORE PUSH1 0x64 ADD PUSH2 0xACC JUMP JUMPDEST PUSH1 0x6 SLOAD PUSH1 0x4 DUP3 ADD SLOAD PUSH1 0x8 DUP4 ADD SLOAD PUSH1 0x2 DUP5 ADD DUP1 SLOAD PUSH1 0x1 PUSH1 0x1 PUSH1 0xA0 SHL SUB SWAP5 DUP6 AND SWAP5 PUSH4 0xA9059CBB SWAP5 AND SWAP3 SWAP1 DUP2 LT PUSH2 0x1333 JUMPI PUSH2 0x1333 PUSH2 0x321F JUMP JUMPDEST PUSH1 0x0 SWAP2 DUP3 MSTORE PUSH1 0x20 SWAP1 SWAP2 KECCAK256 ADD SLOAD PUSH1 0x40 MLOAD PUSH1 0x1 PUSH1 0x1 PUSH1 0xE0 SHL SUB NOT PUSH1 0xE0 DUP6 SWAP1 SHL AND DUP2 MSTORE PUSH1 0x1 PUSH1 0x1 PUSH1 0xA0 SHL SUB SWAP1 SWAP3 AND PUSH1 0x4 DUP4 ADD MSTORE PUSH1 0x24 DUP3 ADD MSTORE PUSH1 0x44 ADD PUSH1 0x20 PUSH1 0x40 MLOAD DUP1 DUP4 SUB DUP2 PUSH1 0x0 DUP8 GAS CALL ISZERO DUP1 ISZERO PUSH2 0x138A JUMPI RETURNDATASIZE PUSH1 0x0 DUP1 RETURNDATACOPY RETURNDATASIZE PUSH1 0x0 REVERT JUMPDEST POP POP POP POP PUSH1 0x40 MLOAD RETURNDATASIZE PUSH1 0x1F NOT PUSH1 0x1F DUP3 ADD AND DUP3 ADD DUP1 PUSH1 0x40 MSTORE POP DUP2 ADD SWAP1 PUSH2 0x13AE SWAP2 SWAP1 PUSH2 0x335B JUMP JUMPDEST POP PUSH1 0x8 DUP2 ADD DUP1 SLOAD SWAP1 PUSH1 0x0 PUSH2 0x13C1 DUP4 PUSH2 0x3318 JUMP JUMPDEST SWAP1 SWAP2 SSTORE POP POP PUSH1 0x0 DUP3 DUP2 MSTORE PUSH1 0xD PUSH1 0x20 MSTORE PUSH1 0x40 DUP2 KECCAK256 DUP2 SWAP1 SSTORE JUMPDEST PUSH1 0x9 SLOAD DUP2 LT ISZERO PUSH2 0x142E JUMPI PUSH1 0x0 DUP4 DUP2 MSTORE PUSH1 0xE PUSH1 0x20 SWAP1 DUP2 MSTORE PUSH1 0x40 DUP1 DUP4 KECCAK256 CALLER DUP5 MSTORE SWAP1 SWAP2 MSTORE SWAP1 KECCAK256 SLOAD PUSH1 0xFF AND ISZERO PUSH2 0x1426 JUMPI PUSH1 0x0 DUP4 DUP2 MSTORE PUSH1 0xE PUSH1 0x20 SWAP1 DUP2 MSTORE PUSH1 0x40 DUP1 DUP4 KECCAK256 CALLER DUP5 MSTORE SWAP1 SWAP2 MSTORE SWAP1 KECCAK256 DUP1 SLOAD PUSH1 0xFF NOT AND SWAP1 SSTORE JUMPDEST PUSH1 0x1 ADD PUSH2 0x13D8 JUMP JUMPDEST POP POP POP JUMP JUMPDEST PUSH1 0x8 DUP2 DUP2 SLOAD DUP2 LT PUSH2 0x1443 JUMPI PUSH1 0x0 DUP1 REVERT JUMPDEST SWAP1 PUSH1 0x0 MSTORE PUSH1 0x20 PUSH1 0x0 KECCAK256 SWAP1 PUSH1 0x7 MUL ADD PUSH1 0x0 SWAP2 POP SWAP1 POP DUP1 PUSH1 0x0 ADD DUP1 SLOAD PUSH2 0x1466 SWAP1 PUSH2 0x31EB JUMP JUMPDEST DUP1 PUSH1 0x1F ADD PUSH1 0x20 DUP1 SWAP2 DIV MUL PUSH1 0x20 ADD PUSH1 0x40 MLOAD SWAP1 DUP2 ADD PUSH1 0x40 MSTORE DUP1 SWAP3 SWAP2 SWAP1 DUP2 DUP2 MSTORE PUSH1 0x20 ADD DUP3 DUP1 SLOAD PUSH2 0x1492 SWAP1 PUSH2 0x31EB JUMP JUMPDEST DUP1 ISZERO PUSH2 0x14DF JUMPI DUP1 PUSH1 0x1F LT PUSH2 0x14B4 JUMPI PUSH2 0x100 DUP1 DUP4 SLOAD DIV MUL DUP4 MSTORE SWAP2 PUSH1 0x20 ADD SWAP2 PUSH2 0x14DF JUMP JUMPDEST DUP3 ADD SWAP2 SWAP1 PUSH1 0x0 MSTORE PUSH1 0x20 PUSH1 0x0 KECCAK256 SWAP1 JUMPDEST DUP2 SLOAD DUP2 MSTORE SWAP1 PUSH1 0x1 ADD SWAP1 PUSH1 0x20 ADD DUP1 DUP4 GT PUSH2 0x14C2 JUMPI DUP3 SWAP1 SUB PUSH1 0x1F AND DUP3 ADD SWAP2 JUMPDEST POP POP POP POP PUSH1 0x1 DUP4 ADD SLOAD PUSH1 0x2 DUP5 ADD SLOAD PUSH1 0x3 DUP6 ADD SLOAD PUSH1 0x4 DUP7 ADD SLOAD PUSH1 0x6 SWAP1 SWAP7 ADD SLOAD SWAP5 SWAP6 SWAP3 SWAP5 SWAP2 SWAP4 POP SWAP2 PUSH1 0x1 PUSH1 0x1 PUSH1 0xA0 SHL SUB AND SWAP1 DUP7 JUMP JUMPDEST PUSH1 0x0 PUSH1 0x8 DUP3 DUP2 SLOAD DUP2 LT PUSH2 0x1527 JUMPI PUSH2 0x1527 PUSH2 0x321F JUMP JUMPDEST PUSH1 0x0 SWAP2 DUP3 MSTORE PUSH1 0x20 SWAP1 SWAP2 KECCAK256 PUSH1 0x4 PUSH1 0x7 SWAP1 SWAP3 MUL ADD ADD SLOAD PUSH1 0x1 PUSH1 0x1 PUSH1 0xA0 SHL SUB AND SWAP3 SWAP2 POP POP JUMP JUMPDEST PUSH1 0x0 PUSH1 0x9 DUP3 DUP2 SLOAD DUP2 LT PUSH2 0x155F JUMPI PUSH2 0x155F PUSH2 0x321F JUMP JUMPDEST PUSH1 0x0 SWAP2 DUP3 MSTORE PUSH1 0x20 SWAP1 SWAP2 KECCAK256 PUSH1 0x4 PUSH1 0x9 SWAP1 SWAP3 MUL ADD ADD SLOAD PUSH1 0x1 PUSH1 0x1 PUSH1 0xA0 SHL SUB AND SWAP3 SWAP2 POP POP JUMP JUMPDEST PUSH1 0x60 PUSH1 0x4 DUP1 SLOAD PUSH2 0x80E SWAP1 PUSH2 0x31EB JUMP JUMPDEST PUSH1 0x0 DUP2 DUP2 MSTORE PUSH1 0xA PUSH1 0x20 SWAP1 DUP2 MSTORE PUSH1 0x40 DUP1 DUP4 KECCAK256 CALLER DUP5 MSTORE SWAP1 SWAP2 MSTORE SWAP1 KECCAK256 SLOAD PUSH1 0xFF AND ISZERO PUSH2 0x15EB JUMPI PUSH1 0x40 MLOAD PUSH3 0x461BCD PUSH1 0xE5 SHL DUP2 MSTORE PUSH1 0x20 PUSH1 0x4 DUP3 ADD MSTORE PUSH1 0xD PUSH1 0x24 DUP3 ADD MSTORE PUSH13 0x105B1C9958591E481D9BDD1959 PUSH1 0x9A SHL PUSH1 0x44 DUP3 ADD MSTORE PUSH1 0x64 ADD PUSH2 0xACC JUMP JUMPDEST PUSH1 0x0 DUP2 DUP2 MSTORE PUSH1 0xC PUSH1 0x20 SWAP1 DUP2 MSTORE PUSH1 0x40 DUP1 DUP4 KECCAK256 CALLER DUP5 MSTORE SWAP1 SWAP2 MSTORE SWAP1 KECCAK256 SLOAD PUSH1 0xFF AND ISZERO PUSH2 0x1649 JUMPI PUSH1 0x40 MLOAD PUSH3 0x461BCD PUSH1 0xE5 SHL DUP2 MSTORE PUSH1 0x20 PUSH1 0x4 DUP3 ADD MSTORE PUSH1 0x11 PUSH1 0x24 DUP3 ADD MSTORE PUSH17 0x105B1C9958591E4819195B1959D85D1959 PUSH1 0x7A SHL PUSH1 0x44 DUP3 ADD MSTORE PUSH1 0x64 ADD PUSH2 0xACC JUMP JUMPDEST PUSH2 0x1652 DUP3 PUSH2 0xDF7 JUMP JUMPDEST PUSH2 0x16A8 JUMPI PUSH1 0x40 MLOAD PUSH3 0x461BCD PUSH1 0xE5 SHL DUP2 MSTORE PUSH1 0x20 PUSH1 0x4 DUP3 ADD MSTORE PUSH1 0x21 PUSH1 0x24 DUP3 ADD MSTORE PUSH32 0x596F752063616E6E6F742064656C656761746520746F206E6F6E2D6D656D6265 PUSH1 0x44 DUP3 ADD MSTORE PUSH1 0x39 PUSH1 0xF9 SHL PUSH1 0x64 DUP3 ADD MSTORE PUSH1 0x84 ADD PUSH2 0xACC JUMP JUMPDEST PUSH1 0x0 DUP2 DUP2 MSTORE PUSH1 0xC PUSH1 0x20 SWAP1 DUP2 MSTORE PUSH1 0x40 DUP1 DUP4 KECCAK256 CALLER DUP5 MSTORE DUP3 MSTORE DUP1 DUP4 KECCAK256 DUP1 SLOAD PUSH1 0xFF NOT AND PUSH1 0x1 OR SWAP1 SSTORE DUP4 DUP4 MSTORE PUSH1 0xB DUP3 MSTORE DUP1 DUP4 KECCAK256 PUSH1 0x1 PUSH1 0x1 PUSH1 0xA0 SHL SUB DUP7 AND DUP5 MSTORE SWAP1 SWAP2 MSTORE DUP2 KECCAK256 DUP1 SLOAD SWAP2 PUSH2 0xD7D DUP4 PUSH2 0x3318 JUMP JUMPDEST PUSH1 0x0 PUSH2 0x16FE CALLER PUSH2 0xDF7 JUMP JUMPDEST PUSH2 0x175C JUMPI PUSH1 0x40 MLOAD PUSH3 0x461BCD PUSH1 0xE5 SHL DUP2 MSTORE PUSH1 0x20 PUSH1 0x4 DUP3 ADD MSTORE PUSH1 0x29 PUSH1 0x24 DUP3 ADD MSTORE PUSH32 0x4F6E6C79206D656D626572732063616E207375626D69742070726F6A65637420 PUSH1 0x44 DUP3 ADD MSTORE PUSH9 0x70726F706F73616C73 PUSH1 0xB8 SHL PUSH1 0x64 DUP3 ADD MSTORE PUSH1 0x84 ADD PUSH2 0xACC JUMP JUMPDEST PUSH8 0x4563918244F40000 PUSH2 0x176E CALLER PUSH2 0x104F JUMP JUMPDEST LT ISZERO PUSH2 0x17B5 JUMPI PUSH1 0x40 MLOAD PUSH3 0x461BCD PUSH1 0xE5 SHL DUP2 MSTORE PUSH1 0x20 PUSH1 0x4 DUP3 ADD MSTORE PUSH1 0x16 PUSH1 0x24 DUP3 ADD MSTORE PUSH22 0xD481351D3D5881D1BDAD95B9CC81C995C5D5A5C9959 PUSH1 0x52 SHL PUSH1 0x44 DUP3 ADD MSTORE PUSH1 0x64 ADD PUSH2 0xACC JUMP JUMPDEST PUSH2 0x17C7 CALLER PUSH8 0x4563918244F40000 PUSH2 0x2886 JUMP JUMPDEST ISZERO PUSH2 0x17E4 JUMPI PUSH1 0x40 MLOAD PUSH3 0x461BCD PUSH1 0xE5 SHL DUP2 MSTORE PUSH1 0x4 ADD PUSH2 0xACC SWAP1 PUSH2 0x3235 JUMP JUMPDEST PUSH1 0x6 SLOAD PUSH1 0x40 MLOAD PUSH4 0x23B872DD PUSH1 0xE0 SHL DUP2 MSTORE CALLER PUSH1 0x4 DUP3 ADD MSTORE ADDRESS PUSH1 0x24 DUP3 ADD MSTORE PUSH9 0xD8D726B7177A800000 PUSH1 0x44 DUP3 ADD MSTORE PUSH1 0x1 PUSH1 0x1 PUSH1 0xA0 SHL SUB SWAP1 SWAP2 AND SWAP1 PUSH4 0x23B872DD SWAP1 PUSH1 0x64 ADD PUSH1 0x20 PUSH1 0x40 MLOAD DUP1 DUP4 SUB DUP2 PUSH1 0x0 DUP8 GAS CALL ISZERO DUP1 ISZERO PUSH2 0x1843 JUMPI RETURNDATASIZE PUSH1 0x0 DUP1 RETURNDATACOPY RETURNDATASIZE PUSH1 0x0 REVERT JUMPDEST POP POP POP POP PUSH1 0x40 MLOAD RETURNDATASIZE PUSH1 0x1F NOT PUSH1 0x1F DUP3 ADD AND DUP3 ADD DUP1 PUSH1 0x40 MSTORE POP DUP2 ADD SWAP1 PUSH2 0x1867 SWAP2 SWAP1 PUSH2 0x335B JUMP JUMPDEST PUSH2 0x18B3 JUMPI PUSH1 0x40 MLOAD PUSH3 0x461BCD PUSH1 0xE5 SHL DUP2 MSTORE PUSH1 0x20 PUSH1 0x4 DUP3 ADD MSTORE PUSH1 0x18 PUSH1 0x24 DUP3 ADD MSTORE PUSH32 0x3430303020544C20746F6B656E732072657175697265642E0000000000000000 PUSH1 0x44 DUP3 ADD MSTORE PUSH1 0x64 ADD PUSH2 0xACC JUMP JUMPDEST PUSH8 0xDE0B6B3A7640000 PUSH8 0x4563918244F40000 PUSH2 0x18CE CALLER PUSH2 0x104F JUMP JUMPDEST PUSH2 0x18D8 SWAP2 SWAP1 PUSH2 0x32E4 JUMP JUMPDEST LT ISZERO PUSH2 0x18F6 JUMPI CALLER PUSH1 0x0 SWAP1 DUP2 MSTORE PUSH1 0xF PUSH1 0x20 MSTORE PUSH1 0x40 SWAP1 KECCAK256 DUP1 SLOAD PUSH1 0xFF NOT AND SWAP1 SSTORE JUMPDEST PUSH2 0x1909 CALLER ADDRESS PUSH8 0x4563918244F40000 PUSH2 0x2827 JUMP JUMPDEST PUSH1 0x40 DUP1 MLOAD PUSH2 0x140 PUSH1 0x20 PUSH1 0x1F DUP12 ADD DUP2 SWAP1 DIV MUL DUP3 ADD DUP2 ADD SWAP1 SWAP3 MSTORE PUSH2 0x120 DUP2 ADD DUP10 DUP2 MSTORE PUSH1 0x9 SWAP3 DUP3 SWAP2 SWAP1 DUP13 SWAP1 DUP13 SWAP1 DUP2 SWAP1 DUP6 ADD DUP4 DUP3 DUP1 DUP3 DUP5 CALLDATACOPY PUSH1 0x0 SWAP3 ADD SWAP2 SWAP1 SWAP2 MSTORE POP POP POP SWAP1 DUP3 MSTORE POP PUSH1 0x20 DUP1 DUP3 ADD DUP11 SWAP1 MSTORE PUSH1 0x40 DUP1 MLOAD DUP10 DUP4 MUL DUP2 DUP2 ADD DUP5 ADD DUP4 MSTORE DUP11 DUP3 MSTORE SWAP2 SWAP1 SWAP4 ADD SWAP3 SWAP2 DUP11 SWAP2 DUP11 SWAP2 DUP3 SWAP2 SWAP1 DUP6 ADD SWAP1 DUP5 SWAP1 DUP1 DUP3 DUP5 CALLDATACOPY PUSH1 0x0 SWAP3 ADD SWAP2 SWAP1 SWAP2 MSTORE POP POP POP SWAP1 DUP3 MSTORE POP PUSH1 0x40 DUP1 MLOAD PUSH1 0x20 DUP8 DUP2 MUL DUP3 DUP2 ADD DUP3 ADD SWAP1 SWAP4 MSTORE DUP8 DUP3 MSTORE SWAP3 DUP4 ADD SWAP3 SWAP1 SWAP2 DUP9 SWAP2 DUP9 SWAP2 DUP3 SWAP2 DUP6 ADD SWAP1 DUP5 SWAP1 DUP1 DUP3 DUP5 CALLDATACOPY PUSH1 0x0 SWAP3 ADD DUP3 SWAP1 MSTORE POP SWAP4 DUP6 MSTORE POP POP CALLER PUSH1 0x20 DUP1 DUP6 ADD SWAP2 SWAP1 SWAP2 MSTORE PUSH1 0x40 DUP5 ADD DUP4 SWAP1 MSTORE PUSH1 0x60 DUP5 ADD DUP4 SWAP1 MSTORE PUSH1 0x80 DUP5 ADD DUP4 SWAP1 MSTORE PUSH1 0xA0 SWAP1 SWAP4 ADD DUP3 SWAP1 MSTORE POP DUP4 SLOAD PUSH1 0x1 DUP2 ADD DUP6 SSTORE SWAP4 DUP2 MSTORE KECCAK256 DUP2 MLOAD SWAP2 SWAP3 PUSH1 0x9 MUL ADD SWAP1 DUP2 SWAP1 PUSH2 0x1A09 SWAP1 DUP3 PUSH2 0x33DC JUMP JUMPDEST POP PUSH1 0x20 DUP3 DUP2 ADD MLOAD PUSH1 0x1 DUP4 ADD SSTORE PUSH1 0x40 DUP4 ADD MLOAD DUP1 MLOAD PUSH2 0x1A2C SWAP3 PUSH1 0x2 DUP6 ADD SWAP3 ADD SWAP1 PUSH2 0x2CA5 JUMP JUMPDEST POP PUSH1 0x60 DUP3 ADD MLOAD DUP1 MLOAD PUSH2 0x1A48 SWAP2 PUSH1 0x3 DUP5 ADD SWAP2 PUSH1 0x20 SWAP1 SWAP2 ADD SWAP1 PUSH2 0x2CA5 JUMP JUMPDEST POP PUSH1 0x80 DUP3 ADD MLOAD PUSH1 0x4 DUP3 ADD DUP1 SLOAD PUSH1 0x1 PUSH1 0x1 PUSH1 0xA0 SHL SUB NOT AND PUSH1 0x1 PUSH1 0x1 PUSH1 0xA0 SHL SUB SWAP1 SWAP3 AND SWAP2 SWAP1 SWAP2 OR SWAP1 SSTORE PUSH1 0xA0 DUP3 ADD MLOAD PUSH1 0x5 DUP3 ADD SSTORE PUSH1 0xC0 DUP3 ADD MLOAD PUSH1 0x6 DUP3 ADD DUP1 SLOAD PUSH1 0xFF NOT AND SWAP2 ISZERO ISZERO SWAP2 SWAP1 SWAP2 OR SWAP1 SSTORE PUSH1 0xE0 DUP3 ADD MLOAD PUSH1 0x7 DUP3 ADD SSTORE PUSH2 0x100 SWAP1 SWAP2 ADD MLOAD PUSH1 0x8 SWAP1 SWAP2 ADD SSTORE PUSH1 0x9 SLOAD PUSH2 0x1AB7 SWAP1 PUSH1 0x1 SWAP1 PUSH2 0x32E4 JUMP JUMPDEST SWAP9 SWAP8 POP POP POP POP POP POP POP POP JUMP JUMPDEST PUSH1 0x0 PUSH2 0x1ACF CALLER DUP4 PUSH2 0x2886 JUMP JUMPDEST ISZERO PUSH2 0x1AEC JUMPI PUSH1 0x40 MLOAD PUSH3 0x461BCD PUSH1 0xE5 SHL DUP2 MSTORE PUSH1 0x4 ADD PUSH2 0xACC SWAP1 PUSH2 0x3235 JUMP JUMPDEST PUSH8 0xDE0B6B3A7640000 DUP3 GT ISZERO PUSH2 0x1B20 JUMPI PUSH1 0x1 PUSH1 0x1 PUSH1 0xA0 SHL SUB DUP4 AND PUSH1 0x0 SWAP1 DUP2 MSTORE PUSH1 0xF PUSH1 0x20 MSTORE PUSH1 0x40 SWAP1 KECCAK256 DUP1 SLOAD PUSH1 0xFF NOT AND PUSH1 0x1 OR SWAP1 SSTORE JUMPDEST PUSH1 0x0 PUSH2 0x1B2B CALLER PUSH2 0x104F JUMP JUMPDEST SWAP1 POP DUP3 DUP2 LT ISZERO PUSH2 0x1B8C JUMPI PUSH1 0x40 MLOAD PUSH3 0x461BCD PUSH1 0xE5 SHL DUP2 MSTORE PUSH1 0x20 PUSH1 0x4 DUP3 ADD MSTORE PUSH1 0x26 PUSH1 0x24 DUP3 ADD MSTORE PUSH32 0x45524332303A207472616E7366657220616D6F756E7420657863656564732062 PUSH1 0x44 DUP3 ADD MSTORE PUSH6 0x616C616E6365 PUSH1 0xD0 SHL PUSH1 0x64 DUP3 ADD MSTORE PUSH1 0x84 ADD PUSH2 0xACC JUMP JUMPDEST PUSH8 0xDE0B6B3A7640000 DUP4 PUSH2 0x1B9F CALLER PUSH2 0x104F JUMP JUMPDEST PUSH2 0x1BA9 SWAP2 SWAP1 PUSH2 0x32E4 JUMP JUMPDEST LT ISZERO PUSH2 0x1BC7 JUMPI CALLER PUSH1 0x0 SWAP1 DUP2 MSTORE PUSH1 0xF PUSH1 0x20 MSTORE PUSH1 0x40 SWAP1 KECCAK256 DUP1 SLOAD PUSH1 0xFF NOT AND SWAP1 SSTORE JUMPDEST PUSH2 0x1BD1 DUP5 DUP5 PUSH2 0x2A98 JUMP JUMPDEST SWAP5 SWAP4 POP POP POP POP JUMP JUMPDEST PUSH1 0x6 SLOAD PUSH1 0x40 MLOAD PUSH4 0x23B872DD PUSH1 0xE0 SHL DUP2 MSTORE CALLER PUSH1 0x4 DUP3 ADD MSTORE ADDRESS PUSH1 0x24 DUP3 ADD MSTORE PUSH1 0x44 DUP2 ADD DUP4 SWAP1 MSTORE PUSH1 0x1 PUSH1 0x1 PUSH1 0xA0 SHL SUB SWAP1 SWAP2 AND SWAP1 PUSH4 0x23B872DD SWAP1 PUSH1 0x64 ADD PUSH1 0x20 PUSH1 0x40 MLOAD DUP1 DUP4 SUB DUP2 PUSH1 0x0 DUP8 GAS CALL ISZERO DUP1 ISZERO PUSH2 0x1C30 JUMPI RETURNDATASIZE PUSH1 0x0 DUP1 RETURNDATACOPY RETURNDATASIZE PUSH1 0x0 REVERT JUMPDEST POP POP POP POP PUSH1 0x40 MLOAD RETURNDATASIZE PUSH1 0x1F NOT PUSH1 0x1F DUP3 ADD AND DUP3 ADD DUP1 PUSH1 0x40 MSTORE POP DUP2 ADD SWAP1 PUSH2 0x1C54 SWAP2 SWAP1 PUSH2 0x335B JUMP JUMPDEST PUSH2 0x1CAA JUMPI PUSH1 0x40 MLOAD PUSH3 0x461BCD PUSH1 0xE5 SHL DUP2 MSTORE PUSH1 0x20 PUSH1 0x4 DUP3 ADD MSTORE PUSH1 0x21 PUSH1 0x24 DUP3 ADD MSTORE PUSH32 0x4E6F7420656E6F75676820544C20746F6B656E7320666F7220646F6E6174696F PUSH1 0x44 DUP3 ADD MSTORE PUSH1 0x37 PUSH1 0xF9 SHL PUSH1 0x64 DUP3 ADD MSTORE PUSH1 0x84 ADD PUSH2 0xACC JUMP JUMPDEST POP JUMP JUMPDEST PUSH1 0x0 PUSH1 0x9 DUP3 DUP2 SLOAD DUP2 LT PUSH2 0x1CC2 JUMPI PUSH2 0x1CC2 PUSH2 0x321F JUMP JUMPDEST PUSH1 0x0 SWAP2 DUP3 MSTORE PUSH1 0x20 SWAP1 SWAP2 KECCAK256 PUSH1 0x9 SWAP1 SWAP2 MUL ADD PUSH1 0x4 DUP2 ADD SLOAD SWAP1 SWAP2 POP PUSH1 0x1 PUSH1 0x1 PUSH1 0xA0 SHL SUB AND CALLER EQ PUSH2 0x1D1D JUMPI PUSH1 0x40 MLOAD PUSH3 0x461BCD PUSH1 0xE5 SHL DUP2 MSTORE PUSH1 0x20 PUSH1 0x4 DUP3 ADD MSTORE PUSH1 0x9 PUSH1 0x24 DUP3 ADD MSTORE PUSH9 0x2737BA1037BBB732B9 PUSH1 0xB9 SHL PUSH1 0x44 DUP3 ADD MSTORE PUSH1 0x64 ADD PUSH2 0xACC JUMP JUMPDEST DUP1 PUSH1 0x1 ADD SLOAD TIMESTAMP LT PUSH2 0x1D40 JUMPI PUSH1 0x40 MLOAD PUSH3 0x461BCD PUSH1 0xE5 SHL DUP2 MSTORE PUSH1 0x4 ADD PUSH2 0xACC SWAP1 PUSH2 0x32F7 JUMP JUMPDEST PUSH1 0x6 DUP2 ADD SLOAD PUSH1 0xFF AND ISZERO PUSH2 0x1D86 JUMPI PUSH1 0x40 MLOAD PUSH3 0x461BCD PUSH1 0xE5 SHL DUP2 MSTORE PUSH1 0x20 PUSH1 0x4 DUP3 ADD MSTORE PUSH1 0xE PUSH1 0x24 DUP3 ADD MSTORE PUSH14 0x105B1C9958591E48199D5B991959 PUSH1 0x92 SHL PUSH1 0x44 DUP3 ADD MSTORE PUSH1 0x64 ADD PUSH2 0xACC JUMP JUMPDEST PUSH2 0x1D8E PUSH2 0x2A30 JUMP JUMPDEST PUSH1 0x5 DUP3 ADD SLOAD PUSH2 0x1D9E SWAP1 PUSH1 0xA PUSH2 0x3344 JUMP JUMPDEST LT ISZERO PUSH2 0x1DDF JUMPI PUSH1 0x40 MLOAD PUSH3 0x461BCD PUSH1 0xE5 SHL DUP2 MSTORE PUSH1 0x20 PUSH1 0x4 DUP3 ADD MSTORE PUSH1 0x10 PUSH1 0x24 DUP3 ADD MSTORE PUSH16 0x4E6F7420656E6F75676820766F746573 PUSH1 0x80 SHL PUSH1 0x44 DUP3 ADD MSTORE PUSH1 0x64 ADD PUSH2 0xACC JUMP JUMPDEST PUSH1 0x0 DUP1 JUMPDEST PUSH1 0x2 DUP4 ADD SLOAD DUP2 LT ISZERO PUSH2 0x1E24 JUMPI DUP3 PUSH1 0x2 ADD DUP2 DUP2 SLOAD DUP2 LT PUSH2 0x1E04 JUMPI PUSH2 0x1E04 PUSH2 0x321F JUMP JUMPDEST SWAP1 PUSH1 0x0 MSTORE PUSH1 0x20 PUSH1 0x0 KECCAK256 ADD SLOAD DUP3 PUSH2 0x1E1A SWAP2 SWAP1 PUSH2 0x3331 JUMP JUMPDEST SWAP2 POP PUSH1 0x1 ADD PUSH2 0x1DE3 JUMP JUMPDEST POP PUSH1 0x6 SLOAD PUSH1 0x40 MLOAD PUSH4 0x70A08231 PUSH1 0xE0 SHL DUP2 MSTORE ADDRESS PUSH1 0x4 DUP3 ADD MSTORE DUP3 SWAP2 PUSH1 0x1 PUSH1 0x1 PUSH1 0xA0 SHL SUB AND SWAP1 PUSH4 0x70A08231 SWAP1 PUSH1 0x24 ADD PUSH1 0x20 PUSH1 0x40 MLOAD DUP1 DUP4 SUB DUP2 DUP7 GAS STATICCALL ISZERO DUP1 ISZERO PUSH2 0x1E6D JUMPI RETURNDATASIZE PUSH1 0x0 DUP1 RETURNDATACOPY RETURNDATASIZE PUSH1 0x0 REVERT JUMPDEST POP POP POP POP PUSH1 0x40 MLOAD RETURNDATASIZE PUSH1 0x1F NOT PUSH1 0x1F DUP3 ADD AND DUP3 ADD DUP1 PUSH1 0x40 MSTORE POP DUP2 ADD SWAP1 PUSH2 0x1E91 SWAP2 SWAP1 PUSH2 0x349B JUMP JUMPDEST LT ISZERO PUSH2 0x1ECF JUMPI PUSH1 0x40 MLOAD PUSH3 0x461BCD PUSH1 0xE5 SHL DUP2 MSTORE PUSH1 0x20 PUSH1 0x4 DUP3 ADD MSTORE PUSH1 0xD PUSH1 0x24 DUP3 ADD MSTORE PUSH13 0x139BDD08195B9BDD59DA081513 PUSH1 0x9A SHL PUSH1 0x44 DUP3 ADD MSTORE PUSH1 0x64 ADD PUSH2 0xACC JUMP JUMPDEST POP PUSH1 0x6 DUP2 ADD DUP1 SLOAD PUSH1 0xFF NOT AND PUSH1 0x1 OR SWAP1 SSTORE TIMESTAMP PUSH1 0x7 SWAP1 SWAP2 ADD SSTORE POP JUMP JUMPDEST PUSH1 0x0 DUP1 JUMPDEST PUSH1 0x9 SLOAD DUP2 LT ISZERO PUSH2 0x1F3C JUMPI PUSH1 0x9 DUP2 DUP2 SLOAD DUP2 LT PUSH2 0x1F0A JUMPI PUSH2 0x1F0A PUSH2 0x321F JUMP JUMPDEST PUSH1 0x0 SWAP2 DUP3 MSTORE PUSH1 0x20 SWAP1 SWAP2 KECCAK256 PUSH1 0x6 PUSH1 0x9 SWAP1 SWAP3 MUL ADD ADD SLOAD PUSH1 0xFF AND ISZERO PUSH2 0x1F34 JUMPI DUP2 PUSH2 0x1F30 DUP2 PUSH2 0x3318 JUMP JUMPDEST SWAP3 POP POP JUMPDEST PUSH1 0x1 ADD PUSH2 0x1EED JUMP JUMPDEST POP SWAP1 JUMP JUMPDEST CALLER PUSH1 0x0 SWAP1 DUP2 MSTORE PUSH1 0x7 PUSH1 0x20 MSTORE PUSH1 0x40 SWAP1 KECCAK256 SLOAD PUSH1 0xFF AND ISZERO PUSH2 0x1F92 JUMPI PUSH1 0x40 MLOAD PUSH3 0x461BCD PUSH1 0xE5 SHL DUP2 MSTORE PUSH1 0x20 PUSH1 0x4 DUP3 ADD MSTORE PUSH1 0xF PUSH1 0x24 DUP3 ADD MSTORE PUSH15 0x105B1C9958591E4818DB185A5B5959 PUSH1 0x8A SHL PUSH1 0x44 DUP3 ADD MSTORE PUSH1 0x64 ADD PUSH2 0xACC JUMP JUMPDEST PUSH2 0x1FA5 ADDRESS CALLER PUSH8 0xDE0B6B3A7640000 PUSH2 0x2827 JUMP JUMPDEST CALLER PUSH1 0x0 SWAP1 DUP2 MSTORE PUSH1 0xF PUSH1 0x20 SWAP1 DUP2 MSTORE PUSH1 0x40 DUP1 DUP4 KECCAK256 DUP1 SLOAD PUSH1 0x1 PUSH1 0xFF NOT SWAP2 DUP3 AND DUP2 OR SWAP1 SWAP3 SSTORE PUSH1 0x7 SWAP1 SWAP4 MSTORE SWAP3 KECCAK256 DUP1 SLOAD SWAP1 SWAP2 AND SWAP1 SWAP2 OR SWAP1 SSTORE JUMP JUMPDEST PUSH1 0x0 PUSH8 0x1BC16D674EC80000 PUSH9 0x3635C9ADC5DEA00000 PUSH2 0x1FF7 CALLER PUSH2 0xDF7 JUMP JUMPDEST PUSH2 0x2043 JUMPI PUSH1 0x40 MLOAD PUSH3 0x461BCD PUSH1 0xE5 SHL DUP2 MSTORE PUSH1 0x20 PUSH1 0x4 DUP3 ADD MSTORE PUSH1 0x1F PUSH1 0x24 DUP3 ADD MSTORE PUSH32 0x4F6E6C79206D656D626572732063616E207375626D6974207375727665797300 PUSH1 0x44 DUP3 ADD MSTORE PUSH1 0x64 ADD PUSH2 0xACC JUMP JUMPDEST DUP2 PUSH2 0x204D CALLER PUSH2 0x104F JUMP JUMPDEST LT ISZERO PUSH2 0x209B JUMPI PUSH1 0x40 MLOAD PUSH3 0x461BCD PUSH1 0xE5 SHL DUP2 MSTORE PUSH1 0x20 PUSH1 0x4 DUP3 ADD MSTORE PUSH1 0x1F PUSH1 0x24 DUP3 ADD MSTORE PUSH32 0x4174206C656173742032204D474F5620746F6B656E7320726571756972656400 PUSH1 0x44 DUP3 ADD MSTORE PUSH1 0x64 ADD PUSH2 0xACC JUMP JUMPDEST PUSH2 0x20A5 CALLER DUP4 PUSH2 0x2886 JUMP JUMPDEST ISZERO PUSH2 0x20C2 JUMPI PUSH1 0x40 MLOAD PUSH3 0x461BCD PUSH1 0xE5 SHL DUP2 MSTORE PUSH1 0x4 ADD PUSH2 0xACC SWAP1 PUSH2 0x3235 JUMP JUMPDEST PUSH1 0x6 SLOAD PUSH1 0x40 MLOAD PUSH4 0x23B872DD PUSH1 0xE0 SHL DUP2 MSTORE CALLER PUSH1 0x4 DUP3 ADD MSTORE ADDRESS PUSH1 0x24 DUP3 ADD MSTORE PUSH1 0x44 DUP2 ADD DUP4 SWAP1 MSTORE PUSH1 0x1 PUSH1 0x1 PUSH1 0xA0 SHL SUB SWAP1 SWAP2 AND SWAP1 PUSH4 0x23B872DD SWAP1 PUSH1 0x64 ADD PUSH1 0x20 PUSH1 0x40 MLOAD DUP1 DUP4 SUB DUP2 PUSH1 0x0 DUP8 GAS CALL ISZERO DUP1 ISZERO PUSH2 0x2119 JUMPI RETURNDATASIZE PUSH1 0x0 DUP1 RETURNDATACOPY RETURNDATASIZE PUSH1 0x0 REVERT JUMPDEST POP POP POP POP PUSH1 0x40 MLOAD RETURNDATASIZE PUSH1 0x1F NOT PUSH1 0x1F DUP3 ADD AND DUP3 ADD DUP1 PUSH1 0x40 MSTORE POP DUP2 ADD SWAP1 PUSH2 0x213D SWAP2 SWAP1 PUSH2 0x335B JUMP JUMPDEST PUSH2 0x2193 JUMPI PUSH1 0x40 MLOAD PUSH3 0x461BCD PUSH1 0xE5 SHL DUP2 MSTORE PUSH1 0x20 PUSH1 0x4 DUP3 ADD MSTORE PUSH1 0x21 PUSH1 0x24 DUP3 ADD MSTORE PUSH32 0x4174206C65617374203130303020544C20746F6B656E73207265717569726564 PUSH1 0x44 DUP3 ADD MSTORE PUSH1 0x17 PUSH1 0xF9 SHL PUSH1 0x64 DUP3 ADD MSTORE PUSH1 0x84 ADD PUSH2 0xACC JUMP JUMPDEST PUSH8 0xDE0B6B3A7640000 DUP3 PUSH2 0x21A6 CALLER PUSH2 0x104F JUMP JUMPDEST PUSH2 0x21B0 SWAP2 SWAP1 PUSH2 0x32E4 JUMP JUMPDEST LT ISZERO PUSH2 0x21CE JUMPI CALLER PUSH1 0x0 SWAP1 DUP2 MSTORE PUSH1 0xF PUSH1 0x20 MSTORE PUSH1 0x40 SWAP1 KECCAK256 DUP1 SLOAD PUSH1 0xFF NOT AND SWAP1 SSTORE JUMPDEST PUSH2 0x21D9 CALLER ADDRESS DUP5 PUSH2 0x2827 JUMP JUMPDEST PUSH1 0x40 DUP1 MLOAD PUSH2 0x100 PUSH1 0x20 PUSH1 0x1F DUP12 ADD DUP2 SWAP1 DIV MUL DUP3 ADD DUP2 ADD SWAP1 SWAP3 MSTORE PUSH1 0xE0 DUP2 ADD DUP10 DUP2 MSTORE PUSH1 0x8 SWAP3 DUP3 SWAP2 SWAP1 DUP13 SWAP1 DUP13 SWAP1 DUP2 SWAP1 DUP6 ADD DUP4 DUP3 DUP1 DUP3 DUP5 CALLDATACOPY PUSH1 0x0 SWAP3 ADD SWAP2 SWAP1 SWAP2 MSTORE POP POP POP SWAP1 DUP3 MSTORE POP PUSH1 0x20 DUP2 ADD DUP10 SWAP1 MSTORE PUSH1 0x40 DUP2 ADD DUP9 SWAP1 MSTORE PUSH1 0x60 DUP2 ADD DUP8 SWAP1 MSTORE CALLER PUSH1 0x80 DUP3 ADD MSTORE PUSH1 0xA0 ADD DUP8 PUSH8 0xFFFFFFFFFFFFFFFF DUP2 GT ISZERO PUSH2 0x2252 JUMPI PUSH2 0x2252 PUSH2 0x3378 JUMP JUMPDEST PUSH1 0x40 MLOAD SWAP1 DUP1 DUP3 MSTORE DUP1 PUSH1 0x20 MUL PUSH1 0x20 ADD DUP3 ADD PUSH1 0x40 MSTORE DUP1 ISZERO PUSH2 0x227B JUMPI DUP2 PUSH1 0x20 ADD PUSH1 0x20 DUP3 MUL DUP1 CALLDATASIZE DUP4 CALLDATACOPY ADD SWAP1 POP JUMPDEST POP DUP2 MSTORE PUSH1 0x0 PUSH1 0x20 SWAP2 DUP3 ADD DUP2 SWAP1 MSTORE DUP4 SLOAD PUSH1 0x1 DUP2 ADD DUP6 SSTORE SWAP4 DUP2 MSTORE KECCAK256 DUP2 MLOAD SWAP2 SWAP3 PUSH1 0x7 MUL ADD SWAP1 DUP2 SWAP1 PUSH2 0x22A9 SWAP1 DUP3 PUSH2 0x33DC JUMP JUMPDEST POP PUSH1 0x20 DUP3 DUP2 ADD MLOAD PUSH1 0x1 DUP4 ADD SSTORE PUSH1 0x40 DUP4 ADD MLOAD PUSH1 0x2 DUP4 ADD SSTORE PUSH1 0x60 DUP4 ADD MLOAD PUSH1 0x3 DUP4 ADD SSTORE PUSH1 0x80 DUP4 ADD MLOAD PUSH1 0x4 DUP4 ADD DUP1 SLOAD PUSH1 0x1 PUSH1 0x1 PUSH1 0xA0 SHL SUB NOT AND PUSH1 0x1 PUSH1 0x1 PUSH1 0xA0 SHL SUB SWAP1 SWAP3 AND SWAP2 SWAP1 SWAP2 OR SWAP1 SSTORE PUSH1 0xA0 DUP4 ADD MLOAD DUP1 MLOAD PUSH2 0x2306 SWAP3 PUSH1 0x5 DUP6 ADD SWAP3 ADD SWAP1 PUSH2 0x2CA5 JUMP JUMPDEST POP PUSH1 0xC0 SWAP2 SWAP1 SWAP2 ADD MLOAD PUSH1 0x6 SWAP1 SWAP2 ADD SSTORE PUSH1 0x8 SLOAD PUSH2 0x1AB7 SWAP1 PUSH1 0x1 SWAP1 PUSH2 0x32E4 JUMP JUMPDEST PUSH2 0x232C CALLER PUSH2 0xDF7 JUMP JUMPDEST PUSH2 0x2370 JUMPI PUSH1 0x40 MLOAD PUSH3 0x461BCD PUSH1 0xE5 SHL DUP2 MSTORE PUSH1 0x20 PUSH1 0x4 DUP3 ADD MSTORE PUSH1 0x15 PUSH1 0x24 DUP3 ADD MSTORE PUSH21 0x4F6E6C79206D656D626572732063616E20766F7465 PUSH1 0x58 SHL PUSH1 0x44 DUP3 ADD MSTORE PUSH1 0x64 ADD PUSH2 0xACC JUMP JUMPDEST PUSH1 0x0 DUP3 DUP2 MSTORE PUSH1 0xA PUSH1 0x20 SWAP1 DUP2 MSTORE PUSH1 0x40 DUP1 DUP4 KECCAK256 CALLER DUP5 MSTORE SWAP1 SWAP2 MSTORE SWAP1 KECCAK256 SLOAD PUSH1 0xFF AND ISZERO DUP1 PUSH2 0x23B1 JUMPI POP PUSH1 0x0 DUP3 DUP2 MSTORE PUSH1 0xB PUSH1 0x20 SWAP1 DUP2 MSTORE PUSH1 0x40 DUP1 DUP4 KECCAK256 CALLER DUP5 MSTORE SWAP1 SWAP2 MSTORE SWAP1 KECCAK256 SLOAD ISZERO ISZERO JUMPDEST PUSH2 0x23FD JUMPI PUSH1 0x40 MLOAD PUSH3 0x461BCD PUSH1 0xE5 SHL DUP2 MSTORE PUSH1 0x20 PUSH1 0x4 DUP3 ADD MSTORE PUSH1 0x17 PUSH1 0x24 DUP3 ADD MSTORE PUSH32 0x596F752068617665206E6F20766F746573206C6566742E000000000000000000 PUSH1 0x44 DUP3 ADD MSTORE PUSH1 0x64 ADD PUSH2 0xACC JUMP JUMPDEST PUSH1 0x9 DUP3 DUP2 SLOAD DUP2 LT PUSH2 0x2410 JUMPI PUSH2 0x2410 PUSH2 0x321F JUMP JUMPDEST PUSH1 0x0 SWAP2 DUP3 MSTORE PUSH1 0x20 SWAP1 SWAP2 KECCAK256 PUSH1 0x6 PUSH1 0x9 SWAP1 SWAP3 MUL ADD ADD SLOAD PUSH1 0xFF AND ISZERO PUSH2 0x2465 JUMPI PUSH1 0x40 MLOAD PUSH3 0x461BCD PUSH1 0xE5 SHL DUP2 MSTORE PUSH1 0x20 PUSH1 0x4 DUP3 ADD MSTORE PUSH1 0xE PUSH1 0x24 DUP3 ADD MSTORE PUSH14 0x105B1C9958591E48199D5B991959 PUSH1 0x92 SHL PUSH1 0x44 DUP3 ADD MSTORE PUSH1 0x64 ADD PUSH2 0xACC JUMP JUMPDEST PUSH1 0x9 DUP3 DUP2 SLOAD DUP2 LT PUSH2 0x2478 JUMPI PUSH2 0x2478 PUSH2 0x321F JUMP JUMPDEST SWAP1 PUSH1 0x0 MSTORE PUSH1 0x20 PUSH1 0x0 KECCAK256 SWAP1 PUSH1 0x9 MUL ADD PUSH1 0x1 ADD SLOAD TIMESTAMP LT PUSH2 0x24A8 JUMPI PUSH1 0x40 MLOAD PUSH3 0x461BCD PUSH1 0xE5 SHL DUP2 MSTORE PUSH1 0x4 ADD PUSH2 0xACC SWAP1 PUSH2 0x32F7 JUMP JUMPDEST PUSH1 0x0 DUP3 DUP2 MSTORE PUSH1 0xA PUSH1 0x20 SWAP1 DUP2 MSTORE PUSH1 0x40 DUP1 DUP4 KECCAK256 CALLER DUP5 MSTORE SWAP1 SWAP2 MSTORE SWAP1 KECCAK256 SLOAD PUSH1 0xFF AND ISZERO PUSH2 0x250B JUMPI PUSH1 0x0 DUP3 DUP2 MSTORE PUSH1 0xB PUSH1 0x20 SWAP1 DUP2 MSTORE PUSH1 0x40 DUP1 DUP4 KECCAK256 CALLER DUP5 MSTORE SWAP1 SWAP2 MSTORE SWAP1 KECCAK256 SLOAD PUSH2 0x24F0 SWAP1 PUSH1 0x1 SWAP1 PUSH2 0x32E4 JUMP JUMPDEST PUSH1 0x0 DUP4 DUP2 MSTORE PUSH1 0xB PUSH1 0x20 SWAP1 DUP2 MSTORE PUSH1 0x40 DUP1 DUP4 KECCAK256 CALLER DUP5 MSTORE SWAP1 SWAP2 MSTORE SWAP1 KECCAK256 SSTORE JUMPDEST DUP1 ISZERO PUSH2 0x2548 JUMPI PUSH1 0x9 DUP3 DUP2 SLOAD DUP2 LT PUSH2 0x2524 JUMPI PUSH2 0x2524 PUSH2 0x321F JUMP JUMPDEST PUSH1 0x0 SWAP2 DUP3 MSTORE PUSH1 0x20 DUP3 KECCAK256 PUSH1 0x5 PUSH1 0x9 SWAP1 SWAP3 MUL ADD ADD DUP1 SLOAD SWAP2 PUSH2 0x2542 DUP4 PUSH2 0x3318 JUMP JUMPDEST SWAP2 SWAP1 POP SSTORE POP JUMPDEST POP PUSH1 0x0 SWAP1 DUP2 MSTORE PUSH1 0xA PUSH1 0x20 SWAP1 DUP2 MSTORE PUSH1 0x40 DUP1 DUP4 KECCAK256 CALLER DUP5 MSTORE SWAP1 SWAP2 MSTORE SWAP1 KECCAK256 DUP1 SLOAD PUSH1 0xFF NOT AND PUSH1 0x1 OR SWAP1 SSTORE JUMP JUMPDEST PUSH2 0x2577 PUSH2 0x29B1 JUMP JUMPDEST PUSH1 0x1 PUSH1 0x1 PUSH1 0xA0 SHL SUB DUP2 AND PUSH2 0x25A1 JUMPI PUSH1 0x40 MLOAD PUSH4 0x1E4FBDF7 PUSH1 0xE0 SHL DUP2 MSTORE PUSH1 0x0 PUSH1 0x4 DUP3 ADD MSTORE PUSH1 0x24 ADD PUSH2 0xACC JUMP JUMPDEST PUSH2 0x1CAA DUP2 PUSH2 0x29DE JUMP JUMPDEST PUSH1 0x60 PUSH1 0x0 PUSH1 0x60 DUP1 PUSH1 0x0 PUSH1 0x9 DUP7 DUP2 SLOAD DUP2 LT PUSH2 0x25C6 JUMPI PUSH2 0x25C6 PUSH2 0x321F JUMP JUMPDEST SWAP1 PUSH1 0x0 MSTORE PUSH1 0x20 PUSH1 0x0 KECCAK256 SWAP1 PUSH1 0x9 MUL ADD PUSH1 0x40 MLOAD DUP1 PUSH2 0x120 ADD PUSH1 0x40 MSTORE SWAP1 DUP2 PUSH1 0x0 DUP3 ADD DUP1 SLOAD PUSH2 0x25F0 SWAP1 PUSH2 0x31EB JUMP JUMPDEST DUP1 PUSH1 0x1F ADD PUSH1 0x20 DUP1 SWAP2 DIV MUL PUSH1 0x20 ADD PUSH1 0x40 MLOAD SWAP1 DUP2 ADD PUSH1 0x40 MSTORE DUP1 SWAP3 SWAP2 SWAP1 DUP2 DUP2 MSTORE PUSH1 0x20 ADD DUP3 DUP1 SLOAD PUSH2 0x261C SWAP1 PUSH2 0x31EB JUMP JUMPDEST DUP1 ISZERO PUSH2 0x2669 JUMPI DUP1 PUSH1 0x1F LT PUSH2 0x263E JUMPI PUSH2 0x100 DUP1 DUP4 SLOAD DIV MUL DUP4 MSTORE SWAP2 PUSH1 0x20 ADD SWAP2 PUSH2 0x2669 JUMP JUMPDEST DUP3 ADD SWAP2 SWAP1 PUSH1 0x0 MSTORE PUSH1 0x20 PUSH1 0x0 KECCAK256 SWAP1 JUMPDEST DUP2 SLOAD DUP2 MSTORE SWAP1 PUSH1 0x1 ADD SWAP1 PUSH1 0x20 ADD DUP1 DUP4 GT PUSH2 0x264C JUMPI DUP3 SWAP1 SUB PUSH1 0x1F AND DUP3 ADD SWAP2 JUMPDEST POP POP POP POP POP DUP2 MSTORE PUSH1 0x20 ADD PUSH1 0x1 DUP3 ADD SLOAD DUP2 MSTORE PUSH1 0x20 ADD PUSH1 0x2 DUP3 ADD DUP1 SLOAD DUP1 PUSH1 0x20 MUL PUSH1 0x20 ADD PUSH1 0x40 MLOAD SWAP1 DUP2 ADD PUSH1 0x40 MSTORE DUP1 SWAP3 SWAP2 SWAP1 DUP2 DUP2 MSTORE PUSH1 0x20 ADD DUP3 DUP1 SLOAD DUP1 ISZERO PUSH2 0x26CB JUMPI PUSH1 0x20 MUL DUP3 ADD SWAP2 SWAP1 PUSH1 0x0 MSTORE PUSH1 0x20 PUSH1 0x0 KECCAK256 SWAP1 JUMPDEST DUP2 SLOAD DUP2 MSTORE PUSH1 0x20 ADD SWAP1 PUSH1 0x1 ADD SWAP1 DUP1 DUP4 GT PUSH2 0x26B7 JUMPI JUMPDEST POP POP POP POP POP DUP2 MSTORE PUSH1 0x20 ADD PUSH1 0x3 DUP3 ADD DUP1 SLOAD DUP1 PUSH1 0x20 MUL PUSH1 0x20 ADD PUSH1 0x40 MLOAD SWAP1 DUP2 ADD PUSH1 0x40 MSTORE DUP1 SWAP3 SWAP2 SWAP1 DUP2 DUP2 MSTORE PUSH1 0x20 ADD DUP3 DUP1 SLOAD DUP1 ISZERO PUSH2 0x2723 JUMPI PUSH1 0x20 MUL DUP3 ADD SWAP2 SWAP1 PUSH1 0x0 MSTORE PUSH1 0x20 PUSH1 0x0 KECCAK256 SWAP1 JUMPDEST DUP2 SLOAD DUP2 MSTORE PUSH1 0x20 ADD SWAP1 PUSH1 0x1 ADD SWAP1 DUP1 DUP4 GT PUSH2 0x270F JUMPI JUMPDEST POP POP POP SWAP2 DUP4 MSTORE POP POP PUSH1 0x4 DUP3 ADD SLOAD PUSH1 0x1 PUSH1 0x1 PUSH1 0xA0 SHL SUB AND PUSH1 0x20 DUP1 DUP4 ADD SWAP2 SWAP1 SWAP2 MSTORE PUSH1 0x5 DUP4 ADD SLOAD PUSH1 0x40 DUP1 DUP5 ADD SWAP2 SWAP1 SWAP2 MSTORE PUSH1 0x6 DUP5 ADD SLOAD PUSH1 0xFF AND ISZERO ISZERO PUSH1 0x60 DUP1 DUP6 ADD SWAP2 SWAP1 SWAP2 MSTORE PUSH1 0x7 DUP6 ADD SLOAD PUSH1 0x80 DUP6 ADD MSTORE PUSH1 0x8 SWAP1 SWAP5 ADD SLOAD PUSH1 0xA0 SWAP1 SWAP4 ADD SWAP3 SWAP1 SWAP3 MSTORE DUP4 MLOAD SWAP1 DUP5 ADD MLOAD SWAP2 DUP5 ADD MLOAD SWAP4 SWAP1 SWAP3 ADD MLOAD SWAP2 SWAP10 SWAP1 SWAP9 POP SWAP2 SWAP7 POP SWAP5 POP SWAP3 POP POP POP JUMP JUMPDEST PUSH2 0x142E DUP4 DUP4 DUP4 PUSH1 0x1 PUSH2 0x2AA6 JUMP JUMPDEST PUSH1 0x1 PUSH1 0x1 PUSH1 0xA0 SHL SUB DUP4 DUP2 AND PUSH1 0x0 SWAP1 DUP2 MSTORE PUSH1 0x1 PUSH1 0x20 SWAP1 DUP2 MSTORE PUSH1 0x40 DUP1 DUP4 KECCAK256 SWAP4 DUP7 AND DUP4 MSTORE SWAP3 SWAP1 MSTORE KECCAK256 SLOAD PUSH1 0x0 NOT DUP2 LT ISZERO PUSH2 0x2821 JUMPI DUP2 DUP2 LT ISZERO PUSH2 0x2812 JUMPI PUSH1 0x40 MLOAD PUSH4 0x7DC7A0D9 PUSH1 0xE1 SHL DUP2 MSTORE PUSH1 0x1 PUSH1 0x1 PUSH1 0xA0 SHL SUB DUP5 AND PUSH1 0x4 DUP3 ADD MSTORE PUSH1 0x24 DUP2 ADD DUP3 SWAP1 MSTORE PUSH1 0x44 DUP2 ADD DUP4 SWAP1 MSTORE PUSH1 0x64 ADD PUSH2 0xACC JUMP JUMPDEST PUSH2 0x2821 DUP5 DUP5 DUP5 DUP5 SUB PUSH1 0x0 PUSH2 0x2AA6 JUMP JUMPDEST POP POP POP POP JUMP JUMPDEST PUSH1 0x1 PUSH1 0x1 PUSH1 0xA0 SHL SUB DUP4 AND PUSH2 0x2851 JUMPI PUSH1 0x40 MLOAD PUSH4 0x4B637E8F PUSH1 0xE1 SHL DUP2 MSTORE PUSH1 0x0 PUSH1 0x4 DUP3 ADD MSTORE PUSH1 0x24 ADD PUSH2 0xACC JUMP JUMPDEST PUSH1 0x1 PUSH1 0x1 PUSH1 0xA0 SHL SUB DUP3 AND PUSH2 0x287B JUMPI PUSH1 0x40 MLOAD PUSH4 0xEC442F05 PUSH1 0xE0 SHL DUP2 MSTORE PUSH1 0x0 PUSH1 0x4 DUP3 ADD MSTORE PUSH1 0x24 ADD PUSH2 0xACC JUMP JUMPDEST PUSH2 0x142E DUP4 DUP4 DUP4 PUSH2 0x2B7B JUMP JUMPDEST PUSH1 0x0 DUP1 DUP1 DUP1 JUMPDEST PUSH1 0x9 SLOAD DUP2 LT ISZERO PUSH2 0x2901 JUMPI PUSH1 0x9 DUP2 DUP2 SLOAD DUP2 LT PUSH2 0x28A9 JUMPI PUSH2 0x28A9 PUSH2 0x321F JUMP JUMPDEST SWAP1 PUSH1 0x0 MSTORE PUSH1 0x20 PUSH1 0x0 KECCAK256 SWAP1 PUSH1 0x9 MUL ADD PUSH1 0x1 ADD SLOAD TIMESTAMP LT DUP1 ISZERO PUSH2 0x28EB JUMPI POP PUSH1 0x0 DUP2 DUP2 MSTORE PUSH1 0xA PUSH1 0x20 SWAP1 DUP2 MSTORE PUSH1 0x40 DUP1 DUP4 KECCAK256 PUSH1 0x1 PUSH1 0x1 PUSH1 0xA0 SHL SUB DUP11 AND DUP5 MSTORE SWAP1 SWAP2 MSTORE SWAP1 KECCAK256 SLOAD PUSH1 0xFF AND JUMPDEST ISZERO PUSH2 0x28F9 JUMPI PUSH1 0x1 SWAP3 POP PUSH2 0x2901 JUMP JUMPDEST PUSH1 0x1 ADD PUSH2 0x288C JUMP JUMPDEST POP PUSH1 0x0 JUMPDEST PUSH1 0x9 SLOAD DUP2 LT ISZERO PUSH2 0x297A JUMPI PUSH1 0x9 DUP2 DUP2 SLOAD DUP2 LT PUSH2 0x2922 JUMPI PUSH2 0x2922 PUSH2 0x321F JUMP JUMPDEST SWAP1 PUSH1 0x0 MSTORE PUSH1 0x20 PUSH1 0x0 KECCAK256 SWAP1 PUSH1 0x9 MUL ADD PUSH1 0x1 ADD SLOAD TIMESTAMP LT DUP1 ISZERO PUSH2 0x2964 JUMPI POP PUSH1 0x0 DUP2 DUP2 MSTORE PUSH1 0xC PUSH1 0x20 SWAP1 DUP2 MSTORE PUSH1 0x40 DUP1 DUP4 KECCAK256 PUSH1 0x1 PUSH1 0x1 PUSH1 0xA0 SHL SUB DUP11 AND DUP5 MSTORE SWAP1 SWAP2 MSTORE SWAP1 KECCAK256 SLOAD PUSH1 0xFF AND JUMPDEST ISZERO PUSH2 0x2972 JUMPI PUSH1 0x1 SWAP2 POP PUSH2 0x297A JUMP JUMPDEST PUSH1 0x1 ADD PUSH2 0x2905 JUMP JUMPDEST POP PUSH2 0x2984 DUP6 PUSH2 0x104F JUMP JUMPDEST DUP5 GT DUP1 ISZERO PUSH2 0x2996 JUMPI POP DUP2 DUP1 PUSH2 0x2996 JUMPI POP DUP1 JUMPDEST ISZERO PUSH2 0x29A6 JUMPI PUSH1 0x1 SWAP3 POP POP POP PUSH2 0x8A5 JUMP JUMPDEST POP PUSH1 0x0 SWAP5 SWAP4 POP POP POP POP JUMP JUMPDEST PUSH1 0x5 SLOAD PUSH1 0x1 PUSH1 0x1 PUSH1 0xA0 SHL SUB AND CALLER EQ PUSH2 0x1124 JUMPI PUSH1 0x40 MLOAD PUSH4 0x118CDAA7 PUSH1 0xE0 SHL DUP2 MSTORE CALLER PUSH1 0x4 DUP3 ADD MSTORE PUSH1 0x24 ADD PUSH2 0xACC JUMP JUMPDEST PUSH1 0x5 DUP1 SLOAD PUSH1 0x1 PUSH1 0x1 PUSH1 0xA0 SHL SUB DUP4 DUP2 AND PUSH1 0x1 PUSH1 0x1 PUSH1 0xA0 SHL SUB NOT DUP4 AND DUP2 OR SWAP1 SWAP4 SSTORE PUSH1 0x40 MLOAD SWAP2 AND SWAP2 SWAP1 DUP3 SWAP1 PUSH32 0x8BE0079C531659141344CD1FD0A4F28419497F9722A3DAAFE3B4186F6B6457E0 SWAP1 PUSH1 0x0 SWAP1 LOG3 POP POP JUMP JUMPDEST PUSH1 0x0 DUP1 DUP1 JUMPDEST PUSH1 0x8 SLOAD DUP2 LT ISZERO PUSH2 0x2A92 JUMPI PUSH2 0x2A77 PUSH1 0x8 DUP3 DUP2 SLOAD DUP2 LT PUSH2 0x2A55 JUMPI PUSH2 0x2A55 PUSH2 0x321F JUMP JUMPDEST PUSH1 0x0 SWAP2 DUP3 MSTORE PUSH1 0x20 SWAP1 SWAP2 KECCAK256 PUSH1 0x4 PUSH1 0x7 SWAP1 SWAP3 MUL ADD ADD SLOAD PUSH1 0x1 PUSH1 0x1 PUSH1 0xA0 SHL SUB AND PUSH2 0xDF7 JUMP JUMPDEST ISZERO PUSH2 0x2A8A JUMPI DUP2 PUSH2 0x2A86 DUP2 PUSH2 0x3318 JUMP JUMPDEST SWAP3 POP POP JUMPDEST PUSH1 0x1 ADD PUSH2 0x2A35 JUMP JUMPDEST POP SWAP2 SWAP1 POP JUMP JUMPDEST PUSH1 0x0 CALLER PUSH2 0x89F DUP2 DUP6 DUP6 PUSH2 0x2827 JUMP JUMPDEST PUSH1 0x1 PUSH1 0x1 PUSH1 0xA0 SHL SUB DUP5 AND PUSH2 0x2AD0 JUMPI PUSH1 0x40 MLOAD PUSH4 0xE602DF05 PUSH1 0xE0 SHL DUP2 MSTORE PUSH1 0x0 PUSH1 0x4 DUP3 ADD MSTORE PUSH1 0x24 ADD PUSH2 0xACC JUMP JUMPDEST PUSH1 0x1 PUSH1 0x1 PUSH1 0xA0 SHL SUB DUP4 AND PUSH2 0x2AFA JUMPI PUSH1 0x40 MLOAD PUSH4 0x4A1406B1 PUSH1 0xE1 SHL DUP2 MSTORE PUSH1 0x0 PUSH1 0x4 DUP3 ADD MSTORE PUSH1 0x24 ADD PUSH2 0xACC JUMP JUMPDEST PUSH1 0x1 PUSH1 0x1 PUSH1 0xA0 SHL SUB DUP1 DUP6 AND PUSH1 0x0 SWAP1 DUP2 MSTORE PUSH1 0x1 PUSH1 0x20 SWAP1 DUP2 MSTORE PUSH1 0x40 DUP1 DUP4 KECCAK256 SWAP4 DUP8 AND DUP4 MSTORE SWAP3 SWAP1 MSTORE KECCAK256 DUP3 SWAP1 SSTORE DUP1 ISZERO PUSH2 0x2821 JUMPI DUP3 PUSH1 0x1 PUSH1 0x1 PUSH1 0xA0 SHL SUB AND DUP5 PUSH1 0x1 PUSH1 0x1 PUSH1 0xA0 SHL SUB AND PUSH32 0x8C5BE1E5EBEC7D5BD14F71427D1E84F3DD0314C0F7B2291E5B200AC8C7C3B925 DUP5 PUSH1 0x40 MLOAD PUSH2 0x2B6D SWAP2 DUP2 MSTORE PUSH1 0x20 ADD SWAP1 JUMP JUMPDEST PUSH1 0x40 MLOAD DUP1 SWAP2 SUB SWAP1 LOG3 POP POP POP POP JUMP JUMPDEST PUSH1 0x1 PUSH1 0x1 PUSH1 0xA0 SHL SUB DUP4 AND PUSH2 0x2BA6 JUMPI DUP1 PUSH1 0x2 PUSH1 0x0 DUP3 DUP3 SLOAD PUSH2 0x2B9B SWAP2 SWAP1 PUSH2 0x3331 JUMP JUMPDEST SWAP1 SWAP2 SSTORE POP PUSH2 0x2C18 SWAP1 POP JUMP JUMPDEST PUSH1 0x1 PUSH1 0x1 PUSH1 0xA0 SHL SUB DUP4 AND PUSH1 0x0 SWAP1 DUP2 MSTORE PUSH1 0x20 DUP2 SWAP1 MSTORE PUSH1 0x40 SWAP1 KECCAK256 SLOAD DUP2 DUP2 LT ISZERO PUSH2 0x2BF9 JUMPI PUSH1 0x40 MLOAD PUSH4 0x391434E3 PUSH1 0xE2 SHL DUP2 MSTORE PUSH1 0x1 PUSH1 0x1 PUSH1 0xA0 SHL SUB DUP6 AND PUSH1 0x4 DUP3 ADD MSTORE PUSH1 0x24 DUP2 ADD DUP3 SWAP1 MSTORE PUSH1 0x44 DUP2 ADD DUP4 SWAP1 MSTORE PUSH1 0x64 ADD PUSH2 0xACC JUMP JUMPDEST PUSH1 0x1 PUSH1 0x1 PUSH1 0xA0 SHL SUB DUP5 AND PUSH1 0x0 SWAP1 DUP2 MSTORE PUSH1 0x20 DUP2 SWAP1 MSTORE PUSH1 0x40 SWAP1 KECCAK256 SWAP1 DUP3 SWAP1 SUB SWAP1 SSTORE JUMPDEST PUSH1 0x1 PUSH1 0x1 PUSH1 0xA0 SHL SUB DUP3 AND PUSH2 0x2C34 JUMPI PUSH1 0x2 DUP1 SLOAD DUP3 SWAP1 SUB SWAP1 SSTORE PUSH2 0x2C53 JUMP JUMPDEST PUSH1 0x1 PUSH1 0x1 PUSH1 0xA0 SHL SUB DUP3 AND PUSH1 0x0 SWAP1 DUP2 MSTORE PUSH1 0x20 DUP2 SWAP1 MSTORE PUSH1 0x40 SWAP1 KECCAK256 DUP1 SLOAD DUP3 ADD SWAP1 SSTORE JUMPDEST DUP2 PUSH1 0x1 PUSH1 0x1 PUSH1 0xA0 SHL SUB AND DUP4 PUSH1 0x1 PUSH1 0x1 PUSH1 0xA0 SHL SUB AND PUSH32 0xDDF252AD1BE2C89B69C2B068FC378DAA952BA7F163C4A11628F55A4DF523B3EF DUP4 PUSH1 0x40 MLOAD PUSH2 0x2C98 SWAP2 DUP2 MSTORE PUSH1 0x20 ADD SWAP1 JUMP JUMPDEST PUSH1 0x40 MLOAD DUP1 SWAP2 SUB SWAP1 LOG3 POP POP POP JUMP JUMPDEST DUP3 DUP1 SLOAD DUP3 DUP3 SSTORE SWAP1 PUSH1 0x0 MSTORE PUSH1 0x20 PUSH1 0x0 KECCAK256 SWAP1 DUP2 ADD SWAP3 DUP3 ISZERO PUSH2 0x2CE0 JUMPI SWAP2 PUSH1 0x20 MUL DUP3 ADD JUMPDEST DUP3 DUP2 GT ISZERO PUSH2 0x2CE0 JUMPI DUP3 MLOAD DUP3 SSTORE SWAP2 PUSH1 0x20 ADD SWAP2 SWAP1 PUSH1 0x1 ADD SWAP1 PUSH2 0x2CC5 JUMP JUMPDEST POP PUSH2 0x1F3C SWAP3 SWAP2 POP JUMPDEST DUP1 DUP3 GT ISZERO PUSH2 0x1F3C JUMPI PUSH1 0x0 DUP2 SSTORE PUSH1 0x1 ADD PUSH2 0x2CE8 JUMP JUMPDEST PUSH1 0x0 PUSH1 0x20 DUP3 DUP5 SUB SLT ISZERO PUSH2 0x2D0E JUMPI PUSH1 0x0 DUP1 REVERT JUMPDEST POP CALLDATALOAD SWAP2 SWAP1 POP JUMP JUMPDEST PUSH1 0x0 DUP2 MLOAD DUP1 DUP5 MSTORE PUSH1 0x0 JUMPDEST DUP2 DUP2 LT ISZERO PUSH2 0x2D3B JUMPI PUSH1 0x20 DUP2 DUP6 ADD DUP2 ADD MLOAD DUP7 DUP4 ADD DUP3 ADD MSTORE ADD PUSH2 0x2D1F JUMP JUMPDEST POP PUSH1 0x0 PUSH1 0x20 DUP3 DUP7 ADD ADD MSTORE PUSH1 0x20 PUSH1 0x1F NOT PUSH1 0x1F DUP4 ADD AND DUP6 ADD ADD SWAP2 POP POP SWAP3 SWAP2 POP POP JUMP JUMPDEST PUSH1 0xE0 DUP2 MSTORE PUSH1 0x0 PUSH2 0x2D6E PUSH1 0xE0 DUP4 ADD DUP11 PUSH2 0x2D15 JUMP JUMPDEST PUSH1 0x20 DUP4 ADD SWAP9 SWAP1 SWAP9 MSTORE POP PUSH1 0x1 PUSH1 0x1 PUSH1 0xA0 SHL SUB SWAP6 SWAP1 SWAP6 AND PUSH1 0x40 DUP7 ADD MSTORE PUSH1 0x60 DUP6 ADD SWAP4 SWAP1 SWAP4 MSTORE SWAP1 ISZERO ISZERO PUSH1 0x80 DUP5 ADD MSTORE PUSH1 0xA0 DUP4 ADD MSTORE PUSH1 0xC0 SWAP1 SWAP2 ADD MSTORE SWAP2 SWAP1 POP JUMP JUMPDEST PUSH1 0x20 DUP2 MSTORE PUSH1 0x0 PUSH2 0x2DBB PUSH1 0x20 DUP4 ADD DUP5 PUSH2 0x2D15 JUMP JUMPDEST SWAP4 SWAP3 POP POP POP JUMP JUMPDEST DUP1 CALLDATALOAD PUSH1 0x1 PUSH1 0x1 PUSH1 0xA0 SHL SUB DUP2 AND DUP2 EQ PUSH2 0x2DD9 JUMPI PUSH1 0x0 DUP1 REVERT JUMPDEST SWAP2 SWAP1 POP JUMP JUMPDEST PUSH1 0x0 DUP1 PUSH1 0x40 DUP4 DUP6 SUB SLT ISZERO PUSH2 0x2DF1 JUMPI PUSH1 0x0 DUP1 REVERT JUMPDEST DUP3 CALLDATALOAD SWAP2 POP PUSH2 0x2E01 PUSH1 0x20 DUP5 ADD PUSH2 0x2DC2 JUMP JUMPDEST SWAP1 POP SWAP3 POP SWAP3 SWAP1 POP JUMP JUMPDEST PUSH1 0x0 DUP1 PUSH1 0x40 DUP4 DUP6 SUB SLT ISZERO PUSH2 0x2E1D JUMPI PUSH1 0x0 DUP1 REVERT JUMPDEST PUSH2 0x2E26 DUP4 PUSH2 0x2DC2 JUMP JUMPDEST SWAP5 PUSH1 0x20 SWAP4 SWAP1 SWAP4 ADD CALLDATALOAD SWAP4 POP POP POP JUMP JUMPDEST PUSH1 0x0 DUP1 PUSH1 0x0 PUSH1 0x60 DUP5 DUP7 SUB SLT ISZERO PUSH2 0x2E49 JUMPI PUSH1 0x0 DUP1 REVERT JUMPDEST PUSH2 0x2E52 DUP5 PUSH2 0x2DC2 JUMP JUMPDEST SWAP3 POP PUSH2 0x2E60 PUSH1 0x20 DUP6 ADD PUSH2 0x2DC2 JUMP JUMPDEST SWAP3 SWAP6 SWAP3 SWAP5 POP POP POP PUSH1 0x40 SWAP2 SWAP1 SWAP2 ADD CALLDATALOAD SWAP1 JUMP JUMPDEST PUSH1 0x80 DUP2 MSTORE PUSH1 0x0 PUSH2 0x2E84 PUSH1 0x80 DUP4 ADD DUP8 PUSH2 0x2D15 JUMP JUMPDEST PUSH1 0x20 DUP4 ADD SWAP6 SWAP1 SWAP6 MSTORE POP PUSH1 0x40 DUP2 ADD SWAP3 SWAP1 SWAP3 MSTORE PUSH1 0x60 SWAP1 SWAP2 ADD MSTORE SWAP2 SWAP1 POP JUMP JUMPDEST DUP1 ISZERO ISZERO DUP2 EQ PUSH2 0x1CAA JUMPI PUSH1 0x0 DUP1 REVERT JUMPDEST PUSH1 0x0 DUP1 PUSH1 0x40 DUP4 DUP6 SUB SLT ISZERO PUSH2 0x2EC1 JUMPI PUSH1 0x0 DUP1 REVERT JUMPDEST DUP3 CALLDATALOAD SWAP2 POP PUSH1 0x20 DUP4 ADD CALLDATALOAD PUSH2 0x2ED3 DUP2 PUSH2 0x2EA0 JUMP JUMPDEST DUP1 SWAP2 POP POP SWAP3 POP SWAP3 SWAP1 POP JUMP JUMPDEST PUSH1 0x0 PUSH1 0x20 DUP3 DUP5 SUB SLT ISZERO PUSH2 0x2EF0 JUMPI PUSH1 0x0 DUP1 REVERT JUMPDEST PUSH2 0x2DBB DUP3 PUSH2 0x2DC2 JUMP JUMPDEST PUSH1 0x0 DUP1 DUP4 PUSH1 0x1F DUP5 ADD SLT PUSH2 0x2F0B JUMPI PUSH1 0x0 DUP1 REVERT JUMPDEST POP DUP2 CALLDATALOAD PUSH8 0xFFFFFFFFFFFFFFFF DUP2 GT ISZERO PUSH2 0x2F23 JUMPI PUSH1 0x0 DUP1 REVERT JUMPDEST PUSH1 0x20 DUP4 ADD SWAP2 POP DUP4 PUSH1 0x20 DUP3 PUSH1 0x5 SHL DUP6 ADD ADD GT ISZERO PUSH2 0x2F3E JUMPI PUSH1 0x0 DUP1 REVERT JUMPDEST SWAP3 POP SWAP3 SWAP1 POP JUMP JUMPDEST PUSH1 0x0 DUP1 PUSH1 0x0 PUSH1 0x40 DUP5 DUP7 SUB SLT ISZERO PUSH2 0x2F5A JUMPI PUSH1 0x0 DUP1 REVERT JUMPDEST DUP4 CALLDATALOAD SWAP3 POP PUSH1 0x20 DUP5 ADD CALLDATALOAD PUSH8 0xFFFFFFFFFFFFFFFF DUP2 GT ISZERO PUSH2 0x2F78 JUMPI PUSH1 0x0 DUP1 REVERT JUMPDEST PUSH2 0x2F84 DUP7 DUP3 DUP8 ADD PUSH2 0x2EF9 JUMP JUMPDEST SWAP5 SWAP8 SWAP1 SWAP7 POP SWAP4 SWAP5 POP POP POP POP JUMP JUMPDEST PUSH1 0x0 DUP2 MLOAD DUP1 DUP5 MSTORE PUSH1 0x20 DUP5 ADD SWAP4 POP PUSH1 0x20 DUP4 ADD PUSH1 0x0 JUMPDEST DUP3 DUP2 LT ISZERO PUSH2 0x2FC3 JUMPI DUP2 MLOAD DUP7 MSTORE PUSH1 0x20 SWAP6 DUP7 ADD SWAP6 SWAP1 SWAP2 ADD SWAP1 PUSH1 0x1 ADD PUSH2 0x2FA5 JUMP JUMPDEST POP SWAP4 SWAP5 SWAP4 POP POP POP POP JUMP JUMPDEST DUP3 DUP2 MSTORE PUSH1 0x40 PUSH1 0x20 DUP3 ADD MSTORE PUSH1 0x0 PUSH2 0x1BD1 PUSH1 0x40 DUP4 ADD DUP5 PUSH2 0x2F91 JUMP JUMPDEST PUSH1 0xC0 DUP2 MSTORE PUSH1 0x0 PUSH2 0x2FF9 PUSH1 0xC0 DUP4 ADD DUP10 PUSH2 0x2D15 JUMP JUMPDEST PUSH1 0x20 DUP4 ADD SWAP8 SWAP1 SWAP8 MSTORE POP PUSH1 0x40 DUP2 ADD SWAP5 SWAP1 SWAP5 MSTORE PUSH1 0x60 DUP5 ADD SWAP3 SWAP1 SWAP3 MSTORE PUSH1 0x1 PUSH1 0x1 PUSH1 0xA0 SHL SUB AND PUSH1 0x80 DUP4 ADD MSTORE PUSH1 0xA0 SWAP1 SWAP2 ADD MSTORE SWAP2 SWAP1 POP JUMP JUMPDEST PUSH1 0x0 DUP1 DUP4 PUSH1 0x1F DUP5 ADD SLT PUSH2 0x303D JUMPI PUSH1 0x0 DUP1 REVERT JUMPDEST POP DUP2 CALLDATALOAD PUSH8 0xFFFFFFFFFFFFFFFF DUP2 GT ISZERO PUSH2 0x3055 JUMPI PUSH1 0x0 DUP1 REVERT JUMPDEST PUSH1 0x20 DUP4 ADD SWAP2 POP DUP4 PUSH1 0x20 DUP3 DUP6 ADD ADD GT ISZERO PUSH2 0x2F3E JUMPI PUSH1 0x0 DUP1 REVERT JUMPDEST PUSH1 0x0 DUP1 PUSH1 0x0 DUP1 PUSH1 0x0 DUP1 PUSH1 0x0 PUSH1 0x80 DUP9 DUP11 SUB SLT ISZERO PUSH2 0x3088 JUMPI PUSH1 0x0 DUP1 REVERT JUMPDEST DUP8 CALLDATALOAD PUSH8 0xFFFFFFFFFFFFFFFF DUP2 GT ISZERO PUSH2 0x309F JUMPI PUSH1 0x0 DUP1 REVERT JUMPDEST PUSH2 0x30AB DUP11 DUP3 DUP12 ADD PUSH2 0x302B JUMP JUMPDEST SWAP1 SWAP9 POP SWAP7 POP POP PUSH1 0x20 DUP9 ADD CALLDATALOAD SWAP5 POP PUSH1 0x40 DUP9 ADD CALLDATALOAD PUSH8 0xFFFFFFFFFFFFFFFF DUP2 GT ISZERO PUSH2 0x30D2 JUMPI PUSH1 0x0 DUP1 REVERT JUMPDEST PUSH2 0x30DE DUP11 DUP3 DUP12 ADD PUSH2 0x2EF9 JUMP JUMPDEST SWAP1 SWAP6 POP SWAP4 POP POP PUSH1 0x60 DUP9 ADD CALLDATALOAD PUSH8 0xFFFFFFFFFFFFFFFF DUP2 GT ISZERO PUSH2 0x30FE JUMPI PUSH1 0x0 DUP1 REVERT JUMPDEST PUSH2 0x310A DUP11 DUP3 DUP12 ADD PUSH2 0x2EF9 JUMP JUMPDEST SWAP9 SWAP12 SWAP8 SWAP11 POP SWAP6 SWAP9 POP SWAP4 SWAP7 SWAP3 SWAP6 SWAP3 SWAP4 POP POP POP JUMP JUMPDEST PUSH1 0x0 DUP1 PUSH1 0x40 DUP4 DUP6 SUB SLT ISZERO PUSH2 0x3130 JUMPI PUSH1 0x0 DUP1 REVERT JUMPDEST PUSH2 0x3139 DUP4 PUSH2 0x2DC2 JUMP JUMPDEST SWAP2 POP PUSH2 0x2E01 PUSH1 0x20 DUP5 ADD PUSH2 0x2DC2 JUMP JUMPDEST PUSH1 0x0 DUP1 PUSH1 0x0 DUP1 PUSH1 0x0 PUSH1 0x80 DUP7 DUP9 SUB SLT ISZERO PUSH2 0x315F JUMPI PUSH1 0x0 DUP1 REVERT JUMPDEST DUP6 CALLDATALOAD PUSH8 0xFFFFFFFFFFFFFFFF DUP2 GT ISZERO PUSH2 0x3176 JUMPI PUSH1 0x0 DUP1 REVERT JUMPDEST PUSH2 0x3182 DUP9 DUP3 DUP10 ADD PUSH2 0x302B JUMP JUMPDEST SWAP1 SWAP10 SWAP1 SWAP9 POP PUSH1 0x20 DUP9 ADD CALLDATALOAD SWAP8 PUSH1 0x40 DUP2 ADD CALLDATALOAD SWAP8 POP PUSH1 0x60 ADD CALLDATALOAD SWAP6 POP SWAP4 POP POP POP POP JUMP JUMPDEST PUSH1 0x80 DUP2 MSTORE PUSH1 0x0 PUSH2 0x31B4 PUSH1 0x80 DUP4 ADD DUP8 PUSH2 0x2D15 JUMP JUMPDEST DUP6 PUSH1 0x20 DUP5 ADD MSTORE DUP3 DUP2 SUB PUSH1 0x40 DUP5 ADD MSTORE PUSH2 0x31CC DUP2 DUP7 PUSH2 0x2F91 JUMP JUMPDEST SWAP1 POP DUP3 DUP2 SUB PUSH1 0x60 DUP5 ADD MSTORE PUSH2 0x31E0 DUP2 DUP6 PUSH2 0x2F91 JUMP JUMPDEST SWAP8 SWAP7 POP POP POP POP POP POP POP JUMP JUMPDEST PUSH1 0x1 DUP2 DUP2 SHR SWAP1 DUP3 AND DUP1 PUSH2 0x31FF JUMPI PUSH1 0x7F DUP3 AND SWAP2 POP JUMPDEST PUSH1 0x20 DUP3 LT DUP2 SUB PUSH2 0x2A92 JUMPI PUSH4 0x4E487B71 PUSH1 0xE0 SHL PUSH1 0x0 MSTORE PUSH1 0x22 PUSH1 0x4 MSTORE PUSH1 0x24 PUSH1 0x0 REVERT JUMPDEST PUSH4 0x4E487B71 PUSH1 0xE0 SHL PUSH1 0x0 MSTORE PUSH1 0x32 PUSH1 0x4 MSTORE PUSH1 0x24 PUSH1 0x0 REVERT JUMPDEST PUSH1 0x20 DUP1 DUP3 MSTORE PUSH1 0x6D SWAP1 DUP3 ADD MSTORE PUSH32 0x53696E63652074686973207472616E7366657220656E647320796F7572206D65 PUSH1 0x40 DUP3 ADD MSTORE PUSH32 0x6D626572736869702064756520746F2062616C616E636520616E6420796F7520 PUSH1 0x60 DUP3 ADD MSTORE PUSH32 0x6861766520756E66696E697368656420766F74696E672C2070726F6365737320 PUSH1 0x80 DUP3 ADD MSTORE PUSH13 0x34B99031B0B731B2B63632B217 PUSH1 0x99 SHL PUSH1 0xA0 DUP3 ADD MSTORE PUSH1 0xC0 ADD SWAP1 JUMP JUMPDEST PUSH4 0x4E487B71 PUSH1 0xE0 SHL PUSH1 0x0 MSTORE PUSH1 0x11 PUSH1 0x4 MSTORE PUSH1 0x24 PUSH1 0x0 REVERT JUMPDEST DUP2 DUP2 SUB DUP2 DUP2 GT ISZERO PUSH2 0x8A5 JUMPI PUSH2 0x8A5 PUSH2 0x32CE JUMP JUMPDEST PUSH1 0x20 DUP1 DUP3 MSTORE PUSH1 0x7 SWAP1 DUP3 ADD MSTORE PUSH7 0x115E1C1A5C9959 PUSH1 0xCA SHL PUSH1 0x40 DUP3 ADD MSTORE PUSH1 0x60 ADD SWAP1 JUMP JUMPDEST PUSH1 0x0 PUSH1 0x1 DUP3 ADD PUSH2 0x332A JUMPI PUSH2 0x332A PUSH2 0x32CE JUMP JUMPDEST POP PUSH1 0x1 ADD SWAP1 JUMP JUMPDEST DUP1 DUP3 ADD DUP1 DUP3 GT ISZERO PUSH2 0x8A5 JUMPI PUSH2 0x8A5 PUSH2 0x32CE JUMP JUMPDEST DUP1 DUP3 MUL DUP2 ISZERO DUP3 DUP3 DIV DUP5 EQ OR PUSH2 0x8A5 JUMPI PUSH2 0x8A5 PUSH2 0x32CE JUMP JUMPDEST PUSH1 0x0 PUSH1 0x20 DUP3 DUP5 SUB SLT ISZERO PUSH2 0x336D JUMPI PUSH1 0x0 DUP1 REVERT JUMPDEST DUP2 MLOAD PUSH2 0x2DBB DUP2 PUSH2 0x2EA0 JUMP JUMPDEST PUSH4 0x4E487B71 PUSH1 0xE0 SHL PUSH1 0x0 MSTORE PUSH1 0x41 PUSH1 0x4 MSTORE PUSH1 0x24 PUSH1 0x0 REVERT JUMPDEST PUSH1 0x1F DUP3 GT ISZERO PUSH2 0x142E JUMPI DUP1 PUSH1 0x0 MSTORE PUSH1 0x20 PUSH1 0x0 KECCAK256 PUSH1 0x1F DUP5 ADD PUSH1 0x5 SHR DUP2 ADD PUSH1 0x20 DUP6 LT ISZERO PUSH2 0x33B5 JUMPI POP DUP1 JUMPDEST PUSH1 0x1F DUP5 ADD PUSH1 0x5 SHR DUP3 ADD SWAP2 POP JUMPDEST DUP2 DUP2 LT ISZERO PUSH2 0x33D5 JUMPI PUSH1 0x0 DUP2 SSTORE PUSH1 0x1 ADD PUSH2 0x33C1 JUMP JUMPDEST POP POP POP POP POP JUMP JUMPDEST DUP2 MLOAD PUSH8 0xFFFFFFFFFFFFFFFF DUP2 GT ISZERO PUSH2 0x33F6 JUMPI PUSH2 0x33F6 PUSH2 0x3378 JUMP JUMPDEST PUSH2 0x340A DUP2 PUSH2 0x3404 DUP5 SLOAD PUSH2 0x31EB JUMP JUMPDEST DUP5 PUSH2 0x338E JUMP JUMPDEST PUSH1 0x20 PUSH1 0x1F DUP3 GT PUSH1 0x1 DUP2 EQ PUSH2 0x343E JUMPI PUSH1 0x0 DUP4 ISZERO PUSH2 0x3426 JUMPI POP DUP5 DUP3 ADD MLOAD JUMPDEST PUSH1 0x0 NOT PUSH1 0x3 DUP6 SWAP1 SHL SHR NOT AND PUSH1 0x1 DUP5 SWAP1 SHL OR DUP5 SSTORE PUSH2 0x33D5 JUMP JUMPDEST PUSH1 0x0 DUP5 DUP2 MSTORE PUSH1 0x20 DUP2 KECCAK256 PUSH1 0x1F NOT DUP6 AND SWAP2 JUMPDEST DUP3 DUP2 LT ISZERO PUSH2 0x346E JUMPI DUP8 DUP6 ADD MLOAD DUP3 SSTORE PUSH1 0x20 SWAP5 DUP6 ADD SWAP5 PUSH1 0x1 SWAP1 SWAP3 ADD SWAP2 ADD PUSH2 0x344E JUMP JUMPDEST POP DUP5 DUP3 LT ISZERO PUSH2 0x348C JUMPI DUP7 DUP5 ADD MLOAD PUSH1 0x0 NOT PUSH1 0x3 DUP8 SWAP1 SHL PUSH1 0xF8 AND SHR NOT AND DUP2 SSTORE JUMPDEST POP POP POP POP PUSH1 0x1 SWAP1 DUP2 SHL ADD SWAP1 SSTORE POP JUMP JUMPDEST PUSH1 0x0 PUSH1 0x20 DUP3 DUP5 SUB SLT ISZERO PUSH2 0x34AD JUMPI PUSH1 0x0 DUP1 REVERT JUMPDEST POP MLOAD SWAP2 SWAP1 POP JUMP INVALID LOG2 PUSH5 0x6970667358 0x22 SLT KECCAK256 DIV PUSH32 0xCB5BD01F6E0F2E5E875A7F6AD123A29707CAA3D9B30CC508AD012F7A15FC6473 PUSH16 0x6C634300081C00330000000000000000 "},"methodIdentifiers":{"MAX_SUPPLY()":"32cb6b0c","allowance(address,address)":"dd62ed3e","approve(address,uint256)":"095ea7b3","balanceOf(address)":"70a08231","decimals()":"313ce567","delegateVoteTo(address,uint256)":"a1669b32","donateMyGovToken(uint256)":"39c94d2d","donateTLToken(uint256)":"b70e36ce","extraVotes(uint256,address)":"076ef625","faucet()":"de5f72fd","faucetClaimed(address)":"89903dc7","getIsProjectFunded(uint256)":"7c405164","getNoOfFundedProjects()":"bf50556d","getNoOfProjectProposals()":"23fd498b","getNoOfSurveys()":"5d801b37","getProjectInfo(uint256)":"fabf5968","getProjectNextTLPayment(uint256)":"6632fa18","getProjectOwner(uint256)":"92256aec","getSurveyInfo(uint256)":"2e8f3413","getSurveyOwner(uint256)":"875b5076","getSurveyResults(uint256)":"70a56c73","getTLReceivedByProject(uint256)":"579b5a47","hasDelegated(uint256,address)":"55f3985b","hasVoted(uint256,address)":"43859632","hasVotedForPayment(uint256,address)":"0eab6409","isContractMember(address)":"619aa727","isMember(address)":"a230c524","name()":"06fdde03","owner()":"8da5cb5b","paymentVotes(uint256)":"73cbccba","proposals(uint256)":"013cf08b","renounceOwnership()":"715018a6","reserveProjectGrant(uint256)":"bd275764","submitProjectProposal(string,uint256,uint256[],uint256[])":"a5e898e1","submitSurvey(string,uint256,uint256,uint256)":"ef269ae3","surveys(uint256)":"86e68b90","symbol()":"95d89b41","takeSurvey(uint256,uint256[])":"702798df","testFund(address,uint256)":"6f98a8a2","tlToken()":"a0b75d8c","totalSupply()":"18160ddd","transfer(address,uint256)":"a9059cbb","transferFrom(address,address,uint256)":"23b872dd","transferOwnership(address)":"f2fde38b","voteForProjectPayment(uint256,bool)":"42caaeb4","voteForProjectProposal(uint256,bool)":"f22449ba","withdrawProjectTLPayment(uint256)":"853cc4b6"}}}}}