{
  "_format": "hh-sol-artifact-1",
  "contractName": "TLToken",
  "sourceName": "contracts/TLToken.sol",
  "abi": [
    {
      "inputs": [],
      "stateMutability": "nonpayable",
      "type": "constructor"
    },
    {
      "inputs": [
        {
          "internalType": "address",
          "name": "spender",
          "type": "address"
        },
        {
          "internalType": "uint256",
          "name": "allowance",
          "type": "uint256"
        },
        {
          "internalType": "uint256",
          "name": "needed",
          "type": "uint256"
        }
      ],
      "name": "ERC20InsufficientAllowance",
      "type": "error"
    },
    {
      "inputs": [
        {
          "internalType": "address",
          "name": "sender",
          "type": "address"
        },
        {
          "internalType": "uint256",
          "name": "balance",
          "type": "uint256"
        },
        {
          "internalType": "uint256",
          "name": "needed",
          "type": "uint256"
        }
      ],
      "name": "ERC20InsufficientBalance",
      "type": "error"
    },
    {
      "inputs": [
        {
          "internalType": "address",
          "name": "approver",
          "type": "address"
        }
      ],
      "name": "ERC20InvalidApprover",
      "type": "error"
    },
    {
      "inputs": [
        {
          "internalType": "address",
          "name": "receiver",
          "type": "address"
        }
      ],
      "name": "ERC20InvalidReceiver",
      "type": "error"
    },
    {
      "inputs": [
        {
          "internalType": "address",
          "name": "sender",
          "type": "address"
        }
      ],
      "name": "ERC20InvalidSender",
      "type": "error"
    },
    {
      "inputs": [
        {
          "internalType": "address",
          "name": "spender",
          "type": "address"
        }
      ],
      "name": "ERC20InvalidSpender",
      "type": "error"
    },
    {
      "anonymous": false,
      "inputs": [
        {
          "indexed": true,
          "internalType": "address",
          "name": "owner",
          "type": "address"
        },
        {
          "indexed": true,
          "internalType": "address",
          "name": "spender",
          "type": "address"
        },
        {
          "indexed": false,
          "internalType": "uint256",
          "name": "value",
          "type": "uint256"
        }
      ],
      "name": "Approval",
      "type": "event"
    },
    {
      "anonymous": false,
      "inputs": [
        {
          "indexed": true,
          "internalType": "address",
          "name": "from",
          "type": "address"
        },
        {
          "indexed": true,
          "internalType": "address",
          "name": "to",
          "type": "address"
        },
        {
          "indexed": false,
          "internalType": "uint256",
          "name": "value",
          "type": "uint256"
        }
      ],
      "name": "Transfer",
      "type": "event"
    },
    {
      "inputs": [
        {
          "internalType": "address",
          "name": "owner",
          "type": "address"
        },
        {
          "internalType": "address",
          "name": "spender",
          "type": "address"
        }
      ],
      "name": "allowance",
      "outputs": [
        {
          "internalType": "uint256",
          "name": "",
          "type": "uint256"
        }
      ],
      "stateMutability": "view",
      "type": "function"
    },
    {
      "inputs": [
        {
          "internalType": "address",
          "name": "spender",
          "type": "address"
        },
        {
          "internalType": "uint256",
          "name": "value",
          "type": "uint256"
        }
      ],
      "name": "approve",
      "outputs": [
        {
          "internalType": "bool",
          "name": "",
          "type": "bool"
        }
      ],
      "stateMutability": "nonpayable",
      "type": "function"
    },
    {
      "inputs": [
        {
          "internalType": "address",
          "name": "account",
          "type": "address"
        }
      ],
      "name": "balanceOf",
      "outputs": [
        {
          "internalType": "uint256",
          "name": "",
          "type": "uint256"
        }
      ],
      "stateMutability": "view",
      "type": "function"
    },
    {
      "inputs": [],
      "name": "decimals",
      "outputs": [
        {
          "internalType": "uint8",
          "name": "",
          "type": "uint8"
        }
      ],
      "stateMutability": "view",
      "type": "function"
    },
    {
      "inputs": [
        {
          "internalType": "address",
          "name": "to",
          "type": "address"
        },
        {
          "internalType": "uint256",
          "name": "amount",
          "type": "uint256"
        }
      ],
      "name": "faucet",
      "outputs": [],
      "stateMutability": "nonpayable",
      "type": "function"
    },
    {
      "inputs": [],
      "name": "name",
      "outputs": [
        {
          "internalType": "string",
          "name": "",
          "type": "string"
        }
      ],
      "stateMutability": "view",
      "type": "function"
    },
    {
      "inputs": [],
      "name": "symbol",
      "outputs": [
        {
          "internalType": "string",
          "name": "",
          "type": "string"
        }
      ],
      "stateMutability": "view",
      "type": "function"
    },
    {
      "inputs": [],
      "name": "totalSupply",
      "outputs": [
        {
          "internalType": "uint256",
          "name": "",
          "type": "uint256"
        }
      ],
      "stateMutability": "view",
      "type": "function"
    },
    {
      "inputs": [
        {
          "internalType": "address",
          "name": "to",
          "type": "address"
        },
        {
          "internalType": "uint256",
          "name": "value",
          "type": "uint256"
        }
      ],
      "name": "transfer",
      "outputs": [
        {
          "internalType": "bool",
          "name": "",
          "type": "bool"
        }
      ],
      "stateMutability": "nonpayable",
      "type": "function"
    },
    {
      "inputs": [
        {
          "internalType": "address",
          "name": "from",
          "type": "address"
        },
        {
          "internalType": "address",
          "name": "to",
          "type": "address"
        },
        {
          "internalType": "uint256",
          "name": "value",
          "type": "uint256"
        }
      ],
      "name": "transferFrom",
      "outputs": [
        {
          "internalType": "bool",
          "name": "",
          "type": "bool"
        }
      ],
      "stateMutability": "nonpayable",
      "type": "function"
    }
  ],
  "bytecode": "0x608060405234801561001057600080fd5b506040518060400160405280601281526020017f5475726b697368204c69726120546f6b656e00000000000000000000000000008152506040518060400160405280600281526020017f544c000000000000000000000000000000000000000000000000000000000000815250816003908161008c91906105bd565b50806004908161009c91906105bd565b5050506100bb336b033b2e3c9fd0803ce80000006100c060201b60201c565b6107af565b600073ffffffffffffffffffffffffffffffffffffffff168273ffffffffffffffffffffffffffffffffffffffff16036101325760006040517fec442f0500000000000000000000000000000000000000000000000000000000815260040161012991906106d0565b60405180910390fd5b6101446000838361014860201b60201c565b5050565b600073ffffffffffffffffffffffffffffffffffffffff168373ffffffffffffffffffffffffffffffffffffffff160361019a57806002600082825461018e919061071a565b9250508190555061026d565b60008060008573ffffffffffffffffffffffffffffffffffffffff1673ffffffffffffffffffffffffffffffffffffffff16815260200190815260200160002054905081811015610226578381836040517fe450d38c00000000000000000000000000000000000000000000000000000000815260040161021d9392919061075d565b60405180910390fd5b8181036000808673ffffffffffffffffffffffffffffffffffffffff1673ffffffffffffffffffffffffffffffffffffffff16815260200190815260200160002081905550505b600073ffffffffffffffffffffffffffffffffffffffff168273ffffffffffffffffffffffffffffffffffffffff16036102b65780600260008282540392505081905550610303565b806000808473ffffffffffffffffffffffffffffffffffffffff1673ffffffffffffffffffffffffffffffffffffffff168152602001908152602001600020600082825401925050819055505b8173ffffffffffffffffffffffffffffffffffffffff168373ffffffffffffffffffffffffffffffffffffffff167fddf252ad1be2c89b69c2b068fc378daa952ba7f163c4a11628f55a4df523b3ef836040516103609190610794565b60405180910390a3505050565b600081519050919050565b7f4e487b7100000000000000000000000000000000000000000000000000000000600052604160045260246000fd5b7f4e487b7100000000000000000000000000000000000000000000000000000000600052602260045260246000fd5b600060028204905060018216806103ee57607f821691505b602082108103610401576104006103a7565b5b50919050565b60008190508160005260206000209050919050565b60006020601f8301049050919050565b600082821b905092915050565b6000600883026104697fffffffffffffffffffffffffffffffffffffffffffffffffffffffffffffffff8261042c565b610473868361042c565b95508019841693508086168417925050509392505050565b6000819050919050565b6000819050919050565b60006104ba6104b56104b08461048b565b610495565b61048b565b9050919050565b6000819050919050565b6104d48361049f565b6104e86104e0826104c1565b848454610439565b825550505050565b600090565b6104fd6104f0565b6105088184846104cb565b505050565b5b8181101561052c576105216000826104f5565b60018101905061050e565b5050565b601f8211156105715761054281610407565b61054b8461041c565b8101602085101561055a578190505b61056e6105668561041c565b83018261050d565b50505b505050565b600082821c905092915050565b600061059460001984600802610576565b1980831691505092915050565b60006105ad8383610583565b9150826002028217905092915050565b6105c68261036d565b67ffffffffffffffff8111156105df576105de610378565b5b6105e982546103d6565b6105f4828285610530565b600060209050601f8311600181146106275760008415610615578287015190505b61061f85826105a1565b865550610687565b601f19841661063586610407565b60005b8281101561065d57848901518255600182019150602085019450602081019050610638565b8683101561067a5784890151610676601f891682610583565b8355505b6001600288020188555050505b505050505050565b600073ffffffffffffffffffffffffffffffffffffffff82169050919050565b60006106ba8261068f565b9050919050565b6106ca816106af565b82525050565b60006020820190506106e560008301846106c1565b92915050565b7f4e487b7100000000000000000000000000000000000000000000000000000000600052601160045260246000fd5b60006107258261048b565b91506107308361048b565b9250828201905080821115610748576107476106eb565b5b92915050565b6107578161048b565b82525050565b600060608201905061077260008301866106c1565b61077f602083018561074e565b61078c604083018461074e565b949350505050565b60006020820190506107a9600083018461074e565b92915050565b610f0d806107be6000396000f3fe608060405234801561001057600080fd5b506004361061009e5760003560e01c806370a082311161006657806370a082311461015d5780637b56c2b21461018d57806395d89b41146101a9578063a9059cbb146101c7578063dd62ed3e146101f75761009e565b806306fdde03146100a3578063095ea7b3146100c157806318160ddd146100f157806323b872dd1461010f578063313ce5671461013f575b600080fd5b6100ab610227565b6040516100b89190610b61565b60405180910390f35b6100db60048036038101906100d69190610c1c565b6102b9565b6040516100e89190610c77565b60405180910390f35b6100f96102dc565b6040516101069190610ca1565b60405180910390f35b61012960048036038101906101249190610cbc565b6102e6565b6040516101369190610c77565b60405180910390f35b610147610315565b6040516101549190610d2b565b60405180910390f35b61017760048036038101906101729190610d46565b61031e565b6040516101849190610ca1565b60405180910390f35b6101a760048036038101906101a29190610c1c565b610366565b005b6101b1610374565b6040516101be9190610b61565b60405180910390f35b6101e160048036038101906101dc9190610c1c565b610406565b6040516101ee9190610c77565b60405180910390f35b610211600480360381019061020c9190610d73565b610429565b60405161021e9190610ca1565b60405180910390f35b60606003805461023690610de2565b80601f016020809104026020016040519081016040528092919081815260200182805461026290610de2565b80156102af5780601f10610284576101008083540402835291602001916102af565b820191906000526020600020905b81548152906001019060200180831161029257829003601f168201915b5050505050905090565b6000806102c46104b0565b90506102d18185856104b8565b600191505092915050565b6000600254905090565b6000806102f16104b0565b90506102fe8582856104ca565b61030985858561055f565b60019150509392505050565b60006012905090565b60008060008373ffffffffffffffffffffffffffffffffffffffff1673ffffffffffffffffffffffffffffffffffffffff168152602001908152602001600020549050919050565b6103708282610653565b5050565b60606004805461038390610de2565b80601f01602080910402602001604051908101604052809291908181526020018280546103af90610de2565b80156103fc5780601f106103d1576101008083540402835291602001916103fc565b820191906000526020600020905b8154815290600101906020018083116103df57829003601f168201915b5050505050905090565b6000806104116104b0565b905061041e81858561055f565b600191505092915050565b6000600160008473ffffffffffffffffffffffffffffffffffffffff1673ffffffffffffffffffffffffffffffffffffffff16815260200190815260200160002060008373ffffffffffffffffffffffffffffffffffffffff1673ffffffffffffffffffffffffffffffffffffffff16815260200190815260200160002054905092915050565b600033905090565b6104c583838360016106d5565b505050565b60006104d68484610429565b90507fffffffffffffffffffffffffffffffffffffffffffffffffffffffffffffffff8110156105595781811015610549578281836040517ffb8f41b200000000000000000000000000000000000000000000000000000000815260040161054093929190610e22565b60405180910390fd5b610558848484840360006106d5565b5b50505050565b600073ffffffffffffffffffffffffffffffffffffffff168373ffffffffffffffffffffffffffffffffffffffff16036105d15760006040517f96c6fd1e0000000000000000000000000000000000000000000000000000000081526004016105c89190610e59565b60405180910390fd5b600073ffffffffffffffffffffffffffffffffffffffff168273ffffffffffffffffffffffffffffffffffffffff16036106435760006040517fec442f0500000000000000000000000000000000000000000000000000000000815260040161063a9190610e59565b60405180910390fd5b61064e8383836108ac565b505050565b600073ffffffffffffffffffffffffffffffffffffffff168273ffffffffffffffffffffffffffffffffffffffff16036106c55760006040517fec442f050000000000000000000000000000000000000000000000000000000081526004016106bc9190610e59565b60405180910390fd5b6106d1600083836108ac565b5050565b600073ffffffffffffffffffffffffffffffffffffffff168473ffffffffffffffffffffffffffffffffffffffff16036107475760006040517fe602df0500000000000000000000000000000000000000000000000000000000815260040161073e9190610e59565b60405180910390fd5b600073ffffffffffffffffffffffffffffffffffffffff168373ffffffffffffffffffffffffffffffffffffffff16036107b95760006040517f94280d620000000000000000000000000000000000000000000000000000000081526004016107b09190610e59565b60405180910390fd5b81600160008673ffffffffffffffffffffffffffffffffffffffff1673ffffffffffffffffffffffffffffffffffffffff16815260200190815260200160002060008573ffffffffffffffffffffffffffffffffffffffff1673ffffffffffffffffffffffffffffffffffffffff1681526020019081526020016000208190555080156108a6578273ffffffffffffffffffffffffffffffffffffffff168473ffffffffffffffffffffffffffffffffffffffff167f8c5be1e5ebec7d5bd14f71427d1e84f3dd0314c0f7b2291e5b200ac8c7c3b9258460405161089d9190610ca1565b60405180910390a35b50505050565b600073ffffffffffffffffffffffffffffffffffffffff168373ffffffffffffffffffffffffffffffffffffffff16036108fe5780600260008282546108f29190610ea3565b925050819055506109d1565b60008060008573ffffffffffffffffffffffffffffffffffffffff1673ffffffffffffffffffffffffffffffffffffffff1681526020019081526020016000205490508181101561098a578381836040517fe450d38c00000000000000000000000000000000000000000000000000000000815260040161098193929190610e22565b60405180910390fd5b8181036000808673ffffffffffffffffffffffffffffffffffffffff1673ffffffffffffffffffffffffffffffffffffffff16815260200190815260200160002081905550505b600073ffffffffffffffffffffffffffffffffffffffff168273ffffffffffffffffffffffffffffffffffffffff1603610a1a5780600260008282540392505081905550610a67565b806000808473ffffffffffffffffffffffffffffffffffffffff1673ffffffffffffffffffffffffffffffffffffffff168152602001908152602001600020600082825401925050819055505b8173ffffffffffffffffffffffffffffffffffffffff168373ffffffffffffffffffffffffffffffffffffffff167fddf252ad1be2c89b69c2b068fc378daa952ba7f163c4a11628f55a4df523b3ef83604051610ac49190610ca1565b60405180910390a3505050565b600081519050919050565b600082825260208201905092915050565b60005b83811015610b0b578082015181840152602081019050610af0565b60008484015250505050565b6000601f19601f8301169050919050565b6000610b3382610ad1565b610b3d8185610adc565b9350610b4d818560208601610aed565b610b5681610b17565b840191505092915050565b60006020820190508181036000830152610b7b8184610b28565b905092915050565b600080fd5b600073ffffffffffffffffffffffffffffffffffffffff82169050919050565b6000610bb382610b88565b9050919050565b610bc381610ba8565b8114610bce57600080fd5b50565b600081359050610be081610bba565b92915050565b6000819050919050565b610bf981610be6565b8114610c0457600080fd5b50565b600081359050610c1681610bf0565b92915050565b60008060408385031215610c3357610c32610b83565b5b6000610c4185828601610bd1565b9250506020610c5285828601610c07565b9150509250929050565b60008115159050919050565b610c7181610c5c565b82525050565b6000602082019050610c8c6000830184610c68565b92915050565b610c9b81610be6565b82525050565b6000602082019050610cb66000830184610c92565b92915050565b600080600060608486031215610cd557610cd4610b83565b5b6000610ce386828701610bd1565b9350506020610cf486828701610bd1565b9250506040610d0586828701610c07565b9150509250925092565b600060ff82169050919050565b610d2581610d0f565b82525050565b6000602082019050610d406000830184610d1c565b92915050565b600060208284031215610d5c57610d5b610b83565b5b6000610d6a84828501610bd1565b91505092915050565b60008060408385031215610d8a57610d89610b83565b5b6000610d9885828601610bd1565b9250506020610da985828601610bd1565b9150509250929050565b7f4e487b7100000000000000000000000000000000000000000000000000000000600052602260045260246000fd5b60006002820490506001821680610dfa57607f821691505b602082108103610e0d57610e0c610db3565b5b50919050565b610e1c81610ba8565b82525050565b6000606082019050610e376000830186610e13565b610e446020830185610c92565b610e516040830184610c92565b949350505050565b6000602082019050610e6e6000830184610e13565b92915050565b7f4e487b7100000000000000000000000000000000000000000000000000000000600052601160045260246000fd5b6000610eae82610be6565b9150610eb983610be6565b9250828201905080821115610ed157610ed0610e74565b5b9291505056fea26469706673582212200943ccfcb82bdeb191460d307f15982f8c751ec7fde50a2c78cb12e33b2a3f6c64736f6c634300081c0033",
  "linkReferences": {},
  "deployedLinkReferences": {}
}