{
  "_format": "hh-sol-artifact-1",
  "contractName": "MyGov",
  "sourceName": "contracts/MyGov.sol",
  "abi": [
    {
      "inputs": [
        {
          "internalType": "address",
          "name": "_tlToken",
          "type": "address"
        }
      ],
      "stateMutability": "nonpayable",
      "type": "constructor"
    },
    {
      "inputs": [
        {
          "internalType": "address",
          "name": "spender",
          "type": "address"
        },
        {
          "internalType": "uint256",
          "name": "allowance",
          "type": "uint256"
        },
        {
          "internalType": "uint256",
          "name": "needed",
          "type": "uint256"
        }
      ],
      "name": "ERC20InsufficientAllowance",
      "type": "error"
    },
    {
      "inputs": [
        {
          "internalType": "address",
          "name": "sender",
          "type": "address"
        },
        {
          "internalType": "uint256",
          "name": "balance",
          "type": "uint256"
        },
        {
          "internalType": "uint256",
          "name": "needed",
          "type": "uint256"
        }
      ],
      "name": "ERC20InsufficientBalance",
      "type": "error"
    },
    {
      "inputs": [
        {
          "internalType": "address",
          "name": "approver",
          "type": "address"
        }
      ],
      "name": "ERC20InvalidApprover",
      "type": "error"
    },
    {
      "inputs": [
        {
          "internalType": "address",
          "name": "receiver",
          "type": "address"
        }
      ],
      "name": "ERC20InvalidReceiver",
      "type": "error"
    },
    {
      "inputs": [
        {
          "internalType": "address",
          "name": "sender",
          "type": "address"
        }
      ],
      "name": "ERC20InvalidSender",
      "type": "error"
    },
    {
      "inputs": [
        {
          "internalType": "address",
          "name": "spender",
          "type": "address"
        }
      ],
      "name": "ERC20InvalidSpender",
      "type": "error"
    },
    {
      "inputs": [
        {
          "internalType": "address",
          "name": "owner",
          "type": "address"
        }
      ],
      "name": "OwnableInvalidOwner",
      "type": "error"
    },
    {
      "inputs": [
        {
          "internalType": "address",
          "name": "account",
          "type": "address"
        }
      ],
      "name": "OwnableUnauthorizedAccount",
      "type": "error"
    },
    {
      "anonymous": false,
      "inputs": [
        {
          "indexed": true,
          "internalType": "address",
          "name": "owner",
          "type": "address"
        },
        {
          "indexed": true,
          "internalType": "address",
          "name": "spender",
          "type": "address"
        },
        {
          "indexed": false,
          "internalType": "uint256",
          "name": "value",
          "type": "uint256"
        }
      ],
      "name": "Approval",
      "type": "event"
    },
    {
      "anonymous": false,
      "inputs": [
        {
          "indexed": true,
          "internalType": "address",
          "name": "previousOwner",
          "type": "address"
        },
        {
          "indexed": true,
          "internalType": "address",
          "name": "newOwner",
          "type": "address"
        }
      ],
      "name": "OwnershipTransferred",
      "type": "event"
    },
    {
      "anonymous": false,
      "inputs": [
        {
          "indexed": true,
          "internalType": "address",
          "name": "from",
          "type": "address"
        },
        {
          "indexed": true,
          "internalType": "address",
          "name": "to",
          "type": "address"
        },
        {
          "indexed": false,
          "internalType": "uint256",
          "name": "value",
          "type": "uint256"
        }
      ],
      "name": "Transfer",
      "type": "event"
    },
    {
      "inputs": [],
      "name": "MAX_SUPPLY",
      "outputs": [
        {
          "internalType": "uint256",
          "name": "",
          "type": "uint256"
        }
      ],
      "stateMutability": "view",
      "type": "function"
    },
    {
      "inputs": [
        {
          "internalType": "address",
          "name": "owner",
          "type": "address"
        },
        {
          "internalType": "address",
          "name": "spender",
          "type": "address"
        }
      ],
      "name": "allowance",
      "outputs": [
        {
          "internalType": "uint256",
          "name": "",
          "type": "uint256"
        }
      ],
      "stateMutability": "view",
      "type": "function"
    },
    {
      "inputs": [
        {
          "internalType": "address",
          "name": "spender",
          "type": "address"
        },
        {
          "internalType": "uint256",
          "name": "value",
          "type": "uint256"
        }
      ],
      "name": "approve",
      "outputs": [
        {
          "internalType": "bool",
          "name": "",
          "type": "bool"
        }
      ],
      "stateMutability": "nonpayable",
      "type": "function"
    },
    {
      "inputs": [
        {
          "internalType": "address",
          "name": "account",
          "type": "address"
        }
      ],
      "name": "balanceOf",
      "outputs": [
        {
          "internalType": "uint256",
          "name": "",
          "type": "uint256"
        }
      ],
      "stateMutability": "view",
      "type": "function"
    },
    {
      "inputs": [],
      "name": "decimals",
      "outputs": [
        {
          "internalType": "uint8",
          "name": "",
          "type": "uint8"
        }
      ],
      "stateMutability": "view",
      "type": "function"
    },
    {
      "inputs": [
        {
          "internalType": "address",
          "name": "memberaddr",
          "type": "address"
        },
        {
          "internalType": "uint256",
          "name": "projectid",
          "type": "uint256"
        }
      ],
      "name": "delegateVoteTo",
      "outputs": [],
      "stateMutability": "nonpayable",
      "type": "function"
    },
    {
      "inputs": [
        {
          "internalType": "uint256",
          "name": "amount",
          "type": "uint256"
        }
      ],
      "name": "donateMyGovToken",
      "outputs": [],
      "stateMutability": "nonpayable",
      "type": "function"
    },
    {
      "inputs": [
        {
          "internalType": "uint256",
          "name": "amount",
          "type": "uint256"
        }
      ],
      "name": "donateTLToken",
      "outputs": [],
      "stateMutability": "nonpayable",
      "type": "function"
    },
    {
      "inputs": [
        {
          "internalType": "uint256",
          "name": "",
          "type": "uint256"
        },
        {
          "internalType": "address",
          "name": "",
          "type": "address"
        }
      ],
      "name": "extraVotes",
      "outputs": [
        {
          "internalType": "uint256",
          "name": "",
          "type": "uint256"
        }
      ],
      "stateMutability": "view",
      "type": "function"
    },
    {
      "inputs": [],
      "name": "faucet",
      "outputs": [],
      "stateMutability": "nonpayable",
      "type": "function"
    },
    {
      "inputs": [
        {
          "internalType": "address",
          "name": "",
          "type": "address"
        }
      ],
      "name": "faucetClaimed",
      "outputs": [
        {
          "internalType": "bool",
          "name": "",
          "type": "bool"
        }
      ],
      "stateMutability": "view",
      "type": "function"
    },
    {
      "inputs": [
        {
          "internalType": "uint256",
          "name": "projectid",
          "type": "uint256"
        }
      ],
      "name": "getIsProjectFunded",
      "outputs": [
        {
          "internalType": "bool",
          "name": "",
          "type": "bool"
        }
      ],
      "stateMutability": "view",
      "type": "function"
    },
    {
      "inputs": [],
      "name": "getNoOfFundedProjects",
      "outputs": [
        {
          "internalType": "uint256",
          "name": "count",
          "type": "uint256"
        }
      ],
      "stateMutability": "view",
      "type": "function"
    },
    {
      "inputs": [],
      "name": "getNoOfProjectProposals",
      "outputs": [
        {
          "internalType": "uint256",
          "name": "",
          "type": "uint256"
        }
      ],
      "stateMutability": "view",
      "type": "function"
    },
    {
      "inputs": [],
      "name": "getNoOfSurveys",
      "outputs": [
        {
          "internalType": "uint256",
          "name": "",
          "type": "uint256"
        }
      ],
      "stateMutability": "view",
      "type": "function"
    },
    {
      "inputs": [
        {
          "internalType": "uint256",
          "name": "activityid",
          "type": "uint256"
        }
      ],
      "name": "getProjectInfo",
      "outputs": [
        {
          "internalType": "string",
          "name": "",
          "type": "string"
        },
        {
          "internalType": "uint256",
          "name": "",
          "type": "uint256"
        },
        {
          "internalType": "uint256[]",
          "name": "",
          "type": "uint256[]"
        },
        {
          "internalType": "uint256[]",
          "name": "",
          "type": "uint256[]"
        }
      ],
      "stateMutability": "view",
      "type": "function"
    },
    {
      "inputs": [
        {
          "internalType": "uint256",
          "name": "projectid",
          "type": "uint256"
        }
      ],
      "name": "getProjectNextTLPayment",
      "outputs": [
        {
          "internalType": "int256",
          "name": "",
          "type": "int256"
        }
      ],
      "stateMutability": "view",
      "type": "function"
    },
    {
      "inputs": [
        {
          "internalType": "uint256",
          "name": "projectid",
          "type": "uint256"
        }
      ],
      "name": "getProjectOwner",
      "outputs": [
        {
          "internalType": "address",
          "name": "",
          "type": "address"
        }
      ],
      "stateMutability": "view",
      "type": "function"
    },
    {
      "inputs": [
        {
          "internalType": "uint256",
          "name": "surveyid",
          "type": "uint256"
        }
      ],
      "name": "getSurveyInfo",
      "outputs": [
        {
          "internalType": "string",
          "name": "",
          "type": "string"
        },
        {
          "internalType": "uint256",
          "name": "",
          "type": "uint256"
        },
        {
          "internalType": "uint256",
          "name": "",
          "type": "uint256"
        },
        {
          "internalType": "uint256",
          "name": "",
          "type": "uint256"
        }
      ],
      "stateMutability": "view",
      "type": "function"
    },
    {
      "inputs": [
        {
          "internalType": "uint256",
          "name": "surveyid",
          "type": "uint256"
        }
      ],
      "name": "getSurveyOwner",
      "outputs": [
        {
          "internalType": "address",
          "name": "",
          "type": "address"
        }
      ],
      "stateMutability": "view",
      "type": "function"
    },
    {
      "inputs": [
        {
          "internalType": "uint256",
          "name": "surveyid",
          "type": "uint256"
        }
      ],
      "name": "getSurveyResults",
      "outputs": [
        {
          "internalType": "uint256",
          "name": "",
          "type": "uint256"
        },
        {
          "internalType": "uint256[]",
          "name": "",
          "type": "uint256[]"
        }
      ],
      "stateMutability": "view",
      "type": "function"
    },
    {
      "inputs": [
        {
          "internalType": "uint256",
          "name": "projectid",
          "type": "uint256"
        }
      ],
      "name": "getTLReceivedByProject",
      "outputs": [
        {
          "internalType": "uint256",
          "name": "total",
          "type": "uint256"
        }
      ],
      "stateMutability": "view",
      "type": "function"
    },
    {
      "inputs": [
        {
          "internalType": "uint256",
          "name": "",
          "type": "uint256"
        },
        {
          "internalType": "address",
          "name": "",
          "type": "address"
        }
      ],
      "name": "hasDelegated",
      "outputs": [
        {
          "internalType": "bool",
          "name": "",
          "type": "bool"
        }
      ],
      "stateMutability": "view",
      "type": "function"
    },
    {
      "inputs": [
        {
          "internalType": "uint256",
          "name": "",
          "type": "uint256"
        },
        {
          "internalType": "address",
          "name": "",
          "type": "address"
        }
      ],
      "name": "hasVoted",
      "outputs": [
        {
          "internalType": "bool",
          "name": "",
          "type": "bool"
        }
      ],
      "stateMutability": "view",
      "type": "function"
    },
    {
      "inputs": [
        {
          "internalType": "uint256",
          "name": "",
          "type": "uint256"
        },
        {
          "internalType": "address",
          "name": "",
          "type": "address"
        }
      ],
      "name": "hasVotedForPayment",
      "outputs": [
        {
          "internalType": "bool",
          "name": "",
          "type": "bool"
        }
      ],
      "stateMutability": "view",
      "type": "function"
    },
    {
      "inputs": [
        {
          "internalType": "address",
          "name": "user",
          "type": "address"
        }
      ],
      "name": "isContractMember",
      "outputs": [
        {
          "internalType": "bool",
          "name": "",
          "type": "bool"
        }
      ],
      "stateMutability": "view",
      "type": "function"
    },
    {
      "inputs": [
        {
          "internalType": "address",
          "name": "",
          "type": "address"
        }
      ],
      "name": "isMember",
      "outputs": [
        {
          "internalType": "bool",
          "name": "",
          "type": "bool"
        }
      ],
      "stateMutability": "view",
      "type": "function"
    },
    {
      "inputs": [],
      "name": "name",
      "outputs": [
        {
          "internalType": "string",
          "name": "",
          "type": "string"
        }
      ],
      "stateMutability": "view",
      "type": "function"
    },
    {
      "inputs": [],
      "name": "owner",
      "outputs": [
        {
          "internalType": "address",
          "name": "",
          "type": "address"
        }
      ],
      "stateMutability": "view",
      "type": "function"
    },
    {
      "inputs": [
        {
          "internalType": "uint256",
          "name": "",
          "type": "uint256"
        }
      ],
      "name": "paymentVotes",
      "outputs": [
        {
          "internalType": "uint256",
          "name": "",
          "type": "uint256"
        }
      ],
      "stateMutability": "view",
      "type": "function"
    },
    {
      "inputs": [
        {
          "internalType": "uint256",
          "name": "",
          "type": "uint256"
        }
      ],
      "name": "proposals",
      "outputs": [
        {
          "internalType": "string",
          "name": "weburl",
          "type": "string"
        },
        {
          "internalType": "uint256",
          "name": "votedeadline",
          "type": "uint256"
        },
        {
          "internalType": "address",
          "name": "owner",
          "type": "address"
        },
        {
          "internalType": "uint256",
          "name": "yesVotes",
          "type": "uint256"
        },
        {
          "internalType": "bool",
          "name": "funded",
          "type": "bool"
        },
        {
          "internalType": "uint256",
          "name": "reservedTime",
          "type": "uint256"
        },
        {
          "internalType": "uint256",
          "name": "lastPaidIndex",
          "type": "uint256"
        }
      ],
      "stateMutability": "view",
      "type": "function"
    },
    {
      "inputs": [],
      "name": "renounceOwnership",
      "outputs": [],
      "stateMutability": "nonpayable",
      "type": "function"
    },
    {
      "inputs": [
        {
          "internalType": "uint256",
          "name": "projectid",
          "type": "uint256"
        }
      ],
      "name": "reserveProjectGrant",
      "outputs": [],
      "stateMutability": "nonpayable",
      "type": "function"
    },
    {
      "inputs": [
        {
          "internalType": "string",
          "name": "weburl",
          "type": "string"
        },
        {
          "internalType": "uint256",
          "name": "votedeadline",
          "type": "uint256"
        },
        {
          "internalType": "uint256[]",
          "name": "paymentamounts",
          "type": "uint256[]"
        },
        {
          "internalType": "uint256[]",
          "name": "payschedule",
          "type": "uint256[]"
        }
      ],
      "name": "submitProjectProposal",
      "outputs": [
        {
          "internalType": "uint256",
          "name": "",
          "type": "uint256"
        }
      ],
      "stateMutability": "nonpayable",
      "type": "function"
    },
    {
      "inputs": [
        {
          "internalType": "string",
          "name": "weburl",
          "type": "string"
        },
        {
          "internalType": "uint256",
          "name": "surveydeadline",
          "type": "uint256"
        },
        {
          "internalType": "uint256",
          "name": "numchoices",
          "type": "uint256"
        },
        {
          "internalType": "uint256",
          "name": "atmostchoices",
          "type": "uint256"
        }
      ],
      "name": "submitSurvey",
      "outputs": [
        {
          "internalType": "uint256",
          "name": "",
          "type": "uint256"
        }
      ],
      "stateMutability": "nonpayable",
      "type": "function"
    },
    {
      "inputs": [
        {
          "internalType": "uint256",
          "name": "",
          "type": "uint256"
        }
      ],
      "name": "surveys",
      "outputs": [
        {
          "internalType": "string",
          "name": "weburl",
          "type": "string"
        },
        {
          "internalType": "uint256",
          "name": "surveydeadline",
          "type": "uint256"
        },
        {
          "internalType": "uint256",
          "name": "numchoices",
          "type": "uint256"
        },
        {
          "internalType": "uint256",
          "name": "atmostchoices",
          "type": "uint256"
        },
        {
          "internalType": "address",
          "name": "owner",
          "type": "address"
        },
        {
          "internalType": "uint256",
          "name": "takerCount",
          "type": "uint256"
        }
      ],
      "stateMutability": "view",
      "type": "function"
    },
    {
      "inputs": [],
      "name": "symbol",
      "outputs": [
        {
          "internalType": "string",
          "name": "",
          "type": "string"
        }
      ],
      "stateMutability": "view",
      "type": "function"
    },
    {
      "inputs": [
        {
          "internalType": "uint256",
          "name": "surveyid",
          "type": "uint256"
        },
        {
          "internalType": "uint256[]",
          "name": "choices",
          "type": "uint256[]"
        }
      ],
      "name": "takeSurvey",
      "outputs": [],
      "stateMutability": "nonpayable",
      "type": "function"
    },
    {
      "inputs": [],
      "name": "tlToken",
      "outputs": [
        {
          "internalType": "contract ITLToken",
          "name": "",
          "type": "address"
        }
      ],
      "stateMutability": "view",
      "type": "function"
    },
    {
      "inputs": [],
      "name": "totalSupply",
      "outputs": [
        {
          "internalType": "uint256",
          "name": "",
          "type": "uint256"
        }
      ],
      "stateMutability": "view",
      "type": "function"
    },
    {
      "inputs": [
        {
          "internalType": "address",
          "name": "to",
          "type": "address"
        },
        {
          "internalType": "uint256",
          "name": "amount",
          "type": "uint256"
        }
      ],
      "name": "transfer",
      "outputs": [
        {
          "internalType": "bool",
          "name": "",
          "type": "bool"
        }
      ],
      "stateMutability": "nonpayable",
      "type": "function"
    },
    {
      "inputs": [
        {
          "internalType": "address",
          "name": "from",
          "type": "address"
        },
        {
          "internalType": "address",
          "name": "to",
          "type": "address"
        },
        {
          "internalType": "uint256",
          "name": "value",
          "type": "uint256"
        }
      ],
      "name": "transferFrom",
      "outputs": [
        {
          "internalType": "bool",
          "name": "",
          "type": "bool"
        }
      ],
      "stateMutability": "nonpayable",
      "type": "function"
    },
    {
      "inputs": [
        {
          "internalType": "address",
          "name": "newOwner",
          "type": "address"
        }
      ],
      "name": "transferOwnership",
      "outputs": [],
      "stateMutability": "nonpayable",
      "type": "function"
    },
    {
      "inputs": [
        {
          "internalType": "uint256",
          "name": "projectid",
          "type": "uint256"
        },
        {
          "internalType": "bool",
          "name": "choice",
          "type": "bool"
        }
      ],
      "name": "voteForProjectPayment",
      "outputs": [],
      "stateMutability": "nonpayable",
      "type": "function"
    },
    {
      "inputs": [
        {
          "internalType": "uint256",
          "name": "projectid",
          "type": "uint256"
        },
        {
          "internalType": "bool",
          "name": "choice",
          "type": "bool"
        }
      ],
      "name": "voteForProjectProposal",
      "outputs": [],
      "stateMutability": "nonpayable",
      "type": "function"
    },
    {
      "inputs": [
        {
          "internalType": "uint256",
          "name": "projectid",
          "type": "uint256"
        }
      ],
      "name": "withdrawProjectTLPayment",
      "outputs": [],
      "stateMutability": "nonpayable",
      "type": "function"
    }
  ],
  "bytecode": "0x608060405234801561001057600080fd5b506040516167dc3803806167dc8339818101604052810190610032919061057b565b336040518060400160405280600581526020017f4d79476f760000000000000000000000000000000000000000000000000000008152506040518060400160405280600481526020017f4d474f560000000000000000000000000000000000000000000000000000000081525081600390816100ae91906107f8565b5080600490816100be91906107f8565b505050600073ffffffffffffffffffffffffffffffffffffffff168173ffffffffffffffffffffffffffffffffffffffff16036101335760006040517f1e4fbdf700000000000000000000000000000000000000000000000000000000815260040161012a91906108d9565b60405180910390fd5b610142816101a560201b60201c565b5080600660006101000a81548173ffffffffffffffffffffffffffffffffffffffff021916908373ffffffffffffffffffffffffffffffffffffffff16021790555061019f306a084595161401484a00000061026b60201b60201c565b506109b8565b6000600560009054906101000a900473ffffffffffffffffffffffffffffffffffffffff16905081600560006101000a81548173ffffffffffffffffffffffffffffffffffffffff021916908373ffffffffffffffffffffffffffffffffffffffff1602179055508173ffffffffffffffffffffffffffffffffffffffff168173ffffffffffffffffffffffffffffffffffffffff167f8be0079c531659141344cd1fd0a4f28419497f9722a3daafe3b4186f6b6457e060405160405180910390a35050565b600073ffffffffffffffffffffffffffffffffffffffff168273ffffffffffffffffffffffffffffffffffffffff16036102dd5760006040517fec442f050000000000000000000000000000000000000000000000000000000081526004016102d491906108d9565b60405180910390fd5b6102ef600083836102f360201b60201c565b5050565b600073ffffffffffffffffffffffffffffffffffffffff168373ffffffffffffffffffffffffffffffffffffffff16036103455780600260008282546103399190610923565b92505081905550610418565b60008060008573ffffffffffffffffffffffffffffffffffffffff1673ffffffffffffffffffffffffffffffffffffffff168152602001908152602001600020549050818110156103d1578381836040517fe450d38c0000000000000000000000000000000000000000000000000000000081526004016103c893929190610966565b60405180910390fd5b8181036000808673ffffffffffffffffffffffffffffffffffffffff1673ffffffffffffffffffffffffffffffffffffffff16815260200190815260200160002081905550505b600073ffffffffffffffffffffffffffffffffffffffff168273ffffffffffffffffffffffffffffffffffffffff160361046157806002600082825403925050819055506104ae565b806000808473ffffffffffffffffffffffffffffffffffffffff1673ffffffffffffffffffffffffffffffffffffffff168152602001908152602001600020600082825401925050819055505b8173ffffffffffffffffffffffffffffffffffffffff168373ffffffffffffffffffffffffffffffffffffffff167fddf252ad1be2c89b69c2b068fc378daa952ba7f163c4a11628f55a4df523b3ef8360405161050b919061099d565b60405180910390a3505050565b600080fd5b600073ffffffffffffffffffffffffffffffffffffffff82169050919050565b60006105488261051d565b9050919050565b6105588161053d565b811461056357600080fd5b50565b6000815190506105758161054f565b92915050565b60006020828403121561059157610590610518565b5b600061059f84828501610566565b91505092915050565b600081519050919050565b7f4e487b7100000000000000000000000000000000000000000000000000000000600052604160045260246000fd5b7f4e487b7100000000000000000000000000000000000000000000000000000000600052602260045260246000fd5b6000600282049050600182168061062957607f821691505b60208210810361063c5761063b6105e2565b5b50919050565b60008190508160005260206000209050919050565b60006020601f8301049050919050565b600082821b905092915050565b6000600883026106a47fffffffffffffffffffffffffffffffffffffffffffffffffffffffffffffffff82610667565b6106ae8683610667565b95508019841693508086168417925050509392505050565b6000819050919050565b6000819050919050565b60006106f56106f06106eb846106c6565b6106d0565b6106c6565b9050919050565b6000819050919050565b61070f836106da565b61072361071b826106fc565b848454610674565b825550505050565b600090565b61073861072b565b610743818484610706565b505050565b5b818110156107675761075c600082610730565b600181019050610749565b5050565b601f8211156107ac5761077d81610642565b61078684610657565b81016020851015610795578190505b6107a96107a185610657565b830182610748565b50505b505050565b600082821c905092915050565b60006107cf600019846008026107b1565b1980831691505092915050565b60006107e883836107be565b9150826002028217905092915050565b610801826105a8565b67ffffffffffffffff81111561081a576108196105b3565b5b6108248254610611565b61082f82828561076b565b600060209050601f8311600181146108625760008415610850578287015190505b61085a85826107dc565b8655506108c2565b601f19841661087086610642565b60005b8281101561089857848901518255600182019150602085019450602081019050610873565b868310156108b557848901516108b1601f8916826107be565b8355505b6001600288020188555050505b505050505050565b6108d38161053d565b82525050565b60006020820190506108ee60008301846108ca565b92915050565b7f4e487b7100000000000000000000000000000000000000000000000000000000600052601160045260246000fd5b600061092e826106c6565b9150610939836106c6565b9250828201905080821115610951576109506108f4565b5b92915050565b610960816106c6565b82525050565b600060608201905061097b60008301866108ca565b6109886020830185610957565b6109956040830184610957565b949350505050565b60006020820190506109b26000830184610957565b92915050565b615e15806109c76000396000f3fe608060405234801561001057600080fd5b506004361061028a5760003560e01c806373cbccba1161015c578063a230c524116100ce578063dd62ed3e11610087578063dd62ed3e146108b8578063de5f72fd146108e8578063ef269ae3146108f2578063f22449ba14610922578063f2fde38b1461093e578063fabf59681461095a5761028a565b8063a230c524146107d2578063a5e898e114610802578063a9059cbb14610832578063b70e36ce14610862578063bd2757641461087e578063bf50556d1461089a5761028a565b806389903dc71161012057806389903dc7146106fc5780638da5cb5b1461072c57806392256aec1461074a57806395d89b411461077a578063a0b75d8c14610798578063a1669b32146107b65761028a565b806373cbccba1461061b5780637c4051641461064b578063853cc4b61461067b57806386e68b9014610697578063875b5076146106cc5761028a565b806339c94d2d11610200578063619aa727116101b9578063619aa727146105345780636632fa1814610564578063702798df1461059457806370a08231146105b057806370a56c73146105e0578063715018a6146106115761028a565b806339c94d2d1461044e57806342caaeb41461046a578063438596321461048657806355f3985b146104b6578063579b5a47146104e65780635d801b37146105165761028a565b806318160ddd1161025257806318160ddd1461037357806323b872dd1461039157806323fd498b146103c15780632e8f3413146103df578063313ce5671461041257806332cb6b0c146104305761028a565b8063013cf08b1461028f57806306fdde03146102c5578063076ef625146102e3578063095ea7b3146103135780630eab640914610343575b600080fd5b6102a960048036038101906102a491906140f1565b61098d565b6040516102bc9796959493929190614219565b60405180910390f35b6102cd610a94565b6040516102da919061428f565b60405180910390f35b6102fd60048036038101906102f891906142dd565b610b26565b60405161030a919061431d565b60405180910390f35b61032d60048036038101906103289190614338565b610b4b565b60405161033a9190614378565b60405180910390f35b61035d600480360381019061035891906142dd565b610b6e565b60405161036a9190614378565b60405180910390f35b61037b610b9d565b604051610388919061431d565b60405180910390f35b6103ab60048036038101906103a69190614393565b610ba7565b6040516103b89190614378565b60405180910390f35b6103c9610bd6565b6040516103d6919061431d565b60405180910390f35b6103f960048036038101906103f491906140f1565b610be3565b60405161040994939291906143e6565b60405180910390f35b61041a610da6565b604051610427919061444e565b60405180910390f35b610438610daf565b604051610445919061431d565b60405180910390f35b610468600480360381019061046391906140f1565b610dbe565b005b610484600480360381019061047f9190614495565b610edd565b005b6104a0600480360381019061049b91906142dd565b6111c8565b6040516104ad9190614378565b60405180910390f35b6104d060048036038101906104cb91906142dd565b6111f7565b6040516104dd9190614378565b60405180910390f35b61050060048036038101906104fb91906140f1565b611226565b60405161050d919061431d565b60405180910390f35b61051e61129e565b60405161052b919061431d565b60405180910390f35b61054e600480360381019061054991906144d5565b6112ab565b60405161055b9190614378565b60405180910390f35b61057e600480360381019061057991906140f1565b611301565b60405161058b919061451b565b60405180910390f35b6105ae60048036038101906105a9919061459b565b611391565b005b6105ca60048036038101906105c591906144d5565b611579565b6040516105d7919061431d565b60405180910390f35b6105fa60048036038101906105f591906140f1565b6115c1565b6040516106089291906146b9565b60405180910390f35b61061961166b565b005b610635600480360381019061063091906140f1565b61167f565b604051610642919061431d565b60405180910390f35b610665600480360381019061066091906140f1565b611697565b6040516106729190614378565b60405180910390f35b610695600480360381019061069091906140f1565b6116d3565b005b6106b160048036038101906106ac91906140f1565b611adc565b6040516106c3969594939291906146e9565b60405180910390f35b6106e660048036038101906106e191906140f1565b611bd0565b6040516106f39190614751565b60405180910390f35b610716600480360381019061071191906144d5565b611c1f565b6040516107239190614378565b60405180910390f35b610734611c3f565b6040516107419190614751565b60405180910390f35b610764600480360381019061075f91906140f1565b611c69565b6040516107719190614751565b60405180910390f35b610782611cb8565b60405161078f919061428f565b60405180910390f35b6107a0611d4a565b6040516107ad91906147cb565b60405180910390f35b6107d060048036038101906107cb9190614338565b611d70565b005b6107ec60048036038101906107e791906144d5565b611fc7565b6040516107f99190614378565b60405180910390f35b61081c6004803603810190610817919061483c565b611fe7565b604051610829919061431d565b60405180910390f35b61084c60048036038101906108479190614338565b6124a5565b6040516108599190614378565b60405180910390f35b61087c600480360381019061087791906140f1565b6125e8565b005b610898600480360381019061089391906140f1565b6126cc565b005b6108a26129d2565b6040516108af919061431d565b60405180910390f35b6108d260048036038101906108cd9190614905565b612a3f565b6040516108df919061431d565b60405180910390f35b6108f0612ac6565b005b61090c60048036038101906109079190614945565b612c18565b604051610919919061431d565b60405180910390f35b61093c60048036038101906109379190614495565b61303d565b005b610958600480360381019061095391906144d5565b61341c565b005b610974600480360381019061096f91906140f1565b6134a2565b60405161098494939291906149cd565b60405180910390f35b6009818154811061099d57600080fd5b90600052602060002090600902016000915090508060000180546109c090614a56565b80601f01602080910402602001604051908101604052809291908181526020018280546109ec90614a56565b8015610a395780601f10610a0e57610100808354040283529160200191610a39565b820191906000526020600020905b815481529060010190602001808311610a1c57829003601f168201915b5050505050908060010154908060040160009054906101000a900473ffffffffffffffffffffffffffffffffffffffff16908060050154908060060160009054906101000a900460ff16908060070154908060080154905087565b606060038054610aa390614a56565b80601f0160208091040260200160405190810160405280929190818152602001828054610acf90614a56565b8015610b1c5780601f10610af157610100808354040283529160200191610b1c565b820191906000526020600020905b815481529060010190602001808311610aff57829003601f168201915b5050505050905090565b600b602052816000526040600020602052806000526040600020600091509150505481565b600080610b566136da565b9050610b638185856136e2565b600191505092915050565b600e6020528160005260406000206020528060005260406000206000915091509054906101000a900460ff1681565b6000600254905090565b600080610bb26136da565b9050610bbf8582856136f4565b610bca858585613789565b60019150509392505050565b6000600980549050905090565b606060008060008060088681548110610bff57610bfe614a87565b5b90600052602060002090600702016040518060e0016040529081600082018054610c2890614a56565b80601f0160208091040260200160405190810160405280929190818152602001828054610c5490614a56565b8015610ca15780601f10610c7657610100808354040283529160200191610ca1565b820191906000526020600020905b815481529060010190602001808311610c8457829003601f168201915b505050505081526020016001820154815260200160028201548152602001600382015481526020016004820160009054906101000a900473ffffffffffffffffffffffffffffffffffffffff1673ffffffffffffffffffffffffffffffffffffffff1673ffffffffffffffffffffffffffffffffffffffff16815260200160058201805480602002602001604051908101604052809291908181526020018280548015610d6d57602002820191906000526020600020905b815481526020019060010190808311610d59575b50505050508152602001600682015481525050905080600001518160200151826040015183606001519450945094509450509193509193565b60006012905090565b6a084595161401484a00000081565b80610dc833611579565b1015610e09576040517f08c379a0000000000000000000000000000000000000000000000000000000008152600401610e0090614b28565b60405180910390fd5b610e13338261387d565b15610e53576040517f08c379a0000000000000000000000000000000000000000000000000000000008152600401610e4a90614c06565b60405180910390fd5b670de0b6b3a764000081610e6633611579565b610e709190614c55565b1015610ecf576000600f60003373ffffffffffffffffffffffffffffffffffffffff1673ffffffffffffffffffffffffffffffffffffffff16815260200190815260200160002060006101000a81548160ff0219169083151502179055505b610eda333083613789565b50565b610ee6336112ab565b610f25576040517f08c379a0000000000000000000000000000000000000000000000000000000008152600401610f1c90614cd5565b60405180910390fd5b600e600083815260200190815260200160002060003373ffffffffffffffffffffffffffffffffffffffff1673ffffffffffffffffffffffffffffffffffffffff16815260200190815260200160002060009054906101000a900460ff1615610fc3576040517f08c379a0000000000000000000000000000000000000000000000000000000008152600401610fba90614d41565b60405180910390fd5b60098281548110610fd757610fd6614a87565b5b906000526020600020906009020160010154421061102a576040517f08c379a000000000000000000000000000000000000000000000000000000000815260040161102190614dad565b60405180910390fd5b6009828154811061103e5761103d614a87565b5b906000526020600020906009020160060160009054906101000a900460ff1661109c576040517f08c379a000000000000000000000000000000000000000000000000000000000815260040161109390614e19565b60405180910390fd5b600982815481106110b0576110af614a87565b5b906000526020600020906009020160030180549050600983815481106110d9576110d8614a87565b5b9060005260206000209060090201600801541061112b576040517f08c379a000000000000000000000000000000000000000000000000000000000815260040161112290614e85565b60405180910390fd5b6001600e600084815260200190815260200160002060003373ffffffffffffffffffffffffffffffffffffffff1673ffffffffffffffffffffffffffffffffffffffff16815260200190815260200160002060006101000a81548160ff02191690831515021790555080156111c457600d600083815260200190815260200160002060008154809291906111be90614ea5565b91905055505b5050565b600a6020528160005260406000206020528060005260406000206000915091509054906101000a900460ff1681565b600c6020528160005260406000206020528060005260406000206000915091509054906101000a900460ff1681565b6000806009838154811061123d5761123c614a87565b5b9060005260206000209060090201905060005b81600801548110156112975781600201818154811061127257611271614a87565b5b9060005260206000200154836112889190614eed565b92508080600101915050611250565b5050919050565b6000600880549050905090565b6000600f60008373ffffffffffffffffffffffffffffffffffffffff1673ffffffffffffffffffffffffffffffffffffffff16815260200190815260200160002060009054906101000a900460ff169050919050565b6000806009838154811061131857611317614a87565b5b906000526020600020906009020190508060030180549050816008015410611363577fffffffffffffffffffffffffffffffffffffffffffffffffffffffffffffffff91505061138c565b8060030181600801548154811061137d5761137c614a87565b5b90600052602060002001549150505b919050565b61139a336112ab565b6113d9576040517f08c379a00000000000000000000000000000000000000000000000000000000081526004016113d090614f6d565b60405180910390fd5b6000600884815481106113ef576113ee614a87565b5b9060005260206000209060070201905080600101544210611445576040517f08c379a000000000000000000000000000000000000000000000000000000000815260040161143c90614dad565b60405180910390fd5b806003015483839050111561148f576040517f08c379a000000000000000000000000000000000000000000000000000000000815260040161148690614fd9565b60405180910390fd5b60005b838390508110156115585781600201548484838181106114b5576114b4614a87565b5b90506020020135106114fc576040517f08c379a00000000000000000000000000000000000000000000000000000000081526004016114f390615045565b60405180910390fd5b8160050184848381811061151357611512614a87565b5b905060200201358154811061152b5761152a614a87565b5b90600052602060002001600081548092919061154690614ea5565b91905055508080600101915050611492565b5080600601600081548092919061156e90614ea5565b919050555050505050565b60008060008373ffffffffffffffffffffffffffffffffffffffff1673ffffffffffffffffffffffffffffffffffffffff168152602001908152602001600020549050919050565b60006060600883815481106115d9576115d8614a87565b5b906000526020600020906007020160060154600884815481106115ff576115fe614a87565b5b90600052602060002090600702016005018080548060200260200160405190810160405280929190818152602001828054801561165b57602002820191906000526020600020905b815481526020019060010190808311611647575b5050505050905091509150915091565b611673613a4d565b61167d6000613ad4565b565b600d6020528060005260406000206000915090505481565b6000600982815481106116ad576116ac614a87565b5b906000526020600020906009020160060160009054906101000a900460ff169050919050565b6000600982815481106116e9576116e8614a87565b5b906000526020600020906009020190508060060160009054906101000a900460ff16801561176657508060040160009054906101000a900473ffffffffffffffffffffffffffffffffffffffff1673ffffffffffffffffffffffffffffffffffffffff163373ffffffffffffffffffffffffffffffffffffffff16145b6117a5576040517f08c379a000000000000000000000000000000000000000000000000000000000815260040161179c906150b1565b60405180910390fd5b80600301805490508160080154106117f2576040517f08c379a00000000000000000000000000000000000000000000000000000000081526004016117e99061511d565b60405180910390fd5b8060030181600801548154811061180c5761180b614a87565b5b906000526020600020015481600701546118269190614eed565b421015611868576040517f08c379a000000000000000000000000000000000000000000000000000000000815260040161185f90615189565b60405180910390fd5b611870613b9a565b6064600d60008581526020019081526020016000205461189091906151a9565b10156118d1576040517f08c379a00000000000000000000000000000000000000000000000000000000081526004016118c890615237565b60405180910390fd5b600660009054906101000a900473ffffffffffffffffffffffffffffffffffffffff1673ffffffffffffffffffffffffffffffffffffffff1663a9059cbb8260040160009054906101000a900473ffffffffffffffffffffffffffffffffffffffff168360020184600801548154811061194e5761194d614a87565b5b90600052602060002001546040518363ffffffff1660e01b8152600401611976929190615257565b6020604051808303816000875af1158015611995573d6000803e3d6000fd5b505050506040513d601f19601f820116820180604052508101906119b99190615295565b508060080160008154809291906119cf90614ea5565b91905055506000600d60008481526020019081526020016000208190555060005b600980549050811015611ad757600e600084815260200190815260200160002060003373ffffffffffffffffffffffffffffffffffffffff1673ffffffffffffffffffffffffffffffffffffffff16815260200190815260200160002060009054906101000a900460ff1615611aca576000600e600085815260200190815260200160002060003373ffffffffffffffffffffffffffffffffffffffff1673ffffffffffffffffffffffffffffffffffffffff16815260200190815260200160002060006101000a81548160ff0219169083151502179055505b80806001019150506119f0565b505050565b60088181548110611aec57600080fd5b9060005260206000209060070201600091509050806000018054611b0f90614a56565b80601f0160208091040260200160405190810160405280929190818152602001828054611b3b90614a56565b8015611b885780601f10611b5d57610100808354040283529160200191611b88565b820191906000526020600020905b815481529060010190602001808311611b6b57829003601f168201915b5050505050908060010154908060020154908060030154908060040160009054906101000a900473ffffffffffffffffffffffffffffffffffffffff16908060060154905086565b600060088281548110611be657611be5614a87565b5b906000526020600020906007020160040160009054906101000a900473ffffffffffffffffffffffffffffffffffffffff169050919050565b60076020528060005260406000206000915054906101000a900460ff1681565b6000600560009054906101000a900473ffffffffffffffffffffffffffffffffffffffff16905090565b600060098281548110611c7f57611c7e614a87565b5b906000526020600020906009020160040160009054906101000a900473ffffffffffffffffffffffffffffffffffffffff169050919050565b606060048054611cc790614a56565b80601f0160208091040260200160405190810160405280929190818152602001828054611cf390614a56565b8015611d405780601f10611d1557610100808354040283529160200191611d40565b820191906000526020600020905b815481529060010190602001808311611d2357829003601f168201915b5050505050905090565b600660009054906101000a900473ffffffffffffffffffffffffffffffffffffffff1681565b600a600082815260200190815260200160002060003373ffffffffffffffffffffffffffffffffffffffff1673ffffffffffffffffffffffffffffffffffffffff16815260200190815260200160002060009054906101000a900460ff1615611e0e576040517f08c379a0000000000000000000000000000000000000000000000000000000008152600401611e059061530e565b60405180910390fd5b600c600082815260200190815260200160002060003373ffffffffffffffffffffffffffffffffffffffff1673ffffffffffffffffffffffffffffffffffffffff16815260200190815260200160002060009054906101000a900460ff1615611eac576040517f08c379a0000000000000000000000000000000000000000000000000000000008152600401611ea39061537a565b60405180910390fd5b611eb5826112ab565b611ef4576040517f08c379a0000000000000000000000000000000000000000000000000000000008152600401611eeb9061540c565b60405180910390fd5b6001600c600083815260200190815260200160002060003373ffffffffffffffffffffffffffffffffffffffff1673ffffffffffffffffffffffffffffffffffffffff16815260200190815260200160002060006101000a81548160ff021916908315150217905550600b600082815260200190815260200160002060008373ffffffffffffffffffffffffffffffffffffffff1673ffffffffffffffffffffffffffffffffffffffff1681526020019081526020016000206000815480929190611fbe90614ea5565b91905055505050565b600f6020528060005260406000206000915054906101000a900460ff1681565b6000611ff2336112ab565b612031576040517f08c379a00000000000000000000000000000000000000000000000000000000081526004016120289061549e565b60405180910390fd5b674563918244f4000061204333611579565b1015612084576040517f08c379a000000000000000000000000000000000000000000000000000000000815260040161207b9061550a565b60405180910390fd5b61209633674563918244f4000061387d565b156120d6576040517f08c379a00000000000000000000000000000000000000000000000000000000081526004016120cd90614c06565b60405180910390fd5b600660009054906101000a900473ffffffffffffffffffffffffffffffffffffffff1673ffffffffffffffffffffffffffffffffffffffff166323b872dd333068d8d726b7177a8000006040518463ffffffff1660e01b815260040161213e93929190615565565b6020604051808303816000875af115801561215d573d6000803e3d6000fd5b505050506040513d601f19601f820116820180604052508101906121819190615295565b6121c0576040517f08c379a00000000000000000000000000000000000000000000000000000000081526004016121b7906155e8565b60405180910390fd5b670de0b6b3a7640000674563918244f400006121db33611579565b6121e59190614c55565b1015612244576000600f60003373ffffffffffffffffffffffffffffffffffffffff1673ffffffffffffffffffffffffffffffffffffffff16815260200190815260200160002060006101000a81548160ff0219169083151502179055505b6122573330674563918244f40000613789565b60096040518061012001604052808a8a8080601f016020809104026020016040519081016040528093929190818152602001838380828437600081840152601f19601f820116905080830192505050505050508152602001888152602001878780806020026020016040519081016040528093929190818152602001838360200280828437600081840152601f19601f820116905080830192505050505050508152602001858580806020026020016040519081016040528093929190818152602001838360200280828437600081840152601f19601f8201169050808301925050505050505081526020013373ffffffffffffffffffffffffffffffffffffffff16815260200160008152602001600015158152602001600081526020016000815250908060018154018082558091505060019003906000526020600020906009020160009091909190915060008201518160000190816123b991906157d9565b506020820151816001015560408201518160020190805190602001906123e0929190614047565b5060608201518160030190805190602001906123fd929190614047565b5060808201518160040160006101000a81548173ffffffffffffffffffffffffffffffffffffffff021916908373ffffffffffffffffffffffffffffffffffffffff16021790555060a0820151816005015560c08201518160060160006101000a81548160ff02191690831515021790555060e082015181600701556101008201518160080155505060016009805490506124989190614c55565b9050979650505050505050565b60006124b1338361387d565b156124f1576040517f08c379a00000000000000000000000000000000000000000000000000000000081526004016124e890614c06565b60405180910390fd5b670de0b6b3a764000082111561255a576001600f60008573ffffffffffffffffffffffffffffffffffffffff1673ffffffffffffffffffffffffffffffffffffffff16815260200190815260200160002060006101000a81548160ff0219169083151502179055505b670de0b6b3a76400008261256d33611579565b6125779190614c55565b10156125d6576000600f60003373ffffffffffffffffffffffffffffffffffffffff1673ffffffffffffffffffffffffffffffffffffffff16815260200190815260200160002060006101000a81548160ff0219169083151502179055505b6125e08383613c28565b905092915050565b600660009054906101000a900473ffffffffffffffffffffffffffffffffffffffff1673ffffffffffffffffffffffffffffffffffffffff166323b872dd3330846040518463ffffffff1660e01b8152600401612647939291906158ab565b6020604051808303816000875af1158015612666573d6000803e3d6000fd5b505050506040513d601f19601f8201168201806040525081019061268a9190615295565b6126c9576040517f08c379a00000000000000000000000000000000000000000000000000000000081526004016126c090615954565b60405180910390fd5b50565b6000600982815481106126e2576126e1614a87565b5b906000526020600020906009020190508060040160009054906101000a900473ffffffffffffffffffffffffffffffffffffffff1673ffffffffffffffffffffffffffffffffffffffff163373ffffffffffffffffffffffffffffffffffffffff1614612784576040517f08c379a000000000000000000000000000000000000000000000000000000000815260040161277b906159c0565b60405180910390fd5b806001015442106127ca576040517f08c379a00000000000000000000000000000000000000000000000000000000081526004016127c190614dad565b60405180910390fd5b8060060160009054906101000a900460ff161561281c576040517f08c379a000000000000000000000000000000000000000000000000000000000815260040161281390615a2c565b60405180910390fd5b612824613b9a565b600a826005015461283591906151a9565b1015612876576040517f08c379a000000000000000000000000000000000000000000000000000000000815260040161286d90615a98565b60405180910390fd5b600080600090505b82600201805490508110156128c8578260020181815481106128a3576128a2614a87565b5b9060005260206000200154826128b99190614eed565b9150808060010191505061287e565b5080600660009054906101000a900473ffffffffffffffffffffffffffffffffffffffff1673ffffffffffffffffffffffffffffffffffffffff166370a08231306040518263ffffffff1660e01b81526004016129259190614751565b602060405180830381865afa158015612942573d6000803e3d6000fd5b505050506040513d601f19601f820116820180604052508101906129669190615acd565b10156129a7576040517f08c379a000000000000000000000000000000000000000000000000000000000815260040161299e90615b46565b60405180910390fd5b60018260060160006101000a81548160ff021916908315150217905550428260070181905550505050565b600080600090505b600980549050811015612a3b57600981815481106129fb576129fa614a87565b5b906000526020600020906009020160060160009054906101000a900460ff1615612a2e578180612a2a90614ea5565b9250505b80806001019150506129da565b5090565b6000600160008473ffffffffffffffffffffffffffffffffffffffff1673ffffffffffffffffffffffffffffffffffffffff16815260200190815260200160002060008373ffffffffffffffffffffffffffffffffffffffff1673ffffffffffffffffffffffffffffffffffffffff16815260200190815260200160002054905092915050565b600760003373ffffffffffffffffffffffffffffffffffffffff1673ffffffffffffffffffffffffffffffffffffffff16815260200190815260200160002060009054906101000a900460ff1615612b53576040517f08c379a0000000000000000000000000000000000000000000000000000000008152600401612b4a90615bb2565b60405180910390fd5b612b663033670de0b6b3a7640000613789565b6001600f60003373ffffffffffffffffffffffffffffffffffffffff1673ffffffffffffffffffffffffffffffffffffffff16815260200190815260200160002060006101000a81548160ff0219169083151502179055506001600760003373ffffffffffffffffffffffffffffffffffffffff1673ffffffffffffffffffffffffffffffffffffffff16815260200190815260200160002060006101000a81548160ff021916908315150217905550565b600080671bc16d674ec8000090506000683635c9adc5dea000009050612c3d336112ab565b612c7c576040517f08c379a0000000000000000000000000000000000000000000000000000000008152600401612c7390615c1e565b60405180910390fd5b81612c8633611579565b1015612cc7576040517f08c379a0000000000000000000000000000000000000000000000000000000008152600401612cbe90615c8a565b60405180910390fd5b612cd1338361387d565b15612d11576040517f08c379a0000000000000000000000000000000000000000000000000000000008152600401612d0890614c06565b60405180910390fd5b600660009054906101000a900473ffffffffffffffffffffffffffffffffffffffff1673ffffffffffffffffffffffffffffffffffffffff166323b872dd3330846040518463ffffffff1660e01b8152600401612d70939291906158ab565b6020604051808303816000875af1158015612d8f573d6000803e3d6000fd5b505050506040513d601f19601f82011682018060405250810190612db39190615295565b612df2576040517f08c379a0000000000000000000000000000000000000000000000000000000008152600401612de990615d1c565b60405180910390fd5b670de0b6b3a764000082612e0533611579565b612e0f9190614c55565b1015612e6e576000600f60003373ffffffffffffffffffffffffffffffffffffffff1673ffffffffffffffffffffffffffffffffffffffff16815260200190815260200160002060006101000a81548160ff0219169083151502179055505b612e79333084613789565b60086040518060e001604052808a8a8080601f016020809104026020016040519081016040528093929190818152602001838380828437600081840152601f19601f8201169050808301925050505050505081526020018881526020018781526020018681526020013373ffffffffffffffffffffffffffffffffffffffff1681526020018767ffffffffffffffff811115612f1857612f17615608565b5b604051908082528060200260200182016040528015612f465781602001602082028036833780820191505090505b508152602001600081525090806001815401808255809150506001900390600052602060002090600702016000909190919091506000820151816000019081612f8f91906157d9565b5060208201518160010155604082015181600201556060820151816003015560808201518160040160006101000a81548173ffffffffffffffffffffffffffffffffffffffff021916908373ffffffffffffffffffffffffffffffffffffffff16021790555060a0820151816005019080519060200190613011929190614047565b5060c08201518160060155505060016008805490506130309190614c55565b9250505095945050505050565b613046336112ab565b613085576040517f08c379a000000000000000000000000000000000000000000000000000000000815260040161307c90614cd5565b60405180910390fd5b600a600083815260200190815260200160002060003373ffffffffffffffffffffffffffffffffffffffff1673ffffffffffffffffffffffffffffffffffffffff16815260200190815260200160002060009054906101000a900460ff16158061313f57506000600b600084815260200190815260200160002060003373ffffffffffffffffffffffffffffffffffffffff1673ffffffffffffffffffffffffffffffffffffffff16815260200190815260200160002054115b61317e576040517f08c379a000000000000000000000000000000000000000000000000000000000815260040161317590615d88565b60405180910390fd5b6009828154811061319257613191614a87565b5b906000526020600020906009020160060160009054906101000a900460ff16156131f1576040517f08c379a00000000000000000000000000000000000000000000000000000000081526004016131e890615a2c565b60405180910390fd5b6009828154811061320557613204614a87565b5b9060005260206000209060090201600101544210613258576040517f08c379a000000000000000000000000000000000000000000000000000000000815260040161324f90614dad565b60405180910390fd5b600a600083815260200190815260200160002060003373ffffffffffffffffffffffffffffffffffffffff1673ffffffffffffffffffffffffffffffffffffffff16815260200190815260200160002060009054906101000a900460ff161561336d576001600b600084815260200190815260200160002060003373ffffffffffffffffffffffffffffffffffffffff1673ffffffffffffffffffffffffffffffffffffffff168152602001908152602001600020546133189190614c55565b600b600084815260200190815260200160002060003373ffffffffffffffffffffffffffffffffffffffff1673ffffffffffffffffffffffffffffffffffffffff168152602001908152602001600020819055505b80156133af576009828154811061338757613386614a87565b5b906000526020600020906009020160050160008154809291906133a990614ea5565b91905055505b6001600a600084815260200190815260200160002060003373ffffffffffffffffffffffffffffffffffffffff1673ffffffffffffffffffffffffffffffffffffffff16815260200190815260200160002060006101000a81548160ff0219169083151502179055505050565b613424613a4d565b600073ffffffffffffffffffffffffffffffffffffffff168173ffffffffffffffffffffffffffffffffffffffff16036134965760006040517f1e4fbdf700000000000000000000000000000000000000000000000000000000815260040161348d9190614751565b60405180910390fd5b61349f81613ad4565b50565b606060006060806000600986815481106134bf576134be614a87565b5b9060005260206000209060090201604051806101200160405290816000820180546134e990614a56565b80601f016020809104026020016040519081016040528092919081815260200182805461351590614a56565b80156135625780601f1061353757610100808354040283529160200191613562565b820191906000526020600020905b81548152906001019060200180831161354557829003601f168201915b5050505050815260200160018201548152602001600282018054806020026020016040519081016040528092919081815260200182805480156135c457602002820191906000526020600020905b8154815260200190600101908083116135b0575b505050505081526020016003820180548060200260200160405190810160405280929190818152602001828054801561361c57602002820191906000526020600020905b815481526020019060010190808311613608575b505050505081526020016004820160009054906101000a900473ffffffffffffffffffffffffffffffffffffffff1673ffffffffffffffffffffffffffffffffffffffff1673ffffffffffffffffffffffffffffffffffffffff168152602001600582015481526020016006820160009054906101000a900460ff1615151515815260200160078201548152602001600882015481525050905080600001518160200151826040015183606001519450945094509450509193509193565b600033905090565b6136ef8383836001613c4b565b505050565b60006137008484612a3f565b90507fffffffffffffffffffffffffffffffffffffffffffffffffffffffffffffffff8110156137835781811015613773578281836040517ffb8f41b200000000000000000000000000000000000000000000000000000000815260040161376a93929190615da8565b60405180910390fd5b61378284848484036000613c4b565b5b50505050565b600073ffffffffffffffffffffffffffffffffffffffff168373ffffffffffffffffffffffffffffffffffffffff16036137fb5760006040517f96c6fd1e0000000000000000000000000000000000000000000000000000000081526004016137f29190614751565b60405180910390fd5b600073ffffffffffffffffffffffffffffffffffffffff168273ffffffffffffffffffffffffffffffffffffffff160361386d5760006040517fec442f050000000000000000000000000000000000000000000000000000000081526004016138649190614751565b60405180910390fd5b613878838383613e22565b505050565b600080600090506000805b60098054905081101561393e57600981815481106138a9576138a8614a87565b5b906000526020600020906009020160010154421080156139235750600a600082815260200190815260200160002060008773ffffffffffffffffffffffffffffffffffffffff1673ffffffffffffffffffffffffffffffffffffffff16815260200190815260200160002060009054906101000a900460ff165b15613931576001925061393e565b8080600101915050613888565b5060005b6009805490508110156139f8576009818154811061396357613962614a87565b5b906000526020600020906009020160010154421080156139dd5750600c600082815260200190815260200160002060008773ffffffffffffffffffffffffffffffffffffffff1673ffffffffffffffffffffffffffffffffffffffff16815260200190815260200160002060009054906101000a900460ff165b156139eb57600191506139f8565b8080600101915050613942565b506000613a0486611579565b905060008582613a149190614c55565b905060008111158015613a2c57508380613a2b5750825b5b15613a3e576001945050505050613a47565b60009450505050505b92915050565b613a556136da565b73ffffffffffffffffffffffffffffffffffffffff16613a73611c3f565b73ffffffffffffffffffffffffffffffffffffffff1614613ad257613a966136da565b6040517f118cdaa7000000000000000000000000000000000000000000000000000000008152600401613ac99190614751565b60405180910390fd5b565b6000600560009054906101000a900473ffffffffffffffffffffffffffffffffffffffff16905081600560006101000a81548173ffffffffffffffffffffffffffffffffffffffff021916908373ffffffffffffffffffffffffffffffffffffffff1602179055508173ffffffffffffffffffffffffffffffffffffffff168173ffffffffffffffffffffffffffffffffffffffff167f8be0079c531659141344cd1fd0a4f28419497f9722a3daafe3b4186f6b6457e060405160405180910390a35050565b6000806000905060005b600880549050811015613c2057613bff60088281548110613bc857613bc7614a87565b5b906000526020600020906007020160040160009054906101000a900473ffffffffffffffffffffffffffffffffffffffff166112ab565b15613c13578180613c0f90614ea5565b9250505b8080600101915050613ba4565b508091505090565b600080613c336136da565b9050613c40818585613789565b600191505092915050565b600073ffffffffffffffffffffffffffffffffffffffff168473ffffffffffffffffffffffffffffffffffffffff1603613cbd5760006040517fe602df05000000000000000000000000000000000000000000000000000000008152600401613cb49190614751565b60405180910390fd5b600073ffffffffffffffffffffffffffffffffffffffff168373ffffffffffffffffffffffffffffffffffffffff1603613d2f5760006040517f94280d62000000000000000000000000000000000000000000000000000000008152600401613d269190614751565b60405180910390fd5b81600160008673ffffffffffffffffffffffffffffffffffffffff1673ffffffffffffffffffffffffffffffffffffffff16815260200190815260200160002060008573ffffffffffffffffffffffffffffffffffffffff1673ffffffffffffffffffffffffffffffffffffffff168152602001908152602001600020819055508015613e1c578273ffffffffffffffffffffffffffffffffffffffff168473ffffffffffffffffffffffffffffffffffffffff167f8c5be1e5ebec7d5bd14f71427d1e84f3dd0314c0f7b2291e5b200ac8c7c3b92584604051613e13919061431d565b60405180910390a35b50505050565b600073ffffffffffffffffffffffffffffffffffffffff168373ffffffffffffffffffffffffffffffffffffffff1603613e74578060026000828254613e689190614eed565b92505081905550613f47565b60008060008573ffffffffffffffffffffffffffffffffffffffff1673ffffffffffffffffffffffffffffffffffffffff16815260200190815260200160002054905081811015613f00578381836040517fe450d38c000000000000000000000000000000000000000000000000000000008152600401613ef793929190615da8565b60405180910390fd5b8181036000808673ffffffffffffffffffffffffffffffffffffffff1673ffffffffffffffffffffffffffffffffffffffff16815260200190815260200160002081905550505b600073ffffffffffffffffffffffffffffffffffffffff168273ffffffffffffffffffffffffffffffffffffffff1603613f905780600260008282540392505081905550613fdd565b806000808473ffffffffffffffffffffffffffffffffffffffff1673ffffffffffffffffffffffffffffffffffffffff168152602001908152602001600020600082825401925050819055505b8173ffffffffffffffffffffffffffffffffffffffff168373ffffffffffffffffffffffffffffffffffffffff167fddf252ad1be2c89b69c2b068fc378daa952ba7f163c4a11628f55a4df523b3ef8360405161403a919061431d565b60405180910390a3505050565b828054828255906000526020600020908101928215614083579160200282015b82811115614082578251825591602001919060010190614067565b5b5090506140909190614094565b5090565b5b808211156140ad576000816000905550600101614095565b5090565b600080fd5b600080fd5b6000819050919050565b6140ce816140bb565b81146140d957600080fd5b50565b6000813590506140eb816140c5565b92915050565b600060208284031215614107576141066140b1565b5b6000614115848285016140dc565b91505092915050565b600081519050919050565b600082825260208201905092915050565b60005b8381101561415857808201518184015260208101905061413d565b60008484015250505050565b6000601f19601f8301169050919050565b60006141808261411e565b61418a8185614129565b935061419a81856020860161413a565b6141a381614164565b840191505092915050565b6141b7816140bb565b82525050565b600073ffffffffffffffffffffffffffffffffffffffff82169050919050565b60006141e8826141bd565b9050919050565b6141f8816141dd565b82525050565b60008115159050919050565b614213816141fe565b82525050565b600060e0820190508181036000830152614233818a614175565b905061424260208301896141ae565b61424f60408301886141ef565b61425c60608301876141ae565b614269608083018661420a565b61427660a08301856141ae565b61428360c08301846141ae565b98975050505050505050565b600060208201905081810360008301526142a98184614175565b905092915050565b6142ba816141dd565b81146142c557600080fd5b50565b6000813590506142d7816142b1565b92915050565b600080604083850312156142f4576142f36140b1565b5b6000614302858286016140dc565b9250506020614313858286016142c8565b9150509250929050565b600060208201905061433260008301846141ae565b92915050565b6000806040838503121561434f5761434e6140b1565b5b600061435d858286016142c8565b925050602061436e858286016140dc565b9150509250929050565b600060208201905061438d600083018461420a565b92915050565b6000806000606084860312156143ac576143ab6140b1565b5b60006143ba868287016142c8565b93505060206143cb868287016142c8565b92505060406143dc868287016140dc565b9150509250925092565b600060808201905081810360008301526144008187614175565b905061440f60208301866141ae565b61441c60408301856141ae565b61442960608301846141ae565b95945050505050565b600060ff82169050919050565b61444881614432565b82525050565b6000602082019050614463600083018461443f565b92915050565b614472816141fe565b811461447d57600080fd5b50565b60008135905061448f81614469565b92915050565b600080604083850312156144ac576144ab6140b1565b5b60006144ba858286016140dc565b92505060206144cb85828601614480565b9150509250929050565b6000602082840312156144eb576144ea6140b1565b5b60006144f9848285016142c8565b91505092915050565b6000819050919050565b61451581614502565b82525050565b6000602082019050614530600083018461450c565b92915050565b600080fd5b600080fd5b600080fd5b60008083601f84011261455b5761455a614536565b5b8235905067ffffffffffffffff8111156145785761457761453b565b5b60208301915083602082028301111561459457614593614540565b5b9250929050565b6000806000604084860312156145b4576145b36140b1565b5b60006145c2868287016140dc565b935050602084013567ffffffffffffffff8111156145e3576145e26140b6565b5b6145ef86828701614545565b92509250509250925092565b600081519050919050565b600082825260208201905092915050565b6000819050602082019050919050565b614630816140bb565b82525050565b60006146428383614627565b60208301905092915050565b6000602082019050919050565b6000614666826145fb565b6146708185614606565b935061467b83614617565b8060005b838110156146ac5781516146938882614636565b975061469e8361464e565b92505060018101905061467f565b5085935050505092915050565b60006040820190506146ce60008301856141ae565b81810360208301526146e0818461465b565b90509392505050565b600060c08201905081810360008301526147038189614175565b905061471260208301886141ae565b61471f60408301876141ae565b61472c60608301866141ae565b61473960808301856141ef565b61474660a08301846141ae565b979650505050505050565b600060208201905061476660008301846141ef565b92915050565b6000819050919050565b600061479161478c614787846141bd565b61476c565b6141bd565b9050919050565b60006147a382614776565b9050919050565b60006147b582614798565b9050919050565b6147c5816147aa565b82525050565b60006020820190506147e060008301846147bc565b92915050565b60008083601f8401126147fc576147fb614536565b5b8235905067ffffffffffffffff8111156148195761481861453b565b5b60208301915083600182028301111561483557614834614540565b5b9250929050565b60008060008060008060006080888a03121561485b5761485a6140b1565b5b600088013567ffffffffffffffff811115614879576148786140b6565b5b6148858a828b016147e6565b975097505060206148988a828b016140dc565b955050604088013567ffffffffffffffff8111156148b9576148b86140b6565b5b6148c58a828b01614545565b9450945050606088013567ffffffffffffffff8111156148e8576148e76140b6565b5b6148f48a828b01614545565b925092505092959891949750929550565b6000806040838503121561491c5761491b6140b1565b5b600061492a858286016142c8565b925050602061493b858286016142c8565b9150509250929050565b600080600080600060808688031215614961576149606140b1565b5b600086013567ffffffffffffffff81111561497f5761497e6140b6565b5b61498b888289016147e6565b9550955050602061499e888289016140dc565b93505060406149af888289016140dc565b92505060606149c0888289016140dc565b9150509295509295909350565b600060808201905081810360008301526149e78187614175565b90506149f660208301866141ae565b8181036040830152614a08818561465b565b90508181036060830152614a1c818461465b565b905095945050505050565b7f4e487b7100000000000000000000000000000000000000000000000000000000600052602260045260246000fd5b60006002820490506001821680614a6e57607f821691505b602082108103614a8157614a80614a27565b5b50919050565b7f4e487b7100000000000000000000000000000000000000000000000000000000600052603260045260246000fd5b7f4e6f7420656e6f756768204d474f5620746f6b656e7320666f7220646f6e617460008201527f696f6e0000000000000000000000000000000000000000000000000000000000602082015250565b6000614b12602383614129565b9150614b1d82614ab6565b604082019050919050565b60006020820190508181036000830152614b4181614b05565b9050919050565b7f53696e63652074686973207472616e7366657220656e647320796f7572206d6560008201527f6d626572736869702064756520746f2062616c616e636520616e6420796f752060208201527f6861766520756e66696e697368656420766f74696e672c2070726f636573732060408201527f69732063616e63656c6c65642e00000000000000000000000000000000000000606082015250565b6000614bf0606d83614129565b9150614bfb82614b48565b608082019050919050565b60006020820190508181036000830152614c1f81614be3565b9050919050565b7f4e487b7100000000000000000000000000000000000000000000000000000000600052601160045260246000fd5b6000614c60826140bb565b9150614c6b836140bb565b9250828203905081811115614c8357614c82614c26565b5b92915050565b7f4f6e6c79206d656d626572732063616e20766f74650000000000000000000000600082015250565b6000614cbf601583614129565b9150614cca82614c89565b602082019050919050565b60006020820190508181036000830152614cee81614cb2565b9050919050565b7f416c726561647920766f74656420666f722074686973207061796d656e740000600082015250565b6000614d2b601e83614129565b9150614d3682614cf5565b602082019050919050565b60006020820190508181036000830152614d5a81614d1e565b9050919050565b7f4578706972656400000000000000000000000000000000000000000000000000600082015250565b6000614d97600783614129565b9150614da282614d61565b602082019050919050565b60006020820190508181036000830152614dc681614d8a565b9050919050565b7f50726f6a656374206e6f742066756e6465640000000000000000000000000000600082015250565b6000614e03601283614129565b9150614e0e82614dcd565b602082019050919050565b60006020820190508181036000830152614e3281614df6565b9050919050565b7f416c6c207061796d656e7473206d616465000000000000000000000000000000600082015250565b6000614e6f601183614129565b9150614e7a82614e39565b602082019050919050565b60006020820190508181036000830152614e9e81614e62565b9050919050565b6000614eb0826140bb565b91507fffffffffffffffffffffffffffffffffffffffffffffffffffffffffffffffff8203614ee257614ee1614c26565b5b600182019050919050565b6000614ef8826140bb565b9150614f03836140bb565b9250828201905080821115614f1b57614f1a614c26565b5b92915050565b7f4f6e6c79206d656d626572732063616e2074616b652073757276657973000000600082015250565b6000614f57601d83614129565b9150614f6282614f21565b602082019050919050565b60006020820190508181036000830152614f8681614f4a565b9050919050565b7f546f6f206d616e792063686f6963657300000000000000000000000000000000600082015250565b6000614fc3601083614129565b9150614fce82614f8d565b602082019050919050565b60006020820190508181036000830152614ff281614fb6565b9050919050565b7f496e76616c69642063686f696365000000000000000000000000000000000000600082015250565b600061502f600e83614129565b915061503a82614ff9565b602082019050919050565b6000602082019050818103600083015261505e81615022565b9050919050565b7f556e617574686f72697a65640000000000000000000000000000000000000000600082015250565b600061509b600c83614129565b91506150a682615065565b602082019050919050565b600060208201905081810360008301526150ca8161508e565b9050919050565b7f416c6c2070616964000000000000000000000000000000000000000000000000600082015250565b6000615107600883614129565b9150615112826150d1565b602082019050919050565b60006020820190508181036000830152615136816150fa565b9050919050565b7f4e6f742064756520796574000000000000000000000000000000000000000000600082015250565b6000615173600b83614129565b915061517e8261513d565b602082019050919050565b600060208201905081810360008301526151a281615166565b9050919050565b60006151b4826140bb565b91506151bf836140bb565b92508282026151cd816140bb565b915082820484148315176151e4576151e3614c26565b5b5092915050565b7f4e6f7420656e6f75676820766f74657320666f72207061796d656e7400000000600082015250565b6000615221601c83614129565b915061522c826151eb565b602082019050919050565b6000602082019050818103600083015261525081615214565b9050919050565b600060408201905061526c60008301856141ef565b61527960208301846141ae565b9392505050565b60008151905061528f81614469565b92915050565b6000602082840312156152ab576152aa6140b1565b5b60006152b984828501615280565b91505092915050565b7f416c726561647920766f74656400000000000000000000000000000000000000600082015250565b60006152f8600d83614129565b9150615303826152c2565b602082019050919050565b60006020820190508181036000830152615327816152eb565b9050919050565b7f416c72656164792064656c656761746564000000000000000000000000000000600082015250565b6000615364601183614129565b915061536f8261532e565b602082019050919050565b6000602082019050818103600083015261539381615357565b9050919050565b7f596f752063616e6e6f742064656c656761746520746f206e6f6e2d6d656d626560008201527f7200000000000000000000000000000000000000000000000000000000000000602082015250565b60006153f6602183614129565b91506154018261539a565b604082019050919050565b60006020820190508181036000830152615425816153e9565b9050919050565b7f4f6e6c79206d656d626572732063616e207375626d69742070726f6a6563742060008201527f70726f706f73616c730000000000000000000000000000000000000000000000602082015250565b6000615488602983614129565b91506154938261542c565b604082019050919050565b600060208201905081810360008301526154b78161547b565b9050919050565b7f35204d474f5620746f6b656e7320726571756972656400000000000000000000600082015250565b60006154f4601683614129565b91506154ff826154be565b602082019050919050565b60006020820190508181036000830152615523816154e7565b9050919050565b6000819050919050565b600061554f61554a6155458461552a565b61476c565b6140bb565b9050919050565b61555f81615534565b82525050565b600060608201905061557a60008301866141ef565b61558760208301856141ef565b6155946040830184615556565b949350505050565b7f3430303020544c20746f6b656e732072657175697265642e0000000000000000600082015250565b60006155d2601883614129565b91506155dd8261559c565b602082019050919050565b60006020820190508181036000830152615601816155c5565b9050919050565b7f4e487b7100000000000000000000000000000000000000000000000000000000600052604160045260246000fd5b60008190508160005260206000209050919050565b60006020601f8301049050919050565b600082821b905092915050565b6000600883026156997fffffffffffffffffffffffffffffffffffffffffffffffffffffffffffffffff8261565c565b6156a3868361565c565b95508019841693508086168417925050509392505050565b60006156d66156d16156cc846140bb565b61476c565b6140bb565b9050919050565b6000819050919050565b6156f0836156bb565b6157046156fc826156dd565b848454615669565b825550505050565b600090565b61571961570c565b6157248184846156e7565b505050565b5b818110156157485761573d600082615711565b60018101905061572a565b5050565b601f82111561578d5761575e81615637565b6157678461564c565b81016020851015615776578190505b61578a6157828561564c565b830182615729565b50505b505050565b600082821c905092915050565b60006157b060001984600802615792565b1980831691505092915050565b60006157c9838361579f565b9150826002028217905092915050565b6157e28261411e565b67ffffffffffffffff8111156157fb576157fa615608565b5b6158058254614a56565b61581082828561574c565b600060209050601f8311600181146158435760008415615831578287015190505b61583b85826157bd565b8655506158a3565b601f19841661585186615637565b60005b8281101561587957848901518255600182019150602085019450602081019050615854565b868310156158965784890151615892601f89168261579f565b8355505b6001600288020188555050505b505050505050565b60006060820190506158c060008301866141ef565b6158cd60208301856141ef565b6158da60408301846141ae565b949350505050565b7f4e6f7420656e6f75676820544c20746f6b656e7320666f7220646f6e6174696f60008201527f6e00000000000000000000000000000000000000000000000000000000000000602082015250565b600061593e602183614129565b9150615949826158e2565b604082019050919050565b6000602082019050818103600083015261596d81615931565b9050919050565b7f4e6f74206f776e65720000000000000000000000000000000000000000000000600082015250565b60006159aa600983614129565b91506159b582615974565b602082019050919050565b600060208201905081810360008301526159d98161599d565b9050919050565b7f416c72656164792066756e646564000000000000000000000000000000000000600082015250565b6000615a16600e83614129565b9150615a21826159e0565b602082019050919050565b60006020820190508181036000830152615a4581615a09565b9050919050565b7f4e6f7420656e6f75676820766f74657300000000000000000000000000000000600082015250565b6000615a82601083614129565b9150615a8d82615a4c565b602082019050919050565b60006020820190508181036000830152615ab181615a75565b9050919050565b600081519050615ac7816140c5565b92915050565b600060208284031215615ae357615ae26140b1565b5b6000615af184828501615ab8565b91505092915050565b7f4e6f7420656e6f75676820544c00000000000000000000000000000000000000600082015250565b6000615b30600d83614129565b9150615b3b82615afa565b602082019050919050565b60006020820190508181036000830152615b5f81615b23565b9050919050565b7f416c726561647920636c61696d65640000000000000000000000000000000000600082015250565b6000615b9c600f83614129565b9150615ba782615b66565b602082019050919050565b60006020820190508181036000830152615bcb81615b8f565b9050919050565b7f4f6e6c79206d656d626572732063616e207375626d6974207375727665797300600082015250565b6000615c08601f83614129565b9150615c1382615bd2565b602082019050919050565b60006020820190508181036000830152615c3781615bfb565b9050919050565b7f4174206c656173742032204d474f5620746f6b656e7320726571756972656400600082015250565b6000615c74601f83614129565b9150615c7f82615c3e565b602082019050919050565b60006020820190508181036000830152615ca381615c67565b9050919050565b7f4174206c65617374203130303020544c20746f6b656e7320726571756972656460008201527f2e00000000000000000000000000000000000000000000000000000000000000602082015250565b6000615d06602183614129565b9150615d1182615caa565b604082019050919050565b60006020820190508181036000830152615d3581615cf9565b9050919050565b7f596f752068617665206e6f20766f746573206c6566742e000000000000000000600082015250565b6000615d72601783614129565b9150615d7d82615d3c565b602082019050919050565b60006020820190508181036000830152615da181615d65565b9050919050565b6000606082019050615dbd60008301866141ef565b615dca60208301856141ae565b615dd760408301846141ae565b94935050505056fea264697066735822122000a308be5accbec3ba969138595f005dc83e579e88251d46094513141265085f64736f6c634300081c0033",
  "linkReferences": {},
  "deployedLinkReferences": {}
}