{
  "_format": "hh-sol-artifact-1",
  "contractName": "MyGov",
  "sourceName": "contracts/MyGov.sol",
  "abi": [
    {
      "inputs": [
        {
          "internalType": "address",
          "name": "_tlToken",
          "type": "address"
        }
      ],
      "stateMutability": "nonpayable",
      "type": "constructor"
    },
    {
      "inputs": [
        {
          "internalType": "address",
          "name": "spender",
          "type": "address"
        },
        {
          "internalType": "uint256",
          "name": "allowance",
          "type": "uint256"
        },
        {
          "internalType": "uint256",
          "name": "needed",
          "type": "uint256"
        }
      ],
      "name": "ERC20InsufficientAllowance",
      "type": "error"
    },
    {
      "inputs": [
        {
          "internalType": "address",
          "name": "sender",
          "type": "address"
        },
        {
          "internalType": "uint256",
          "name": "balance",
          "type": "uint256"
        },
        {
          "internalType": "uint256",
          "name": "needed",
          "type": "uint256"
        }
      ],
      "name": "ERC20InsufficientBalance",
      "type": "error"
    },
    {
      "inputs": [
        {
          "internalType": "address",
          "name": "approver",
          "type": "address"
        }
      ],
      "name": "ERC20InvalidApprover",
      "type": "error"
    },
    {
      "inputs": [
        {
          "internalType": "address",
          "name": "receiver",
          "type": "address"
        }
      ],
      "name": "ERC20InvalidReceiver",
      "type": "error"
    },
    {
      "inputs": [
        {
          "internalType": "address",
          "name": "sender",
          "type": "address"
        }
      ],
      "name": "ERC20InvalidSender",
      "type": "error"
    },
    {
      "inputs": [
        {
          "internalType": "address",
          "name": "spender",
          "type": "address"
        }
      ],
      "name": "ERC20InvalidSpender",
      "type": "error"
    },
    {
      "inputs": [
        {
          "internalType": "address",
          "name": "owner",
          "type": "address"
        }
      ],
      "name": "OwnableInvalidOwner",
      "type": "error"
    },
    {
      "inputs": [
        {
          "internalType": "address",
          "name": "account",
          "type": "address"
        }
      ],
      "name": "OwnableUnauthorizedAccount",
      "type": "error"
    },
    {
      "anonymous": false,
      "inputs": [
        {
          "indexed": true,
          "internalType": "address",
          "name": "owner",
          "type": "address"
        },
        {
          "indexed": true,
          "internalType": "address",
          "name": "spender",
          "type": "address"
        },
        {
          "indexed": false,
          "internalType": "uint256",
          "name": "value",
          "type": "uint256"
        }
      ],
      "name": "Approval",
      "type": "event"
    },
    {
      "anonymous": false,
      "inputs": [
        {
          "indexed": true,
          "internalType": "address",
          "name": "previousOwner",
          "type": "address"
        },
        {
          "indexed": true,
          "internalType": "address",
          "name": "newOwner",
          "type": "address"
        }
      ],
      "name": "OwnershipTransferred",
      "type": "event"
    },
    {
      "anonymous": false,
      "inputs": [
        {
          "indexed": true,
          "internalType": "address",
          "name": "from",
          "type": "address"
        },
        {
          "indexed": true,
          "internalType": "address",
          "name": "to",
          "type": "address"
        },
        {
          "indexed": false,
          "internalType": "uint256",
          "name": "value",
          "type": "uint256"
        }
      ],
      "name": "Transfer",
      "type": "event"
    },
    {
      "inputs": [],
      "name": "MAX_SUPPLY",
      "outputs": [
        {
          "internalType": "uint256",
          "name": "",
          "type": "uint256"
        }
      ],
      "stateMutability": "view",
      "type": "function"
    },
    {
      "inputs": [
        {
          "internalType": "address",
          "name": "owner",
          "type": "address"
        },
        {
          "internalType": "address",
          "name": "spender",
          "type": "address"
        }
      ],
      "name": "allowance",
      "outputs": [
        {
          "internalType": "uint256",
          "name": "",
          "type": "uint256"
        }
      ],
      "stateMutability": "view",
      "type": "function"
    },
    {
      "inputs": [
        {
          "internalType": "address",
          "name": "spender",
          "type": "address"
        },
        {
          "internalType": "uint256",
          "name": "value",
          "type": "uint256"
        }
      ],
      "name": "approve",
      "outputs": [
        {
          "internalType": "bool",
          "name": "",
          "type": "bool"
        }
      ],
      "stateMutability": "nonpayable",
      "type": "function"
    },
    {
      "inputs": [
        {
          "internalType": "address",
          "name": "account",
          "type": "address"
        }
      ],
      "name": "balanceOf",
      "outputs": [
        {
          "internalType": "uint256",
          "name": "",
          "type": "uint256"
        }
      ],
      "stateMutability": "view",
      "type": "function"
    },
    {
      "inputs": [],
      "name": "decimals",
      "outputs": [
        {
          "internalType": "uint8",
          "name": "",
          "type": "uint8"
        }
      ],
      "stateMutability": "view",
      "type": "function"
    },
    {
      "inputs": [
        {
          "internalType": "address",
          "name": "memberaddr",
          "type": "address"
        },
        {
          "internalType": "uint256",
          "name": "projectid",
          "type": "uint256"
        }
      ],
      "name": "delegateVoteTo",
      "outputs": [],
      "stateMutability": "nonpayable",
      "type": "function"
    },
    {
      "inputs": [
        {
          "internalType": "uint256",
          "name": "amount",
          "type": "uint256"
        }
      ],
      "name": "donateMyGovToken",
      "outputs": [],
      "stateMutability": "nonpayable",
      "type": "function"
    },
    {
      "inputs": [
        {
          "internalType": "uint256",
          "name": "amount",
          "type": "uint256"
        }
      ],
      "name": "donateTLToken",
      "outputs": [],
      "stateMutability": "nonpayable",
      "type": "function"
    },
    {
      "inputs": [
        {
          "internalType": "uint256",
          "name": "",
          "type": "uint256"
        },
        {
          "internalType": "address",
          "name": "",
          "type": "address"
        }
      ],
      "name": "extraVotes",
      "outputs": [
        {
          "internalType": "uint256",
          "name": "",
          "type": "uint256"
        }
      ],
      "stateMutability": "view",
      "type": "function"
    },
    {
      "inputs": [],
      "name": "faucet",
      "outputs": [],
      "stateMutability": "nonpayable",
      "type": "function"
    },
    {
      "inputs": [
        {
          "internalType": "address",
          "name": "",
          "type": "address"
        }
      ],
      "name": "faucetClaimed",
      "outputs": [
        {
          "internalType": "bool",
          "name": "",
          "type": "bool"
        }
      ],
      "stateMutability": "view",
      "type": "function"
    },
    {
      "inputs": [
        {
          "internalType": "uint256",
          "name": "projectid",
          "type": "uint256"
        }
      ],
      "name": "getIsProjectFunded",
      "outputs": [
        {
          "internalType": "bool",
          "name": "",
          "type": "bool"
        }
      ],
      "stateMutability": "view",
      "type": "function"
    },
    {
      "inputs": [],
      "name": "getNoOfFundedProjects",
      "outputs": [
        {
          "internalType": "uint256",
          "name": "count",
          "type": "uint256"
        }
      ],
      "stateMutability": "view",
      "type": "function"
    },
    {
      "inputs": [],
      "name": "getNoOfProjectProposals",
      "outputs": [
        {
          "internalType": "uint256",
          "name": "",
          "type": "uint256"
        }
      ],
      "stateMutability": "view",
      "type": "function"
    },
    {
      "inputs": [],
      "name": "getNoOfSurveys",
      "outputs": [
        {
          "internalType": "uint256",
          "name": "",
          "type": "uint256"
        }
      ],
      "stateMutability": "view",
      "type": "function"
    },
    {
      "inputs": [
        {
          "internalType": "uint256",
          "name": "activityid",
          "type": "uint256"
        }
      ],
      "name": "getProjectInfo",
      "outputs": [
        {
          "internalType": "string",
          "name": "",
          "type": "string"
        },
        {
          "internalType": "uint256",
          "name": "",
          "type": "uint256"
        },
        {
          "internalType": "uint256[]",
          "name": "",
          "type": "uint256[]"
        },
        {
          "internalType": "uint256[]",
          "name": "",
          "type": "uint256[]"
        }
      ],
      "stateMutability": "view",
      "type": "function"
    },
    {
      "inputs": [
        {
          "internalType": "uint256",
          "name": "projectid",
          "type": "uint256"
        }
      ],
      "name": "getProjectNextTLPayment",
      "outputs": [
        {
          "internalType": "int256",
          "name": "",
          "type": "int256"
        }
      ],
      "stateMutability": "view",
      "type": "function"
    },
    {
      "inputs": [
        {
          "internalType": "uint256",
          "name": "projectid",
          "type": "uint256"
        }
      ],
      "name": "getProjectOwner",
      "outputs": [
        {
          "internalType": "address",
          "name": "",
          "type": "address"
        }
      ],
      "stateMutability": "view",
      "type": "function"
    },
    {
      "inputs": [
        {
          "internalType": "uint256",
          "name": "surveyid",
          "type": "uint256"
        }
      ],
      "name": "getSurveyInfo",
      "outputs": [
        {
          "internalType": "string",
          "name": "",
          "type": "string"
        },
        {
          "internalType": "uint256",
          "name": "",
          "type": "uint256"
        },
        {
          "internalType": "uint256",
          "name": "",
          "type": "uint256"
        },
        {
          "internalType": "uint256",
          "name": "",
          "type": "uint256"
        }
      ],
      "stateMutability": "view",
      "type": "function"
    },
    {
      "inputs": [
        {
          "internalType": "uint256",
          "name": "surveyid",
          "type": "uint256"
        }
      ],
      "name": "getSurveyOwner",
      "outputs": [
        {
          "internalType": "address",
          "name": "",
          "type": "address"
        }
      ],
      "stateMutability": "view",
      "type": "function"
    },
    {
      "inputs": [
        {
          "internalType": "uint256",
          "name": "surveyid",
          "type": "uint256"
        }
      ],
      "name": "getSurveyResults",
      "outputs": [
        {
          "internalType": "uint256",
          "name": "",
          "type": "uint256"
        },
        {
          "internalType": "uint256[]",
          "name": "",
          "type": "uint256[]"
        }
      ],
      "stateMutability": "view",
      "type": "function"
    },
    {
      "inputs": [
        {
          "internalType": "uint256",
          "name": "projectid",
          "type": "uint256"
        }
      ],
      "name": "getTLReceivedByProject",
      "outputs": [
        {
          "internalType": "uint256",
          "name": "total",
          "type": "uint256"
        }
      ],
      "stateMutability": "view",
      "type": "function"
    },
    {
      "inputs": [
        {
          "internalType": "uint256",
          "name": "",
          "type": "uint256"
        },
        {
          "internalType": "address",
          "name": "",
          "type": "address"
        }
      ],
      "name": "hasDelegated",
      "outputs": [
        {
          "internalType": "bool",
          "name": "",
          "type": "bool"
        }
      ],
      "stateMutability": "view",
      "type": "function"
    },
    {
      "inputs": [
        {
          "internalType": "uint256",
          "name": "",
          "type": "uint256"
        },
        {
          "internalType": "address",
          "name": "",
          "type": "address"
        }
      ],
      "name": "hasVoted",
      "outputs": [
        {
          "internalType": "bool",
          "name": "",
          "type": "bool"
        }
      ],
      "stateMutability": "view",
      "type": "function"
    },
    {
      "inputs": [
        {
          "internalType": "uint256",
          "name": "",
          "type": "uint256"
        },
        {
          "internalType": "address",
          "name": "",
          "type": "address"
        }
      ],
      "name": "hasVotedForPayment",
      "outputs": [
        {
          "internalType": "bool",
          "name": "",
          "type": "bool"
        }
      ],
      "stateMutability": "view",
      "type": "function"
    },
    {
      "inputs": [
        {
          "internalType": "address",
          "name": "user",
          "type": "address"
        }
      ],
      "name": "isContractMember",
      "outputs": [
        {
          "internalType": "bool",
          "name": "",
          "type": "bool"
        }
      ],
      "stateMutability": "view",
      "type": "function"
    },
    {
      "inputs": [
        {
          "internalType": "address",
          "name": "",
          "type": "address"
        }
      ],
      "name": "isMember",
      "outputs": [
        {
          "internalType": "bool",
          "name": "",
          "type": "bool"
        }
      ],
      "stateMutability": "view",
      "type": "function"
    },
    {
      "inputs": [],
      "name": "name",
      "outputs": [
        {
          "internalType": "string",
          "name": "",
          "type": "string"
        }
      ],
      "stateMutability": "view",
      "type": "function"
    },
    {
      "inputs": [],
      "name": "owner",
      "outputs": [
        {
          "internalType": "address",
          "name": "",
          "type": "address"
        }
      ],
      "stateMutability": "view",
      "type": "function"
    },
    {
      "inputs": [
        {
          "internalType": "uint256",
          "name": "",
          "type": "uint256"
        }
      ],
      "name": "paymentVotes",
      "outputs": [
        {
          "internalType": "uint256",
          "name": "",
          "type": "uint256"
        }
      ],
      "stateMutability": "view",
      "type": "function"
    },
    {
      "inputs": [
        {
          "internalType": "uint256",
          "name": "",
          "type": "uint256"
        }
      ],
      "name": "proposals",
      "outputs": [
        {
          "internalType": "string",
          "name": "weburl",
          "type": "string"
        },
        {
          "internalType": "uint256",
          "name": "votedeadline",
          "type": "uint256"
        },
        {
          "internalType": "address",
          "name": "owner",
          "type": "address"
        },
        {
          "internalType": "uint256",
          "name": "yesVotes",
          "type": "uint256"
        },
        {
          "internalType": "bool",
          "name": "funded",
          "type": "bool"
        },
        {
          "internalType": "uint256",
          "name": "reservedTime",
          "type": "uint256"
        },
        {
          "internalType": "uint256",
          "name": "lastPaidIndex",
          "type": "uint256"
        }
      ],
      "stateMutability": "view",
      "type": "function"
    },
    {
      "inputs": [],
      "name": "renounceOwnership",
      "outputs": [],
      "stateMutability": "nonpayable",
      "type": "function"
    },
    {
      "inputs": [
        {
          "internalType": "uint256",
          "name": "projectid",
          "type": "uint256"
        }
      ],
      "name": "reserveProjectGrant",
      "outputs": [],
      "stateMutability": "nonpayable",
      "type": "function"
    },
    {
      "inputs": [
        {
          "internalType": "string",
          "name": "weburl",
          "type": "string"
        },
        {
          "internalType": "uint256",
          "name": "votedeadline",
          "type": "uint256"
        },
        {
          "internalType": "uint256[]",
          "name": "paymentamounts",
          "type": "uint256[]"
        },
        {
          "internalType": "uint256[]",
          "name": "payschedule",
          "type": "uint256[]"
        }
      ],
      "name": "submitProjectProposal",
      "outputs": [
        {
          "internalType": "uint256",
          "name": "",
          "type": "uint256"
        }
      ],
      "stateMutability": "nonpayable",
      "type": "function"
    },
    {
      "inputs": [
        {
          "internalType": "string",
          "name": "weburl",
          "type": "string"
        },
        {
          "internalType": "uint256",
          "name": "surveydeadline",
          "type": "uint256"
        },
        {
          "internalType": "uint256",
          "name": "numchoices",
          "type": "uint256"
        },
        {
          "internalType": "uint256",
          "name": "atmostchoices",
          "type": "uint256"
        }
      ],
      "name": "submitSurvey",
      "outputs": [
        {
          "internalType": "uint256",
          "name": "",
          "type": "uint256"
        }
      ],
      "stateMutability": "nonpayable",
      "type": "function"
    },
    {
      "inputs": [
        {
          "internalType": "uint256",
          "name": "",
          "type": "uint256"
        }
      ],
      "name": "surveys",
      "outputs": [
        {
          "internalType": "string",
          "name": "weburl",
          "type": "string"
        },
        {
          "internalType": "uint256",
          "name": "surveydeadline",
          "type": "uint256"
        },
        {
          "internalType": "uint256",
          "name": "numchoices",
          "type": "uint256"
        },
        {
          "internalType": "uint256",
          "name": "atmostchoices",
          "type": "uint256"
        },
        {
          "internalType": "address",
          "name": "owner",
          "type": "address"
        },
        {
          "internalType": "uint256",
          "name": "takerCount",
          "type": "uint256"
        }
      ],
      "stateMutability": "view",
      "type": "function"
    },
    {
      "inputs": [],
      "name": "symbol",
      "outputs": [
        {
          "internalType": "string",
          "name": "",
          "type": "string"
        }
      ],
      "stateMutability": "view",
      "type": "function"
    },
    {
      "inputs": [
        {
          "internalType": "uint256",
          "name": "surveyid",
          "type": "uint256"
        },
        {
          "internalType": "uint256[]",
          "name": "choices",
          "type": "uint256[]"
        }
      ],
      "name": "takeSurvey",
      "outputs": [],
      "stateMutability": "nonpayable",
      "type": "function"
    },
    {
      "inputs": [
        {
          "internalType": "address",
          "name": "to",
          "type": "address"
        },
        {
          "internalType": "uint256",
          "name": "amount",
          "type": "uint256"
        }
      ],
      "name": "testFund",
      "outputs": [],
      "stateMutability": "nonpayable",
      "type": "function"
    },
    {
      "inputs": [],
      "name": "tlToken",
      "outputs": [
        {
          "internalType": "contract ITLToken",
          "name": "",
          "type": "address"
        }
      ],
      "stateMutability": "view",
      "type": "function"
    },
    {
      "inputs": [],
      "name": "totalSupply",
      "outputs": [
        {
          "internalType": "uint256",
          "name": "",
          "type": "uint256"
        }
      ],
      "stateMutability": "view",
      "type": "function"
    },
    {
      "inputs": [
        {
          "internalType": "address",
          "name": "to",
          "type": "address"
        },
        {
          "internalType": "uint256",
          "name": "amount",
          "type": "uint256"
        }
      ],
      "name": "transfer",
      "outputs": [
        {
          "internalType": "bool",
          "name": "",
          "type": "bool"
        }
      ],
      "stateMutability": "nonpayable",
      "type": "function"
    },
    {
      "inputs": [
        {
          "internalType": "address",
          "name": "from",
          "type": "address"
        },
        {
          "internalType": "address",
          "name": "to",
          "type": "address"
        },
        {
          "internalType": "uint256",
          "name": "value",
          "type": "uint256"
        }
      ],
      "name": "transferFrom",
      "outputs": [
        {
          "internalType": "bool",
          "name": "",
          "type": "bool"
        }
      ],
      "stateMutability": "nonpayable",
      "type": "function"
    },
    {
      "inputs": [
        {
          "internalType": "address",
          "name": "newOwner",
          "type": "address"
        }
      ],
      "name": "transferOwnership",
      "outputs": [],
      "stateMutability": "nonpayable",
      "type": "function"
    },
    {
      "inputs": [
        {
          "internalType": "uint256",
          "name": "projectid",
          "type": "uint256"
        },
        {
          "internalType": "bool",
          "name": "choice",
          "type": "bool"
        }
      ],
      "name": "voteForProjectPayment",
      "outputs": [],
      "stateMutability": "nonpayable",
      "type": "function"
    },
    {
      "inputs": [
        {
          "internalType": "uint256",
          "name": "projectid",
          "type": "uint256"
        },
        {
          "internalType": "bool",
          "name": "choice",
          "type": "bool"
        }
      ],
      "name": "voteForProjectProposal",
      "outputs": [],
      "stateMutability": "nonpayable",
      "type": "function"
    },
    {
      "inputs": [
        {
          "internalType": "uint256",
          "name": "projectid",
          "type": "uint256"
        }
      ],
      "name": "withdrawProjectTLPayment",
      "outputs": [],
      "stateMutability": "nonpayable",
      "type": "function"
    }
  ],
  "bytecode": "0x608060405234801561001057600080fd5b506040516168e83803806168e88339818101604052810190610032919061057b565b336040518060400160405280600581526020017f4d79476f760000000000000000000000000000000000000000000000000000008152506040518060400160405280600481526020017f4d474f560000000000000000000000000000000000000000000000000000000081525081600390816100ae91906107f8565b5080600490816100be91906107f8565b505050600073ffffffffffffffffffffffffffffffffffffffff168173ffffffffffffffffffffffffffffffffffffffff16036101335760006040517f1e4fbdf700000000000000000000000000000000000000000000000000000000815260040161012a91906108d9565b60405180910390fd5b610142816101a560201b60201c565b5080600660006101000a81548173ffffffffffffffffffffffffffffffffffffffff021916908373ffffffffffffffffffffffffffffffffffffffff16021790555061019f306a084595161401484a00000061026b60201b60201c565b506109b8565b6000600560009054906101000a900473ffffffffffffffffffffffffffffffffffffffff16905081600560006101000a81548173ffffffffffffffffffffffffffffffffffffffff021916908373ffffffffffffffffffffffffffffffffffffffff1602179055508173ffffffffffffffffffffffffffffffffffffffff168173ffffffffffffffffffffffffffffffffffffffff167f8be0079c531659141344cd1fd0a4f28419497f9722a3daafe3b4186f6b6457e060405160405180910390a35050565b600073ffffffffffffffffffffffffffffffffffffffff168273ffffffffffffffffffffffffffffffffffffffff16036102dd5760006040517fec442f050000000000000000000000000000000000000000000000000000000081526004016102d491906108d9565b60405180910390fd5b6102ef600083836102f360201b60201c565b5050565b600073ffffffffffffffffffffffffffffffffffffffff168373ffffffffffffffffffffffffffffffffffffffff16036103455780600260008282546103399190610923565b92505081905550610418565b60008060008573ffffffffffffffffffffffffffffffffffffffff1673ffffffffffffffffffffffffffffffffffffffff168152602001908152602001600020549050818110156103d1578381836040517fe450d38c0000000000000000000000000000000000000000000000000000000081526004016103c893929190610966565b60405180910390fd5b8181036000808673ffffffffffffffffffffffffffffffffffffffff1673ffffffffffffffffffffffffffffffffffffffff16815260200190815260200160002081905550505b600073ffffffffffffffffffffffffffffffffffffffff168273ffffffffffffffffffffffffffffffffffffffff160361046157806002600082825403925050819055506104ae565b806000808473ffffffffffffffffffffffffffffffffffffffff1673ffffffffffffffffffffffffffffffffffffffff168152602001908152602001600020600082825401925050819055505b8173ffffffffffffffffffffffffffffffffffffffff168373ffffffffffffffffffffffffffffffffffffffff167fddf252ad1be2c89b69c2b068fc378daa952ba7f163c4a11628f55a4df523b3ef8360405161050b919061099d565b60405180910390a3505050565b600080fd5b600073ffffffffffffffffffffffffffffffffffffffff82169050919050565b60006105488261051d565b9050919050565b6105588161053d565b811461056357600080fd5b50565b6000815190506105758161054f565b92915050565b60006020828403121561059157610590610518565b5b600061059f84828501610566565b91505092915050565b600081519050919050565b7f4e487b7100000000000000000000000000000000000000000000000000000000600052604160045260246000fd5b7f4e487b7100000000000000000000000000000000000000000000000000000000600052602260045260246000fd5b6000600282049050600182168061062957607f821691505b60208210810361063c5761063b6105e2565b5b50919050565b60008190508160005260206000209050919050565b60006020601f8301049050919050565b600082821b905092915050565b6000600883026106a47fffffffffffffffffffffffffffffffffffffffffffffffffffffffffffffffff82610667565b6106ae8683610667565b95508019841693508086168417925050509392505050565b6000819050919050565b6000819050919050565b60006106f56106f06106eb846106c6565b6106d0565b6106c6565b9050919050565b6000819050919050565b61070f836106da565b61072361071b826106fc565b848454610674565b825550505050565b600090565b61073861072b565b610743818484610706565b505050565b5b818110156107675761075c600082610730565b600181019050610749565b5050565b601f8211156107ac5761077d81610642565b61078684610657565b81016020851015610795578190505b6107a96107a185610657565b830182610748565b50505b505050565b600082821c905092915050565b60006107cf600019846008026107b1565b1980831691505092915050565b60006107e883836107be565b9150826002028217905092915050565b610801826105a8565b67ffffffffffffffff81111561081a576108196105b3565b5b6108248254610611565b61082f82828561076b565b600060209050601f8311600181146108625760008415610850578287015190505b61085a85826107dc565b8655506108c2565b601f19841661087086610642565b60005b8281101561089857848901518255600182019150602085019450602081019050610873565b868310156108b557848901516108b1601f8916826107be565b8355505b6001600288020188555050505b505050505050565b6108d38161053d565b82525050565b60006020820190506108ee60008301846108ca565b92915050565b7f4e487b7100000000000000000000000000000000000000000000000000000000600052601160045260246000fd5b600061092e826106c6565b9150610939836106c6565b9250828201905080821115610951576109506108f4565b5b92915050565b610960816106c6565b82525050565b600060608201905061097b60008301866108ca565b6109886020830185610957565b6109956040830184610957565b949350505050565b60006020820190506109b26000830184610957565b92915050565b615f21806109c76000396000f3fe608060405234801561001057600080fd5b50600436106102955760003560e01c8063715018a611610167578063a230c524116100ce578063dd62ed3e11610087578063dd62ed3e146108df578063de5f72fd1461090f578063ef269ae314610919578063f22449ba14610949578063f2fde38b14610965578063fabf59681461098157610295565b8063a230c524146107f9578063a5e898e114610829578063a9059cbb14610859578063b70e36ce14610889578063bd275764146108a5578063bf50556d146108c157610295565b806389903dc71161012057806389903dc7146107235780638da5cb5b1461075357806392256aec1461077157806395d89b41146107a1578063a0b75d8c146107bf578063a1669b32146107dd57610295565b8063715018a61461063857806373cbccba146106425780637c40516414610672578063853cc4b6146106a257806386e68b90146106be578063875b5076146106f357610295565b806339c94d2d1161020b578063619aa727116101c4578063619aa7271461053f5780636632fa181461056f5780636f98a8a21461059f578063702798df146105bb57806370a08231146105d757806370a56c731461060757610295565b806339c94d2d1461045957806342caaeb414610475578063438596321461049157806355f3985b146104c1578063579b5a47146104f15780635d801b371461052157610295565b806318160ddd1161025d57806318160ddd1461037e57806323b872dd1461039c57806323fd498b146103cc5780632e8f3413146103ea578063313ce5671461041d57806332cb6b0c1461043b57610295565b8063013cf08b1461029a57806306fdde03146102d0578063076ef625146102ee578063095ea7b31461031e5780630eab64091461034e575b600080fd5b6102b460048036038101906102af919061416b565b6109b4565b6040516102c79796959493929190614293565b60405180910390f35b6102d8610abb565b6040516102e59190614309565b60405180910390f35b61030860048036038101906103039190614357565b610b4d565b6040516103159190614397565b60405180910390f35b610338600480360381019061033391906143b2565b610b72565b60405161034591906143f2565b60405180910390f35b61036860048036038101906103639190614357565b610b95565b60405161037591906143f2565b60405180910390f35b610386610bc4565b6040516103939190614397565b60405180910390f35b6103b660048036038101906103b1919061440d565b610bce565b6040516103c391906143f2565b60405180910390f35b6103d4610bfd565b6040516103e19190614397565b60405180910390f35b61040460048036038101906103ff919061416b565b610c0a565b6040516104149493929190614460565b60405180910390f35b610425610dcd565b60405161043291906144c8565b60405180910390f35b610443610dd6565b6040516104509190614397565b60405180910390f35b610473600480360381019061046e919061416b565b610de5565b005b61048f600480360381019061048a919061450f565b610f0a565b005b6104ab60048036038101906104a69190614357565b6111f5565b6040516104b891906143f2565b60405180910390f35b6104db60048036038101906104d69190614357565b611224565b6040516104e891906143f2565b60405180910390f35b61050b6004803603810190610506919061416b565b611253565b6040516105189190614397565b60405180910390f35b6105296112cb565b6040516105369190614397565b60405180910390f35b6105596004803603810190610554919061454f565b6112d8565b60405161056691906143f2565b60405180910390f35b6105896004803603810190610584919061416b565b61132e565b6040516105969190614595565b60405180910390f35b6105b960048036038101906105b491906143b2565b6113be565b005b6105d560048036038101906105d09190614615565b6113d5565b005b6105f160048036038101906105ec919061454f565b6115bd565b6040516105fe9190614397565b60405180910390f35b610621600480360381019061061c919061416b565b611605565b60405161062f929190614733565b60405180910390f35b6106406116af565b005b61065c6004803603810190610657919061416b565b6116c3565b6040516106699190614397565b60405180910390f35b61068c6004803603810190610687919061416b565b6116db565b60405161069991906143f2565b60405180910390f35b6106bc60048036038101906106b7919061416b565b611717565b005b6106d860048036038101906106d3919061416b565b611b20565b6040516106ea96959493929190614763565b60405180910390f35b61070d6004803603810190610708919061416b565b611c14565b60405161071a91906147cb565b60405180910390f35b61073d6004803603810190610738919061454f565b611c63565b60405161074a91906143f2565b60405180910390f35b61075b611c83565b60405161076891906147cb565b60405180910390f35b61078b6004803603810190610786919061416b565b611cad565b60405161079891906147cb565b60405180910390f35b6107a9611cfc565b6040516107b69190614309565b60405180910390f35b6107c7611d8e565b6040516107d49190614845565b60405180910390f35b6107f760048036038101906107f291906143b2565b611db4565b005b610813600480360381019061080e919061454f565b61200b565b60405161082091906143f2565b60405180910390f35b610843600480360381019061083e91906148b6565b61202b565b6040516108509190614397565b60405180910390f35b610873600480360381019061086e91906143b2565b6124e9565b60405161088091906143f2565b60405180910390f35b6108a3600480360381019061089e919061416b565b61267d565b005b6108bf60048036038101906108ba919061416b565b612761565b005b6108c9612a67565b6040516108d69190614397565b60405180910390f35b6108f960048036038101906108f4919061497f565b612ad4565b6040516109069190614397565b60405180910390f35b610917612b5b565b005b610933600480360381019061092e91906149bf565b612cad565b6040516109409190614397565b60405180910390f35b610963600480360381019061095e919061450f565b6130d2565b005b61097f600480360381019061097a919061454f565b6134b1565b005b61099b6004803603810190610996919061416b565b613537565b6040516109ab9493929190614a47565b60405180910390f35b600981815481106109c457600080fd5b90600052602060002090600902016000915090508060000180546109e790614ad0565b80601f0160208091040260200160405190810160405280929190818152602001828054610a1390614ad0565b8015610a605780601f10610a3557610100808354040283529160200191610a60565b820191906000526020600020905b815481529060010190602001808311610a4357829003601f168201915b5050505050908060010154908060040160009054906101000a900473ffffffffffffffffffffffffffffffffffffffff16908060050154908060060160009054906101000a900460ff16908060070154908060080154905087565b606060038054610aca90614ad0565b80601f0160208091040260200160405190810160405280929190818152602001828054610af690614ad0565b8015610b435780601f10610b1857610100808354040283529160200191610b43565b820191906000526020600020905b815481529060010190602001808311610b2657829003601f168201915b5050505050905090565b600b602052816000526040600020602052806000526040600020600091509150505481565b600080610b7d61376f565b9050610b8a818585613777565b600191505092915050565b600e6020528160005260406000206020528060005260406000206000915091509054906101000a900460ff1681565b6000600254905090565b600080610bd961376f565b9050610be6858285613789565b610bf185858561381e565b60019150509392505050565b6000600980549050905090565b606060008060008060088681548110610c2657610c25614b01565b5b90600052602060002090600702016040518060e0016040529081600082018054610c4f90614ad0565b80601f0160208091040260200160405190810160405280929190818152602001828054610c7b90614ad0565b8015610cc85780601f10610c9d57610100808354040283529160200191610cc8565b820191906000526020600020905b815481529060010190602001808311610cab57829003601f168201915b505050505081526020016001820154815260200160028201548152602001600382015481526020016004820160009054906101000a900473ffffffffffffffffffffffffffffffffffffffff1673ffffffffffffffffffffffffffffffffffffffff1673ffffffffffffffffffffffffffffffffffffffff16815260200160058201805480602002602001604051908101604052809291908181526020018280548015610d9457602002820191906000526020600020905b815481526020019060010190808311610d80575b50505050508152602001600682015481525050905080600001518160200151826040015183606001519450945094509450509193509193565b60006012905090565b6a084595161401484a00000081565b6000610df0336115bd565b905081811015610e35576040517f08c379a0000000000000000000000000000000000000000000000000000000008152600401610e2c90614ba2565b60405180910390fd5b610e3f3383613912565b15610e7f576040517f08c379a0000000000000000000000000000000000000000000000000000000008152600401610e7690614c80565b60405180910390fd5b670de0b6b3a764000082610e92336115bd565b610e9c9190614ccf565b1015610efb576000600f60003373ffffffffffffffffffffffffffffffffffffffff1673ffffffffffffffffffffffffffffffffffffffff16815260200190815260200160002060006101000a81548160ff0219169083151502179055505b610f0633308461381e565b5050565b610f13336112d8565b610f52576040517f08c379a0000000000000000000000000000000000000000000000000000000008152600401610f4990614d4f565b60405180910390fd5b600e600083815260200190815260200160002060003373ffffffffffffffffffffffffffffffffffffffff1673ffffffffffffffffffffffffffffffffffffffff16815260200190815260200160002060009054906101000a900460ff1615610ff0576040517f08c379a0000000000000000000000000000000000000000000000000000000008152600401610fe790614dbb565b60405180910390fd5b6009828154811061100457611003614b01565b5b9060005260206000209060090201600101544210611057576040517f08c379a000000000000000000000000000000000000000000000000000000000815260040161104e90614e27565b60405180910390fd5b6009828154811061106b5761106a614b01565b5b906000526020600020906009020160060160009054906101000a900460ff166110c9576040517f08c379a00000000000000000000000000000000000000000000000000000000081526004016110c090614e93565b60405180910390fd5b600982815481106110dd576110dc614b01565b5b9060005260206000209060090201600301805490506009838154811061110657611105614b01565b5b90600052602060002090600902016008015410611158576040517f08c379a000000000000000000000000000000000000000000000000000000000815260040161114f90614eff565b60405180910390fd5b6001600e600084815260200190815260200160002060003373ffffffffffffffffffffffffffffffffffffffff1673ffffffffffffffffffffffffffffffffffffffff16815260200190815260200160002060006101000a81548160ff02191690831515021790555080156111f157600d600083815260200190815260200160002060008154809291906111eb90614f1f565b91905055505b5050565b600a6020528160005260406000206020528060005260406000206000915091509054906101000a900460ff1681565b600c6020528160005260406000206020528060005260406000206000915091509054906101000a900460ff1681565b6000806009838154811061126a57611269614b01565b5b9060005260206000209060090201905060005b81600801548110156112c45781600201818154811061129f5761129e614b01565b5b9060005260206000200154836112b59190614f67565b9250808060010191505061127d565b5050919050565b6000600880549050905090565b6000600f60008373ffffffffffffffffffffffffffffffffffffffff1673ffffffffffffffffffffffffffffffffffffffff16815260200190815260200160002060009054906101000a900460ff169050919050565b6000806009838154811061134557611344614b01565b5b906000526020600020906009020190508060030180549050816008015410611390577fffffffffffffffffffffffffffffffffffffffffffffffffffffffffffffffff9150506113b9565b806003018160080154815481106113aa576113a9614b01565b5b90600052602060002001549150505b919050565b6113c6613ac7565b6113d130838361381e565b5050565b6113de336112d8565b61141d576040517f08c379a000000000000000000000000000000000000000000000000000000000815260040161141490614fe7565b60405180910390fd5b60006008848154811061143357611432614b01565b5b9060005260206000209060070201905080600101544210611489576040517f08c379a000000000000000000000000000000000000000000000000000000000815260040161148090614e27565b60405180910390fd5b80600301548383905011156114d3576040517f08c379a00000000000000000000000000000000000000000000000000000000081526004016114ca90615053565b60405180910390fd5b60005b8383905081101561159c5781600201548484838181106114f9576114f8614b01565b5b9050602002013510611540576040517f08c379a0000000000000000000000000000000000000000000000000000000008152600401611537906150bf565b60405180910390fd5b8160050184848381811061155757611556614b01565b5b905060200201358154811061156f5761156e614b01565b5b90600052602060002001600081548092919061158a90614f1f565b919050555080806001019150506114d6565b508060060160008154809291906115b290614f1f565b919050555050505050565b60008060008373ffffffffffffffffffffffffffffffffffffffff1673ffffffffffffffffffffffffffffffffffffffff168152602001908152602001600020549050919050565b600060606008838154811061161d5761161c614b01565b5b9060005260206000209060070201600601546008848154811061164357611642614b01565b5b90600052602060002090600702016005018080548060200260200160405190810160405280929190818152602001828054801561169f57602002820191906000526020600020905b81548152602001906001019080831161168b575b5050505050905091509150915091565b6116b7613ac7565b6116c16000613b4e565b565b600d6020528060005260406000206000915090505481565b6000600982815481106116f1576116f0614b01565b5b906000526020600020906009020160060160009054906101000a900460ff169050919050565b60006009828154811061172d5761172c614b01565b5b906000526020600020906009020190508060060160009054906101000a900460ff1680156117aa57508060040160009054906101000a900473ffffffffffffffffffffffffffffffffffffffff1673ffffffffffffffffffffffffffffffffffffffff163373ffffffffffffffffffffffffffffffffffffffff16145b6117e9576040517f08c379a00000000000000000000000000000000000000000000000000000000081526004016117e09061512b565b60405180910390fd5b8060030180549050816008015410611836576040517f08c379a000000000000000000000000000000000000000000000000000000000815260040161182d90615197565b60405180910390fd5b806003018160080154815481106118505761184f614b01565b5b9060005260206000200154816007015461186a9190614f67565b4210156118ac576040517f08c379a00000000000000000000000000000000000000000000000000000000081526004016118a390615203565b60405180910390fd5b6118b4613c14565b6064600d6000858152602001908152602001600020546118d49190615223565b1015611915576040517f08c379a000000000000000000000000000000000000000000000000000000000815260040161190c906152b1565b60405180910390fd5b600660009054906101000a900473ffffffffffffffffffffffffffffffffffffffff1673ffffffffffffffffffffffffffffffffffffffff1663a9059cbb8260040160009054906101000a900473ffffffffffffffffffffffffffffffffffffffff168360020184600801548154811061199257611991614b01565b5b90600052602060002001546040518363ffffffff1660e01b81526004016119ba9291906152d1565b6020604051808303816000875af11580156119d9573d6000803e3d6000fd5b505050506040513d601f19601f820116820180604052508101906119fd919061530f565b50806008016000815480929190611a1390614f1f565b91905055506000600d60008481526020019081526020016000208190555060005b600980549050811015611b1b57600e600084815260200190815260200160002060003373ffffffffffffffffffffffffffffffffffffffff1673ffffffffffffffffffffffffffffffffffffffff16815260200190815260200160002060009054906101000a900460ff1615611b0e576000600e600085815260200190815260200160002060003373ffffffffffffffffffffffffffffffffffffffff1673ffffffffffffffffffffffffffffffffffffffff16815260200190815260200160002060006101000a81548160ff0219169083151502179055505b8080600101915050611a34565b505050565b60088181548110611b3057600080fd5b9060005260206000209060070201600091509050806000018054611b5390614ad0565b80601f0160208091040260200160405190810160405280929190818152602001828054611b7f90614ad0565b8015611bcc5780601f10611ba157610100808354040283529160200191611bcc565b820191906000526020600020905b815481529060010190602001808311611baf57829003601f168201915b5050505050908060010154908060020154908060030154908060040160009054906101000a900473ffffffffffffffffffffffffffffffffffffffff16908060060154905086565b600060088281548110611c2a57611c29614b01565b5b906000526020600020906007020160040160009054906101000a900473ffffffffffffffffffffffffffffffffffffffff169050919050565b60076020528060005260406000206000915054906101000a900460ff1681565b6000600560009054906101000a900473ffffffffffffffffffffffffffffffffffffffff16905090565b600060098281548110611cc357611cc2614b01565b5b906000526020600020906009020160040160009054906101000a900473ffffffffffffffffffffffffffffffffffffffff169050919050565b606060048054611d0b90614ad0565b80601f0160208091040260200160405190810160405280929190818152602001828054611d3790614ad0565b8015611d845780601f10611d5957610100808354040283529160200191611d84565b820191906000526020600020905b815481529060010190602001808311611d6757829003601f168201915b5050505050905090565b600660009054906101000a900473ffffffffffffffffffffffffffffffffffffffff1681565b600a600082815260200190815260200160002060003373ffffffffffffffffffffffffffffffffffffffff1673ffffffffffffffffffffffffffffffffffffffff16815260200190815260200160002060009054906101000a900460ff1615611e52576040517f08c379a0000000000000000000000000000000000000000000000000000000008152600401611e4990615388565b60405180910390fd5b600c600082815260200190815260200160002060003373ffffffffffffffffffffffffffffffffffffffff1673ffffffffffffffffffffffffffffffffffffffff16815260200190815260200160002060009054906101000a900460ff1615611ef0576040517f08c379a0000000000000000000000000000000000000000000000000000000008152600401611ee7906153f4565b60405180910390fd5b611ef9826112d8565b611f38576040517f08c379a0000000000000000000000000000000000000000000000000000000008152600401611f2f90615486565b60405180910390fd5b6001600c600083815260200190815260200160002060003373ffffffffffffffffffffffffffffffffffffffff1673ffffffffffffffffffffffffffffffffffffffff16815260200190815260200160002060006101000a81548160ff021916908315150217905550600b600082815260200190815260200160002060008373ffffffffffffffffffffffffffffffffffffffff1673ffffffffffffffffffffffffffffffffffffffff168152602001908152602001600020600081548092919061200290614f1f565b91905055505050565b600f6020528060005260406000206000915054906101000a900460ff1681565b6000612036336112d8565b612075576040517f08c379a000000000000000000000000000000000000000000000000000000000815260040161206c90615518565b60405180910390fd5b674563918244f40000612087336115bd565b10156120c8576040517f08c379a00000000000000000000000000000000000000000000000000000000081526004016120bf90615584565b60405180910390fd5b6120da33674563918244f40000613912565b1561211a576040517f08c379a000000000000000000000000000000000000000000000000000000000815260040161211190614c80565b60405180910390fd5b600660009054906101000a900473ffffffffffffffffffffffffffffffffffffffff1673ffffffffffffffffffffffffffffffffffffffff166323b872dd333068d8d726b7177a8000006040518463ffffffff1660e01b8152600401612182939291906155df565b6020604051808303816000875af11580156121a1573d6000803e3d6000fd5b505050506040513d601f19601f820116820180604052508101906121c5919061530f565b612204576040517f08c379a00000000000000000000000000000000000000000000000000000000081526004016121fb90615662565b60405180910390fd5b670de0b6b3a7640000674563918244f4000061221f336115bd565b6122299190614ccf565b1015612288576000600f60003373ffffffffffffffffffffffffffffffffffffffff1673ffffffffffffffffffffffffffffffffffffffff16815260200190815260200160002060006101000a81548160ff0219169083151502179055505b61229b3330674563918244f4000061381e565b60096040518061012001604052808a8a8080601f016020809104026020016040519081016040528093929190818152602001838380828437600081840152601f19601f820116905080830192505050505050508152602001888152602001878780806020026020016040519081016040528093929190818152602001838360200280828437600081840152601f19601f820116905080830192505050505050508152602001858580806020026020016040519081016040528093929190818152602001838360200280828437600081840152601f19601f8201169050808301925050505050505081526020013373ffffffffffffffffffffffffffffffffffffffff16815260200160008152602001600015158152602001600081526020016000815250908060018154018082558091505060019003906000526020600020906009020160009091909190915060008201518160000190816123fd9190615853565b506020820151816001015560408201518160020190805190602001906124249291906140c1565b5060608201518160030190805190602001906124419291906140c1565b5060808201518160040160006101000a81548173ffffffffffffffffffffffffffffffffffffffff021916908373ffffffffffffffffffffffffffffffffffffffff16021790555060a0820151816005015560c08201518160060160006101000a81548160ff02191690831515021790555060e082015181600701556101008201518160080155505060016009805490506124dc9190614ccf565b9050979650505050505050565b60006124f53383613912565b15612535576040517f08c379a000000000000000000000000000000000000000000000000000000000815260040161252c90614c80565b60405180910390fd5b670de0b6b3a764000082111561259e576001600f60008573ffffffffffffffffffffffffffffffffffffffff1673ffffffffffffffffffffffffffffffffffffffff16815260200190815260200160002060006101000a81548160ff0219169083151502179055505b60006125a9336115bd565b9050828110156125ee576040517f08c379a00000000000000000000000000000000000000000000000000000000081526004016125e590615997565b60405180910390fd5b670de0b6b3a764000083612601336115bd565b61260b9190614ccf565b101561266a576000600f60003373ffffffffffffffffffffffffffffffffffffffff1673ffffffffffffffffffffffffffffffffffffffff16815260200190815260200160002060006101000a81548160ff0219169083151502179055505b6126748484613ca2565b91505092915050565b600660009054906101000a900473ffffffffffffffffffffffffffffffffffffffff1673ffffffffffffffffffffffffffffffffffffffff166323b872dd3330846040518463ffffffff1660e01b81526004016126dc939291906159b7565b6020604051808303816000875af11580156126fb573d6000803e3d6000fd5b505050506040513d601f19601f8201168201806040525081019061271f919061530f565b61275e576040517f08c379a000000000000000000000000000000000000000000000000000000000815260040161275590615a60565b60405180910390fd5b50565b60006009828154811061277757612776614b01565b5b906000526020600020906009020190508060040160009054906101000a900473ffffffffffffffffffffffffffffffffffffffff1673ffffffffffffffffffffffffffffffffffffffff163373ffffffffffffffffffffffffffffffffffffffff1614612819576040517f08c379a000000000000000000000000000000000000000000000000000000000815260040161281090615acc565b60405180910390fd5b8060010154421061285f576040517f08c379a000000000000000000000000000000000000000000000000000000000815260040161285690614e27565b60405180910390fd5b8060060160009054906101000a900460ff16156128b1576040517f08c379a00000000000000000000000000000000000000000000000000000000081526004016128a890615b38565b60405180910390fd5b6128b9613c14565b600a82600501546128ca9190615223565b101561290b576040517f08c379a000000000000000000000000000000000000000000000000000000000815260040161290290615ba4565b60405180910390fd5b600080600090505b826002018054905081101561295d5782600201818154811061293857612937614b01565b5b90600052602060002001548261294e9190614f67565b91508080600101915050612913565b5080600660009054906101000a900473ffffffffffffffffffffffffffffffffffffffff1673ffffffffffffffffffffffffffffffffffffffff166370a08231306040518263ffffffff1660e01b81526004016129ba91906147cb565b602060405180830381865afa1580156129d7573d6000803e3d6000fd5b505050506040513d601f19601f820116820180604052508101906129fb9190615bd9565b1015612a3c576040517f08c379a0000000000000000000000000000000000000000000000000000000008152600401612a3390615c52565b60405180910390fd5b60018260060160006101000a81548160ff021916908315150217905550428260070181905550505050565b600080600090505b600980549050811015612ad05760098181548110612a9057612a8f614b01565b5b906000526020600020906009020160060160009054906101000a900460ff1615612ac3578180612abf90614f1f565b9250505b8080600101915050612a6f565b5090565b6000600160008473ffffffffffffffffffffffffffffffffffffffff1673ffffffffffffffffffffffffffffffffffffffff16815260200190815260200160002060008373ffffffffffffffffffffffffffffffffffffffff1673ffffffffffffffffffffffffffffffffffffffff16815260200190815260200160002054905092915050565b600760003373ffffffffffffffffffffffffffffffffffffffff1673ffffffffffffffffffffffffffffffffffffffff16815260200190815260200160002060009054906101000a900460ff1615612be8576040517f08c379a0000000000000000000000000000000000000000000000000000000008152600401612bdf90615cbe565b60405180910390fd5b612bfb3033670de0b6b3a764000061381e565b6001600f60003373ffffffffffffffffffffffffffffffffffffffff1673ffffffffffffffffffffffffffffffffffffffff16815260200190815260200160002060006101000a81548160ff0219169083151502179055506001600760003373ffffffffffffffffffffffffffffffffffffffff1673ffffffffffffffffffffffffffffffffffffffff16815260200190815260200160002060006101000a81548160ff021916908315150217905550565b600080671bc16d674ec8000090506000683635c9adc5dea000009050612cd2336112d8565b612d11576040517f08c379a0000000000000000000000000000000000000000000000000000000008152600401612d0890615d2a565b60405180910390fd5b81612d1b336115bd565b1015612d5c576040517f08c379a0000000000000000000000000000000000000000000000000000000008152600401612d5390615d96565b60405180910390fd5b612d663383613912565b15612da6576040517f08c379a0000000000000000000000000000000000000000000000000000000008152600401612d9d90614c80565b60405180910390fd5b600660009054906101000a900473ffffffffffffffffffffffffffffffffffffffff1673ffffffffffffffffffffffffffffffffffffffff166323b872dd3330846040518463ffffffff1660e01b8152600401612e05939291906159b7565b6020604051808303816000875af1158015612e24573d6000803e3d6000fd5b505050506040513d601f19601f82011682018060405250810190612e48919061530f565b612e87576040517f08c379a0000000000000000000000000000000000000000000000000000000008152600401612e7e90615e28565b60405180910390fd5b670de0b6b3a764000082612e9a336115bd565b612ea49190614ccf565b1015612f03576000600f60003373ffffffffffffffffffffffffffffffffffffffff1673ffffffffffffffffffffffffffffffffffffffff16815260200190815260200160002060006101000a81548160ff0219169083151502179055505b612f0e33308461381e565b60086040518060e001604052808a8a8080601f016020809104026020016040519081016040528093929190818152602001838380828437600081840152601f19601f8201169050808301925050505050505081526020018881526020018781526020018681526020013373ffffffffffffffffffffffffffffffffffffffff1681526020018767ffffffffffffffff811115612fad57612fac615682565b5b604051908082528060200260200182016040528015612fdb5781602001602082028036833780820191505090505b5081526020016000815250908060018154018082558091505060019003906000526020600020906007020160009091909190915060008201518160000190816130249190615853565b5060208201518160010155604082015181600201556060820151816003015560808201518160040160006101000a81548173ffffffffffffffffffffffffffffffffffffffff021916908373ffffffffffffffffffffffffffffffffffffffff16021790555060a08201518160050190805190602001906130a69291906140c1565b5060c08201518160060155505060016008805490506130c59190614ccf565b9250505095945050505050565b6130db336112d8565b61311a576040517f08c379a000000000000000000000000000000000000000000000000000000000815260040161311190614d4f565b60405180910390fd5b600a600083815260200190815260200160002060003373ffffffffffffffffffffffffffffffffffffffff1673ffffffffffffffffffffffffffffffffffffffff16815260200190815260200160002060009054906101000a900460ff1615806131d457506000600b600084815260200190815260200160002060003373ffffffffffffffffffffffffffffffffffffffff1673ffffffffffffffffffffffffffffffffffffffff16815260200190815260200160002054115b613213576040517f08c379a000000000000000000000000000000000000000000000000000000000815260040161320a90615e94565b60405180910390fd5b6009828154811061322757613226614b01565b5b906000526020600020906009020160060160009054906101000a900460ff1615613286576040517f08c379a000000000000000000000000000000000000000000000000000000000815260040161327d90615b38565b60405180910390fd5b6009828154811061329a57613299614b01565b5b90600052602060002090600902016001015442106132ed576040517f08c379a00000000000000000000000000000000000000000000000000000000081526004016132e490614e27565b60405180910390fd5b600a600083815260200190815260200160002060003373ffffffffffffffffffffffffffffffffffffffff1673ffffffffffffffffffffffffffffffffffffffff16815260200190815260200160002060009054906101000a900460ff1615613402576001600b600084815260200190815260200160002060003373ffffffffffffffffffffffffffffffffffffffff1673ffffffffffffffffffffffffffffffffffffffff168152602001908152602001600020546133ad9190614ccf565b600b600084815260200190815260200160002060003373ffffffffffffffffffffffffffffffffffffffff1673ffffffffffffffffffffffffffffffffffffffff168152602001908152602001600020819055505b8015613444576009828154811061341c5761341b614b01565b5b9060005260206000209060090201600501600081548092919061343e90614f1f565b91905055505b6001600a600084815260200190815260200160002060003373ffffffffffffffffffffffffffffffffffffffff1673ffffffffffffffffffffffffffffffffffffffff16815260200190815260200160002060006101000a81548160ff0219169083151502179055505050565b6134b9613ac7565b600073ffffffffffffffffffffffffffffffffffffffff168173ffffffffffffffffffffffffffffffffffffffff160361352b5760006040517f1e4fbdf700000000000000000000000000000000000000000000000000000000815260040161352291906147cb565b60405180910390fd5b61353481613b4e565b50565b6060600060608060006009868154811061355457613553614b01565b5b90600052602060002090600902016040518061012001604052908160008201805461357e90614ad0565b80601f01602080910402602001604051908101604052809291908181526020018280546135aa90614ad0565b80156135f75780601f106135cc576101008083540402835291602001916135f7565b820191906000526020600020905b8154815290600101906020018083116135da57829003601f168201915b50505050508152602001600182015481526020016002820180548060200260200160405190810160405280929190818152602001828054801561365957602002820191906000526020600020905b815481526020019060010190808311613645575b50505050508152602001600382018054806020026020016040519081016040528092919081815260200182805480156136b157602002820191906000526020600020905b81548152602001906001019080831161369d575b505050505081526020016004820160009054906101000a900473ffffffffffffffffffffffffffffffffffffffff1673ffffffffffffffffffffffffffffffffffffffff1673ffffffffffffffffffffffffffffffffffffffff168152602001600582015481526020016006820160009054906101000a900460ff1615151515815260200160078201548152602001600882015481525050905080600001518160200151826040015183606001519450945094509450509193509193565b600033905090565b6137848383836001613cc5565b505050565b60006137958484612ad4565b90507fffffffffffffffffffffffffffffffffffffffffffffffffffffffffffffffff8110156138185781811015613808578281836040517ffb8f41b20000000000000000000000000000000000000000000000000000000081526004016137ff93929190615eb4565b60405180910390fd5b61381784848484036000613cc5565b5b50505050565b600073ffffffffffffffffffffffffffffffffffffffff168373ffffffffffffffffffffffffffffffffffffffff16036138905760006040517f96c6fd1e00000000000000000000000000000000000000000000000000000000815260040161388791906147cb565b60405180910390fd5b600073ffffffffffffffffffffffffffffffffffffffff168273ffffffffffffffffffffffffffffffffffffffff16036139025760006040517fec442f050000000000000000000000000000000000000000000000000000000081526004016138f991906147cb565b60405180910390fd5b61390d838383613e9c565b505050565b600080600090506000805b6009805490508110156139d3576009818154811061393e5761393d614b01565b5b906000526020600020906009020160010154421080156139b85750600a600082815260200190815260200160002060008773ffffffffffffffffffffffffffffffffffffffff1673ffffffffffffffffffffffffffffffffffffffff16815260200190815260200160002060009054906101000a900460ff165b156139c657600192506139d3565b808060010191505061391d565b5060005b600980549050811015613a8d57600981815481106139f8576139f7614b01565b5b90600052602060002090600902016001015442108015613a725750600c600082815260200190815260200160002060008773ffffffffffffffffffffffffffffffffffffffff1673ffffffffffffffffffffffffffffffffffffffff16815260200190815260200160002060009054906101000a900460ff165b15613a805760019150613a8d565b80806001019150506139d7565b50613a97856115bd565b84118015613aaa57508180613aa95750805b5b15613aba57600192505050613ac1565b6000925050505b92915050565b613acf61376f565b73ffffffffffffffffffffffffffffffffffffffff16613aed611c83565b73ffffffffffffffffffffffffffffffffffffffff1614613b4c57613b1061376f565b6040517f118cdaa7000000000000000000000000000000000000000000000000000000008152600401613b4391906147cb565b60405180910390fd5b565b6000600560009054906101000a900473ffffffffffffffffffffffffffffffffffffffff16905081600560006101000a81548173ffffffffffffffffffffffffffffffffffffffff021916908373ffffffffffffffffffffffffffffffffffffffff1602179055508173ffffffffffffffffffffffffffffffffffffffff168173ffffffffffffffffffffffffffffffffffffffff167f8be0079c531659141344cd1fd0a4f28419497f9722a3daafe3b4186f6b6457e060405160405180910390a35050565b6000806000905060005b600880549050811015613c9a57613c7960088281548110613c4257613c41614b01565b5b906000526020600020906007020160040160009054906101000a900473ffffffffffffffffffffffffffffffffffffffff166112d8565b15613c8d578180613c8990614f1f565b9250505b8080600101915050613c1e565b508091505090565b600080613cad61376f565b9050613cba81858561381e565b600191505092915050565b600073ffffffffffffffffffffffffffffffffffffffff168473ffffffffffffffffffffffffffffffffffffffff1603613d375760006040517fe602df05000000000000000000000000000000000000000000000000000000008152600401613d2e91906147cb565b60405180910390fd5b600073ffffffffffffffffffffffffffffffffffffffff168373ffffffffffffffffffffffffffffffffffffffff1603613da95760006040517f94280d62000000000000000000000000000000000000000000000000000000008152600401613da091906147cb565b60405180910390fd5b81600160008673ffffffffffffffffffffffffffffffffffffffff1673ffffffffffffffffffffffffffffffffffffffff16815260200190815260200160002060008573ffffffffffffffffffffffffffffffffffffffff1673ffffffffffffffffffffffffffffffffffffffff168152602001908152602001600020819055508015613e96578273ffffffffffffffffffffffffffffffffffffffff168473ffffffffffffffffffffffffffffffffffffffff167f8c5be1e5ebec7d5bd14f71427d1e84f3dd0314c0f7b2291e5b200ac8c7c3b92584604051613e8d9190614397565b60405180910390a35b50505050565b600073ffffffffffffffffffffffffffffffffffffffff168373ffffffffffffffffffffffffffffffffffffffff1603613eee578060026000828254613ee29190614f67565b92505081905550613fc1565b60008060008573ffffffffffffffffffffffffffffffffffffffff1673ffffffffffffffffffffffffffffffffffffffff16815260200190815260200160002054905081811015613f7a578381836040517fe450d38c000000000000000000000000000000000000000000000000000000008152600401613f7193929190615eb4565b60405180910390fd5b8181036000808673ffffffffffffffffffffffffffffffffffffffff1673ffffffffffffffffffffffffffffffffffffffff16815260200190815260200160002081905550505b600073ffffffffffffffffffffffffffffffffffffffff168273ffffffffffffffffffffffffffffffffffffffff160361400a5780600260008282540392505081905550614057565b806000808473ffffffffffffffffffffffffffffffffffffffff1673ffffffffffffffffffffffffffffffffffffffff168152602001908152602001600020600082825401925050819055505b8173ffffffffffffffffffffffffffffffffffffffff168373ffffffffffffffffffffffffffffffffffffffff167fddf252ad1be2c89b69c2b068fc378daa952ba7f163c4a11628f55a4df523b3ef836040516140b49190614397565b60405180910390a3505050565b8280548282559060005260206000209081019282156140fd579160200282015b828111156140fc5782518255916020019190600101906140e1565b5b50905061410a919061410e565b5090565b5b8082111561412757600081600090555060010161410f565b5090565b600080fd5b600080fd5b6000819050919050565b61414881614135565b811461415357600080fd5b50565b6000813590506141658161413f565b92915050565b6000602082840312156141815761418061412b565b5b600061418f84828501614156565b91505092915050565b600081519050919050565b600082825260208201905092915050565b60005b838110156141d25780820151818401526020810190506141b7565b60008484015250505050565b6000601f19601f8301169050919050565b60006141fa82614198565b61420481856141a3565b93506142148185602086016141b4565b61421d816141de565b840191505092915050565b61423181614135565b82525050565b600073ffffffffffffffffffffffffffffffffffffffff82169050919050565b600061426282614237565b9050919050565b61427281614257565b82525050565b60008115159050919050565b61428d81614278565b82525050565b600060e08201905081810360008301526142ad818a6141ef565b90506142bc6020830189614228565b6142c96040830188614269565b6142d66060830187614228565b6142e36080830186614284565b6142f060a0830185614228565b6142fd60c0830184614228565b98975050505050505050565b6000602082019050818103600083015261432381846141ef565b905092915050565b61433481614257565b811461433f57600080fd5b50565b6000813590506143518161432b565b92915050565b6000806040838503121561436e5761436d61412b565b5b600061437c85828601614156565b925050602061438d85828601614342565b9150509250929050565b60006020820190506143ac6000830184614228565b92915050565b600080604083850312156143c9576143c861412b565b5b60006143d785828601614342565b92505060206143e885828601614156565b9150509250929050565b60006020820190506144076000830184614284565b92915050565b6000806000606084860312156144265761442561412b565b5b600061443486828701614342565b935050602061444586828701614342565b925050604061445686828701614156565b9150509250925092565b6000608082019050818103600083015261447a81876141ef565b90506144896020830186614228565b6144966040830185614228565b6144a36060830184614228565b95945050505050565b600060ff82169050919050565b6144c2816144ac565b82525050565b60006020820190506144dd60008301846144b9565b92915050565b6144ec81614278565b81146144f757600080fd5b50565b600081359050614509816144e3565b92915050565b600080604083850312156145265761452561412b565b5b600061453485828601614156565b9250506020614545858286016144fa565b9150509250929050565b6000602082840312156145655761456461412b565b5b600061457384828501614342565b91505092915050565b6000819050919050565b61458f8161457c565b82525050565b60006020820190506145aa6000830184614586565b92915050565b600080fd5b600080fd5b600080fd5b60008083601f8401126145d5576145d46145b0565b5b8235905067ffffffffffffffff8111156145f2576145f16145b5565b5b60208301915083602082028301111561460e5761460d6145ba565b5b9250929050565b60008060006040848603121561462e5761462d61412b565b5b600061463c86828701614156565b935050602084013567ffffffffffffffff81111561465d5761465c614130565b5b614669868287016145bf565b92509250509250925092565b600081519050919050565b600082825260208201905092915050565b6000819050602082019050919050565b6146aa81614135565b82525050565b60006146bc83836146a1565b60208301905092915050565b6000602082019050919050565b60006146e082614675565b6146ea8185614680565b93506146f583614691565b8060005b8381101561472657815161470d88826146b0565b9750614718836146c8565b9250506001810190506146f9565b5085935050505092915050565b60006040820190506147486000830185614228565b818103602083015261475a81846146d5565b90509392505050565b600060c082019050818103600083015261477d81896141ef565b905061478c6020830188614228565b6147996040830187614228565b6147a66060830186614228565b6147b36080830185614269565b6147c060a0830184614228565b979650505050505050565b60006020820190506147e06000830184614269565b92915050565b6000819050919050565b600061480b61480661480184614237565b6147e6565b614237565b9050919050565b600061481d826147f0565b9050919050565b600061482f82614812565b9050919050565b61483f81614824565b82525050565b600060208201905061485a6000830184614836565b92915050565b60008083601f840112614876576148756145b0565b5b8235905067ffffffffffffffff811115614893576148926145b5565b5b6020830191508360018202830111156148af576148ae6145ba565b5b9250929050565b60008060008060008060006080888a0312156148d5576148d461412b565b5b600088013567ffffffffffffffff8111156148f3576148f2614130565b5b6148ff8a828b01614860565b975097505060206149128a828b01614156565b955050604088013567ffffffffffffffff81111561493357614932614130565b5b61493f8a828b016145bf565b9450945050606088013567ffffffffffffffff81111561496257614961614130565b5b61496e8a828b016145bf565b925092505092959891949750929550565b600080604083850312156149965761499561412b565b5b60006149a485828601614342565b92505060206149b585828601614342565b9150509250929050565b6000806000806000608086880312156149db576149da61412b565b5b600086013567ffffffffffffffff8111156149f9576149f8614130565b5b614a0588828901614860565b95509550506020614a1888828901614156565b9350506040614a2988828901614156565b9250506060614a3a88828901614156565b9150509295509295909350565b60006080820190508181036000830152614a6181876141ef565b9050614a706020830186614228565b8181036040830152614a8281856146d5565b90508181036060830152614a9681846146d5565b905095945050505050565b7f4e487b7100000000000000000000000000000000000000000000000000000000600052602260045260246000fd5b60006002820490506001821680614ae857607f821691505b602082108103614afb57614afa614aa1565b5b50919050565b7f4e487b7100000000000000000000000000000000000000000000000000000000600052603260045260246000fd5b7f4e6f7420656e6f756768204d474f5620746f6b656e7320666f7220646f6e617460008201527f696f6e0000000000000000000000000000000000000000000000000000000000602082015250565b6000614b8c6023836141a3565b9150614b9782614b30565b604082019050919050565b60006020820190508181036000830152614bbb81614b7f565b9050919050565b7f53696e63652074686973207472616e7366657220656e647320796f7572206d6560008201527f6d626572736869702064756520746f2062616c616e636520616e6420796f752060208201527f6861766520756e66696e697368656420766f74696e672c2070726f636573732060408201527f69732063616e63656c6c65642e00000000000000000000000000000000000000606082015250565b6000614c6a606d836141a3565b9150614c7582614bc2565b608082019050919050565b60006020820190508181036000830152614c9981614c5d565b9050919050565b7f4e487b7100000000000000000000000000000000000000000000000000000000600052601160045260246000fd5b6000614cda82614135565b9150614ce583614135565b9250828203905081811115614cfd57614cfc614ca0565b5b92915050565b7f4f6e6c79206d656d626572732063616e20766f74650000000000000000000000600082015250565b6000614d396015836141a3565b9150614d4482614d03565b602082019050919050565b60006020820190508181036000830152614d6881614d2c565b9050919050565b7f416c726561647920766f74656420666f722074686973207061796d656e740000600082015250565b6000614da5601e836141a3565b9150614db082614d6f565b602082019050919050565b60006020820190508181036000830152614dd481614d98565b9050919050565b7f4578706972656400000000000000000000000000000000000000000000000000600082015250565b6000614e116007836141a3565b9150614e1c82614ddb565b602082019050919050565b60006020820190508181036000830152614e4081614e04565b9050919050565b7f50726f6a656374206e6f742066756e6465640000000000000000000000000000600082015250565b6000614e7d6012836141a3565b9150614e8882614e47565b602082019050919050565b60006020820190508181036000830152614eac81614e70565b9050919050565b7f416c6c207061796d656e7473206d616465000000000000000000000000000000600082015250565b6000614ee96011836141a3565b9150614ef482614eb3565b602082019050919050565b60006020820190508181036000830152614f1881614edc565b9050919050565b6000614f2a82614135565b91507fffffffffffffffffffffffffffffffffffffffffffffffffffffffffffffffff8203614f5c57614f5b614ca0565b5b600182019050919050565b6000614f7282614135565b9150614f7d83614135565b9250828201905080821115614f9557614f94614ca0565b5b92915050565b7f4f6e6c79206d656d626572732063616e2074616b652073757276657973000000600082015250565b6000614fd1601d836141a3565b9150614fdc82614f9b565b602082019050919050565b6000602082019050818103600083015261500081614fc4565b9050919050565b7f546f6f206d616e792063686f6963657300000000000000000000000000000000600082015250565b600061503d6010836141a3565b915061504882615007565b602082019050919050565b6000602082019050818103600083015261506c81615030565b9050919050565b7f496e76616c69642063686f696365000000000000000000000000000000000000600082015250565b60006150a9600e836141a3565b91506150b482615073565b602082019050919050565b600060208201905081810360008301526150d88161509c565b9050919050565b7f556e617574686f72697a65640000000000000000000000000000000000000000600082015250565b6000615115600c836141a3565b9150615120826150df565b602082019050919050565b6000602082019050818103600083015261514481615108565b9050919050565b7f416c6c2070616964000000000000000000000000000000000000000000000000600082015250565b60006151816008836141a3565b915061518c8261514b565b602082019050919050565b600060208201905081810360008301526151b081615174565b9050919050565b7f4e6f742064756520796574000000000000000000000000000000000000000000600082015250565b60006151ed600b836141a3565b91506151f8826151b7565b602082019050919050565b6000602082019050818103600083015261521c816151e0565b9050919050565b600061522e82614135565b915061523983614135565b925082820261524781614135565b9150828204841483151761525e5761525d614ca0565b5b5092915050565b7f4e6f7420656e6f75676820766f74657320666f72207061796d656e7400000000600082015250565b600061529b601c836141a3565b91506152a682615265565b602082019050919050565b600060208201905081810360008301526152ca8161528e565b9050919050565b60006040820190506152e66000830185614269565b6152f36020830184614228565b9392505050565b600081519050615309816144e3565b92915050565b6000602082840312156153255761532461412b565b5b6000615333848285016152fa565b91505092915050565b7f416c726561647920766f74656400000000000000000000000000000000000000600082015250565b6000615372600d836141a3565b915061537d8261533c565b602082019050919050565b600060208201905081810360008301526153a181615365565b9050919050565b7f416c72656164792064656c656761746564000000000000000000000000000000600082015250565b60006153de6011836141a3565b91506153e9826153a8565b602082019050919050565b6000602082019050818103600083015261540d816153d1565b9050919050565b7f596f752063616e6e6f742064656c656761746520746f206e6f6e2d6d656d626560008201527f7200000000000000000000000000000000000000000000000000000000000000602082015250565b60006154706021836141a3565b915061547b82615414565b604082019050919050565b6000602082019050818103600083015261549f81615463565b9050919050565b7f4f6e6c79206d656d626572732063616e207375626d69742070726f6a6563742060008201527f70726f706f73616c730000000000000000000000000000000000000000000000602082015250565b60006155026029836141a3565b915061550d826154a6565b604082019050919050565b60006020820190508181036000830152615531816154f5565b9050919050565b7f35204d474f5620746f6b656e7320726571756972656400000000000000000000600082015250565b600061556e6016836141a3565b915061557982615538565b602082019050919050565b6000602082019050818103600083015261559d81615561565b9050919050565b6000819050919050565b60006155c96155c46155bf846155a4565b6147e6565b614135565b9050919050565b6155d9816155ae565b82525050565b60006060820190506155f46000830186614269565b6156016020830185614269565b61560e60408301846155d0565b949350505050565b7f3430303020544c20746f6b656e732072657175697265642e0000000000000000600082015250565b600061564c6018836141a3565b915061565782615616565b602082019050919050565b6000602082019050818103600083015261567b8161563f565b9050919050565b7f4e487b7100000000000000000000000000000000000000000000000000000000600052604160045260246000fd5b60008190508160005260206000209050919050565b60006020601f8301049050919050565b600082821b905092915050565b6000600883026157137fffffffffffffffffffffffffffffffffffffffffffffffffffffffffffffffff826156d6565b61571d86836156d6565b95508019841693508086168417925050509392505050565b600061575061574b61574684614135565b6147e6565b614135565b9050919050565b6000819050919050565b61576a83615735565b61577e61577682615757565b8484546156e3565b825550505050565b600090565b615793615786565b61579e818484615761565b505050565b5b818110156157c2576157b760008261578b565b6001810190506157a4565b5050565b601f821115615807576157d8816156b1565b6157e1846156c6565b810160208510156157f0578190505b6158046157fc856156c6565b8301826157a3565b50505b505050565b600082821c905092915050565b600061582a6000198460080261580c565b1980831691505092915050565b60006158438383615819565b9150826002028217905092915050565b61585c82614198565b67ffffffffffffffff81111561587557615874615682565b5b61587f8254614ad0565b61588a8282856157c6565b600060209050601f8311600181146158bd57600084156158ab578287015190505b6158b58582615837565b86555061591d565b601f1984166158cb866156b1565b60005b828110156158f3578489015182556001820191506020850194506020810190506158ce565b86831015615910578489015161590c601f891682615819565b8355505b6001600288020188555050505b505050505050565b7f45524332303a207472616e7366657220616d6f756e742065786365656473206260008201527f616c616e63650000000000000000000000000000000000000000000000000000602082015250565b60006159816026836141a3565b915061598c82615925565b604082019050919050565b600060208201905081810360008301526159b081615974565b9050919050565b60006060820190506159cc6000830186614269565b6159d96020830185614269565b6159e66040830184614228565b949350505050565b7f4e6f7420656e6f75676820544c20746f6b656e7320666f7220646f6e6174696f60008201527f6e00000000000000000000000000000000000000000000000000000000000000602082015250565b6000615a4a6021836141a3565b9150615a55826159ee565b604082019050919050565b60006020820190508181036000830152615a7981615a3d565b9050919050565b7f4e6f74206f776e65720000000000000000000000000000000000000000000000600082015250565b6000615ab66009836141a3565b9150615ac182615a80565b602082019050919050565b60006020820190508181036000830152615ae581615aa9565b9050919050565b7f416c72656164792066756e646564000000000000000000000000000000000000600082015250565b6000615b22600e836141a3565b9150615b2d82615aec565b602082019050919050565b60006020820190508181036000830152615b5181615b15565b9050919050565b7f4e6f7420656e6f75676820766f74657300000000000000000000000000000000600082015250565b6000615b8e6010836141a3565b9150615b9982615b58565b602082019050919050565b60006020820190508181036000830152615bbd81615b81565b9050919050565b600081519050615bd38161413f565b92915050565b600060208284031215615bef57615bee61412b565b5b6000615bfd84828501615bc4565b91505092915050565b7f4e6f7420656e6f75676820544c00000000000000000000000000000000000000600082015250565b6000615c3c600d836141a3565b9150615c4782615c06565b602082019050919050565b60006020820190508181036000830152615c6b81615c2f565b9050919050565b7f416c726561647920636c61696d65640000000000000000000000000000000000600082015250565b6000615ca8600f836141a3565b9150615cb382615c72565b602082019050919050565b60006020820190508181036000830152615cd781615c9b565b9050919050565b7f4f6e6c79206d656d626572732063616e207375626d6974207375727665797300600082015250565b6000615d14601f836141a3565b9150615d1f82615cde565b602082019050919050565b60006020820190508181036000830152615d4381615d07565b9050919050565b7f4174206c656173742032204d474f5620746f6b656e7320726571756972656400600082015250565b6000615d80601f836141a3565b9150615d8b82615d4a565b602082019050919050565b60006020820190508181036000830152615daf81615d73565b9050919050565b7f4174206c65617374203130303020544c20746f6b656e7320726571756972656460008201527f2e00000000000000000000000000000000000000000000000000000000000000602082015250565b6000615e126021836141a3565b9150615e1d82615db6565b604082019050919050565b60006020820190508181036000830152615e4181615e05565b9050919050565b7f596f752068617665206e6f20766f746573206c6566742e000000000000000000600082015250565b6000615e7e6017836141a3565b9150615e8982615e48565b602082019050919050565b60006020820190508181036000830152615ead81615e71565b9050919050565b6000606082019050615ec96000830186614269565b615ed66020830185614228565b615ee36040830184614228565b94935050505056fea2646970667358221220096249114b28a90572d8b5bf964905a1379004cd3a3a72d0460260093de905ea64736f6c634300081c0033",
  "linkReferences": {},
  "deployedLinkReferences": {}
}