{
  "_format": "hh-sol-artifact-1",
  "contractName": "MyGov",
  "sourceName": "contracts/MyGov.sol",
  "abi": [
    {
      "inputs": [
        {
          "internalType": "address",
          "name": "_tlToken",
          "type": "address"
        }
      ],
      "stateMutability": "nonpayable",
      "type": "constructor"
    },
    {
      "inputs": [
        {
          "internalType": "address",
          "name": "spender",
          "type": "address"
        },
        {
          "internalType": "uint256",
          "name": "allowance",
          "type": "uint256"
        },
        {
          "internalType": "uint256",
          "name": "needed",
          "type": "uint256"
        }
      ],
      "name": "ERC20InsufficientAllowance",
      "type": "error"
    },
    {
      "inputs": [
        {
          "internalType": "address",
          "name": "sender",
          "type": "address"
        },
        {
          "internalType": "uint256",
          "name": "balance",
          "type": "uint256"
        },
        {
          "internalType": "uint256",
          "name": "needed",
          "type": "uint256"
        }
      ],
      "name": "ERC20InsufficientBalance",
      "type": "error"
    },
    {
      "inputs": [
        {
          "internalType": "address",
          "name": "approver",
          "type": "address"
        }
      ],
      "name": "ERC20InvalidApprover",
      "type": "error"
    },
    {
      "inputs": [
        {
          "internalType": "address",
          "name": "receiver",
          "type": "address"
        }
      ],
      "name": "ERC20InvalidReceiver",
      "type": "error"
    },
    {
      "inputs": [
        {
          "internalType": "address",
          "name": "sender",
          "type": "address"
        }
      ],
      "name": "ERC20InvalidSender",
      "type": "error"
    },
    {
      "inputs": [
        {
          "internalType": "address",
          "name": "spender",
          "type": "address"
        }
      ],
      "name": "ERC20InvalidSpender",
      "type": "error"
    },
    {
      "inputs": [
        {
          "internalType": "address",
          "name": "owner",
          "type": "address"
        }
      ],
      "name": "OwnableInvalidOwner",
      "type": "error"
    },
    {
      "inputs": [
        {
          "internalType": "address",
          "name": "account",
          "type": "address"
        }
      ],
      "name": "OwnableUnauthorizedAccount",
      "type": "error"
    },
    {
      "anonymous": false,
      "inputs": [
        {
          "indexed": true,
          "internalType": "address",
          "name": "owner",
          "type": "address"
        },
        {
          "indexed": true,
          "internalType": "address",
          "name": "spender",
          "type": "address"
        },
        {
          "indexed": false,
          "internalType": "uint256",
          "name": "value",
          "type": "uint256"
        }
      ],
      "name": "Approval",
      "type": "event"
    },
    {
      "anonymous": false,
      "inputs": [
        {
          "indexed": true,
          "internalType": "address",
          "name": "previousOwner",
          "type": "address"
        },
        {
          "indexed": true,
          "internalType": "address",
          "name": "newOwner",
          "type": "address"
        }
      ],
      "name": "OwnershipTransferred",
      "type": "event"
    },
    {
      "anonymous": false,
      "inputs": [
        {
          "indexed": true,
          "internalType": "address",
          "name": "from",
          "type": "address"
        },
        {
          "indexed": true,
          "internalType": "address",
          "name": "to",
          "type": "address"
        },
        {
          "indexed": false,
          "internalType": "uint256",
          "name": "value",
          "type": "uint256"
        }
      ],
      "name": "Transfer",
      "type": "event"
    },
    {
      "inputs": [],
      "name": "MAX_SUPPLY",
      "outputs": [
        {
          "internalType": "uint256",
          "name": "",
          "type": "uint256"
        }
      ],
      "stateMutability": "view",
      "type": "function"
    },
    {
      "inputs": [
        {
          "internalType": "address",
          "name": "owner",
          "type": "address"
        },
        {
          "internalType": "address",
          "name": "spender",
          "type": "address"
        }
      ],
      "name": "allowance",
      "outputs": [
        {
          "internalType": "uint256",
          "name": "",
          "type": "uint256"
        }
      ],
      "stateMutability": "view",
      "type": "function"
    },
    {
      "inputs": [
        {
          "internalType": "address",
          "name": "spender",
          "type": "address"
        },
        {
          "internalType": "uint256",
          "name": "value",
          "type": "uint256"
        }
      ],
      "name": "approve",
      "outputs": [
        {
          "internalType": "bool",
          "name": "",
          "type": "bool"
        }
      ],
      "stateMutability": "nonpayable",
      "type": "function"
    },
    {
      "inputs": [
        {
          "internalType": "address",
          "name": "account",
          "type": "address"
        }
      ],
      "name": "balanceOf",
      "outputs": [
        {
          "internalType": "uint256",
          "name": "",
          "type": "uint256"
        }
      ],
      "stateMutability": "view",
      "type": "function"
    },
    {
      "inputs": [],
      "name": "decimals",
      "outputs": [
        {
          "internalType": "uint8",
          "name": "",
          "type": "uint8"
        }
      ],
      "stateMutability": "view",
      "type": "function"
    },
    {
      "inputs": [
        {
          "internalType": "address",
          "name": "memberaddr",
          "type": "address"
        },
        {
          "internalType": "uint256",
          "name": "projectid",
          "type": "uint256"
        }
      ],
      "name": "delegateVoteTo",
      "outputs": [],
      "stateMutability": "nonpayable",
      "type": "function"
    },
    {
      "inputs": [
        {
          "internalType": "uint256",
          "name": "amount",
          "type": "uint256"
        }
      ],
      "name": "donateMyGovToken",
      "outputs": [],
      "stateMutability": "nonpayable",
      "type": "function"
    },
    {
      "inputs": [
        {
          "internalType": "uint256",
          "name": "amount",
          "type": "uint256"
        }
      ],
      "name": "donateTLToken",
      "outputs": [],
      "stateMutability": "nonpayable",
      "type": "function"
    },
    {
      "inputs": [
        {
          "internalType": "uint256",
          "name": "",
          "type": "uint256"
        },
        {
          "internalType": "address",
          "name": "",
          "type": "address"
        }
      ],
      "name": "extraVotes",
      "outputs": [
        {
          "internalType": "uint256",
          "name": "",
          "type": "uint256"
        }
      ],
      "stateMutability": "view",
      "type": "function"
    },
    {
      "inputs": [],
      "name": "faucet",
      "outputs": [],
      "stateMutability": "nonpayable",
      "type": "function"
    },
    {
      "inputs": [
        {
          "internalType": "address",
          "name": "",
          "type": "address"
        }
      ],
      "name": "faucetClaimed",
      "outputs": [
        {
          "internalType": "bool",
          "name": "",
          "type": "bool"
        }
      ],
      "stateMutability": "view",
      "type": "function"
    },
    {
      "inputs": [
        {
          "internalType": "uint256",
          "name": "projectid",
          "type": "uint256"
        }
      ],
      "name": "getIsProjectFunded",
      "outputs": [
        {
          "internalType": "bool",
          "name": "",
          "type": "bool"
        }
      ],
      "stateMutability": "view",
      "type": "function"
    },
    {
      "inputs": [],
      "name": "getNoOfFundedProjects",
      "outputs": [
        {
          "internalType": "uint256",
          "name": "count",
          "type": "uint256"
        }
      ],
      "stateMutability": "view",
      "type": "function"
    },
    {
      "inputs": [],
      "name": "getNoOfProjectProposals",
      "outputs": [
        {
          "internalType": "uint256",
          "name": "",
          "type": "uint256"
        }
      ],
      "stateMutability": "view",
      "type": "function"
    },
    {
      "inputs": [],
      "name": "getNoOfSurveys",
      "outputs": [
        {
          "internalType": "uint256",
          "name": "",
          "type": "uint256"
        }
      ],
      "stateMutability": "view",
      "type": "function"
    },
    {
      "inputs": [
        {
          "internalType": "uint256",
          "name": "activityid",
          "type": "uint256"
        }
      ],
      "name": "getProjectInfo",
      "outputs": [
        {
          "internalType": "string",
          "name": "",
          "type": "string"
        },
        {
          "internalType": "uint256",
          "name": "",
          "type": "uint256"
        },
        {
          "internalType": "uint256[]",
          "name": "",
          "type": "uint256[]"
        },
        {
          "internalType": "uint256[]",
          "name": "",
          "type": "uint256[]"
        }
      ],
      "stateMutability": "view",
      "type": "function"
    },
    {
      "inputs": [
        {
          "internalType": "uint256",
          "name": "projectid",
          "type": "uint256"
        }
      ],
      "name": "getProjectNextTLPayment",
      "outputs": [
        {
          "internalType": "int256",
          "name": "",
          "type": "int256"
        }
      ],
      "stateMutability": "view",
      "type": "function"
    },
    {
      "inputs": [
        {
          "internalType": "uint256",
          "name": "projectid",
          "type": "uint256"
        }
      ],
      "name": "getProjectOwner",
      "outputs": [
        {
          "internalType": "address",
          "name": "",
          "type": "address"
        }
      ],
      "stateMutability": "view",
      "type": "function"
    },
    {
      "inputs": [
        {
          "internalType": "uint256",
          "name": "surveyid",
          "type": "uint256"
        }
      ],
      "name": "getSurveyInfo",
      "outputs": [
        {
          "internalType": "string",
          "name": "",
          "type": "string"
        },
        {
          "internalType": "uint256",
          "name": "",
          "type": "uint256"
        },
        {
          "internalType": "uint256",
          "name": "",
          "type": "uint256"
        },
        {
          "internalType": "uint256",
          "name": "",
          "type": "uint256"
        }
      ],
      "stateMutability": "view",
      "type": "function"
    },
    {
      "inputs": [
        {
          "internalType": "uint256",
          "name": "surveyid",
          "type": "uint256"
        }
      ],
      "name": "getSurveyOwner",
      "outputs": [
        {
          "internalType": "address",
          "name": "",
          "type": "address"
        }
      ],
      "stateMutability": "view",
      "type": "function"
    },
    {
      "inputs": [
        {
          "internalType": "uint256",
          "name": "surveyid",
          "type": "uint256"
        }
      ],
      "name": "getSurveyResults",
      "outputs": [
        {
          "internalType": "uint256",
          "name": "",
          "type": "uint256"
        },
        {
          "internalType": "uint256[]",
          "name": "",
          "type": "uint256[]"
        }
      ],
      "stateMutability": "view",
      "type": "function"
    },
    {
      "inputs": [
        {
          "internalType": "uint256",
          "name": "projectid",
          "type": "uint256"
        }
      ],
      "name": "getTLReceivedByProject",
      "outputs": [
        {
          "internalType": "uint256",
          "name": "total",
          "type": "uint256"
        }
      ],
      "stateMutability": "view",
      "type": "function"
    },
    {
      "inputs": [
        {
          "internalType": "uint256",
          "name": "",
          "type": "uint256"
        },
        {
          "internalType": "address",
          "name": "",
          "type": "address"
        }
      ],
      "name": "hasDelegated",
      "outputs": [
        {
          "internalType": "bool",
          "name": "",
          "type": "bool"
        }
      ],
      "stateMutability": "view",
      "type": "function"
    },
    {
      "inputs": [
        {
          "internalType": "uint256",
          "name": "",
          "type": "uint256"
        },
        {
          "internalType": "address",
          "name": "",
          "type": "address"
        }
      ],
      "name": "hasVoted",
      "outputs": [
        {
          "internalType": "bool",
          "name": "",
          "type": "bool"
        }
      ],
      "stateMutability": "view",
      "type": "function"
    },
    {
      "inputs": [
        {
          "internalType": "uint256",
          "name": "",
          "type": "uint256"
        },
        {
          "internalType": "address",
          "name": "",
          "type": "address"
        }
      ],
      "name": "hasVotedForPayment",
      "outputs": [
        {
          "internalType": "bool",
          "name": "",
          "type": "bool"
        }
      ],
      "stateMutability": "view",
      "type": "function"
    },
    {
      "inputs": [
        {
          "internalType": "address",
          "name": "user",
          "type": "address"
        }
      ],
      "name": "isContractMember",
      "outputs": [
        {
          "internalType": "bool",
          "name": "",
          "type": "bool"
        }
      ],
      "stateMutability": "view",
      "type": "function"
    },
    {
      "inputs": [
        {
          "internalType": "address",
          "name": "",
          "type": "address"
        }
      ],
      "name": "isMember",
      "outputs": [
        {
          "internalType": "bool",
          "name": "",
          "type": "bool"
        }
      ],
      "stateMutability": "view",
      "type": "function"
    },
    {
      "inputs": [],
      "name": "name",
      "outputs": [
        {
          "internalType": "string",
          "name": "",
          "type": "string"
        }
      ],
      "stateMutability": "view",
      "type": "function"
    },
    {
      "inputs": [],
      "name": "owner",
      "outputs": [
        {
          "internalType": "address",
          "name": "",
          "type": "address"
        }
      ],
      "stateMutability": "view",
      "type": "function"
    },
    {
      "inputs": [
        {
          "internalType": "uint256",
          "name": "",
          "type": "uint256"
        }
      ],
      "name": "paymentVotes",
      "outputs": [
        {
          "internalType": "uint256",
          "name": "",
          "type": "uint256"
        }
      ],
      "stateMutability": "view",
      "type": "function"
    },
    {
      "inputs": [
        {
          "internalType": "uint256",
          "name": "",
          "type": "uint256"
        }
      ],
      "name": "proposals",
      "outputs": [
        {
          "internalType": "string",
          "name": "weburl",
          "type": "string"
        },
        {
          "internalType": "uint256",
          "name": "votedeadline",
          "type": "uint256"
        },
        {
          "internalType": "address",
          "name": "owner",
          "type": "address"
        },
        {
          "internalType": "uint256",
          "name": "yesVotes",
          "type": "uint256"
        },
        {
          "internalType": "bool",
          "name": "funded",
          "type": "bool"
        },
        {
          "internalType": "uint256",
          "name": "reservedTime",
          "type": "uint256"
        },
        {
          "internalType": "uint256",
          "name": "lastPaidIndex",
          "type": "uint256"
        }
      ],
      "stateMutability": "view",
      "type": "function"
    },
    {
      "inputs": [],
      "name": "renounceOwnership",
      "outputs": [],
      "stateMutability": "nonpayable",
      "type": "function"
    },
    {
      "inputs": [
        {
          "internalType": "uint256",
          "name": "projectid",
          "type": "uint256"
        }
      ],
      "name": "reserveProjectGrant",
      "outputs": [],
      "stateMutability": "nonpayable",
      "type": "function"
    },
    {
      "inputs": [
        {
          "internalType": "string",
          "name": "weburl",
          "type": "string"
        },
        {
          "internalType": "uint256",
          "name": "votedeadline",
          "type": "uint256"
        },
        {
          "internalType": "uint256[]",
          "name": "paymentamounts",
          "type": "uint256[]"
        },
        {
          "internalType": "uint256[]",
          "name": "payschedule",
          "type": "uint256[]"
        }
      ],
      "name": "submitProjectProposal",
      "outputs": [
        {
          "internalType": "uint256",
          "name": "",
          "type": "uint256"
        }
      ],
      "stateMutability": "nonpayable",
      "type": "function"
    },
    {
      "inputs": [
        {
          "internalType": "string",
          "name": "weburl",
          "type": "string"
        },
        {
          "internalType": "uint256",
          "name": "surveydeadline",
          "type": "uint256"
        },
        {
          "internalType": "uint256",
          "name": "numchoices",
          "type": "uint256"
        },
        {
          "internalType": "uint256",
          "name": "atmostchoices",
          "type": "uint256"
        }
      ],
      "name": "submitSurvey",
      "outputs": [
        {
          "internalType": "uint256",
          "name": "",
          "type": "uint256"
        }
      ],
      "stateMutability": "nonpayable",
      "type": "function"
    },
    {
      "inputs": [
        {
          "internalType": "uint256",
          "name": "",
          "type": "uint256"
        }
      ],
      "name": "surveys",
      "outputs": [
        {
          "internalType": "string",
          "name": "weburl",
          "type": "string"
        },
        {
          "internalType": "uint256",
          "name": "surveydeadline",
          "type": "uint256"
        },
        {
          "internalType": "uint256",
          "name": "numchoices",
          "type": "uint256"
        },
        {
          "internalType": "uint256",
          "name": "atmostchoices",
          "type": "uint256"
        },
        {
          "internalType": "address",
          "name": "owner",
          "type": "address"
        },
        {
          "internalType": "uint256",
          "name": "takerCount",
          "type": "uint256"
        }
      ],
      "stateMutability": "view",
      "type": "function"
    },
    {
      "inputs": [],
      "name": "symbol",
      "outputs": [
        {
          "internalType": "string",
          "name": "",
          "type": "string"
        }
      ],
      "stateMutability": "view",
      "type": "function"
    },
    {
      "inputs": [
        {
          "internalType": "uint256",
          "name": "surveyid",
          "type": "uint256"
        },
        {
          "internalType": "uint256[]",
          "name": "choices",
          "type": "uint256[]"
        }
      ],
      "name": "takeSurvey",
      "outputs": [],
      "stateMutability": "nonpayable",
      "type": "function"
    },
    {
      "inputs": [
        {
          "internalType": "address",
          "name": "to",
          "type": "address"
        },
        {
          "internalType": "uint256",
          "name": "amount",
          "type": "uint256"
        }
      ],
      "name": "testFund",
      "outputs": [],
      "stateMutability": "nonpayable",
      "type": "function"
    },
    {
      "inputs": [],
      "name": "tlToken",
      "outputs": [
        {
          "internalType": "contract ITLToken",
          "name": "",
          "type": "address"
        }
      ],
      "stateMutability": "view",
      "type": "function"
    },
    {
      "inputs": [],
      "name": "totalSupply",
      "outputs": [
        {
          "internalType": "uint256",
          "name": "",
          "type": "uint256"
        }
      ],
      "stateMutability": "view",
      "type": "function"
    },
    {
      "inputs": [
        {
          "internalType": "address",
          "name": "to",
          "type": "address"
        },
        {
          "internalType": "uint256",
          "name": "amount",
          "type": "uint256"
        }
      ],
      "name": "transfer",
      "outputs": [
        {
          "internalType": "bool",
          "name": "",
          "type": "bool"
        }
      ],
      "stateMutability": "nonpayable",
      "type": "function"
    },
    {
      "inputs": [
        {
          "internalType": "address",
          "name": "from",
          "type": "address"
        },
        {
          "internalType": "address",
          "name": "to",
          "type": "address"
        },
        {
          "internalType": "uint256",
          "name": "value",
          "type": "uint256"
        }
      ],
      "name": "transferFrom",
      "outputs": [
        {
          "internalType": "bool",
          "name": "",
          "type": "bool"
        }
      ],
      "stateMutability": "nonpayable",
      "type": "function"
    },
    {
      "inputs": [
        {
          "internalType": "address",
          "name": "newOwner",
          "type": "address"
        }
      ],
      "name": "transferOwnership",
      "outputs": [],
      "stateMutability": "nonpayable",
      "type": "function"
    },
    {
      "inputs": [
        {
          "internalType": "uint256",
          "name": "projectid",
          "type": "uint256"
        },
        {
          "internalType": "bool",
          "name": "choice",
          "type": "bool"
        }
      ],
      "name": "voteForProjectPayment",
      "outputs": [],
      "stateMutability": "nonpayable",
      "type": "function"
    },
    {
      "inputs": [
        {
          "internalType": "uint256",
          "name": "projectid",
          "type": "uint256"
        },
        {
          "internalType": "bool",
          "name": "choice",
          "type": "bool"
        }
      ],
      "name": "voteForProjectProposal",
      "outputs": [],
      "stateMutability": "nonpayable",
      "type": "function"
    },
    {
      "inputs": [
        {
          "internalType": "uint256",
          "name": "projectid",
          "type": "uint256"
        }
      ],
      "name": "withdrawProjectTLPayment",
      "outputs": [],
      "stateMutability": "nonpayable",
      "type": "function"
    }
  ],
  "bytecode": "0x608060405234801561001057600080fd5b5060405161395c38038061395c83398101604081905261002f916102af565b336040518060400160405280600581526020016426bca3b7bb60d91b8152506040518060400160405280600481526020016326a3a7ab60e11b815250816003908161007a919061037e565b506004610087828261037e565b5050506001600160a01b0381166100b957604051631e4fbdf760e01b8152600060048201526024015b60405180910390fd5b6100c2816100f9565b50600680546001600160a01b0319166001600160a01b0383161790556100f3306a084595161401484a00000061014b565b50610463565b600580546001600160a01b038381166001600160a01b0319831681179093556040519116919082907f8be0079c531659141344cd1fd0a4f28419497f9722a3daafe3b4186f6b6457e090600090a35050565b6001600160a01b0382166101755760405163ec442f0560e01b8152600060048201526024016100b0565b61018160008383610185565b5050565b6001600160a01b0383166101b05780600260008282546101a5919061043c565b909155506102229050565b6001600160a01b038316600090815260208190526040902054818110156102035760405163391434e360e21b81526001600160a01b038516600482015260248101829052604481018390526064016100b0565b6001600160a01b03841660009081526020819052604090209082900390555b6001600160a01b03821661023e5760028054829003905561025d565b6001600160a01b03821660009081526020819052604090208054820190555b816001600160a01b0316836001600160a01b03167fddf252ad1be2c89b69c2b068fc378daa952ba7f163c4a11628f55a4df523b3ef836040516102a291815260200190565b60405180910390a3505050565b6000602082840312156102c157600080fd5b81516001600160a01b03811681146102d857600080fd5b9392505050565b634e487b7160e01b600052604160045260246000fd5b600181811c9082168061030957607f821691505b60208210810361032957634e487b7160e01b600052602260045260246000fd5b50919050565b601f82111561037957806000526020600020601f840160051c810160208510156103565750805b601f840160051c820191505b818110156103765760008155600101610362565b50505b505050565b81516001600160401b03811115610397576103976102df565b6103ab816103a584546102f5565b8461032f565b6020601f8211600181146103df57600083156103c75750848201515b600019600385901b1c1916600184901b178455610376565b600084815260208120601f198516915b8281101561040f57878501518255602094850194600190920191016103ef565b508482101561042d5786840151600019600387901b60f8161c191681555b50505050600190811b01905550565b8082018082111561045d57634e487b7160e01b600052601160045260246000fd5b92915050565b6134ea806104726000396000f3fe608060405234801561001057600080fd5b50600436106102955760003560e01c8063715018a611610167578063a230c524116100ce578063dd62ed3e11610087578063dd62ed3e14610678578063de5f72fd146106b1578063ef269ae3146106b9578063f22449ba146106cc578063f2fde38b146106df578063fabf5968146106f257600080fd5b8063a230c52414610601578063a5e898e114610624578063a9059cbb14610637578063b70e36ce1461064a578063bd2757641461065d578063bf50556d1461067057600080fd5b806389903dc71161012057806389903dc71461058c5780638da5cb5b146105af57806392256aec146105c057806395d89b41146105d3578063a0b75d8c146105db578063a1669b32146105ee57600080fd5b8063715018a6146104ee57806373cbccba146104f65780637c40516414610516578063853cc4b61461052957806386e68b901461053c578063875b50761461056157600080fd5b806339c94d2d1161020b578063619aa727116101c4578063619aa7271461046e5780636632fa18146104815780636f98a8a214610494578063702798df146104a757806370a08231146104ba57806370a56c73146104cd57600080fd5b806339c94d2d146103cf57806342caaeb4146103e457806343859632146103f757806355f3985b14610425578063579b5a47146104535780635d801b371461046657600080fd5b806318160ddd1161025d57806318160ddd1461036857806323b872dd1461037057806323fd498b146103835780632e8f34131461038b578063313ce567146103ae57806332cb6b0c146103bd57600080fd5b8063013cf08b1461029a57806306fdde03146102c9578063076ef625146102de578063095ea7b3146103175780630eab64091461033a575b600080fd5b6102ad6102a8366004612cfc565b610715565b6040516102c09796959493929190612d5b565b60405180910390f35b6102d16107ff565b6040516102c09190612da8565b6103096102ec366004612dde565b600b60209081526000928352604080842090915290825290205481565b6040519081526020016102c0565b61032a610325366004612e0a565b610891565b60405190151581526020016102c0565b61032a610348366004612dde565b600e60209081526000928352604080842090915290825290205460ff1681565b600254610309565b61032a61037e366004612e34565b6108ab565b600954610309565b61039e610399366004612cfc565b6108cf565b6040516102c09493929190612e71565b604051601281526020016102c0565b6103096a084595161401484a00000081565b6103e26103dd366004612cfc565b610a67565b005b6103e26103f2366004612eae565b610b46565b61032a610405366004612dde565b600a60209081526000928352604080842090915290825290205460ff1681565b61032a610433366004612dde565b600c60209081526000928352604080842090915290825290205460ff1681565b610309610461366004612cfc565b610d86565b600854610309565b61032a61047c366004612ede565b610df7565b61030961048f366004612cfc565b610e15565b6103e26104a2366004612e0a565b610e83565b6103e26104b5366004612f45565b610e96565b6103096104c8366004612ede565b61104f565b6104e06104db366004612cfc565b61106a565b6040516102c0929190612fcd565b6103e2611112565b610309610504366004612cfc565b600d6020526000908152604090205481565b61032a610524366004612cfc565b611126565b6103e2610537366004612cfc565b611158565b61054f61054a366004612cfc565b611433565b6040516102c096959493929190612fe6565b61057461056f366004612cfc565b611512565b6040516001600160a01b0390911681526020016102c0565b61032a61059a366004612ede565b60076020526000908152604090205460ff1681565b6005546001600160a01b0316610574565b6105746105ce366004612cfc565b61154a565b6102d1611582565b600654610574906001600160a01b031681565b6103e26105fc366004612e0a565b611591565b61032a61060f366004612ede565b600f6020526000908152604090205460ff1681565b61030961063236600461306d565b6116f3565b61032a610645366004612e0a565b611ac3565b6103e2610658366004612cfc565b611bd9565b6103e261066b366004612cfc565b611cad565b610309611ee9565b61030961068636600461311d565b6001600160a01b03918216600090815260016020908152604080832093909416825291909152205490565b6103e2611f40565b6103096106c7366004613147565b611fd9565b6103e26106da366004612eae565b612323565b6103e26106ed366004612ede565b61256f565b610705610700366004612cfc565b6125aa565b6040516102c094939291906131a1565b6009818154811061072557600080fd5b9060005260206000209060090201600091509050806000018054610748906131eb565b80601f0160208091040260200160405190810160405280929190818152602001828054610774906131eb565b80156107c15780601f10610796576101008083540402835291602001916107c1565b820191906000526020600020905b8154815290600101906020018083116107a457829003601f168201915b50505060018401546004850154600586015460068701546007880154600890980154969793966001600160a01b03909316955090935060ff16919087565b60606003805461080e906131eb565b80601f016020809104026020016040519081016040528092919081815260200182805461083a906131eb565b80156108875780601f1061085c57610100808354040283529160200191610887565b820191906000526020600020905b81548152906001019060200180831161086a57829003601f168201915b5050505050905090565b60003361089f81858561279b565b60019150505b92915050565b6000336108b98582856127a8565b6108c4858585612827565b506001949350505050565b6060600080600080600886815481106108ea576108ea61321f565b90600052602060002090600702016040518060e0016040529081600082018054610913906131eb565b80601f016020809104026020016040519081016040528092919081815260200182805461093f906131eb565b801561098c5780601f106109615761010080835404028352916020019161098c565b820191906000526020600020905b81548152906001019060200180831161096f57829003601f168201915b505050505081526020016001820154815260200160028201548152602001600382015481526020016004820160009054906101000a90046001600160a01b03166001600160a01b03166001600160a01b0316815260200160058201805480602002602001604051908101604052809291908181526020018280548015610a3157602002820191906000526020600020905b815481526020019060010190808311610a1d575b50505091835250506006919091015460209182015281519082015160408301516060909301519199909850919650945092505050565b6000610a723361104f565b905081811015610ad55760405162461bcd60e51b815260206004820152602360248201527f4e6f7420656e6f756768204d474f5620746f6b656e7320666f7220646f6e617460448201526234b7b760e91b60648201526084015b60405180910390fd5b610adf3383612886565b15610afc5760405162461bcd60e51b8152600401610acc90613235565b670de0b6b3a764000082610b0f3361104f565b610b1991906132e4565b1015610b3757336000908152600f60205260409020805460ff191690555b610b42333084612827565b5050565b610b4f33610df7565b610b935760405162461bcd60e51b81526020600482015260156024820152744f6e6c79206d656d626572732063616e20766f746560581b6044820152606401610acc565b6000828152600e6020908152604080832033845290915290205460ff1615610bfd5760405162461bcd60e51b815260206004820152601e60248201527f416c726561647920766f74656420666f722074686973207061796d656e7400006044820152606401610acc565b60098281548110610c1057610c1061321f565b9060005260206000209060090201600101544210610c405760405162461bcd60e51b8152600401610acc906132f7565b60098281548110610c5357610c5361321f565b600091825260209091206006600990920201015460ff16610cab5760405162461bcd60e51b8152602060048201526012602482015271141c9bda9958dd081b9bdd08199d5b99195960721b6044820152606401610acc565b60098281548110610cbe57610cbe61321f565b90600052602060002090600902016003018054905060098381548110610ce657610ce661321f565b90600052602060002090600902016008015410610d395760405162461bcd60e51b8152602060048201526011602482015270416c6c207061796d656e7473206d61646560781b6044820152606401610acc565b6000828152600e602090815260408083203384529091529020805460ff191660011790558015610b42576000828152600d60205260408120805491610d7d83613318565b91905055505050565b60008060098381548110610d9c57610d9c61321f565b9060005260206000209060090201905060005b8160080154811015610df057816002018181548110610dd057610dd061321f565b906000526020600020015483610de69190613331565b9250600101610daf565b5050919050565b6001600160a01b03166000908152600f602052604090205460ff1690565b60008060098381548110610e2b57610e2b61321f565b906000526020600020906009020190508060030180549050816008015410610e57575060001992915050565b80600301816008015481548110610e7057610e7061321f565b9060005260206000200154915050919050565b610e8b6129b1565b610b42308383612827565b610e9f33610df7565b610eeb5760405162461bcd60e51b815260206004820152601d60248201527f4f6e6c79206d656d626572732063616e2074616b6520737572766579730000006044820152606401610acc565b600060088481548110610f0057610f0061321f565b9060005260206000209060070201905080600101544210610f335760405162461bcd60e51b8152600401610acc906132f7565b6003810154821115610f7a5760405162461bcd60e51b815260206004820152601060248201526f546f6f206d616e792063686f6963657360801b6044820152606401610acc565b60005b82811015611031578160020154848483818110610f9c57610f9c61321f565b9050602002013510610fe15760405162461bcd60e51b815260206004820152600e60248201526d496e76616c69642063686f69636560901b6044820152606401610acc565b81600501848483818110610ff757610ff761321f565b905060200201358154811061100e5761100e61321f565b6000918252602082200180549161102483613318565b9091555050600101610f7d565b5060068101805490600061104483613318565b919050555050505050565b6001600160a01b031660009081526020819052604090205490565b60006060600883815481106110815761108161321f565b906000526020600020906007020160060154600884815481106110a6576110a661321f565b90600052602060002090600702016005018080548060200260200160405190810160405280929190818152602001828054801561110257602002820191906000526020600020905b8154815260200190600101908083116110ee575b5050505050905091509150915091565b61111a6129b1565b61112460006129de565b565b60006009828154811061113b5761113b61321f565b600091825260209091206006600990920201015460ff1692915050565b60006009828154811061116d5761116d61321f565b60009182526020909120600990910201600681015490915060ff1680156111a0575060048101546001600160a01b031633145b6111db5760405162461bcd60e51b815260206004820152600c60248201526b155b985d5d1a1bdc9a5e995960a21b6044820152606401610acc565b600381015460088201541061121d5760405162461bcd60e51b8152602060048201526008602482015267105b1b081c185a5960c21b6044820152606401610acc565b806003018160080154815481106112365761123661321f565b906000526020600020015481600701546112509190613331565b42101561128d5760405162461bcd60e51b815260206004820152600b60248201526a139bdd08191d59481e595d60aa1b6044820152606401610acc565b611295612a30565b6000838152600d60205260409020546112af906064613344565b10156112fd5760405162461bcd60e51b815260206004820152601c60248201527f4e6f7420656e6f75676820766f74657320666f72207061796d656e74000000006044820152606401610acc565b600654600482015460088301546002840180546001600160a01b039485169463a9059cbb9416929081106113335761133361321f565b6000918252602090912001546040516001600160e01b031960e085901b1681526001600160a01b03909216600483015260248201526044016020604051808303816000875af115801561138a573d6000803e3d6000fd5b505050506040513d601f19601f820116820180604052508101906113ae919061335b565b506008810180549060006113c183613318565b90915550506000828152600d602052604081208190555b60095481101561142e576000838152600e6020908152604080832033845290915290205460ff1615611426576000838152600e602090815260408083203384529091529020805460ff191690555b6001016113d8565b505050565b6008818154811061144357600080fd5b9060005260206000209060070201600091509050806000018054611466906131eb565b80601f0160208091040260200160405190810160405280929190818152602001828054611492906131eb565b80156114df5780601f106114b4576101008083540402835291602001916114df565b820191906000526020600020905b8154815290600101906020018083116114c257829003601f168201915b50505050600183015460028401546003850154600486015460069096015494959294919350916001600160a01b03169086565b6000600882815481106115275761152761321f565b60009182526020909120600460079092020101546001600160a01b031692915050565b60006009828154811061155f5761155f61321f565b60009182526020909120600460099092020101546001600160a01b031692915050565b60606004805461080e906131eb565b6000818152600a6020908152604080832033845290915290205460ff16156115eb5760405162461bcd60e51b815260206004820152600d60248201526c105b1c9958591e481d9bdd1959609a1b6044820152606401610acc565b6000818152600c6020908152604080832033845290915290205460ff16156116495760405162461bcd60e51b8152602060048201526011602482015270105b1c9958591e4819195b1959d85d1959607a1b6044820152606401610acc565b61165282610df7565b6116a85760405162461bcd60e51b815260206004820152602160248201527f596f752063616e6e6f742064656c656761746520746f206e6f6e2d6d656d62656044820152603960f91b6064820152608401610acc565b6000818152600c602090815260408083203384528252808320805460ff19166001179055838352600b82528083206001600160a01b03861684529091528120805491610d7d83613318565b60006116fe33610df7565b61175c5760405162461bcd60e51b815260206004820152602960248201527f4f6e6c79206d656d626572732063616e207375626d69742070726f6a6563742060448201526870726f706f73616c7360b81b6064820152608401610acc565b674563918244f4000061176e3361104f565b10156117b55760405162461bcd60e51b81526020600482015260166024820152750d481351d3d5881d1bdad95b9cc81c995c5d5a5c995960521b6044820152606401610acc565b6117c733674563918244f40000612886565b156117e45760405162461bcd60e51b8152600401610acc90613235565b6006546040516323b872dd60e01b815233600482015230602482015268d8d726b7177a80000060448201526001600160a01b03909116906323b872dd906064016020604051808303816000875af1158015611843573d6000803e3d6000fd5b505050506040513d601f19601f82011682018060405250810190611867919061335b565b6118b35760405162461bcd60e51b815260206004820152601860248201527f3430303020544c20746f6b656e732072657175697265642e00000000000000006044820152606401610acc565b670de0b6b3a7640000674563918244f400006118ce3361104f565b6118d891906132e4565b10156118f657336000908152600f60205260409020805460ff191690555b6119093330674563918244f40000612827565b604080516101406020601f8b01819004028201810190925261012081018981526009928291908c908c908190850183828082843760009201919091525050509082525060208082018a905260408051898302818101840183528a82529190930192918a918a918291908501908490808284376000920191909152505050908252506040805160208781028281018201909352878252928301929091889188918291850190849080828437600092018290525093855250503360208085019190915260408401839052606084018390526080840183905260a0909301829052508354600181018555938152208151919260090201908190611a0990826133dc565b50602082810151600183015560408301518051611a2c9260028501920190612ca5565b5060608201518051611a48916003840191602090910190612ca5565b5060808201516004820180546001600160a01b0319166001600160a01b0390921691909117905560a0820151600582015560c082015160068201805460ff191691151591909117905560e0820151600782015561010090910151600890910155600954611ab7906001906132e4565b98975050505050505050565b6000611acf3383612886565b15611aec5760405162461bcd60e51b8152600401610acc90613235565b670de0b6b3a7640000821115611b20576001600160a01b0383166000908152600f60205260409020805460ff191660011790555b6000611b2b3361104f565b905082811015611b8c5760405162461bcd60e51b815260206004820152602660248201527f45524332303a207472616e7366657220616d6f756e7420657863656564732062604482015265616c616e636560d01b6064820152608401610acc565b670de0b6b3a764000083611b9f3361104f565b611ba991906132e4565b1015611bc757336000908152600f60205260409020805460ff191690555b611bd18484612a98565b949350505050565b6006546040516323b872dd60e01b8152336004820152306024820152604481018390526001600160a01b03909116906323b872dd906064016020604051808303816000875af1158015611c30573d6000803e3d6000fd5b505050506040513d601f19601f82011682018060405250810190611c54919061335b565b611caa5760405162461bcd60e51b815260206004820152602160248201527f4e6f7420656e6f75676820544c20746f6b656e7320666f7220646f6e6174696f6044820152603760f91b6064820152608401610acc565b50565b600060098281548110611cc257611cc261321f565b6000918252602090912060099091020160048101549091506001600160a01b03163314611d1d5760405162461bcd60e51b81526020600482015260096024820152682737ba1037bbb732b960b91b6044820152606401610acc565b80600101544210611d405760405162461bcd60e51b8152600401610acc906132f7565b600681015460ff1615611d865760405162461bcd60e51b815260206004820152600e60248201526d105b1c9958591e48199d5b99195960921b6044820152606401610acc565b611d8e612a30565b6005820154611d9e90600a613344565b1015611ddf5760405162461bcd60e51b815260206004820152601060248201526f4e6f7420656e6f75676820766f74657360801b6044820152606401610acc565b6000805b6002830154811015611e2457826002018181548110611e0457611e0461321f565b906000526020600020015482611e1a9190613331565b9150600101611de3565b506006546040516370a0823160e01b815230600482015282916001600160a01b0316906370a0823190602401602060405180830381865afa158015611e6d573d6000803e3d6000fd5b505050506040513d601f19601f82011682018060405250810190611e91919061349b565b1015611ecf5760405162461bcd60e51b815260206004820152600d60248201526c139bdd08195b9bdd59da081513609a1b6044820152606401610acc565b5060068101805460ff191660011790554260079091015550565b6000805b600954811015611f3c5760098181548110611f0a57611f0a61321f565b600091825260209091206006600990920201015460ff1615611f345781611f3081613318565b9250505b600101611eed565b5090565b3360009081526007602052604090205460ff1615611f925760405162461bcd60e51b815260206004820152600f60248201526e105b1c9958591e4818db185a5b5959608a1b6044820152606401610acc565b611fa53033670de0b6b3a7640000612827565b336000908152600f602090815260408083208054600160ff1991821681179092556007909352922080549091169091179055565b6000671bc16d674ec80000683635c9adc5dea00000611ff733610df7565b6120435760405162461bcd60e51b815260206004820152601f60248201527f4f6e6c79206d656d626572732063616e207375626d69742073757276657973006044820152606401610acc565b8161204d3361104f565b101561209b5760405162461bcd60e51b815260206004820152601f60248201527f4174206c656173742032204d474f5620746f6b656e73207265717569726564006044820152606401610acc565b6120a53383612886565b156120c25760405162461bcd60e51b8152600401610acc90613235565b6006546040516323b872dd60e01b8152336004820152306024820152604481018390526001600160a01b03909116906323b872dd906064016020604051808303816000875af1158015612119573d6000803e3d6000fd5b505050506040513d601f19601f8201168201806040525081019061213d919061335b565b6121935760405162461bcd60e51b815260206004820152602160248201527f4174206c65617374203130303020544c20746f6b656e732072657175697265646044820152601760f91b6064820152608401610acc565b670de0b6b3a7640000826121a63361104f565b6121b091906132e4565b10156121ce57336000908152600f60205260409020805460ff191690555b6121d9333084612827565b604080516101006020601f8b01819004028201810190925260e081018981526008928291908c908c908190850183828082843760009201919091525050509082525060208101899052604081018890526060810187905233608082015260a0018767ffffffffffffffff81111561225257612252613378565b60405190808252806020026020018201604052801561227b578160200160208202803683370190505b5081526000602091820181905283546001810185559381522081519192600702019081906122a990826133dc565b506020828101516001830155604083015160028301556060830151600383015560808301516004830180546001600160a01b0319166001600160a01b0390921691909117905560a083015180516123069260058501920190612ca5565b5060c09190910151600690910155600854611ab7906001906132e4565b61232c33610df7565b6123705760405162461bcd60e51b81526020600482015260156024820152744f6e6c79206d656d626572732063616e20766f746560581b6044820152606401610acc565b6000828152600a6020908152604080832033845290915290205460ff1615806123b157506000828152600b6020908152604080832033845290915290205415155b6123fd5760405162461bcd60e51b815260206004820152601760248201527f596f752068617665206e6f20766f746573206c6566742e0000000000000000006044820152606401610acc565b600982815481106124105761241061321f565b600091825260209091206006600990920201015460ff16156124655760405162461bcd60e51b815260206004820152600e60248201526d105b1c9958591e48199d5b99195960921b6044820152606401610acc565b600982815481106124785761247861321f565b90600052602060002090600902016001015442106124a85760405162461bcd60e51b8152600401610acc906132f7565b6000828152600a6020908152604080832033845290915290205460ff161561250b576000828152600b602090815260408083203384529091529020546124f0906001906132e4565b6000838152600b602090815260408083203384529091529020555b801561254857600982815481106125245761252461321f565b60009182526020822060056009909202010180549161254283613318565b91905055505b506000908152600a602090815260408083203384529091529020805460ff19166001179055565b6125776129b1565b6001600160a01b0381166125a157604051631e4fbdf760e01b815260006004820152602401610acc565b611caa816129de565b606060006060806000600986815481106125c6576125c661321f565b9060005260206000209060090201604051806101200160405290816000820180546125f0906131eb565b80601f016020809104026020016040519081016040528092919081815260200182805461261c906131eb565b80156126695780601f1061263e57610100808354040283529160200191612669565b820191906000526020600020905b81548152906001019060200180831161264c57829003601f168201915b5050505050815260200160018201548152602001600282018054806020026020016040519081016040528092919081815260200182805480156126cb57602002820191906000526020600020905b8154815260200190600101908083116126b7575b505050505081526020016003820180548060200260200160405190810160405280929190818152602001828054801561272357602002820191906000526020600020905b81548152602001906001019080831161270f575b505050918352505060048201546001600160a01b03166020808301919091526005830154604080840191909152600684015460ff1615156060808501919091526007850154608085015260089094015460a0909301929092528351908401519184015193909201519199909850919650945092505050565b61142e8383836001612aa6565b6001600160a01b03838116600090815260016020908152604080832093861683529290522054600019811015612821578181101561281257604051637dc7a0d960e11b81526001600160a01b03841660048201526024810182905260448101839052606401610acc565b61282184848484036000612aa6565b50505050565b6001600160a01b03831661285157604051634b637e8f60e11b815260006004820152602401610acc565b6001600160a01b03821661287b5760405163ec442f0560e01b815260006004820152602401610acc565b61142e838383612b7b565b60008080805b60095481101561290157600981815481106128a9576128a961321f565b906000526020600020906009020160010154421080156128eb57506000818152600a602090815260408083206001600160a01b038a16845290915290205460ff165b156128f95760019250612901565b60010161288c565b5060005b60095481101561297a57600981815481106129225761292261321f565b9060005260206000209060090201600101544210801561296457506000818152600c602090815260408083206001600160a01b038a16845290915290205460ff165b15612972576001915061297a565b600101612905565b506129848561104f565b84118015612996575081806129965750805b156129a6576001925050506108a5565b506000949350505050565b6005546001600160a01b031633146111245760405163118cdaa760e01b8152336004820152602401610acc565b600580546001600160a01b038381166001600160a01b0319831681179093556040519116919082907f8be0079c531659141344cd1fd0a4f28419497f9722a3daafe3b4186f6b6457e090600090a35050565b600080805b600854811015612a9257612a7760088281548110612a5557612a5561321f565b60009182526020909120600460079092020101546001600160a01b0316610df7565b15612a8a5781612a8681613318565b9250505b600101612a35565b50919050565b60003361089f818585612827565b6001600160a01b038416612ad05760405163e602df0560e01b815260006004820152602401610acc565b6001600160a01b038316612afa57604051634a1406b160e11b815260006004820152602401610acc565b6001600160a01b038085166000908152600160209081526040808320938716835292905220829055801561282157826001600160a01b0316846001600160a01b03167f8c5be1e5ebec7d5bd14f71427d1e84f3dd0314c0f7b2291e5b200ac8c7c3b92584604051612b6d91815260200190565b60405180910390a350505050565b6001600160a01b038316612ba6578060026000828254612b9b9190613331565b90915550612c189050565b6001600160a01b03831660009081526020819052604090205481811015612bf95760405163391434e360e21b81526001600160a01b03851660048201526024810182905260448101839052606401610acc565b6001600160a01b03841660009081526020819052604090209082900390555b6001600160a01b038216612c3457600280548290039055612c53565b6001600160a01b03821660009081526020819052604090208054820190555b816001600160a01b0316836001600160a01b03167fddf252ad1be2c89b69c2b068fc378daa952ba7f163c4a11628f55a4df523b3ef83604051612c9891815260200190565b60405180910390a3505050565b828054828255906000526020600020908101928215612ce0579160200282015b82811115612ce0578251825591602001919060010190612cc5565b50611f3c9291505b80821115611f3c5760008155600101612ce8565b600060208284031215612d0e57600080fd5b5035919050565b6000815180845260005b81811015612d3b57602081850181015186830182015201612d1f565b506000602082860101526020601f19601f83011685010191505092915050565b60e081526000612d6e60e083018a612d15565b6020830198909852506001600160a01b039590951660408601526060850193909352901515608084015260a083015260c090910152919050565b602081526000612dbb6020830184612d15565b9392505050565b80356001600160a01b0381168114612dd957600080fd5b919050565b60008060408385031215612df157600080fd5b82359150612e0160208401612dc2565b90509250929050565b60008060408385031215612e1d57600080fd5b612e2683612dc2565b946020939093013593505050565b600080600060608486031215612e4957600080fd5b612e5284612dc2565b9250612e6060208501612dc2565b929592945050506040919091013590565b608081526000612e846080830187612d15565b6020830195909552506040810192909252606090910152919050565b8015158114611caa57600080fd5b60008060408385031215612ec157600080fd5b823591506020830135612ed381612ea0565b809150509250929050565b600060208284031215612ef057600080fd5b612dbb82612dc2565b60008083601f840112612f0b57600080fd5b50813567ffffffffffffffff811115612f2357600080fd5b6020830191508360208260051b8501011115612f3e57600080fd5b9250929050565b600080600060408486031215612f5a57600080fd5b83359250602084013567ffffffffffffffff811115612f7857600080fd5b612f8486828701612ef9565b9497909650939450505050565b600081518084526020840193506020830160005b82811015612fc3578151865260209586019590910190600101612fa5565b5093949350505050565b828152604060208201526000611bd16040830184612f91565b60c081526000612ff960c0830189612d15565b602083019790975250604081019490945260608401929092526001600160a01b0316608083015260a090910152919050565b60008083601f84011261303d57600080fd5b50813567ffffffffffffffff81111561305557600080fd5b602083019150836020828501011115612f3e57600080fd5b60008060008060008060006080888a03121561308857600080fd5b873567ffffffffffffffff81111561309f57600080fd5b6130ab8a828b0161302b565b90985096505060208801359450604088013567ffffffffffffffff8111156130d257600080fd5b6130de8a828b01612ef9565b909550935050606088013567ffffffffffffffff8111156130fe57600080fd5b61310a8a828b01612ef9565b989b979a50959850939692959293505050565b6000806040838503121561313057600080fd5b61313983612dc2565b9150612e0160208401612dc2565b60008060008060006080868803121561315f57600080fd5b853567ffffffffffffffff81111561317657600080fd5b6131828882890161302b565b9099909850602088013597604081013597506060013595509350505050565b6080815260006131b46080830187612d15565b85602084015282810360408401526131cc8186612f91565b905082810360608401526131e08185612f91565b979650505050505050565b600181811c908216806131ff57607f821691505b602082108103612a9257634e487b7160e01b600052602260045260246000fd5b634e487b7160e01b600052603260045260246000fd5b6020808252606d908201527f53696e63652074686973207472616e7366657220656e647320796f7572206d6560408201527f6d626572736869702064756520746f2062616c616e636520616e6420796f752060608201527f6861766520756e66696e697368656420766f74696e672c2070726f636573732060808201526c34b99031b0b731b2b63632b21760991b60a082015260c00190565b634e487b7160e01b600052601160045260246000fd5b818103818111156108a5576108a56132ce565b602080825260079082015266115e1c1a5c995960ca1b604082015260600190565b60006001820161332a5761332a6132ce565b5060010190565b808201808211156108a5576108a56132ce565b80820281158282048414176108a5576108a56132ce565b60006020828403121561336d57600080fd5b8151612dbb81612ea0565b634e487b7160e01b600052604160045260246000fd5b601f82111561142e57806000526020600020601f840160051c810160208510156133b55750805b601f840160051c820191505b818110156133d557600081556001016133c1565b5050505050565b815167ffffffffffffffff8111156133f6576133f6613378565b61340a8161340484546131eb565b8461338e565b6020601f82116001811461343e57600083156134265750848201515b600019600385901b1c1916600184901b1784556133d5565b600084815260208120601f198516915b8281101561346e578785015182556020948501946001909201910161344e565b508482101561348c5786840151600019600387901b60f8161c191681555b50505050600190811b01905550565b6000602082840312156134ad57600080fd5b505191905056fea2646970667358221220047fcb5bd01f6e0f2e5e875a7f6ad123a29707caa3d9b30cc508ad012f7a15fc64736f6c634300081c0033",
  "linkReferences": {},
  "deployedLinkReferences": {}
}