{
  "_format": "hh-sol-artifact-1",
  "contractName": "MyGov",
  "sourceName": "contracts/MyGov.sol",
  "abi": [
    {
      "inputs": [
        {
          "internalType": "address",
          "name": "_tlToken",
          "type": "address"
        }
      ],
      "stateMutability": "nonpayable",
      "type": "constructor"
    },
    {
      "inputs": [
        {
          "internalType": "address",
          "name": "spender",
          "type": "address"
        },
        {
          "internalType": "uint256",
          "name": "allowance",
          "type": "uint256"
        },
        {
          "internalType": "uint256",
          "name": "needed",
          "type": "uint256"
        }
      ],
      "name": "ERC20InsufficientAllowance",
      "type": "error"
    },
    {
      "inputs": [
        {
          "internalType": "address",
          "name": "sender",
          "type": "address"
        },
        {
          "internalType": "uint256",
          "name": "balance",
          "type": "uint256"
        },
        {
          "internalType": "uint256",
          "name": "needed",
          "type": "uint256"
        }
      ],
      "name": "ERC20InsufficientBalance",
      "type": "error"
    },
    {
      "inputs": [
        {
          "internalType": "address",
          "name": "approver",
          "type": "address"
        }
      ],
      "name": "ERC20InvalidApprover",
      "type": "error"
    },
    {
      "inputs": [
        {
          "internalType": "address",
          "name": "receiver",
          "type": "address"
        }
      ],
      "name": "ERC20InvalidReceiver",
      "type": "error"
    },
    {
      "inputs": [
        {
          "internalType": "address",
          "name": "sender",
          "type": "address"
        }
      ],
      "name": "ERC20InvalidSender",
      "type": "error"
    },
    {
      "inputs": [
        {
          "internalType": "address",
          "name": "spender",
          "type": "address"
        }
      ],
      "name": "ERC20InvalidSpender",
      "type": "error"
    },
    {
      "inputs": [
        {
          "internalType": "address",
          "name": "owner",
          "type": "address"
        }
      ],
      "name": "OwnableInvalidOwner",
      "type": "error"
    },
    {
      "inputs": [
        {
          "internalType": "address",
          "name": "account",
          "type": "address"
        }
      ],
      "name": "OwnableUnauthorizedAccount",
      "type": "error"
    },
    {
      "anonymous": false,
      "inputs": [
        {
          "indexed": true,
          "internalType": "address",
          "name": "owner",
          "type": "address"
        },
        {
          "indexed": true,
          "internalType": "address",
          "name": "spender",
          "type": "address"
        },
        {
          "indexed": false,
          "internalType": "uint256",
          "name": "value",
          "type": "uint256"
        }
      ],
      "name": "Approval",
      "type": "event"
    },
    {
      "anonymous": false,
      "inputs": [
        {
          "indexed": true,
          "internalType": "address",
          "name": "previousOwner",
          "type": "address"
        },
        {
          "indexed": true,
          "internalType": "address",
          "name": "newOwner",
          "type": "address"
        }
      ],
      "name": "OwnershipTransferred",
      "type": "event"
    },
    {
      "anonymous": false,
      "inputs": [
        {
          "indexed": true,
          "internalType": "address",
          "name": "from",
          "type": "address"
        },
        {
          "indexed": true,
          "internalType": "address",
          "name": "to",
          "type": "address"
        },
        {
          "indexed": false,
          "internalType": "uint256",
          "name": "value",
          "type": "uint256"
        }
      ],
      "name": "Transfer",
      "type": "event"
    },
    {
      "inputs": [],
      "name": "MAX_SUPPLY",
      "outputs": [
        {
          "internalType": "uint256",
          "name": "",
          "type": "uint256"
        }
      ],
      "stateMutability": "view",
      "type": "function"
    },
    {
      "inputs": [
        {
          "internalType": "address",
          "name": "owner",
          "type": "address"
        },
        {
          "internalType": "address",
          "name": "spender",
          "type": "address"
        }
      ],
      "name": "allowance",
      "outputs": [
        {
          "internalType": "uint256",
          "name": "",
          "type": "uint256"
        }
      ],
      "stateMutability": "view",
      "type": "function"
    },
    {
      "inputs": [
        {
          "internalType": "address",
          "name": "spender",
          "type": "address"
        },
        {
          "internalType": "uint256",
          "name": "value",
          "type": "uint256"
        }
      ],
      "name": "approve",
      "outputs": [
        {
          "internalType": "bool",
          "name": "",
          "type": "bool"
        }
      ],
      "stateMutability": "nonpayable",
      "type": "function"
    },
    {
      "inputs": [
        {
          "internalType": "address",
          "name": "account",
          "type": "address"
        }
      ],
      "name": "balanceOf",
      "outputs": [
        {
          "internalType": "uint256",
          "name": "",
          "type": "uint256"
        }
      ],
      "stateMutability": "view",
      "type": "function"
    },
    {
      "inputs": [],
      "name": "decimals",
      "outputs": [
        {
          "internalType": "uint8",
          "name": "",
          "type": "uint8"
        }
      ],
      "stateMutability": "view",
      "type": "function"
    },
    {
      "inputs": [
        {
          "internalType": "address",
          "name": "memberaddr",
          "type": "address"
        },
        {
          "internalType": "uint256",
          "name": "projectid",
          "type": "uint256"
        }
      ],
      "name": "delegateVoteTo",
      "outputs": [],
      "stateMutability": "nonpayable",
      "type": "function"
    },
    {
      "inputs": [
        {
          "internalType": "uint256",
          "name": "amount",
          "type": "uint256"
        }
      ],
      "name": "donateMyGovToken",
      "outputs": [],
      "stateMutability": "nonpayable",
      "type": "function"
    },
    {
      "inputs": [
        {
          "internalType": "uint256",
          "name": "amount",
          "type": "uint256"
        }
      ],
      "name": "donateTLToken",
      "outputs": [],
      "stateMutability": "nonpayable",
      "type": "function"
    },
    {
      "inputs": [],
      "name": "faucet",
      "outputs": [],
      "stateMutability": "nonpayable",
      "type": "function"
    },
    {
      "inputs": [
        {
          "internalType": "address",
          "name": "",
          "type": "address"
        }
      ],
      "name": "faucetClaimed",
      "outputs": [
        {
          "internalType": "bool",
          "name": "",
          "type": "bool"
        }
      ],
      "stateMutability": "view",
      "type": "function"
    },
    {
      "inputs": [
        {
          "internalType": "uint256",
          "name": "projectid",
          "type": "uint256"
        }
      ],
      "name": "getIsProjectFunded",
      "outputs": [
        {
          "internalType": "bool",
          "name": "",
          "type": "bool"
        }
      ],
      "stateMutability": "view",
      "type": "function"
    },
    {
      "inputs": [],
      "name": "getNoOfFundedProjects",
      "outputs": [
        {
          "internalType": "uint256",
          "name": "count",
          "type": "uint256"
        }
      ],
      "stateMutability": "view",
      "type": "function"
    },
    {
      "inputs": [],
      "name": "getNoOfProjectProposals",
      "outputs": [
        {
          "internalType": "uint256",
          "name": "",
          "type": "uint256"
        }
      ],
      "stateMutability": "view",
      "type": "function"
    },
    {
      "inputs": [],
      "name": "getNoOfSurveys",
      "outputs": [
        {
          "internalType": "uint256",
          "name": "",
          "type": "uint256"
        }
      ],
      "stateMutability": "view",
      "type": "function"
    },
    {
      "inputs": [
        {
          "internalType": "uint256",
          "name": "activityid",
          "type": "uint256"
        }
      ],
      "name": "getProjectInfo",
      "outputs": [
        {
          "internalType": "string",
          "name": "",
          "type": "string"
        },
        {
          "internalType": "uint256",
          "name": "",
          "type": "uint256"
        },
        {
          "internalType": "uint256[]",
          "name": "",
          "type": "uint256[]"
        },
        {
          "internalType": "uint256[]",
          "name": "",
          "type": "uint256[]"
        }
      ],
      "stateMutability": "view",
      "type": "function"
    },
    {
      "inputs": [
        {
          "internalType": "uint256",
          "name": "projectid",
          "type": "uint256"
        }
      ],
      "name": "getProjectNextTLPayment",
      "outputs": [
        {
          "internalType": "int256",
          "name": "",
          "type": "int256"
        }
      ],
      "stateMutability": "view",
      "type": "function"
    },
    {
      "inputs": [
        {
          "internalType": "uint256",
          "name": "projectid",
          "type": "uint256"
        }
      ],
      "name": "getProjectOwner",
      "outputs": [
        {
          "internalType": "address",
          "name": "",
          "type": "address"
        }
      ],
      "stateMutability": "view",
      "type": "function"
    },
    {
      "inputs": [
        {
          "internalType": "uint256",
          "name": "surveyid",
          "type": "uint256"
        }
      ],
      "name": "getSurveyInfo",
      "outputs": [
        {
          "internalType": "string",
          "name": "",
          "type": "string"
        },
        {
          "internalType": "uint256",
          "name": "",
          "type": "uint256"
        },
        {
          "internalType": "uint256",
          "name": "",
          "type": "uint256"
        },
        {
          "internalType": "uint256",
          "name": "",
          "type": "uint256"
        }
      ],
      "stateMutability": "view",
      "type": "function"
    },
    {
      "inputs": [
        {
          "internalType": "uint256",
          "name": "surveyid",
          "type": "uint256"
        }
      ],
      "name": "getSurveyOwner",
      "outputs": [
        {
          "internalType": "address",
          "name": "",
          "type": "address"
        }
      ],
      "stateMutability": "view",
      "type": "function"
    },
    {
      "inputs": [
        {
          "internalType": "uint256",
          "name": "surveyid",
          "type": "uint256"
        }
      ],
      "name": "getSurveyResults",
      "outputs": [
        {
          "internalType": "uint256",
          "name": "",
          "type": "uint256"
        },
        {
          "internalType": "uint256[]",
          "name": "",
          "type": "uint256[]"
        }
      ],
      "stateMutability": "view",
      "type": "function"
    },
    {
      "inputs": [
        {
          "internalType": "uint256",
          "name": "projectid",
          "type": "uint256"
        }
      ],
      "name": "getTLReceivedByProject",
      "outputs": [
        {
          "internalType": "uint256",
          "name": "total",
          "type": "uint256"
        }
      ],
      "stateMutability": "view",
      "type": "function"
    },
    {
      "inputs": [
        {
          "internalType": "uint256",
          "name": "",
          "type": "uint256"
        },
        {
          "internalType": "address",
          "name": "",
          "type": "address"
        }
      ],
      "name": "hasDelegated",
      "outputs": [
        {
          "internalType": "bool",
          "name": "",
          "type": "bool"
        }
      ],
      "stateMutability": "view",
      "type": "function"
    },
    {
      "inputs": [
        {
          "internalType": "uint256",
          "name": "",
          "type": "uint256"
        },
        {
          "internalType": "address",
          "name": "",
          "type": "address"
        }
      ],
      "name": "hasPaid",
      "outputs": [
        {
          "internalType": "bool",
          "name": "",
          "type": "bool"
        }
      ],
      "stateMutability": "view",
      "type": "function"
    },
    {
      "inputs": [
        {
          "internalType": "uint256",
          "name": "",
          "type": "uint256"
        },
        {
          "internalType": "address",
          "name": "",
          "type": "address"
        }
      ],
      "name": "hasVoted",
      "outputs": [
        {
          "internalType": "bool",
          "name": "",
          "type": "bool"
        }
      ],
      "stateMutability": "view",
      "type": "function"
    },
    {
      "inputs": [
        {
          "internalType": "uint256",
          "name": "",
          "type": "uint256"
        },
        {
          "internalType": "address",
          "name": "",
          "type": "address"
        }
      ],
      "name": "hasVotedForPayment",
      "outputs": [
        {
          "internalType": "bool",
          "name": "",
          "type": "bool"
        }
      ],
      "stateMutability": "view",
      "type": "function"
    },
    {
      "inputs": [
        {
          "internalType": "address",
          "name": "user",
          "type": "address"
        }
      ],
      "name": "isContractMember",
      "outputs": [
        {
          "internalType": "bool",
          "name": "",
          "type": "bool"
        }
      ],
      "stateMutability": "view",
      "type": "function"
    },
    {
      "inputs": [
        {
          "internalType": "address",
          "name": "",
          "type": "address"
        }
      ],
      "name": "isMember",
      "outputs": [
        {
          "internalType": "bool",
          "name": "",
          "type": "bool"
        }
      ],
      "stateMutability": "view",
      "type": "function"
    },
    {
      "inputs": [],
      "name": "name",
      "outputs": [
        {
          "internalType": "string",
          "name": "",
          "type": "string"
        }
      ],
      "stateMutability": "view",
      "type": "function"
    },
    {
      "inputs": [],
      "name": "owner",
      "outputs": [
        {
          "internalType": "address",
          "name": "",
          "type": "address"
        }
      ],
      "stateMutability": "view",
      "type": "function"
    },
    {
      "inputs": [
        {
          "internalType": "uint256",
          "name": "",
          "type": "uint256"
        }
      ],
      "name": "paymentVotes",
      "outputs": [
        {
          "internalType": "uint256",
          "name": "",
          "type": "uint256"
        }
      ],
      "stateMutability": "view",
      "type": "function"
    },
    {
      "inputs": [
        {
          "internalType": "uint256",
          "name": "",
          "type": "uint256"
        }
      ],
      "name": "proposals",
      "outputs": [
        {
          "internalType": "string",
          "name": "weburl",
          "type": "string"
        },
        {
          "internalType": "uint256",
          "name": "votedeadline",
          "type": "uint256"
        },
        {
          "internalType": "address",
          "name": "owner",
          "type": "address"
        },
        {
          "internalType": "uint256",
          "name": "yesVotes",
          "type": "uint256"
        },
        {
          "internalType": "bool",
          "name": "funded",
          "type": "bool"
        },
        {
          "internalType": "uint256",
          "name": "reservedTime",
          "type": "uint256"
        },
        {
          "internalType": "uint256",
          "name": "lastPaidIndex",
          "type": "uint256"
        }
      ],
      "stateMutability": "view",
      "type": "function"
    },
    {
      "inputs": [],
      "name": "renounceOwnership",
      "outputs": [],
      "stateMutability": "nonpayable",
      "type": "function"
    },
    {
      "inputs": [
        {
          "internalType": "uint256",
          "name": "projectid",
          "type": "uint256"
        }
      ],
      "name": "reserveProjectGrant",
      "outputs": [],
      "stateMutability": "nonpayable",
      "type": "function"
    },
    {
      "inputs": [
        {
          "internalType": "string",
          "name": "weburl",
          "type": "string"
        },
        {
          "internalType": "uint256",
          "name": "votedeadline",
          "type": "uint256"
        },
        {
          "internalType": "uint256[]",
          "name": "paymentamounts",
          "type": "uint256[]"
        },
        {
          "internalType": "uint256[]",
          "name": "payschedule",
          "type": "uint256[]"
        }
      ],
      "name": "submitProjectProposal",
      "outputs": [
        {
          "internalType": "uint256",
          "name": "",
          "type": "uint256"
        }
      ],
      "stateMutability": "nonpayable",
      "type": "function"
    },
    {
      "inputs": [
        {
          "internalType": "string",
          "name": "weburl",
          "type": "string"
        },
        {
          "internalType": "uint256",
          "name": "surveydeadline",
          "type": "uint256"
        },
        {
          "internalType": "uint256",
          "name": "numchoices",
          "type": "uint256"
        },
        {
          "internalType": "uint256",
          "name": "atmostchoices",
          "type": "uint256"
        }
      ],
      "name": "submitSurvey",
      "outputs": [
        {
          "internalType": "uint256",
          "name": "",
          "type": "uint256"
        }
      ],
      "stateMutability": "nonpayable",
      "type": "function"
    },
    {
      "inputs": [
        {
          "internalType": "uint256",
          "name": "",
          "type": "uint256"
        }
      ],
      "name": "surveys",
      "outputs": [
        {
          "internalType": "string",
          "name": "weburl",
          "type": "string"
        },
        {
          "internalType": "uint256",
          "name": "surveydeadline",
          "type": "uint256"
        },
        {
          "internalType": "uint256",
          "name": "numchoices",
          "type": "uint256"
        },
        {
          "internalType": "uint256",
          "name": "atmostchoices",
          "type": "uint256"
        },
        {
          "internalType": "address",
          "name": "owner",
          "type": "address"
        },
        {
          "internalType": "uint256",
          "name": "takerCount",
          "type": "uint256"
        }
      ],
      "stateMutability": "view",
      "type": "function"
    },
    {
      "inputs": [],
      "name": "symbol",
      "outputs": [
        {
          "internalType": "string",
          "name": "",
          "type": "string"
        }
      ],
      "stateMutability": "view",
      "type": "function"
    },
    {
      "inputs": [
        {
          "internalType": "uint256",
          "name": "surveyid",
          "type": "uint256"
        },
        {
          "internalType": "uint256[]",
          "name": "choices",
          "type": "uint256[]"
        }
      ],
      "name": "takeSurvey",
      "outputs": [],
      "stateMutability": "nonpayable",
      "type": "function"
    },
    {
      "inputs": [],
      "name": "tlToken",
      "outputs": [
        {
          "internalType": "contract ITLToken",
          "name": "",
          "type": "address"
        }
      ],
      "stateMutability": "view",
      "type": "function"
    },
    {
      "inputs": [],
      "name": "totalSupply",
      "outputs": [
        {
          "internalType": "uint256",
          "name": "",
          "type": "uint256"
        }
      ],
      "stateMutability": "view",
      "type": "function"
    },
    {
      "inputs": [
        {
          "internalType": "address",
          "name": "to",
          "type": "address"
        },
        {
          "internalType": "uint256",
          "name": "amount",
          "type": "uint256"
        }
      ],
      "name": "transfer",
      "outputs": [
        {
          "internalType": "bool",
          "name": "",
          "type": "bool"
        }
      ],
      "stateMutability": "nonpayable",
      "type": "function"
    },
    {
      "inputs": [
        {
          "internalType": "address",
          "name": "from",
          "type": "address"
        },
        {
          "internalType": "address",
          "name": "to",
          "type": "address"
        },
        {
          "internalType": "uint256",
          "name": "value",
          "type": "uint256"
        }
      ],
      "name": "transferFrom",
      "outputs": [
        {
          "internalType": "bool",
          "name": "",
          "type": "bool"
        }
      ],
      "stateMutability": "nonpayable",
      "type": "function"
    },
    {
      "inputs": [
        {
          "internalType": "address",
          "name": "newOwner",
          "type": "address"
        }
      ],
      "name": "transferOwnership",
      "outputs": [],
      "stateMutability": "nonpayable",
      "type": "function"
    },
    {
      "inputs": [
        {
          "internalType": "uint256",
          "name": "projectid",
          "type": "uint256"
        },
        {
          "internalType": "bool",
          "name": "choice",
          "type": "bool"
        }
      ],
      "name": "voteForProjectPayment",
      "outputs": [],
      "stateMutability": "nonpayable",
      "type": "function"
    },
    {
      "inputs": [
        {
          "internalType": "uint256",
          "name": "projectid",
          "type": "uint256"
        },
        {
          "internalType": "bool",
          "name": "choice",
          "type": "bool"
        }
      ],
      "name": "voteForProjectProposal",
      "outputs": [],
      "stateMutability": "nonpayable",
      "type": "function"
    },
    {
      "inputs": [
        {
          "internalType": "uint256",
          "name": "projectid",
          "type": "uint256"
        }
      ],
      "name": "withdrawProjectTLPayment",
      "outputs": [],
      "stateMutability": "nonpayable",
      "type": "function"
    }
  ],
  "bytecode": "0x608060405234801561001057600080fd5b50604051615e77380380615e778339818101604052810190610032919061057b565b336040518060400160405280600581526020017f4d79476f760000000000000000000000000000000000000000000000000000008152506040518060400160405280600481526020017f4d474f560000000000000000000000000000000000000000000000000000000081525081600390816100ae91906107f8565b5080600490816100be91906107f8565b505050600073ffffffffffffffffffffffffffffffffffffffff168173ffffffffffffffffffffffffffffffffffffffff16036101335760006040517f1e4fbdf700000000000000000000000000000000000000000000000000000000815260040161012a91906108d9565b60405180910390fd5b610142816101a560201b60201c565b5080600660006101000a81548173ffffffffffffffffffffffffffffffffffffffff021916908373ffffffffffffffffffffffffffffffffffffffff16021790555061019f306a084595161401484a00000061026b60201b60201c565b506109b8565b6000600560009054906101000a900473ffffffffffffffffffffffffffffffffffffffff16905081600560006101000a81548173ffffffffffffffffffffffffffffffffffffffff021916908373ffffffffffffffffffffffffffffffffffffffff1602179055508173ffffffffffffffffffffffffffffffffffffffff168173ffffffffffffffffffffffffffffffffffffffff167f8be0079c531659141344cd1fd0a4f28419497f9722a3daafe3b4186f6b6457e060405160405180910390a35050565b600073ffffffffffffffffffffffffffffffffffffffff168273ffffffffffffffffffffffffffffffffffffffff16036102dd5760006040517fec442f050000000000000000000000000000000000000000000000000000000081526004016102d491906108d9565b60405180910390fd5b6102ef600083836102f360201b60201c565b5050565b600073ffffffffffffffffffffffffffffffffffffffff168373ffffffffffffffffffffffffffffffffffffffff16036103455780600260008282546103399190610923565b92505081905550610418565b60008060008573ffffffffffffffffffffffffffffffffffffffff1673ffffffffffffffffffffffffffffffffffffffff168152602001908152602001600020549050818110156103d1578381836040517fe450d38c0000000000000000000000000000000000000000000000000000000081526004016103c893929190610966565b60405180910390fd5b8181036000808673ffffffffffffffffffffffffffffffffffffffff1673ffffffffffffffffffffffffffffffffffffffff16815260200190815260200160002081905550505b600073ffffffffffffffffffffffffffffffffffffffff168273ffffffffffffffffffffffffffffffffffffffff160361046157806002600082825403925050819055506104ae565b806000808473ffffffffffffffffffffffffffffffffffffffff1673ffffffffffffffffffffffffffffffffffffffff168152602001908152602001600020600082825401925050819055505b8173ffffffffffffffffffffffffffffffffffffffff168373ffffffffffffffffffffffffffffffffffffffff167fddf252ad1be2c89b69c2b068fc378daa952ba7f163c4a11628f55a4df523b3ef8360405161050b919061099d565b60405180910390a3505050565b600080fd5b600073ffffffffffffffffffffffffffffffffffffffff82169050919050565b60006105488261051d565b9050919050565b6105588161053d565b811461056357600080fd5b50565b6000815190506105758161054f565b92915050565b60006020828403121561059157610590610518565b5b600061059f84828501610566565b91505092915050565b600081519050919050565b7f4e487b7100000000000000000000000000000000000000000000000000000000600052604160045260246000fd5b7f4e487b7100000000000000000000000000000000000000000000000000000000600052602260045260246000fd5b6000600282049050600182168061062957607f821691505b60208210810361063c5761063b6105e2565b5b50919050565b60008190508160005260206000209050919050565b60006020601f8301049050919050565b600082821b905092915050565b6000600883026106a47fffffffffffffffffffffffffffffffffffffffffffffffffffffffffffffffff82610667565b6106ae8683610667565b95508019841693508086168417925050509392505050565b6000819050919050565b6000819050919050565b60006106f56106f06106eb846106c6565b6106d0565b6106c6565b9050919050565b6000819050919050565b61070f836106da565b61072361071b826106fc565b848454610674565b825550505050565b600090565b61073861072b565b610743818484610706565b505050565b5b818110156107675761075c600082610730565b600181019050610749565b5050565b601f8211156107ac5761077d81610642565b61078684610657565b81016020851015610795578190505b6107a96107a185610657565b830182610748565b50505b505050565b600082821c905092915050565b60006107cf600019846008026107b1565b1980831691505092915050565b60006107e883836107be565b9150826002028217905092915050565b610801826105a8565b67ffffffffffffffff81111561081a576108196105b3565b5b6108248254610611565b61082f82828561076b565b600060209050601f8311600181146108625760008415610850578287015190505b61085a85826107dc565b8655506108c2565b601f19841661087086610642565b60005b8281101561089857848901518255600182019150602085019450602081019050610873565b868310156108b557848901516108b1601f8916826107be565b8355505b6001600288020188555050505b505050505050565b6108d38161053d565b82525050565b60006020820190506108ee60008301846108ca565b92915050565b7f4e487b7100000000000000000000000000000000000000000000000000000000600052601160045260246000fd5b600061092e826106c6565b9150610939836106c6565b9250828201905080821115610951576109506108f4565b5b92915050565b610960816106c6565b82525050565b600060608201905061097b60008301866108ca565b6109886020830185610957565b6109956040830184610957565b949350505050565b60006020820190506109b26000830184610957565b92915050565b6154b0806109c76000396000f3fe608060405234801561001057600080fd5b506004361061028a5760003560e01c80637c4051641161015c578063a5e898e1116100ce578063dd62ed3e11610087578063dd62ed3e146108b8578063de5f72fd146108e8578063ef269ae3146108f2578063f22449ba14610922578063f2fde38b1461093e578063fabf59681461095a5761028a565b8063a5e898e1146107d2578063a9059cbb14610802578063b70e36ce14610832578063bd2757641461084e578063bf50556d1461086a578063d8bc7fff146108885761028a565b80638da5cb5b116101205780638da5cb5b146106fc57806392256aec1461071a57806395d89b411461074a578063a0b75d8c14610768578063a1669b3214610786578063a230c524146107a25761028a565b80637c4051641461061b578063853cc4b61461064b57806386e68b9014610667578063875b50761461069c57806389903dc7146106cc5761028a565b806342caaeb4116102005780636632fa18116101b95780636632fa1814610534578063702798df1461056457806370a082311461058057806370a56c73146105b0578063715018a6146105e157806373cbccba146105eb5761028a565b806342caaeb41461043a578063438596321461045657806355f3985b14610486578063579b5a47146104b65780635d801b37146104e6578063619aa727146105045761028a565b806323b872dd1161025257806323b872dd1461036157806323fd498b146103915780632e8f3413146103af578063313ce567146103e257806332cb6b0c1461040057806339c94d2d1461041e5761028a565b8063013cf08b1461028f57806306fdde03146102c5578063095ea7b3146102e35780630eab64091461031357806318160ddd14610343575b600080fd5b6102a960048036038101906102a49190613942565b61098d565b6040516102bc9796959493929190613a6a565b60405180910390f35b6102cd610a94565b6040516102da9190613ae0565b60405180910390f35b6102fd60048036038101906102f89190613b2e565b610b26565b60405161030a9190613b6e565b60405180910390f35b61032d60048036038101906103289190613b89565b610b49565b60405161033a9190613b6e565b60405180910390f35b61034b610b78565b6040516103589190613bc9565b60405180910390f35b61037b60048036038101906103769190613be4565b610b82565b6040516103889190613b6e565b60405180910390f35b610399610bb1565b6040516103a69190613bc9565b60405180910390f35b6103c960048036038101906103c49190613942565b610bbe565b6040516103d99493929190613c37565b60405180910390f35b6103ea610d81565b6040516103f79190613c9f565b60405180910390f35b610408610d8a565b6040516104159190613bc9565b60405180910390f35b61043860048036038101906104339190613942565b610d99565b005b610454600480360381019061044f9190613ce6565b610df2565b005b610470600480360381019061046b9190613b89565b610f75565b60405161047d9190613b6e565b60405180910390f35b6104a0600480360381019061049b9190613b89565b610fa4565b6040516104ad9190613b6e565b60405180910390f35b6104d060048036038101906104cb9190613942565b610fd3565b6040516104dd9190613bc9565b60405180910390f35b6104ee61104b565b6040516104fb9190613bc9565b60405180910390f35b61051e60048036038101906105199190613d26565b611058565b60405161052b9190613b6e565b60405180910390f35b61054e60048036038101906105499190613942565b6110ae565b60405161055b9190613d6c565b60405180910390f35b61057e60048036038101906105799190613dec565b61113e565b005b61059a60048036038101906105959190613d26565b611326565b6040516105a79190613bc9565b60405180910390f35b6105ca60048036038101906105c59190613942565b61136e565b6040516105d8929190613f0a565b60405180910390f35b6105e9611418565b005b61060560048036038101906106009190613942565b61142c565b6040516106129190613bc9565b60405180910390f35b61063560048036038101906106309190613942565b611444565b6040516106429190613b6e565b60405180910390f35b61066560048036038101906106609190613942565b611480565b005b610681600480360381019061067c9190613942565b6117df565b60405161069396959493929190613f3a565b60405180910390f35b6106b660048036038101906106b19190613942565b6118d3565b6040516106c39190613fa2565b60405180910390f35b6106e660048036038101906106e19190613d26565b611922565b6040516106f39190613b6e565b60405180910390f35b610704611942565b6040516107119190613fa2565b60405180910390f35b610734600480360381019061072f9190613942565b61196c565b6040516107419190613fa2565b60405180910390f35b6107526119bb565b60405161075f9190613ae0565b60405180910390f35b610770611a4d565b60405161077d919061401c565b60405180910390f35b6107a0600480360381019061079b9190613b2e565b611a73565b005b6107bc60048036038101906107b79190613d26565b611c9f565b6040516107c99190613b6e565b60405180910390f35b6107ec60048036038101906107e7919061408d565b611cbf565b6040516107f99190613bc9565b60405180910390f35b61081c60048036038101906108179190613b2e565b6120a7565b6040516108299190613b6e565b60405180910390f35b61084c60048036038101906108479190613942565b612105565b005b61086860048036038101906108639190613942565b6121e9565b005b6108726124ef565b60405161087f9190613bc9565b60405180910390f35b6108a2600480360381019061089d9190613b89565b61255c565b6040516108af9190613b6e565b60405180910390f35b6108d260048036038101906108cd9190614156565b61258b565b6040516108df9190613bc9565b60405180910390f35b6108f0612612565b005b61090c60048036038101906109079190614196565b61270c565b6040516109199190613bc9565b60405180910390f35b61093c60048036038101906109379190613ce6565b612a6b565b005b61095860048036038101906109539190613d26565b612c67565b005b610974600480360381019061096f9190613942565b612ced565b604051610984949392919061421e565b60405180910390f35b6009818154811061099d57600080fd5b90600052602060002090600902016000915090508060000180546109c0906142a7565b80601f01602080910402602001604051908101604052809291908181526020018280546109ec906142a7565b8015610a395780601f10610a0e57610100808354040283529160200191610a39565b820191906000526020600020905b815481529060010190602001808311610a1c57829003601f168201915b5050505050908060010154908060040160009054906101000a900473ffffffffffffffffffffffffffffffffffffffff16908060050154908060060160009054906101000a900460ff16908060070154908060080154905087565b606060038054610aa3906142a7565b80601f0160208091040260200160405190810160405280929190818152602001828054610acf906142a7565b8015610b1c5780601f10610af157610100808354040283529160200191610b1c565b820191906000526020600020905b815481529060010190602001808311610aff57829003601f168201915b5050505050905090565b600080610b31612f25565b9050610b3e818585612f2d565b600191505092915050565b600d6020528160005260406000206020528060005260406000206000915091509054906101000a900460ff1681565b6000600254905090565b600080610b8d612f25565b9050610b9a858285612f3f565b610ba5858585612fd4565b60019150509392505050565b6000600980549050905090565b606060008060008060088681548110610bda57610bd96142d8565b5b90600052602060002090600702016040518060e0016040529081600082018054610c03906142a7565b80601f0160208091040260200160405190810160405280929190818152602001828054610c2f906142a7565b8015610c7c5780601f10610c5157610100808354040283529160200191610c7c565b820191906000526020600020905b815481529060010190602001808311610c5f57829003601f168201915b505050505081526020016001820154815260200160028201548152602001600382015481526020016004820160009054906101000a900473ffffffffffffffffffffffffffffffffffffffff1673ffffffffffffffffffffffffffffffffffffffff1673ffffffffffffffffffffffffffffffffffffffff16815260200160058201805480602002602001604051908101604052809291908181526020018280548015610d4857602002820191906000526020600020905b815481526020019060010190808311610d34575b50505050508152602001600682015481525050905080600001518160200151826040015183606001519450945094509450509193509193565b60006012905090565b6a084595161401484a00000081565b80610da333611326565b1015610de4576040517f08c379a0000000000000000000000000000000000000000000000000000000008152600401610ddb90614379565b60405180910390fd5b610def333083612fd4565b50565b610dfb33611058565b610e3a576040517f08c379a0000000000000000000000000000000000000000000000000000000008152600401610e31906143e5565b60405180910390fd5b600d600083815260200190815260200160002060003373ffffffffffffffffffffffffffffffffffffffff1673ffffffffffffffffffffffffffffffffffffffff16815260200190815260200160002060009054906101000a900460ff1615610ed8576040517f08c379a0000000000000000000000000000000000000000000000000000000008152600401610ecf90614451565b60405180910390fd5b6001600d600084815260200190815260200160002060003373ffffffffffffffffffffffffffffffffffffffff1673ffffffffffffffffffffffffffffffffffffffff16815260200190815260200160002060006101000a81548160ff0219169083151502179055508015610f7157600e60008381526020019081526020016000206000815480929190610f6b906144a0565b91905055505b5050565b600a6020528160005260406000206020528060005260406000206000915091509054906101000a900460ff1681565b600b6020528160005260406000206020528060005260406000206000915091509054906101000a900460ff1681565b60008060098381548110610fea57610fe96142d8565b5b9060005260206000209060090201905060005b81600801548110156110445781600201818154811061101f5761101e6142d8565b5b90600052602060002001548361103591906144e8565b92508080600101915050610ffd565b5050919050565b6000600880549050905090565b6000600f60008373ffffffffffffffffffffffffffffffffffffffff1673ffffffffffffffffffffffffffffffffffffffff16815260200190815260200160002060009054906101000a900460ff169050919050565b600080600983815481106110c5576110c46142d8565b5b906000526020600020906009020190508060030180549050816008015410611110577fffffffffffffffffffffffffffffffffffffffffffffffffffffffffffffffff915050611139565b8060030181600801548154811061112a576111296142d8565b5b90600052602060002001549150505b919050565b61114733611058565b611186576040517f08c379a000000000000000000000000000000000000000000000000000000000815260040161117d90614568565b60405180910390fd5b60006008848154811061119c5761119b6142d8565b5b90600052602060002090600702019050806001015442106111f2576040517f08c379a00000000000000000000000000000000000000000000000000000000081526004016111e9906145d4565b60405180910390fd5b806003015483839050111561123c576040517f08c379a000000000000000000000000000000000000000000000000000000000815260040161123390614640565b60405180910390fd5b60005b83839050811015611305578160020154848483818110611262576112616142d8565b5b90506020020135106112a9576040517f08c379a00000000000000000000000000000000000000000000000000000000081526004016112a0906146ac565b60405180910390fd5b816005018484838181106112c0576112bf6142d8565b5b90506020020135815481106112d8576112d76142d8565b5b9060005260206000200160008154809291906112f3906144a0565b9190505550808060010191505061123f565b5080600601600081548092919061131b906144a0565b919050555050505050565b60008060008373ffffffffffffffffffffffffffffffffffffffff1673ffffffffffffffffffffffffffffffffffffffff168152602001908152602001600020549050919050565b6000606060088381548110611386576113856142d8565b5b906000526020600020906007020160060154600884815481106113ac576113ab6142d8565b5b90600052602060002090600702016005018080548060200260200160405190810160405280929190818152602001828054801561140857602002820191906000526020600020905b8154815260200190600101908083116113f4575b5050505050905091509150915091565b6114206130c8565b61142a600061314f565b565b600e6020528060005260406000206000915090505481565b60006009828154811061145a576114596142d8565b5b906000526020600020906009020160060160009054906101000a900460ff169050919050565b600060098281548110611496576114956142d8565b5b906000526020600020906009020190508060060160009054906101000a900460ff16801561151357508060040160009054906101000a900473ffffffffffffffffffffffffffffffffffffffff1673ffffffffffffffffffffffffffffffffffffffff163373ffffffffffffffffffffffffffffffffffffffff16145b611552576040517f08c379a000000000000000000000000000000000000000000000000000000000815260040161154990614718565b60405180910390fd5b806003018054905081600801541061159f576040517f08c379a000000000000000000000000000000000000000000000000000000000815260040161159690614784565b60405180910390fd5b806003018160080154815481106115b9576115b86142d8565b5b906000526020600020015481600701546115d391906144e8565b421015611615576040517f08c379a000000000000000000000000000000000000000000000000000000000815260040161160c906147f0565b60405180910390fd5b61161d613215565b6064600e60008581526020019081526020016000205461163d9190614810565b101561167e576040517f08c379a00000000000000000000000000000000000000000000000000000000081526004016116759061489e565b60405180910390fd5b611686613215565b606482600501546116979190614810565b10156116d8576040517f08c379a00000000000000000000000000000000000000000000000000000000081526004016116cf9061489e565b60405180910390fd5b600660009054906101000a900473ffffffffffffffffffffffffffffffffffffffff1673ffffffffffffffffffffffffffffffffffffffff1663a9059cbb8260040160009054906101000a900473ffffffffffffffffffffffffffffffffffffffff1683600201846008015481548110611755576117546142d8565b5b90600052602060002001546040518363ffffffff1660e01b815260040161177d9291906148be565b6020604051808303816000875af115801561179c573d6000803e3d6000fd5b505050506040513d601f19601f820116820180604052508101906117c091906148fc565b508060080160008154809291906117d6906144a0565b91905055505050565b600881815481106117ef57600080fd5b9060005260206000209060070201600091509050806000018054611812906142a7565b80601f016020809104026020016040519081016040528092919081815260200182805461183e906142a7565b801561188b5780601f106118605761010080835404028352916020019161188b565b820191906000526020600020905b81548152906001019060200180831161186e57829003601f168201915b5050505050908060010154908060020154908060030154908060040160009054906101000a900473ffffffffffffffffffffffffffffffffffffffff16908060060154905086565b6000600882815481106118e9576118e86142d8565b5b906000526020600020906007020160040160009054906101000a900473ffffffffffffffffffffffffffffffffffffffff169050919050565b60076020528060005260406000206000915054906101000a900460ff1681565b6000600560009054906101000a900473ffffffffffffffffffffffffffffffffffffffff16905090565b600060098281548110611982576119816142d8565b5b906000526020600020906009020160040160009054906101000a900473ffffffffffffffffffffffffffffffffffffffff169050919050565b6060600480546119ca906142a7565b80601f01602080910402602001604051908101604052809291908181526020018280546119f6906142a7565b8015611a435780601f10611a1857610100808354040283529160200191611a43565b820191906000526020600020905b815481529060010190602001808311611a2657829003601f168201915b5050505050905090565b600660009054906101000a900473ffffffffffffffffffffffffffffffffffffffff1681565b600a600082815260200190815260200160002060003373ffffffffffffffffffffffffffffffffffffffff1673ffffffffffffffffffffffffffffffffffffffff16815260200190815260200160002060009054906101000a900460ff1615611b11576040517f08c379a0000000000000000000000000000000000000000000000000000000008152600401611b0890614975565b60405180910390fd5b600b600082815260200190815260200160002060003373ffffffffffffffffffffffffffffffffffffffff1673ffffffffffffffffffffffffffffffffffffffff16815260200190815260200160002060009054906101000a900460ff1615611baf576040517f08c379a0000000000000000000000000000000000000000000000000000000008152600401611ba6906149e1565b60405180910390fd5b611bb882611058565b611bf7576040517f08c379a0000000000000000000000000000000000000000000000000000000008152600401611bee90614a73565b60405180910390fd5b60098181548110611c0b57611c0a6142d8565b5b90600052602060002090600902016005016000815480929190611c2d906144a0565b91905055506001600b600083815260200190815260200160002060003373ffffffffffffffffffffffffffffffffffffffff1673ffffffffffffffffffffffffffffffffffffffff16815260200190815260200160002060006101000a81548160ff0219169083151502179055505050565b600f6020528060005260406000206000915054906101000a900460ff1681565b6000611cca33611058565b611d09576040517f08c379a0000000000000000000000000000000000000000000000000000000008152600401611d0090614b05565b60405180910390fd5b674563918244f40000611d1b33611326565b1015611d5c576040517f08c379a0000000000000000000000000000000000000000000000000000000008152600401611d5390614b71565b60405180910390fd5b600660009054906101000a900473ffffffffffffffffffffffffffffffffffffffff1673ffffffffffffffffffffffffffffffffffffffff166323b872dd333068d8d726b7177a8000006040518463ffffffff1660e01b8152600401611dc493929190614bcc565b6020604051808303816000875af1158015611de3573d6000803e3d6000fd5b505050506040513d601f19601f82011682018060405250810190611e0791906148fc565b611e46576040517f08c379a0000000000000000000000000000000000000000000000000000000008152600401611e3d90614c4f565b60405180910390fd5b611e593330674563918244f40000612fd4565b60096040518061012001604052808a8a8080601f016020809104026020016040519081016040528093929190818152602001838380828437600081840152601f19601f820116905080830192505050505050508152602001888152602001878780806020026020016040519081016040528093929190818152602001838360200280828437600081840152601f19601f820116905080830192505050505050508152602001858580806020026020016040519081016040528093929190818152602001838360200280828437600081840152601f19601f8201169050808301925050505050505081526020013373ffffffffffffffffffffffffffffffffffffffff1681526020016000815260200160001515815260200160008152602001600081525090806001815401808255809150506001900390600052602060002090600902016000909190919091506000820151816000019081611fbb9190614e40565b50602082015181600101556040820151816002019080519060200190611fe2929190613898565b506060820151816003019080519060200190611fff929190613898565b5060808201518160040160006101000a81548173ffffffffffffffffffffffffffffffffffffffff021916908373ffffffffffffffffffffffffffffffffffffffff16021790555060a0820151816005015560c08201518160060160006101000a81548160ff02191690831515021790555060e0820151816007015561010082015181600801555050600160098054905061209a9190614f12565b9050979650505050505050565b60006120b333836132a3565b156120f3576040517f08c379a00000000000000000000000000000000000000000000000000000000081526004016120ea90614f92565b60405180910390fd5b6120fd8383613479565b905092915050565b600660009054906101000a900473ffffffffffffffffffffffffffffffffffffffff1673ffffffffffffffffffffffffffffffffffffffff166323b872dd3330846040518463ffffffff1660e01b815260040161216493929190614fb2565b6020604051808303816000875af1158015612183573d6000803e3d6000fd5b505050506040513d601f19601f820116820180604052508101906121a791906148fc565b6121e6576040517f08c379a00000000000000000000000000000000000000000000000000000000081526004016121dd9061505b565b60405180910390fd5b50565b6000600982815481106121ff576121fe6142d8565b5b906000526020600020906009020190508060040160009054906101000a900473ffffffffffffffffffffffffffffffffffffffff1673ffffffffffffffffffffffffffffffffffffffff163373ffffffffffffffffffffffffffffffffffffffff16146122a1576040517f08c379a0000000000000000000000000000000000000000000000000000000008152600401612298906150c7565b60405180910390fd5b806001015442106122e7576040517f08c379a00000000000000000000000000000000000000000000000000000000081526004016122de906145d4565b60405180910390fd5b8060060160009054906101000a900460ff1615612339576040517f08c379a000000000000000000000000000000000000000000000000000000000815260040161233090615133565b60405180910390fd5b612341613215565b600a82600501546123529190614810565b1015612393576040517f08c379a000000000000000000000000000000000000000000000000000000000815260040161238a9061519f565b60405180910390fd5b600080600090505b82600201805490508110156123e5578260020181815481106123c0576123bf6142d8565b5b9060005260206000200154826123d691906144e8565b9150808060010191505061239b565b5080600660009054906101000a900473ffffffffffffffffffffffffffffffffffffffff1673ffffffffffffffffffffffffffffffffffffffff166370a08231306040518263ffffffff1660e01b81526004016124429190613fa2565b602060405180830381865afa15801561245f573d6000803e3d6000fd5b505050506040513d601f19601f8201168201806040525081019061248391906151d4565b10156124c4576040517f08c379a00000000000000000000000000000000000000000000000000000000081526004016124bb9061524d565b60405180910390fd5b60018260060160006101000a81548160ff021916908315150217905550428260070181905550505050565b600080600090505b6009805490508110156125585760098181548110612518576125176142d8565b5b906000526020600020906009020160060160009054906101000a900460ff161561254b578180612547906144a0565b9250505b80806001019150506124f7565b5090565b600c6020528160005260406000206020528060005260406000206000915091509054906101000a900460ff1681565b6000600160008473ffffffffffffffffffffffffffffffffffffffff1673ffffffffffffffffffffffffffffffffffffffff16815260200190815260200160002060008373ffffffffffffffffffffffffffffffffffffffff1673ffffffffffffffffffffffffffffffffffffffff16815260200190815260200160002054905092915050565b600760003373ffffffffffffffffffffffffffffffffffffffff1673ffffffffffffffffffffffffffffffffffffffff16815260200190815260200160002060009054906101000a900460ff161561269f576040517f08c379a0000000000000000000000000000000000000000000000000000000008152600401612696906152b9565b60405180910390fd5b6126b23033670de0b6b3a7640000612fd4565b6001600760003373ffffffffffffffffffffffffffffffffffffffff1673ffffffffffffffffffffffffffffffffffffffff16815260200190815260200160002060006101000a81548160ff021916908315150217905550565b600080671bc16d674ec8000090506000683635c9adc5dea00000905061273133611058565b612770576040517f08c379a000000000000000000000000000000000000000000000000000000000815260040161276790615325565b60405180910390fd5b8161277a33611326565b10156127bb576040517f08c379a00000000000000000000000000000000000000000000000000000000081526004016127b290615391565b60405180910390fd5b600660009054906101000a900473ffffffffffffffffffffffffffffffffffffffff1673ffffffffffffffffffffffffffffffffffffffff166323b872dd3330846040518463ffffffff1660e01b815260040161281a93929190614fb2565b6020604051808303816000875af1158015612839573d6000803e3d6000fd5b505050506040513d601f19601f8201168201806040525081019061285d91906148fc565b61289c576040517f08c379a000000000000000000000000000000000000000000000000000000000815260040161289390615423565b60405180910390fd5b6128a7333084612fd4565b60086040518060e001604052808a8a8080601f016020809104026020016040519081016040528093929190818152602001838380828437600081840152601f19601f8201169050808301925050505050505081526020018881526020018781526020018681526020013373ffffffffffffffffffffffffffffffffffffffff1681526020018767ffffffffffffffff81111561294657612945614c6f565b5b6040519080825280602002602001820160405280156129745781602001602082028036833780820191505090505b5081526020016000815250908060018154018082558091505060019003906000526020600020906007020160009091909190915060008201518160000190816129bd9190614e40565b5060208201518160010155604082015181600201556060820151816003015560808201518160040160006101000a81548173ffffffffffffffffffffffffffffffffffffffff021916908373ffffffffffffffffffffffffffffffffffffffff16021790555060a0820151816005019080519060200190612a3f929190613898565b5060c0820151816006015550506001600880549050612a5e9190614f12565b9250505095945050505050565b612a7433611058565b612ab3576040517f08c379a0000000000000000000000000000000000000000000000000000000008152600401612aaa906143e5565b60405180910390fd5b600a600083815260200190815260200160002060003373ffffffffffffffffffffffffffffffffffffffff1673ffffffffffffffffffffffffffffffffffffffff16815260200190815260200160002060009054906101000a900460ff1615612b51576040517f08c379a0000000000000000000000000000000000000000000000000000000008152600401612b4890614975565b60405180910390fd5b60098281548110612b6557612b646142d8565b5b9060005260206000209060090201600101544210612bb8576040517f08c379a0000000000000000000000000000000000000000000000000000000008152600401612baf906145d4565b60405180910390fd5b8015612bfa5760098281548110612bd257612bd16142d8565b5b90600052602060002090600902016005016000815480929190612bf4906144a0565b91905055505b6001600a600084815260200190815260200160002060003373ffffffffffffffffffffffffffffffffffffffff1673ffffffffffffffffffffffffffffffffffffffff16815260200190815260200160002060006101000a81548160ff0219169083151502179055505050565b612c6f6130c8565b600073ffffffffffffffffffffffffffffffffffffffff168173ffffffffffffffffffffffffffffffffffffffff1603612ce15760006040517f1e4fbdf7000000000000000000000000000000000000000000000000000000008152600401612cd89190613fa2565b60405180910390fd5b612cea8161314f565b50565b60606000606080600060098681548110612d0a57612d096142d8565b5b906000526020600020906009020160405180610120016040529081600082018054612d34906142a7565b80601f0160208091040260200160405190810160405280929190818152602001828054612d60906142a7565b8015612dad5780601f10612d8257610100808354040283529160200191612dad565b820191906000526020600020905b815481529060010190602001808311612d9057829003601f168201915b505050505081526020016001820154815260200160028201805480602002602001604051908101604052809291908181526020018280548015612e0f57602002820191906000526020600020905b815481526020019060010190808311612dfb575b5050505050815260200160038201805480602002602001604051908101604052809291908181526020018280548015612e6757602002820191906000526020600020905b815481526020019060010190808311612e53575b505050505081526020016004820160009054906101000a900473ffffffffffffffffffffffffffffffffffffffff1673ffffffffffffffffffffffffffffffffffffffff1673ffffffffffffffffffffffffffffffffffffffff168152602001600582015481526020016006820160009054906101000a900460ff1615151515815260200160078201548152602001600882015481525050905080600001518160200151826040015183606001519450945094509450509193509193565b600033905090565b612f3a838383600161349c565b505050565b6000612f4b848461258b565b90507fffffffffffffffffffffffffffffffffffffffffffffffffffffffffffffffff811015612fce5781811015612fbe578281836040517ffb8f41b2000000000000000000000000000000000000000000000000000000008152600401612fb593929190615443565b60405180910390fd5b612fcd8484848403600061349c565b5b50505050565b600073ffffffffffffffffffffffffffffffffffffffff168373ffffffffffffffffffffffffffffffffffffffff16036130465760006040517f96c6fd1e00000000000000000000000000000000000000000000000000000000815260040161303d9190613fa2565b60405180910390fd5b600073ffffffffffffffffffffffffffffffffffffffff168273ffffffffffffffffffffffffffffffffffffffff16036130b85760006040517fec442f050000000000000000000000000000000000000000000000000000000081526004016130af9190613fa2565b60405180910390fd5b6130c3838383613673565b505050565b6130d0612f25565b73ffffffffffffffffffffffffffffffffffffffff166130ee611942565b73ffffffffffffffffffffffffffffffffffffffff161461314d57613111612f25565b6040517f118cdaa70000000000000000000000000000000000000000000000000000000081526004016131449190613fa2565b60405180910390fd5b565b6000600560009054906101000a900473ffffffffffffffffffffffffffffffffffffffff16905081600560006101000a81548173ffffffffffffffffffffffffffffffffffffffff021916908373ffffffffffffffffffffffffffffffffffffffff1602179055508173ffffffffffffffffffffffffffffffffffffffff168173ffffffffffffffffffffffffffffffffffffffff167f8be0079c531659141344cd1fd0a4f28419497f9722a3daafe3b4186f6b6457e060405160405180910390a35050565b6000806000905060005b60088054905081101561329b5761327a60088281548110613243576132426142d8565b5b906000526020600020906007020160040160009054906101000a900473ffffffffffffffffffffffffffffffffffffffff16611058565b1561328e57818061328a906144a0565b9250505b808060010191505061321f565b508091505090565b600080600090506000805b60098054905081101561336457600981815481106132cf576132ce6142d8565b5b906000526020600020906009020160010154421080156133495750600a600082815260200190815260200160002060008773ffffffffffffffffffffffffffffffffffffffff1673ffffffffffffffffffffffffffffffffffffffff16815260200190815260200160002060009054906101000a900460ff165b156133575760019250613364565b80806001019150506132ae565b5060005b60098054905081101561341e5760098181548110613389576133886142d8565b5b906000526020600020906009020160010154421080156134035750600b600082815260200190815260200160002060008773ffffffffffffffffffffffffffffffffffffffff1673ffffffffffffffffffffffffffffffffffffffff16815260200190815260200160002060009054906101000a900460ff165b15613411576001915061341e565b8080600101915050613368565b50600061342a86611326565b90506000858261343a9190614f12565b9050670de0b6b3a764000081108015613458575083806134575750825b5b1561346a576001945050505050613473565b60009450505050505b92915050565b600080613484612f25565b9050613491818585612fd4565b600191505092915050565b600073ffffffffffffffffffffffffffffffffffffffff168473ffffffffffffffffffffffffffffffffffffffff160361350e5760006040517fe602df050000000000000000000000000000000000000000000000000000000081526004016135059190613fa2565b60405180910390fd5b600073ffffffffffffffffffffffffffffffffffffffff168373ffffffffffffffffffffffffffffffffffffffff16036135805760006040517f94280d620000000000000000000000000000000000000000000000000000000081526004016135779190613fa2565b60405180910390fd5b81600160008673ffffffffffffffffffffffffffffffffffffffff1673ffffffffffffffffffffffffffffffffffffffff16815260200190815260200160002060008573ffffffffffffffffffffffffffffffffffffffff1673ffffffffffffffffffffffffffffffffffffffff16815260200190815260200160002081905550801561366d578273ffffffffffffffffffffffffffffffffffffffff168473ffffffffffffffffffffffffffffffffffffffff167f8c5be1e5ebec7d5bd14f71427d1e84f3dd0314c0f7b2291e5b200ac8c7c3b925846040516136649190613bc9565b60405180910390a35b50505050565b600073ffffffffffffffffffffffffffffffffffffffff168373ffffffffffffffffffffffffffffffffffffffff16036136c55780600260008282546136b991906144e8565b92505081905550613798565b60008060008573ffffffffffffffffffffffffffffffffffffffff1673ffffffffffffffffffffffffffffffffffffffff16815260200190815260200160002054905081811015613751578381836040517fe450d38c00000000000000000000000000000000000000000000000000000000815260040161374893929190615443565b60405180910390fd5b8181036000808673ffffffffffffffffffffffffffffffffffffffff1673ffffffffffffffffffffffffffffffffffffffff16815260200190815260200160002081905550505b600073ffffffffffffffffffffffffffffffffffffffff168273ffffffffffffffffffffffffffffffffffffffff16036137e1578060026000828254039250508190555061382e565b806000808473ffffffffffffffffffffffffffffffffffffffff1673ffffffffffffffffffffffffffffffffffffffff168152602001908152602001600020600082825401925050819055505b8173ffffffffffffffffffffffffffffffffffffffff168373ffffffffffffffffffffffffffffffffffffffff167fddf252ad1be2c89b69c2b068fc378daa952ba7f163c4a11628f55a4df523b3ef8360405161388b9190613bc9565b60405180910390a3505050565b8280548282559060005260206000209081019282156138d4579160200282015b828111156138d35782518255916020019190600101906138b8565b5b5090506138e191906138e5565b5090565b5b808211156138fe5760008160009055506001016138e6565b5090565b600080fd5b600080fd5b6000819050919050565b61391f8161390c565b811461392a57600080fd5b50565b60008135905061393c81613916565b92915050565b60006020828403121561395857613957613902565b5b60006139668482850161392d565b91505092915050565b600081519050919050565b600082825260208201905092915050565b60005b838110156139a957808201518184015260208101905061398e565b60008484015250505050565b6000601f19601f8301169050919050565b60006139d18261396f565b6139db818561397a565b93506139eb81856020860161398b565b6139f4816139b5565b840191505092915050565b613a088161390c565b82525050565b600073ffffffffffffffffffffffffffffffffffffffff82169050919050565b6000613a3982613a0e565b9050919050565b613a4981613a2e565b82525050565b60008115159050919050565b613a6481613a4f565b82525050565b600060e0820190508181036000830152613a84818a6139c6565b9050613a9360208301896139ff565b613aa06040830188613a40565b613aad60608301876139ff565b613aba6080830186613a5b565b613ac760a08301856139ff565b613ad460c08301846139ff565b98975050505050505050565b60006020820190508181036000830152613afa81846139c6565b905092915050565b613b0b81613a2e565b8114613b1657600080fd5b50565b600081359050613b2881613b02565b92915050565b60008060408385031215613b4557613b44613902565b5b6000613b5385828601613b19565b9250506020613b648582860161392d565b9150509250929050565b6000602082019050613b836000830184613a5b565b92915050565b60008060408385031215613ba057613b9f613902565b5b6000613bae8582860161392d565b9250506020613bbf85828601613b19565b9150509250929050565b6000602082019050613bde60008301846139ff565b92915050565b600080600060608486031215613bfd57613bfc613902565b5b6000613c0b86828701613b19565b9350506020613c1c86828701613b19565b9250506040613c2d8682870161392d565b9150509250925092565b60006080820190508181036000830152613c5181876139c6565b9050613c6060208301866139ff565b613c6d60408301856139ff565b613c7a60608301846139ff565b95945050505050565b600060ff82169050919050565b613c9981613c83565b82525050565b6000602082019050613cb46000830184613c90565b92915050565b613cc381613a4f565b8114613cce57600080fd5b50565b600081359050613ce081613cba565b92915050565b60008060408385031215613cfd57613cfc613902565b5b6000613d0b8582860161392d565b9250506020613d1c85828601613cd1565b9150509250929050565b600060208284031215613d3c57613d3b613902565b5b6000613d4a84828501613b19565b91505092915050565b6000819050919050565b613d6681613d53565b82525050565b6000602082019050613d816000830184613d5d565b92915050565b600080fd5b600080fd5b600080fd5b60008083601f840112613dac57613dab613d87565b5b8235905067ffffffffffffffff811115613dc957613dc8613d8c565b5b602083019150836020820283011115613de557613de4613d91565b5b9250929050565b600080600060408486031215613e0557613e04613902565b5b6000613e138682870161392d565b935050602084013567ffffffffffffffff811115613e3457613e33613907565b5b613e4086828701613d96565b92509250509250925092565b600081519050919050565b600082825260208201905092915050565b6000819050602082019050919050565b613e818161390c565b82525050565b6000613e938383613e78565b60208301905092915050565b6000602082019050919050565b6000613eb782613e4c565b613ec18185613e57565b9350613ecc83613e68565b8060005b83811015613efd578151613ee48882613e87565b9750613eef83613e9f565b925050600181019050613ed0565b5085935050505092915050565b6000604082019050613f1f60008301856139ff565b8181036020830152613f318184613eac565b90509392505050565b600060c0820190508181036000830152613f5481896139c6565b9050613f6360208301886139ff565b613f7060408301876139ff565b613f7d60608301866139ff565b613f8a6080830185613a40565b613f9760a08301846139ff565b979650505050505050565b6000602082019050613fb76000830184613a40565b92915050565b6000819050919050565b6000613fe2613fdd613fd884613a0e565b613fbd565b613a0e565b9050919050565b6000613ff482613fc7565b9050919050565b600061400682613fe9565b9050919050565b61401681613ffb565b82525050565b6000602082019050614031600083018461400d565b92915050565b60008083601f84011261404d5761404c613d87565b5b8235905067ffffffffffffffff81111561406a57614069613d8c565b5b60208301915083600182028301111561408657614085613d91565b5b9250929050565b60008060008060008060006080888a0312156140ac576140ab613902565b5b600088013567ffffffffffffffff8111156140ca576140c9613907565b5b6140d68a828b01614037565b975097505060206140e98a828b0161392d565b955050604088013567ffffffffffffffff81111561410a57614109613907565b5b6141168a828b01613d96565b9450945050606088013567ffffffffffffffff81111561413957614138613907565b5b6141458a828b01613d96565b925092505092959891949750929550565b6000806040838503121561416d5761416c613902565b5b600061417b85828601613b19565b925050602061418c85828601613b19565b9150509250929050565b6000806000806000608086880312156141b2576141b1613902565b5b600086013567ffffffffffffffff8111156141d0576141cf613907565b5b6141dc88828901614037565b955095505060206141ef8882890161392d565b93505060406142008882890161392d565b92505060606142118882890161392d565b9150509295509295909350565b6000608082019050818103600083015261423881876139c6565b905061424760208301866139ff565b81810360408301526142598185613eac565b9050818103606083015261426d8184613eac565b905095945050505050565b7f4e487b7100000000000000000000000000000000000000000000000000000000600052602260045260246000fd5b600060028204905060018216806142bf57607f821691505b6020821081036142d2576142d1614278565b5b50919050565b7f4e487b7100000000000000000000000000000000000000000000000000000000600052603260045260246000fd5b7f4e6f7420656e6f756768204d474f5620746f6b656e7320666f7220646f6e617460008201527f696f6e0000000000000000000000000000000000000000000000000000000000602082015250565b600061436360238361397a565b915061436e82614307565b604082019050919050565b6000602082019050818103600083015261439281614356565b9050919050565b7f4f6e6c79206d656d626572732063616e20766f74650000000000000000000000600082015250565b60006143cf60158361397a565b91506143da82614399565b602082019050919050565b600060208201905081810360008301526143fe816143c2565b9050919050565b7f416c726561647920766f74656420666f722074686973207061796d656e740000600082015250565b600061443b601e8361397a565b915061444682614405565b602082019050919050565b6000602082019050818103600083015261446a8161442e565b9050919050565b7f4e487b7100000000000000000000000000000000000000000000000000000000600052601160045260246000fd5b60006144ab8261390c565b91507fffffffffffffffffffffffffffffffffffffffffffffffffffffffffffffffff82036144dd576144dc614471565b5b600182019050919050565b60006144f38261390c565b91506144fe8361390c565b925082820190508082111561451657614515614471565b5b92915050565b7f4f6e6c79206d656d626572732063616e2074616b652073757276657973000000600082015250565b6000614552601d8361397a565b915061455d8261451c565b602082019050919050565b6000602082019050818103600083015261458181614545565b9050919050565b7f4578706972656400000000000000000000000000000000000000000000000000600082015250565b60006145be60078361397a565b91506145c982614588565b602082019050919050565b600060208201905081810360008301526145ed816145b1565b9050919050565b7f546f6f206d616e792063686f6963657300000000000000000000000000000000600082015250565b600061462a60108361397a565b9150614635826145f4565b602082019050919050565b600060208201905081810360008301526146598161461d565b9050919050565b7f496e76616c69642063686f696365000000000000000000000000000000000000600082015250565b6000614696600e8361397a565b91506146a182614660565b602082019050919050565b600060208201905081810360008301526146c581614689565b9050919050565b7f556e617574686f72697a65640000000000000000000000000000000000000000600082015250565b6000614702600c8361397a565b915061470d826146cc565b602082019050919050565b60006020820190508181036000830152614731816146f5565b9050919050565b7f416c6c2070616964000000000000000000000000000000000000000000000000600082015250565b600061476e60088361397a565b915061477982614738565b602082019050919050565b6000602082019050818103600083015261479d81614761565b9050919050565b7f4e6f742064756520796574000000000000000000000000000000000000000000600082015250565b60006147da600b8361397a565b91506147e5826147a4565b602082019050919050565b60006020820190508181036000830152614809816147cd565b9050919050565b600061481b8261390c565b91506148268361390c565b92508282026148348161390c565b9150828204841483151761484b5761484a614471565b5b5092915050565b7f4e6f7420656e6f75676820766f74657320666f72207061796d656e7400000000600082015250565b6000614888601c8361397a565b915061489382614852565b602082019050919050565b600060208201905081810360008301526148b78161487b565b9050919050565b60006040820190506148d36000830185613a40565b6148e060208301846139ff565b9392505050565b6000815190506148f681613cba565b92915050565b60006020828403121561491257614911613902565b5b6000614920848285016148e7565b91505092915050565b7f416c726561647920766f74656400000000000000000000000000000000000000600082015250565b600061495f600d8361397a565b915061496a82614929565b602082019050919050565b6000602082019050818103600083015261498e81614952565b9050919050565b7f416c72656164792064656c656761746564000000000000000000000000000000600082015250565b60006149cb60118361397a565b91506149d682614995565b602082019050919050565b600060208201905081810360008301526149fa816149be565b9050919050565b7f596f752063616e6e6f742064656c656761746520746f206e6f6e2d6d656d626560008201527f7200000000000000000000000000000000000000000000000000000000000000602082015250565b6000614a5d60218361397a565b9150614a6882614a01565b604082019050919050565b60006020820190508181036000830152614a8c81614a50565b9050919050565b7f4f6e6c79206d656d626572732063616e207375626d69742070726f6a6563742060008201527f70726f706f73616c730000000000000000000000000000000000000000000000602082015250565b6000614aef60298361397a565b9150614afa82614a93565b604082019050919050565b60006020820190508181036000830152614b1e81614ae2565b9050919050565b7f35204d474f5620746f6b656e7320726571756972656400000000000000000000600082015250565b6000614b5b60168361397a565b9150614b6682614b25565b602082019050919050565b60006020820190508181036000830152614b8a81614b4e565b9050919050565b6000819050919050565b6000614bb6614bb1614bac84614b91565b613fbd565b61390c565b9050919050565b614bc681614b9b565b82525050565b6000606082019050614be16000830186613a40565b614bee6020830185613a40565b614bfb6040830184614bbd565b949350505050565b7f3430303020544c20746f6b656e732072657175697265642e0000000000000000600082015250565b6000614c3960188361397a565b9150614c4482614c03565b602082019050919050565b60006020820190508181036000830152614c6881614c2c565b9050919050565b7f4e487b7100000000000000000000000000000000000000000000000000000000600052604160045260246000fd5b60008190508160005260206000209050919050565b60006020601f8301049050919050565b600082821b905092915050565b600060088302614d007fffffffffffffffffffffffffffffffffffffffffffffffffffffffffffffffff82614cc3565b614d0a8683614cc3565b95508019841693508086168417925050509392505050565b6000614d3d614d38614d338461390c565b613fbd565b61390c565b9050919050565b6000819050919050565b614d5783614d22565b614d6b614d6382614d44565b848454614cd0565b825550505050565b600090565b614d80614d73565b614d8b818484614d4e565b505050565b5b81811015614daf57614da4600082614d78565b600181019050614d91565b5050565b601f821115614df457614dc581614c9e565b614dce84614cb3565b81016020851015614ddd578190505b614df1614de985614cb3565b830182614d90565b50505b505050565b600082821c905092915050565b6000614e1760001984600802614df9565b1980831691505092915050565b6000614e308383614e06565b9150826002028217905092915050565b614e498261396f565b67ffffffffffffffff811115614e6257614e61614c6f565b5b614e6c82546142a7565b614e77828285614db3565b600060209050601f831160018114614eaa5760008415614e98578287015190505b614ea28582614e24565b865550614f0a565b601f198416614eb886614c9e565b60005b82811015614ee057848901518255600182019150602085019450602081019050614ebb565b86831015614efd5784890151614ef9601f891682614e06565b8355505b6001600288020188555050505b505050505050565b6000614f1d8261390c565b9150614f288361390c565b9250828203905081811115614f4057614f3f614471565b5b92915050565b7f5472616e736665722076696f6c617465732070726f706f73616c000000000000600082015250565b6000614f7c601a8361397a565b9150614f8782614f46565b602082019050919050565b60006020820190508181036000830152614fab81614f6f565b9050919050565b6000606082019050614fc76000830186613a40565b614fd46020830185613a40565b614fe160408301846139ff565b949350505050565b7f4e6f7420656e6f75676820544c20746f6b656e7320666f7220646f6e6174696f60008201527f6e00000000000000000000000000000000000000000000000000000000000000602082015250565b600061504560218361397a565b915061505082614fe9565b604082019050919050565b6000602082019050818103600083015261507481615038565b9050919050565b7f4e6f74206f776e65720000000000000000000000000000000000000000000000600082015250565b60006150b160098361397a565b91506150bc8261507b565b602082019050919050565b600060208201905081810360008301526150e0816150a4565b9050919050565b7f416c72656164792066756e646564000000000000000000000000000000000000600082015250565b600061511d600e8361397a565b9150615128826150e7565b602082019050919050565b6000602082019050818103600083015261514c81615110565b9050919050565b7f4e6f7420656e6f75676820766f74657300000000000000000000000000000000600082015250565b600061518960108361397a565b915061519482615153565b602082019050919050565b600060208201905081810360008301526151b88161517c565b9050919050565b6000815190506151ce81613916565b92915050565b6000602082840312156151ea576151e9613902565b5b60006151f8848285016151bf565b91505092915050565b7f4e6f7420656e6f75676820544c00000000000000000000000000000000000000600082015250565b6000615237600d8361397a565b915061524282615201565b602082019050919050565b600060208201905081810360008301526152668161522a565b9050919050565b7f416c726561647920636c61696d65640000000000000000000000000000000000600082015250565b60006152a3600f8361397a565b91506152ae8261526d565b602082019050919050565b600060208201905081810360008301526152d281615296565b9050919050565b7f4f6e6c79206d656d626572732063616e207375626d6974207375727665797300600082015250565b600061530f601f8361397a565b915061531a826152d9565b602082019050919050565b6000602082019050818103600083015261533e81615302565b9050919050565b7f4174206c656173742032204d474f5620746f6b656e7320726571756972656400600082015250565b600061537b601f8361397a565b915061538682615345565b602082019050919050565b600060208201905081810360008301526153aa8161536e565b9050919050565b7f4174206c65617374203130303020544c20746f6b656e7320726571756972656460008201527f2e00000000000000000000000000000000000000000000000000000000000000602082015250565b600061540d60218361397a565b9150615418826153b1565b604082019050919050565b6000602082019050818103600083015261543c81615400565b9050919050565b60006060820190506154586000830186613a40565b61546560208301856139ff565b61547260408301846139ff565b94935050505056fea2646970667358221220f6465664a295506230b8ff71168c2bde30a3c82059f05e126c6d98db339d72ca64736f6c634300081c0033",
  "linkReferences": {},
  "deployedLinkReferences": {}
}