{
  "_format": "hh-sol-artifact-1",
  "contractName": "MyGov",
  "sourceName": "contracts/MyGov.sol",
  "abi": [
    {
      "inputs": [
        {
          "internalType": "address",
          "name": "_tlToken",
          "type": "address"
        }
      ],
      "stateMutability": "nonpayable",
      "type": "constructor"
    },
    {
      "inputs": [
        {
          "internalType": "address",
          "name": "spender",
          "type": "address"
        },
        {
          "internalType": "uint256",
          "name": "allowance",
          "type": "uint256"
        },
        {
          "internalType": "uint256",
          "name": "needed",
          "type": "uint256"
        }
      ],
      "name": "ERC20InsufficientAllowance",
      "type": "error"
    },
    {
      "inputs": [
        {
          "internalType": "address",
          "name": "sender",
          "type": "address"
        },
        {
          "internalType": "uint256",
          "name": "balance",
          "type": "uint256"
        },
        {
          "internalType": "uint256",
          "name": "needed",
          "type": "uint256"
        }
      ],
      "name": "ERC20InsufficientBalance",
      "type": "error"
    },
    {
      "inputs": [
        {
          "internalType": "address",
          "name": "approver",
          "type": "address"
        }
      ],
      "name": "ERC20InvalidApprover",
      "type": "error"
    },
    {
      "inputs": [
        {
          "internalType": "address",
          "name": "receiver",
          "type": "address"
        }
      ],
      "name": "ERC20InvalidReceiver",
      "type": "error"
    },
    {
      "inputs": [
        {
          "internalType": "address",
          "name": "sender",
          "type": "address"
        }
      ],
      "name": "ERC20InvalidSender",
      "type": "error"
    },
    {
      "inputs": [
        {
          "internalType": "address",
          "name": "spender",
          "type": "address"
        }
      ],
      "name": "ERC20InvalidSpender",
      "type": "error"
    },
    {
      "inputs": [
        {
          "internalType": "address",
          "name": "owner",
          "type": "address"
        }
      ],
      "name": "OwnableInvalidOwner",
      "type": "error"
    },
    {
      "inputs": [
        {
          "internalType": "address",
          "name": "account",
          "type": "address"
        }
      ],
      "name": "OwnableUnauthorizedAccount",
      "type": "error"
    },
    {
      "anonymous": false,
      "inputs": [
        {
          "indexed": true,
          "internalType": "address",
          "name": "owner",
          "type": "address"
        },
        {
          "indexed": true,
          "internalType": "address",
          "name": "spender",
          "type": "address"
        },
        {
          "indexed": false,
          "internalType": "uint256",
          "name": "value",
          "type": "uint256"
        }
      ],
      "name": "Approval",
      "type": "event"
    },
    {
      "anonymous": false,
      "inputs": [
        {
          "indexed": true,
          "internalType": "address",
          "name": "previousOwner",
          "type": "address"
        },
        {
          "indexed": true,
          "internalType": "address",
          "name": "newOwner",
          "type": "address"
        }
      ],
      "name": "OwnershipTransferred",
      "type": "event"
    },
    {
      "anonymous": false,
      "inputs": [
        {
          "indexed": true,
          "internalType": "address",
          "name": "from",
          "type": "address"
        },
        {
          "indexed": true,
          "internalType": "address",
          "name": "to",
          "type": "address"
        },
        {
          "indexed": false,
          "internalType": "uint256",
          "name": "value",
          "type": "uint256"
        }
      ],
      "name": "Transfer",
      "type": "event"
    },
    {
      "inputs": [],
      "name": "MAX_SUPPLY",
      "outputs": [
        {
          "internalType": "uint256",
          "name": "",
          "type": "uint256"
        }
      ],
      "stateMutability": "view",
      "type": "function"
    },
    {
      "inputs": [
        {
          "internalType": "address",
          "name": "owner",
          "type": "address"
        },
        {
          "internalType": "address",
          "name": "spender",
          "type": "address"
        }
      ],
      "name": "allowance",
      "outputs": [
        {
          "internalType": "uint256",
          "name": "",
          "type": "uint256"
        }
      ],
      "stateMutability": "view",
      "type": "function"
    },
    {
      "inputs": [
        {
          "internalType": "address",
          "name": "spender",
          "type": "address"
        },
        {
          "internalType": "uint256",
          "name": "value",
          "type": "uint256"
        }
      ],
      "name": "approve",
      "outputs": [
        {
          "internalType": "bool",
          "name": "",
          "type": "bool"
        }
      ],
      "stateMutability": "nonpayable",
      "type": "function"
    },
    {
      "inputs": [
        {
          "internalType": "address",
          "name": "account",
          "type": "address"
        }
      ],
      "name": "balanceOf",
      "outputs": [
        {
          "internalType": "uint256",
          "name": "",
          "type": "uint256"
        }
      ],
      "stateMutability": "view",
      "type": "function"
    },
    {
      "inputs": [],
      "name": "decimals",
      "outputs": [
        {
          "internalType": "uint8",
          "name": "",
          "type": "uint8"
        }
      ],
      "stateMutability": "view",
      "type": "function"
    },
    {
      "inputs": [
        {
          "internalType": "address",
          "name": "member",
          "type": "address"
        },
        {
          "internalType": "uint256",
          "name": "id",
          "type": "uint256"
        }
      ],
      "name": "delegateVoteTo",
      "outputs": [],
      "stateMutability": "nonpayable",
      "type": "function"
    },
    {
      "inputs": [
        {
          "internalType": "uint256",
          "name": "amount",
          "type": "uint256"
        }
      ],
      "name": "donateMyGovToken",
      "outputs": [],
      "stateMutability": "nonpayable",
      "type": "function"
    },
    {
      "inputs": [
        {
          "internalType": "uint256",
          "name": "amount",
          "type": "uint256"
        }
      ],
      "name": "donateTLToken",
      "outputs": [],
      "stateMutability": "nonpayable",
      "type": "function"
    },
    {
      "inputs": [],
      "name": "faucet",
      "outputs": [],
      "stateMutability": "nonpayable",
      "type": "function"
    },
    {
      "inputs": [
        {
          "internalType": "address",
          "name": "",
          "type": "address"
        }
      ],
      "name": "faucetClaimed",
      "outputs": [
        {
          "internalType": "bool",
          "name": "",
          "type": "bool"
        }
      ],
      "stateMutability": "view",
      "type": "function"
    },
    {
      "inputs": [
        {
          "internalType": "uint256",
          "name": "id",
          "type": "uint256"
        }
      ],
      "name": "getIsProjectFunded",
      "outputs": [
        {
          "internalType": "bool",
          "name": "",
          "type": "bool"
        }
      ],
      "stateMutability": "view",
      "type": "function"
    },
    {
      "inputs": [],
      "name": "getNoOfFundedProjects",
      "outputs": [
        {
          "internalType": "uint256",
          "name": "count",
          "type": "uint256"
        }
      ],
      "stateMutability": "view",
      "type": "function"
    },
    {
      "inputs": [],
      "name": "getNoOfProjectProposals",
      "outputs": [
        {
          "internalType": "uint256",
          "name": "",
          "type": "uint256"
        }
      ],
      "stateMutability": "view",
      "type": "function"
    },
    {
      "inputs": [],
      "name": "getNoOfSurveys",
      "outputs": [
        {
          "internalType": "uint256",
          "name": "",
          "type": "uint256"
        }
      ],
      "stateMutability": "view",
      "type": "function"
    },
    {
      "inputs": [
        {
          "internalType": "uint256",
          "name": "id",
          "type": "uint256"
        }
      ],
      "name": "getProjectInfo",
      "outputs": [
        {
          "internalType": "string",
          "name": "",
          "type": "string"
        },
        {
          "internalType": "uint256",
          "name": "",
          "type": "uint256"
        },
        {
          "internalType": "uint256[]",
          "name": "",
          "type": "uint256[]"
        },
        {
          "internalType": "uint256[]",
          "name": "",
          "type": "uint256[]"
        }
      ],
      "stateMutability": "view",
      "type": "function"
    },
    {
      "inputs": [
        {
          "internalType": "uint256",
          "name": "id",
          "type": "uint256"
        }
      ],
      "name": "getProjectNextTLPayment",
      "outputs": [
        {
          "internalType": "int256",
          "name": "",
          "type": "int256"
        }
      ],
      "stateMutability": "view",
      "type": "function"
    },
    {
      "inputs": [
        {
          "internalType": "uint256",
          "name": "id",
          "type": "uint256"
        }
      ],
      "name": "getProjectOwner",
      "outputs": [
        {
          "internalType": "address",
          "name": "",
          "type": "address"
        }
      ],
      "stateMutability": "view",
      "type": "function"
    },
    {
      "inputs": [
        {
          "internalType": "uint256",
          "name": "id",
          "type": "uint256"
        }
      ],
      "name": "getSurveyInfo",
      "outputs": [
        {
          "internalType": "string",
          "name": "",
          "type": "string"
        },
        {
          "internalType": "uint256",
          "name": "",
          "type": "uint256"
        },
        {
          "internalType": "uint256",
          "name": "",
          "type": "uint256"
        },
        {
          "internalType": "uint256",
          "name": "",
          "type": "uint256"
        }
      ],
      "stateMutability": "view",
      "type": "function"
    },
    {
      "inputs": [
        {
          "internalType": "uint256",
          "name": "id",
          "type": "uint256"
        }
      ],
      "name": "getSurveyOwner",
      "outputs": [
        {
          "internalType": "address",
          "name": "",
          "type": "address"
        }
      ],
      "stateMutability": "view",
      "type": "function"
    },
    {
      "inputs": [
        {
          "internalType": "uint256",
          "name": "id",
          "type": "uint256"
        }
      ],
      "name": "getSurveyResults",
      "outputs": [
        {
          "internalType": "uint256",
          "name": "",
          "type": "uint256"
        },
        {
          "internalType": "uint256[]",
          "name": "",
          "type": "uint256[]"
        }
      ],
      "stateMutability": "view",
      "type": "function"
    },
    {
      "inputs": [
        {
          "internalType": "uint256",
          "name": "id",
          "type": "uint256"
        }
      ],
      "name": "getTLReceivedByProject",
      "outputs": [
        {
          "internalType": "uint256",
          "name": "total",
          "type": "uint256"
        }
      ],
      "stateMutability": "view",
      "type": "function"
    },
    {
      "inputs": [
        {
          "internalType": "uint256",
          "name": "",
          "type": "uint256"
        },
        {
          "internalType": "address",
          "name": "",
          "type": "address"
        }
      ],
      "name": "hasDelegated",
      "outputs": [
        {
          "internalType": "bool",
          "name": "",
          "type": "bool"
        }
      ],
      "stateMutability": "view",
      "type": "function"
    },
    {
      "inputs": [
        {
          "internalType": "uint256",
          "name": "",
          "type": "uint256"
        },
        {
          "internalType": "address",
          "name": "",
          "type": "address"
        }
      ],
      "name": "hasPaid",
      "outputs": [
        {
          "internalType": "bool",
          "name": "",
          "type": "bool"
        }
      ],
      "stateMutability": "view",
      "type": "function"
    },
    {
      "inputs": [
        {
          "internalType": "uint256",
          "name": "",
          "type": "uint256"
        },
        {
          "internalType": "address",
          "name": "",
          "type": "address"
        }
      ],
      "name": "hasVoted",
      "outputs": [
        {
          "internalType": "bool",
          "name": "",
          "type": "bool"
        }
      ],
      "stateMutability": "view",
      "type": "function"
    },
    {
      "inputs": [
        {
          "internalType": "address",
          "name": "",
          "type": "address"
        }
      ],
      "name": "isMember",
      "outputs": [
        {
          "internalType": "bool",
          "name": "",
          "type": "bool"
        }
      ],
      "stateMutability": "view",
      "type": "function"
    },
    {
      "inputs": [],
      "name": "name",
      "outputs": [
        {
          "internalType": "string",
          "name": "",
          "type": "string"
        }
      ],
      "stateMutability": "view",
      "type": "function"
    },
    {
      "inputs": [],
      "name": "owner",
      "outputs": [
        {
          "internalType": "address",
          "name": "",
          "type": "address"
        }
      ],
      "stateMutability": "view",
      "type": "function"
    },
    {
      "inputs": [
        {
          "internalType": "uint256",
          "name": "",
          "type": "uint256"
        }
      ],
      "name": "proposals",
      "outputs": [
        {
          "internalType": "string",
          "name": "weburl",
          "type": "string"
        },
        {
          "internalType": "uint256",
          "name": "voteDeadline",
          "type": "uint256"
        },
        {
          "internalType": "address",
          "name": "owner",
          "type": "address"
        },
        {
          "internalType": "uint256",
          "name": "yesVotes",
          "type": "uint256"
        },
        {
          "internalType": "bool",
          "name": "funded",
          "type": "bool"
        },
        {
          "internalType": "uint256",
          "name": "reservedTime",
          "type": "uint256"
        },
        {
          "internalType": "uint256",
          "name": "lastPaidIndex",
          "type": "uint256"
        }
      ],
      "stateMutability": "view",
      "type": "function"
    },
    {
      "inputs": [],
      "name": "renounceOwnership",
      "outputs": [],
      "stateMutability": "nonpayable",
      "type": "function"
    },
    {
      "inputs": [
        {
          "internalType": "uint256",
          "name": "id",
          "type": "uint256"
        }
      ],
      "name": "reserveProjectGrant",
      "outputs": [],
      "stateMutability": "nonpayable",
      "type": "function"
    },
    {
      "inputs": [
        {
          "internalType": "string",
          "name": "weburl",
          "type": "string"
        },
        {
          "internalType": "uint256",
          "name": "voteDeadline",
          "type": "uint256"
        },
        {
          "internalType": "uint256[]",
          "name": "paymentAmounts",
          "type": "uint256[]"
        },
        {
          "internalType": "uint256[]",
          "name": "paySchedule",
          "type": "uint256[]"
        }
      ],
      "name": "submitProjectProposal",
      "outputs": [
        {
          "internalType": "uint256",
          "name": "",
          "type": "uint256"
        }
      ],
      "stateMutability": "nonpayable",
      "type": "function"
    },
    {
      "inputs": [
        {
          "internalType": "string",
          "name": "weburl",
          "type": "string"
        },
        {
          "internalType": "uint256",
          "name": "deadline",
          "type": "uint256"
        },
        {
          "internalType": "uint256",
          "name": "numChoices",
          "type": "uint256"
        },
        {
          "internalType": "uint256",
          "name": "atmostChoice",
          "type": "uint256"
        }
      ],
      "name": "submitSurvey",
      "outputs": [
        {
          "internalType": "uint256",
          "name": "",
          "type": "uint256"
        }
      ],
      "stateMutability": "nonpayable",
      "type": "function"
    },
    {
      "inputs": [
        {
          "internalType": "uint256",
          "name": "",
          "type": "uint256"
        }
      ],
      "name": "surveys",
      "outputs": [
        {
          "internalType": "string",
          "name": "weburl",
          "type": "string"
        },
        {
          "internalType": "uint256",
          "name": "deadline",
          "type": "uint256"
        },
        {
          "internalType": "uint256",
          "name": "numChoices",
          "type": "uint256"
        },
        {
          "internalType": "uint256",
          "name": "atmostChoice",
          "type": "uint256"
        },
        {
          "internalType": "address",
          "name": "owner",
          "type": "address"
        },
        {
          "internalType": "uint256",
          "name": "takerCount",
          "type": "uint256"
        }
      ],
      "stateMutability": "view",
      "type": "function"
    },
    {
      "inputs": [],
      "name": "symbol",
      "outputs": [
        {
          "internalType": "string",
          "name": "",
          "type": "string"
        }
      ],
      "stateMutability": "view",
      "type": "function"
    },
    {
      "inputs": [
        {
          "internalType": "uint256",
          "name": "id",
          "type": "uint256"
        },
        {
          "internalType": "uint256[]",
          "name": "choices",
          "type": "uint256[]"
        }
      ],
      "name": "takeSurvey",
      "outputs": [],
      "stateMutability": "nonpayable",
      "type": "function"
    },
    {
      "inputs": [],
      "name": "tlToken",
      "outputs": [
        {
          "internalType": "contract ITLToken",
          "name": "",
          "type": "address"
        }
      ],
      "stateMutability": "view",
      "type": "function"
    },
    {
      "inputs": [],
      "name": "totalSupply",
      "outputs": [
        {
          "internalType": "uint256",
          "name": "",
          "type": "uint256"
        }
      ],
      "stateMutability": "view",
      "type": "function"
    },
    {
      "inputs": [
        {
          "internalType": "address",
          "name": "to",
          "type": "address"
        },
        {
          "internalType": "uint256",
          "name": "value",
          "type": "uint256"
        }
      ],
      "name": "transfer",
      "outputs": [
        {
          "internalType": "bool",
          "name": "",
          "type": "bool"
        }
      ],
      "stateMutability": "nonpayable",
      "type": "function"
    },
    {
      "inputs": [
        {
          "internalType": "address",
          "name": "from",
          "type": "address"
        },
        {
          "internalType": "address",
          "name": "to",
          "type": "address"
        },
        {
          "internalType": "uint256",
          "name": "value",
          "type": "uint256"
        }
      ],
      "name": "transferFrom",
      "outputs": [
        {
          "internalType": "bool",
          "name": "",
          "type": "bool"
        }
      ],
      "stateMutability": "nonpayable",
      "type": "function"
    },
    {
      "inputs": [
        {
          "internalType": "address",
          "name": "newOwner",
          "type": "address"
        }
      ],
      "name": "transferOwnership",
      "outputs": [],
      "stateMutability": "nonpayable",
      "type": "function"
    },
    {
      "inputs": [
        {
          "internalType": "uint256",
          "name": "id",
          "type": "uint256"
        },
        {
          "internalType": "bool",
          "name": "choice",
          "type": "bool"
        }
      ],
      "name": "voteForProjectProposal",
      "outputs": [],
      "stateMutability": "nonpayable",
      "type": "function"
    },
    {
      "inputs": [
        {
          "internalType": "uint256",
          "name": "id",
          "type": "uint256"
        }
      ],
      "name": "withdrawProjectTLPayment",
      "outputs": [],
      "stateMutability": "nonpayable",
      "type": "function"
    }
  ],
  "bytecode": "0x608060405234801561001057600080fd5b506040516154a63803806154a68339818101604052810190610032919061057b565b336040518060400160405280600581526020017f4d79476f760000000000000000000000000000000000000000000000000000008152506040518060400160405280600481526020017f4d474f560000000000000000000000000000000000000000000000000000000081525081600390816100ae91906107f8565b5080600490816100be91906107f8565b505050600073ffffffffffffffffffffffffffffffffffffffff168173ffffffffffffffffffffffffffffffffffffffff16036101335760006040517f1e4fbdf700000000000000000000000000000000000000000000000000000000815260040161012a91906108d9565b60405180910390fd5b610142816101a560201b60201c565b5080600660006101000a81548173ffffffffffffffffffffffffffffffffffffffff021916908373ffffffffffffffffffffffffffffffffffffffff16021790555061019f306a084595161401484a00000061026b60201b60201c565b506109b8565b6000600560009054906101000a900473ffffffffffffffffffffffffffffffffffffffff16905081600560006101000a81548173ffffffffffffffffffffffffffffffffffffffff021916908373ffffffffffffffffffffffffffffffffffffffff1602179055508173ffffffffffffffffffffffffffffffffffffffff168173ffffffffffffffffffffffffffffffffffffffff167f8be0079c531659141344cd1fd0a4f28419497f9722a3daafe3b4186f6b6457e060405160405180910390a35050565b600073ffffffffffffffffffffffffffffffffffffffff168273ffffffffffffffffffffffffffffffffffffffff16036102dd5760006040517fec442f050000000000000000000000000000000000000000000000000000000081526004016102d491906108d9565b60405180910390fd5b6102ef600083836102f360201b60201c565b5050565b600073ffffffffffffffffffffffffffffffffffffffff168373ffffffffffffffffffffffffffffffffffffffff16036103455780600260008282546103399190610923565b92505081905550610418565b60008060008573ffffffffffffffffffffffffffffffffffffffff1673ffffffffffffffffffffffffffffffffffffffff168152602001908152602001600020549050818110156103d1578381836040517fe450d38c0000000000000000000000000000000000000000000000000000000081526004016103c893929190610966565b60405180910390fd5b8181036000808673ffffffffffffffffffffffffffffffffffffffff1673ffffffffffffffffffffffffffffffffffffffff16815260200190815260200160002081905550505b600073ffffffffffffffffffffffffffffffffffffffff168273ffffffffffffffffffffffffffffffffffffffff160361046157806002600082825403925050819055506104ae565b806000808473ffffffffffffffffffffffffffffffffffffffff1673ffffffffffffffffffffffffffffffffffffffff168152602001908152602001600020600082825401925050819055505b8173ffffffffffffffffffffffffffffffffffffffff168373ffffffffffffffffffffffffffffffffffffffff167fddf252ad1be2c89b69c2b068fc378daa952ba7f163c4a11628f55a4df523b3ef8360405161050b919061099d565b60405180910390a3505050565b600080fd5b600073ffffffffffffffffffffffffffffffffffffffff82169050919050565b60006105488261051d565b9050919050565b6105588161053d565b811461056357600080fd5b50565b6000815190506105758161054f565b92915050565b60006020828403121561059157610590610518565b5b600061059f84828501610566565b91505092915050565b600081519050919050565b7f4e487b7100000000000000000000000000000000000000000000000000000000600052604160045260246000fd5b7f4e487b7100000000000000000000000000000000000000000000000000000000600052602260045260246000fd5b6000600282049050600182168061062957607f821691505b60208210810361063c5761063b6105e2565b5b50919050565b60008190508160005260206000209050919050565b60006020601f8301049050919050565b600082821b905092915050565b6000600883026106a47fffffffffffffffffffffffffffffffffffffffffffffffffffffffffffffffff82610667565b6106ae8683610667565b95508019841693508086168417925050509392505050565b6000819050919050565b6000819050919050565b60006106f56106f06106eb846106c6565b6106d0565b6106c6565b9050919050565b6000819050919050565b61070f836106da565b61072361071b826106fc565b848454610674565b825550505050565b600090565b61073861072b565b610743818484610706565b505050565b5b818110156107675761075c600082610730565b600181019050610749565b5050565b601f8211156107ac5761077d81610642565b61078684610657565b81016020851015610795578190505b6107a96107a185610657565b830182610748565b50505b505050565b600082821c905092915050565b60006107cf600019846008026107b1565b1980831691505092915050565b60006107e883836107be565b9150826002028217905092915050565b610801826105a8565b67ffffffffffffffff81111561081a576108196105b3565b5b6108248254610611565b61082f82828561076b565b600060209050601f8311600181146108625760008415610850578287015190505b61085a85826107dc565b8655506108c2565b601f19841661087086610642565b60005b8281101561089857848901518255600182019150602085019450602081019050610873565b868310156108b557848901516108b1601f8916826107be565b8355505b6001600288020188555050505b505050505050565b6108d38161053d565b82525050565b60006020820190506108ee60008301846108ca565b92915050565b7f4e487b7100000000000000000000000000000000000000000000000000000000600052601160045260246000fd5b600061092e826106c6565b9150610939836106c6565b9250828201905080821115610951576109506108f4565b5b92915050565b610960816106c6565b82525050565b600060608201905061097b60008301866108ca565b6109886020830185610957565b6109956040830184610957565b949350505050565b60006020820190506109b26000830184610957565b92915050565b614adf806109c76000396000f3fe608060405234801561001057600080fd5b506004361061025e5760003560e01c806386e68b9011610146578063a9059cbb116100c3578063dd62ed3e11610087578063dd62ed3e146107e0578063de5f72fd14610810578063ef269ae31461081a578063f22449ba1461084a578063f2fde38b14610866578063fabf5968146108825761025e565b8063a9059cbb1461072a578063b70e36ce1461075a578063bd27576414610776578063bf50556d14610792578063d8bc7fff146107b05761025e565b806395d89b411161010a57806395d89b4114610672578063a0b75d8c14610690578063a1669b32146106ae578063a230c524146106ca578063a5e898e1146106fa5761025e565b806386e68b901461058f578063875b5076146105c457806389903dc7146105f45780638da5cb5b1461062457806392256aec146106425761025e565b806343859632116101df578063702798df116101a3578063702798df146104bc57806370a08231146104d857806370a56c7314610508578063715018a6146105395780637c40516414610543578063853cc4b6146105735761025e565b806343859632146103de57806355f3985b1461040e578063579b5a471461043e5780635d801b371461046e5780636632fa181461048c5761025e565b806323fd498b1161022657806323fd498b146103355780632e8f341314610353578063313ce5671461038657806332cb6b0c146103a457806339c94d2d146103c25761025e565b8063013cf08b1461026357806306fdde0314610299578063095ea7b3146102b757806318160ddd146102e757806323b872dd14610305575b600080fd5b61027d6004803603810190610278919061331d565b6108b5565b6040516102909796959493929190613445565b60405180910390f35b6102a16109bc565b6040516102ae91906134bb565b60405180910390f35b6102d160048036038101906102cc9190613509565b610a4e565b6040516102de9190613549565b60405180910390f35b6102ef610a71565b6040516102fc9190613564565b60405180910390f35b61031f600480360381019061031a919061357f565b610a7b565b60405161032c9190613549565b60405180910390f35b61033d610aaa565b60405161034a9190613564565b60405180910390f35b61036d6004803603810190610368919061331d565b610ab7565b60405161037d94939291906135d2565b60405180910390f35b61038e610c7a565b60405161039b919061363a565b60405180910390f35b6103ac610c83565b6040516103b99190613564565b60405180910390f35b6103dc60048036038101906103d7919061331d565b610c92565b005b6103f860048036038101906103f39190613655565b610ca0565b6040516104059190613549565b60405180910390f35b61042860048036038101906104239190613655565b610ccf565b6040516104359190613549565b60405180910390f35b6104586004803603810190610453919061331d565b610cfe565b6040516104659190613564565b60405180910390f35b610476610d76565b6040516104839190613564565b60405180910390f35b6104a660048036038101906104a1919061331d565b610d83565b6040516104b391906136ae565b60405180910390f35b6104d660048036038101906104d1919061372e565b610e13565b005b6104f260048036038101906104ed919061378e565b610fb3565b6040516104ff9190613564565b60405180910390f35b610522600480360381019061051d919061331d565b610ffb565b604051610530929190613879565b60405180910390f35b6105416110a5565b005b61055d6004803603810190610558919061331d565b6110b9565b60405161056a9190613549565b60405180910390f35b61058d6004803603810190610588919061331d565b6110f5565b005b6105a960048036038101906105a4919061331d565b6113eb565b6040516105bb969594939291906138a9565b60405180910390f35b6105de60048036038101906105d9919061331d565b6114df565b6040516105eb9190613911565b60405180910390f35b61060e6004803603810190610609919061378e565b61152e565b60405161061b9190613549565b60405180910390f35b61062c61154e565b6040516106399190613911565b60405180910390f35b61065c6004803603810190610657919061331d565b611578565b6040516106699190613911565b60405180910390f35b61067a6115c7565b60405161068791906134bb565b60405180910390f35b610698611659565b6040516106a5919061398b565b60405180910390f35b6106c860048036038101906106c39190613509565b61167f565b005b6106e460048036038101906106df919061378e565b6118ef565b6040516106f19190613549565b60405180910390f35b610714600480360381019061070f91906139fc565b61190f565b6040516107219190613564565b60405180910390f35b610744600480360381019061073f9190613509565b611caf565b6040516107519190613549565b60405180910390f35b610774600480360381019061076f919061331d565b611cd2565b005b610790600480360381019061078b919061331d565b611db6565b005b61079a6120bc565b6040516107a79190613564565b60405180910390f35b6107ca60048036038101906107c59190613655565b612129565b6040516107d79190613549565b60405180910390f35b6107fa60048036038101906107f59190613ac5565b612158565b6040516108079190613564565b60405180910390f35b6108186121df565b005b610834600480360381019061082f9190613b05565b612331565b6040516108419190613564565b60405180910390f35b610864600480360381019061085f9190613bb9565b612645565b005b610880600480360381019061087b919061378e565b6128a1565b005b61089c6004803603810190610897919061331d565b612927565b6040516108ac9493929190613bf9565b60405180910390f35b600a81815481106108c557600080fd5b90600052602060002090600902016000915090508060000180546108e890613c82565b80601f016020809104026020016040519081016040528092919081815260200182805461091490613c82565b80156109615780601f1061093657610100808354040283529160200191610961565b820191906000526020600020905b81548152906001019060200180831161094457829003601f168201915b5050505050908060010154908060040160009054906101000a900473ffffffffffffffffffffffffffffffffffffffff16908060050154908060060160009054906101000a900460ff16908060070154908060080154905087565b6060600380546109cb90613c82565b80601f01602080910402602001604051908101604052809291908181526020018280546109f790613c82565b8015610a445780601f10610a1957610100808354040283529160200191610a44565b820191906000526020600020905b815481529060010190602001808311610a2757829003601f168201915b5050505050905090565b600080610a59612b5f565b9050610a66818585612b67565b600191505092915050565b6000600254905090565b600080610a86612b5f565b9050610a93858285612b79565b610a9e858585612c0e565b60019150509392505050565b6000600a80549050905090565b606060008060008060098681548110610ad357610ad2613cb3565b5b90600052602060002090600702016040518060e0016040529081600082018054610afc90613c82565b80601f0160208091040260200160405190810160405280929190818152602001828054610b2890613c82565b8015610b755780601f10610b4a57610100808354040283529160200191610b75565b820191906000526020600020905b815481529060010190602001808311610b5857829003601f168201915b505050505081526020016001820154815260200160028201548152602001600382015481526020016004820160009054906101000a900473ffffffffffffffffffffffffffffffffffffffff1673ffffffffffffffffffffffffffffffffffffffff1673ffffffffffffffffffffffffffffffffffffffff16815260200160058201805480602002602001604051908101604052809291908181526020018280548015610c4157602002820191906000526020600020905b815481526020019060010190808311610c2d575b50505050508152602001600682015481525050905080600001518160200151826040015183606001519450945094509450509193509193565b60006012905090565b6a084595161401484a00000081565b610c9d333083612c0e565b50565b600b6020528160005260406000206020528060005260406000206000915091509054906101000a900460ff1681565b600c6020528160005260406000206020528060005260406000206000915091509054906101000a900460ff1681565b600080600a8381548110610d1557610d14613cb3565b5b9060005260206000209060090201905060005b8160080154811015610d6f57816002018181548110610d4a57610d49613cb3565b5b906000526020600020015483610d609190613d11565b92508080600101915050610d28565b5050919050565b6000600980549050905090565b600080600a8381548110610d9a57610d99613cb3565b5b906000526020600020906009020190508060030180549050816008015410610de5577fffffffffffffffffffffffffffffffffffffffffffffffffffffffffffffffff915050610e0e565b80600301816008015481548110610dff57610dfe613cb3565b5b90600052602060002001549150505b919050565b600060098481548110610e2957610e28613cb3565b5b9060005260206000209060070201905080600101544210610e7f576040517f08c379a0000000000000000000000000000000000000000000000000000000008152600401610e7690613d91565b60405180910390fd5b8060030154838390501115610ec9576040517f08c379a0000000000000000000000000000000000000000000000000000000008152600401610ec090613dfd565b60405180910390fd5b60005b83839050811015610f92578160020154848483818110610eef57610eee613cb3565b5b9050602002013510610f36576040517f08c379a0000000000000000000000000000000000000000000000000000000008152600401610f2d90613e69565b60405180910390fd5b81600501848483818110610f4d57610f4c613cb3565b5b9050602002013581548110610f6557610f64613cb3565b5b906000526020600020016000815480929190610f8090613e89565b91905055508080600101915050610ecc565b50806006016000815480929190610fa890613e89565b919050555050505050565b60008060008373ffffffffffffffffffffffffffffffffffffffff1673ffffffffffffffffffffffffffffffffffffffff168152602001908152602001600020549050919050565b600060606009838154811061101357611012613cb3565b5b9060005260206000209060070201600601546009848154811061103957611038613cb3565b5b90600052602060002090600702016005018080548060200260200160405190810160405280929190818152602001828054801561109557602002820191906000526020600020905b815481526020019060010190808311611081575b5050505050905091509150915091565b6110ad612d02565b6110b76000612d89565b565b6000600a82815481106110cf576110ce613cb3565b5b906000526020600020906009020160060160009054906101000a900460ff169050919050565b6000600a828154811061110b5761110a613cb3565b5b906000526020600020906009020190508060060160009054906101000a900460ff16801561118857508060040160009054906101000a900473ffffffffffffffffffffffffffffffffffffffff1673ffffffffffffffffffffffffffffffffffffffff163373ffffffffffffffffffffffffffffffffffffffff16145b6111c7576040517f08c379a00000000000000000000000000000000000000000000000000000000081526004016111be90613f1d565b60405180910390fd5b8060030180549050816008015410611214576040517f08c379a000000000000000000000000000000000000000000000000000000000815260040161120b90613f89565b60405180910390fd5b8060030181600801548154811061122e5761122d613cb3565b5b906000526020600020015481600701546112489190613d11565b42101561128a576040517f08c379a000000000000000000000000000000000000000000000000000000000815260040161128190613ff5565b60405180910390fd5b611292612e4f565b606482600501546112a39190614015565b10156112e4576040517f08c379a00000000000000000000000000000000000000000000000000000000081526004016112db906140a3565b60405180910390fd5b600660009054906101000a900473ffffffffffffffffffffffffffffffffffffffff1673ffffffffffffffffffffffffffffffffffffffff1663a9059cbb8260040160009054906101000a900473ffffffffffffffffffffffffffffffffffffffff168360020184600801548154811061136157611360613cb3565b5b90600052602060002001546040518363ffffffff1660e01b81526004016113899291906140c3565b6020604051808303816000875af11580156113a8573d6000803e3d6000fd5b505050506040513d601f19601f820116820180604052508101906113cc9190614101565b508060080160008154809291906113e290613e89565b91905055505050565b600981815481106113fb57600080fd5b906000526020600020906007020160009150905080600001805461141e90613c82565b80601f016020809104026020016040519081016040528092919081815260200182805461144a90613c82565b80156114975780601f1061146c57610100808354040283529160200191611497565b820191906000526020600020905b81548152906001019060200180831161147a57829003601f168201915b5050505050908060010154908060020154908060030154908060040160009054906101000a900473ffffffffffffffffffffffffffffffffffffffff16908060060154905086565b6000600982815481106114f5576114f4613cb3565b5b906000526020600020906007020160040160009054906101000a900473ffffffffffffffffffffffffffffffffffffffff169050919050565b60076020528060005260406000206000915054906101000a900460ff1681565b6000600560009054906101000a900473ffffffffffffffffffffffffffffffffffffffff16905090565b6000600a828154811061158e5761158d613cb3565b5b906000526020600020906009020160040160009054906101000a900473ffffffffffffffffffffffffffffffffffffffff169050919050565b6060600480546115d690613c82565b80601f016020809104026020016040519081016040528092919081815260200182805461160290613c82565b801561164f5780601f106116245761010080835404028352916020019161164f565b820191906000526020600020905b81548152906001019060200180831161163257829003601f168201915b5050505050905090565b600660009054906101000a900473ffffffffffffffffffffffffffffffffffffffff1681565b600b600082815260200190815260200160002060003373ffffffffffffffffffffffffffffffffffffffff1673ffffffffffffffffffffffffffffffffffffffff16815260200190815260200160002060009054906101000a900460ff161561171d576040517f08c379a00000000000000000000000000000000000000000000000000000000081526004016117149061417a565b60405180910390fd5b600c600082815260200190815260200160002060003373ffffffffffffffffffffffffffffffffffffffff1673ffffffffffffffffffffffffffffffffffffffff16815260200190815260200160002060009054906101000a900460ff16156117bb576040517f08c379a00000000000000000000000000000000000000000000000000000000081526004016117b2906141e6565b60405180910390fd5b600860008373ffffffffffffffffffffffffffffffffffffffff1673ffffffffffffffffffffffffffffffffffffffff16815260200190815260200160002060009054906101000a900460ff16611847576040517f08c379a000000000000000000000000000000000000000000000000000000000815260040161183e90614252565b60405180910390fd5b600a818154811061185b5761185a613cb3565b5b9060005260206000209060090201600501600081548092919061187d90613e89565b91905055506001600c600083815260200190815260200160002060003373ffffffffffffffffffffffffffffffffffffffff1673ffffffffffffffffffffffffffffffffffffffff16815260200190815260200160002060006101000a81548160ff0219169083151502179055505050565b60086020528060005260406000206000915054906101000a900460ff1681565b6000674563918244f4000061192333610fb3565b1015611964576040517f08c379a000000000000000000000000000000000000000000000000000000000815260040161195b906142be565b60405180910390fd5b600660009054906101000a900473ffffffffffffffffffffffffffffffffffffffff1673ffffffffffffffffffffffffffffffffffffffff166323b872dd333068d8d726b7177a8000006040518463ffffffff1660e01b81526004016119cc93929190614319565b6020604051808303816000875af11580156119eb573d6000803e3d6000fd5b505050506040513d601f19601f82011682018060405250810190611a0f9190614101565b611a4e576040517f08c379a0000000000000000000000000000000000000000000000000000000008152600401611a459061439c565b60405180910390fd5b611a613330674563918244f40000612c0e565b600a6040518061012001604052808a8a8080601f016020809104026020016040519081016040528093929190818152602001838380828437600081840152601f19601f820116905080830192505050505050508152602001888152602001878780806020026020016040519081016040528093929190818152602001838360200280828437600081840152601f19601f820116905080830192505050505050508152602001858580806020026020016040519081016040528093929190818152602001838360200280828437600081840152601f19601f8201169050808301925050505050505081526020013373ffffffffffffffffffffffffffffffffffffffff1681526020016000815260200160001515815260200160008152602001600081525090806001815401808255809150506001900390600052602060002090600902016000909190919091506000820151816000019081611bc3919061458d565b50602082015181600101556040820151816002019080519060200190611bea929190613273565b506060820151816003019080519060200190611c07929190613273565b5060808201518160040160006101000a81548173ffffffffffffffffffffffffffffffffffffffff021916908373ffffffffffffffffffffffffffffffffffffffff16021790555060a0820151816005015560c08201518160060160006101000a81548160ff02191690831515021790555060e08201518160070155610100820151816008015550506001600a80549050611ca2919061465f565b9050979650505050505050565b600080611cba612b5f565b9050611cc7818585612c0e565b600191505092915050565b600660009054906101000a900473ffffffffffffffffffffffffffffffffffffffff1673ffffffffffffffffffffffffffffffffffffffff166323b872dd3330846040518463ffffffff1660e01b8152600401611d3193929190614693565b6020604051808303816000875af1158015611d50573d6000803e3d6000fd5b505050506040513d601f19601f82011682018060405250810190611d749190614101565b611db3576040517f08c379a0000000000000000000000000000000000000000000000000000000008152600401611daa90614716565b60405180910390fd5b50565b6000600a8281548110611dcc57611dcb613cb3565b5b906000526020600020906009020190508060040160009054906101000a900473ffffffffffffffffffffffffffffffffffffffff1673ffffffffffffffffffffffffffffffffffffffff163373ffffffffffffffffffffffffffffffffffffffff1614611e6e576040517f08c379a0000000000000000000000000000000000000000000000000000000008152600401611e6590614782565b60405180910390fd5b80600101544210611eb4576040517f08c379a0000000000000000000000000000000000000000000000000000000008152600401611eab90613d91565b60405180910390fd5b8060060160009054906101000a900460ff1615611f06576040517f08c379a0000000000000000000000000000000000000000000000000000000008152600401611efd906147ee565b60405180910390fd5b611f0e612e4f565b600a8260050154611f1f9190614015565b1015611f60576040517f08c379a0000000000000000000000000000000000000000000000000000000008152600401611f579061485a565b60405180910390fd5b600080600090505b8260020180549050811015611fb257826002018181548110611f8d57611f8c613cb3565b5b906000526020600020015482611fa39190613d11565b91508080600101915050611f68565b5080600660009054906101000a900473ffffffffffffffffffffffffffffffffffffffff1673ffffffffffffffffffffffffffffffffffffffff166370a08231306040518263ffffffff1660e01b815260040161200f9190613911565b602060405180830381865afa15801561202c573d6000803e3d6000fd5b505050506040513d601f19601f82011682018060405250810190612050919061488f565b1015612091576040517f08c379a000000000000000000000000000000000000000000000000000000000815260040161208890614908565b60405180910390fd5b60018260060160006101000a81548160ff021916908315150217905550428260070181905550505050565b600080600090505b600a8054905081101561212557600a81815481106120e5576120e4613cb3565b5b906000526020600020906009020160060160009054906101000a900460ff161561211857818061211490613e89565b9250505b80806001019150506120c4565b5090565b600d6020528160005260406000206020528060005260406000206000915091509054906101000a900460ff1681565b6000600160008473ffffffffffffffffffffffffffffffffffffffff1673ffffffffffffffffffffffffffffffffffffffff16815260200190815260200160002060008373ffffffffffffffffffffffffffffffffffffffff1673ffffffffffffffffffffffffffffffffffffffff16815260200190815260200160002054905092915050565b600760003373ffffffffffffffffffffffffffffffffffffffff1673ffffffffffffffffffffffffffffffffffffffff16815260200190815260200160002060009054906101000a900460ff161561226c576040517f08c379a000000000000000000000000000000000000000000000000000000000815260040161226390614974565b60405180910390fd5b61227f3033670de0b6b3a7640000612c0e565b6001600760003373ffffffffffffffffffffffffffffffffffffffff1673ffffffffffffffffffffffffffffffffffffffff16815260200190815260200160002060006101000a81548160ff0219169083151502179055506001600860003373ffffffffffffffffffffffffffffffffffffffff1673ffffffffffffffffffffffffffffffffffffffff16815260200190815260200160002060006101000a81548160ff021916908315150217905550565b6000671bc16d674ec8000061234533610fb3565b1015612386576040517f08c379a000000000000000000000000000000000000000000000000000000000815260040161237d906142be565b60405180910390fd5b600660009054906101000a900473ffffffffffffffffffffffffffffffffffffffff1673ffffffffffffffffffffffffffffffffffffffff166323b872dd3330683635c9adc5dea000006040518463ffffffff1660e01b81526004016123ee939291906149cf565b6020604051808303816000875af115801561240d573d6000803e3d6000fd5b505050506040513d601f19601f820116820180604052508101906124319190614101565b612470576040517f08c379a00000000000000000000000000000000000000000000000000000000081526004016124679061439c565b60405180910390fd5b6124833330671bc16d674ec80000612c0e565b60096040518060e0016040528088888080601f016020809104026020016040519081016040528093929190818152602001838380828437600081840152601f19601f8201169050808301925050505050505081526020018681526020018581526020018481526020013373ffffffffffffffffffffffffffffffffffffffff1681526020018567ffffffffffffffff811115612522576125216143bc565b5b6040519080825280602002602001820160405280156125505781602001602082028036833780820191505090505b508152602001600081525090806001815401808255809150506001900390600052602060002090600702016000909190919091506000820151816000019081612599919061458d565b5060208201518160010155604082015181600201556060820151816003015560808201518160040160006101000a81548173ffffffffffffffffffffffffffffffffffffffff021916908373ffffffffffffffffffffffffffffffffffffffff16021790555060a082015181600501908051906020019061261b929190613273565b5060c082015181600601555050600160098054905061263a919061465f565b905095945050505050565b600860003373ffffffffffffffffffffffffffffffffffffffff1673ffffffffffffffffffffffffffffffffffffffff16815260200190815260200160002060009054906101000a900460ff1680156126ae5750670de0b6b3a76400006126ab33610fb3565b10155b6126ed576040517f08c379a00000000000000000000000000000000000000000000000000000000081526004016126e490614a52565b60405180910390fd5b600b600083815260200190815260200160002060003373ffffffffffffffffffffffffffffffffffffffff1673ffffffffffffffffffffffffffffffffffffffff16815260200190815260200160002060009054906101000a900460ff161561278b576040517f08c379a00000000000000000000000000000000000000000000000000000000081526004016127829061417a565b60405180910390fd5b600a828154811061279f5761279e613cb3565b5b90600052602060002090600902016001015442106127f2576040517f08c379a00000000000000000000000000000000000000000000000000000000081526004016127e990613d91565b60405180910390fd5b801561283457600a828154811061280c5761280b613cb3565b5b9060005260206000209060090201600501600081548092919061282e90613e89565b91905055505b6001600b600084815260200190815260200160002060003373ffffffffffffffffffffffffffffffffffffffff1673ffffffffffffffffffffffffffffffffffffffff16815260200190815260200160002060006101000a81548160ff0219169083151502179055505050565b6128a9612d02565b600073ffffffffffffffffffffffffffffffffffffffff168173ffffffffffffffffffffffffffffffffffffffff160361291b5760006040517f1e4fbdf70000000000000000000000000000000000000000000000000000000081526004016129129190613911565b60405180910390fd5b61292481612d89565b50565b606060006060806000600a868154811061294457612943613cb3565b5b90600052602060002090600902016040518061012001604052908160008201805461296e90613c82565b80601f016020809104026020016040519081016040528092919081815260200182805461299a90613c82565b80156129e75780601f106129bc576101008083540402835291602001916129e7565b820191906000526020600020905b8154815290600101906020018083116129ca57829003601f168201915b505050505081526020016001820154815260200160028201805480602002602001604051908101604052809291908181526020018280548015612a4957602002820191906000526020600020905b815481526020019060010190808311612a35575b5050505050815260200160038201805480602002602001604051908101604052809291908181526020018280548015612aa157602002820191906000526020600020905b815481526020019060010190808311612a8d575b505050505081526020016004820160009054906101000a900473ffffffffffffffffffffffffffffffffffffffff1673ffffffffffffffffffffffffffffffffffffffff1673ffffffffffffffffffffffffffffffffffffffff168152602001600582015481526020016006820160009054906101000a900460ff1615151515815260200160078201548152602001600882015481525050905080600001518160200151826040015183606001519450945094509450509193509193565b600033905090565b612b748383836001612e77565b505050565b6000612b858484612158565b90507fffffffffffffffffffffffffffffffffffffffffffffffffffffffffffffffff811015612c085781811015612bf8578281836040517ffb8f41b2000000000000000000000000000000000000000000000000000000008152600401612bef93929190614a72565b60405180910390fd5b612c0784848484036000612e77565b5b50505050565b600073ffffffffffffffffffffffffffffffffffffffff168373ffffffffffffffffffffffffffffffffffffffff1603612c805760006040517f96c6fd1e000000000000000000000000000000000000000000000000000000008152600401612c779190613911565b60405180910390fd5b600073ffffffffffffffffffffffffffffffffffffffff168273ffffffffffffffffffffffffffffffffffffffff1603612cf25760006040517fec442f05000000000000000000000000000000000000000000000000000000008152600401612ce99190613911565b60405180910390fd5b612cfd83838361304e565b505050565b612d0a612b5f565b73ffffffffffffffffffffffffffffffffffffffff16612d2861154e565b73ffffffffffffffffffffffffffffffffffffffff1614612d8757612d4b612b5f565b6040517f118cdaa7000000000000000000000000000000000000000000000000000000008152600401612d7e9190613911565b60405180910390fd5b565b6000600560009054906101000a900473ffffffffffffffffffffffffffffffffffffffff16905081600560006101000a81548173ffffffffffffffffffffffffffffffffffffffff021916908373ffffffffffffffffffffffffffffffffffffffff1602179055508173ffffffffffffffffffffffffffffffffffffffff168173ffffffffffffffffffffffffffffffffffffffff167f8be0079c531659141344cd1fd0a4f28419497f9722a3daafe3b4186f6b6457e060405160405180910390a35050565b600080600090505b61012c811015612e6e578080600101915050612e57565b5061012c905090565b600073ffffffffffffffffffffffffffffffffffffffff168473ffffffffffffffffffffffffffffffffffffffff1603612ee95760006040517fe602df05000000000000000000000000000000000000000000000000000000008152600401612ee09190613911565b60405180910390fd5b600073ffffffffffffffffffffffffffffffffffffffff168373ffffffffffffffffffffffffffffffffffffffff1603612f5b5760006040517f94280d62000000000000000000000000000000000000000000000000000000008152600401612f529190613911565b60405180910390fd5b81600160008673ffffffffffffffffffffffffffffffffffffffff1673ffffffffffffffffffffffffffffffffffffffff16815260200190815260200160002060008573ffffffffffffffffffffffffffffffffffffffff1673ffffffffffffffffffffffffffffffffffffffff168152602001908152602001600020819055508015613048578273ffffffffffffffffffffffffffffffffffffffff168473ffffffffffffffffffffffffffffffffffffffff167f8c5be1e5ebec7d5bd14f71427d1e84f3dd0314c0f7b2291e5b200ac8c7c3b9258460405161303f9190613564565b60405180910390a35b50505050565b600073ffffffffffffffffffffffffffffffffffffffff168373ffffffffffffffffffffffffffffffffffffffff16036130a05780600260008282546130949190613d11565b92505081905550613173565b60008060008573ffffffffffffffffffffffffffffffffffffffff1673ffffffffffffffffffffffffffffffffffffffff1681526020019081526020016000205490508181101561312c578381836040517fe450d38c00000000000000000000000000000000000000000000000000000000815260040161312393929190614a72565b60405180910390fd5b8181036000808673ffffffffffffffffffffffffffffffffffffffff1673ffffffffffffffffffffffffffffffffffffffff16815260200190815260200160002081905550505b600073ffffffffffffffffffffffffffffffffffffffff168273ffffffffffffffffffffffffffffffffffffffff16036131bc5780600260008282540392505081905550613209565b806000808473ffffffffffffffffffffffffffffffffffffffff1673ffffffffffffffffffffffffffffffffffffffff168152602001908152602001600020600082825401925050819055505b8173ffffffffffffffffffffffffffffffffffffffff168373ffffffffffffffffffffffffffffffffffffffff167fddf252ad1be2c89b69c2b068fc378daa952ba7f163c4a11628f55a4df523b3ef836040516132669190613564565b60405180910390a3505050565b8280548282559060005260206000209081019282156132af579160200282015b828111156132ae578251825591602001919060010190613293565b5b5090506132bc91906132c0565b5090565b5b808211156132d95760008160009055506001016132c1565b5090565b600080fd5b600080fd5b6000819050919050565b6132fa816132e7565b811461330557600080fd5b50565b600081359050613317816132f1565b92915050565b600060208284031215613333576133326132dd565b5b600061334184828501613308565b91505092915050565b600081519050919050565b600082825260208201905092915050565b60005b83811015613384578082015181840152602081019050613369565b60008484015250505050565b6000601f19601f8301169050919050565b60006133ac8261334a565b6133b68185613355565b93506133c6818560208601613366565b6133cf81613390565b840191505092915050565b6133e3816132e7565b82525050565b600073ffffffffffffffffffffffffffffffffffffffff82169050919050565b6000613414826133e9565b9050919050565b61342481613409565b82525050565b60008115159050919050565b61343f8161342a565b82525050565b600060e082019050818103600083015261345f818a6133a1565b905061346e60208301896133da565b61347b604083018861341b565b61348860608301876133da565b6134956080830186613436565b6134a260a08301856133da565b6134af60c08301846133da565b98975050505050505050565b600060208201905081810360008301526134d581846133a1565b905092915050565b6134e681613409565b81146134f157600080fd5b50565b600081359050613503816134dd565b92915050565b600080604083850312156135205761351f6132dd565b5b600061352e858286016134f4565b925050602061353f85828601613308565b9150509250929050565b600060208201905061355e6000830184613436565b92915050565b600060208201905061357960008301846133da565b92915050565b600080600060608486031215613598576135976132dd565b5b60006135a6868287016134f4565b93505060206135b7868287016134f4565b92505060406135c886828701613308565b9150509250925092565b600060808201905081810360008301526135ec81876133a1565b90506135fb60208301866133da565b61360860408301856133da565b61361560608301846133da565b95945050505050565b600060ff82169050919050565b6136348161361e565b82525050565b600060208201905061364f600083018461362b565b92915050565b6000806040838503121561366c5761366b6132dd565b5b600061367a85828601613308565b925050602061368b858286016134f4565b9150509250929050565b6000819050919050565b6136a881613695565b82525050565b60006020820190506136c3600083018461369f565b92915050565b600080fd5b600080fd5b600080fd5b60008083601f8401126136ee576136ed6136c9565b5b8235905067ffffffffffffffff81111561370b5761370a6136ce565b5b602083019150836020820283011115613727576137266136d3565b5b9250929050565b600080600060408486031215613747576137466132dd565b5b600061375586828701613308565b935050602084013567ffffffffffffffff811115613776576137756132e2565b5b613782868287016136d8565b92509250509250925092565b6000602082840312156137a4576137a36132dd565b5b60006137b2848285016134f4565b91505092915050565b600081519050919050565b600082825260208201905092915050565b6000819050602082019050919050565b6137f0816132e7565b82525050565b600061380283836137e7565b60208301905092915050565b6000602082019050919050565b6000613826826137bb565b61383081856137c6565b935061383b836137d7565b8060005b8381101561386c57815161385388826137f6565b975061385e8361380e565b92505060018101905061383f565b5085935050505092915050565b600060408201905061388e60008301856133da565b81810360208301526138a0818461381b565b90509392505050565b600060c08201905081810360008301526138c381896133a1565b90506138d260208301886133da565b6138df60408301876133da565b6138ec60608301866133da565b6138f9608083018561341b565b61390660a08301846133da565b979650505050505050565b6000602082019050613926600083018461341b565b92915050565b6000819050919050565b600061395161394c613947846133e9565b61392c565b6133e9565b9050919050565b600061396382613936565b9050919050565b600061397582613958565b9050919050565b6139858161396a565b82525050565b60006020820190506139a0600083018461397c565b92915050565b60008083601f8401126139bc576139bb6136c9565b5b8235905067ffffffffffffffff8111156139d9576139d86136ce565b5b6020830191508360018202830111156139f5576139f46136d3565b5b9250929050565b60008060008060008060006080888a031215613a1b57613a1a6132dd565b5b600088013567ffffffffffffffff811115613a3957613a386132e2565b5b613a458a828b016139a6565b97509750506020613a588a828b01613308565b955050604088013567ffffffffffffffff811115613a7957613a786132e2565b5b613a858a828b016136d8565b9450945050606088013567ffffffffffffffff811115613aa857613aa76132e2565b5b613ab48a828b016136d8565b925092505092959891949750929550565b60008060408385031215613adc57613adb6132dd565b5b6000613aea858286016134f4565b9250506020613afb858286016134f4565b9150509250929050565b600080600080600060808688031215613b2157613b206132dd565b5b600086013567ffffffffffffffff811115613b3f57613b3e6132e2565b5b613b4b888289016139a6565b95509550506020613b5e88828901613308565b9350506040613b6f88828901613308565b9250506060613b8088828901613308565b9150509295509295909350565b613b968161342a565b8114613ba157600080fd5b50565b600081359050613bb381613b8d565b92915050565b60008060408385031215613bd057613bcf6132dd565b5b6000613bde85828601613308565b9250506020613bef85828601613ba4565b9150509250929050565b60006080820190508181036000830152613c1381876133a1565b9050613c2260208301866133da565b8181036040830152613c34818561381b565b90508181036060830152613c48818461381b565b905095945050505050565b7f4e487b7100000000000000000000000000000000000000000000000000000000600052602260045260246000fd5b60006002820490506001821680613c9a57607f821691505b602082108103613cad57613cac613c53565b5b50919050565b7f4e487b7100000000000000000000000000000000000000000000000000000000600052603260045260246000fd5b7f4e487b7100000000000000000000000000000000000000000000000000000000600052601160045260246000fd5b6000613d1c826132e7565b9150613d27836132e7565b9250828201905080821115613d3f57613d3e613ce2565b5b92915050565b7f4578706972656400000000000000000000000000000000000000000000000000600082015250565b6000613d7b600783613355565b9150613d8682613d45565b602082019050919050565b60006020820190508181036000830152613daa81613d6e565b9050919050565b7f546f6f206d616e792063686f6963657300000000000000000000000000000000600082015250565b6000613de7601083613355565b9150613df282613db1565b602082019050919050565b60006020820190508181036000830152613e1681613dda565b9050919050565b7f496e76616c69642063686f696365000000000000000000000000000000000000600082015250565b6000613e53600e83613355565b9150613e5e82613e1d565b602082019050919050565b60006020820190508181036000830152613e8281613e46565b9050919050565b6000613e94826132e7565b91507fffffffffffffffffffffffffffffffffffffffffffffffffffffffffffffffff8203613ec657613ec5613ce2565b5b600182019050919050565b7f556e617574686f72697a65640000000000000000000000000000000000000000600082015250565b6000613f07600c83613355565b9150613f1282613ed1565b602082019050919050565b60006020820190508181036000830152613f3681613efa565b9050919050565b7f416c6c2070616964000000000000000000000000000000000000000000000000600082015250565b6000613f73600883613355565b9150613f7e82613f3d565b602082019050919050565b60006020820190508181036000830152613fa281613f66565b9050919050565b7f4e6f742064756520796574000000000000000000000000000000000000000000600082015250565b6000613fdf600b83613355565b9150613fea82613fa9565b602082019050919050565b6000602082019050818103600083015261400e81613fd2565b9050919050565b6000614020826132e7565b915061402b836132e7565b9250828202614039816132e7565b915082820484148315176140505761404f613ce2565b5b5092915050565b7f4e6f7420656e6f75676820766f74657320666f72207061796d656e7400000000600082015250565b600061408d601c83613355565b915061409882614057565b602082019050919050565b600060208201905081810360008301526140bc81614080565b9050919050565b60006040820190506140d8600083018561341b565b6140e560208301846133da565b9392505050565b6000815190506140fb81613b8d565b92915050565b600060208284031215614117576141166132dd565b5b6000614125848285016140ec565b91505092915050565b7f416c726561647920766f74656400000000000000000000000000000000000000600082015250565b6000614164600d83613355565b915061416f8261412e565b602082019050919050565b6000602082019050818103600083015261419381614157565b9050919050565b7f416c72656164792064656c656761746564000000000000000000000000000000600082015250565b60006141d0601183613355565b91506141db8261419a565b602082019050919050565b600060208201905081810360008301526141ff816141c3565b9050919050565b7f496e76616c6964206d656d626572000000000000000000000000000000000000600082015250565b600061423c600e83613355565b915061424782614206565b602082019050919050565b6000602082019050818103600083015261426b8161422f565b9050919050565b7f4e6f7420656e6f756768204d79476f7620746f6b656e73000000000000000000600082015250565b60006142a8601783613355565b91506142b382614272565b602082019050919050565b600060208201905081810360008301526142d78161429b565b9050919050565b6000819050919050565b60006143036142fe6142f9846142de565b61392c565b6132e7565b9050919050565b614313816142e8565b82525050565b600060608201905061432e600083018661341b565b61433b602083018561341b565b614348604083018461430a565b949350505050565b7f544c207472616e73666572206661696c65640000000000000000000000000000600082015250565b6000614386601283613355565b915061439182614350565b602082019050919050565b600060208201905081810360008301526143b581614379565b9050919050565b7f4e487b7100000000000000000000000000000000000000000000000000000000600052604160045260246000fd5b60008190508160005260206000209050919050565b60006020601f8301049050919050565b600082821b905092915050565b60006008830261444d7fffffffffffffffffffffffffffffffffffffffffffffffffffffffffffffffff82614410565b6144578683614410565b95508019841693508086168417925050509392505050565b600061448a614485614480846132e7565b61392c565b6132e7565b9050919050565b6000819050919050565b6144a48361446f565b6144b86144b082614491565b84845461441d565b825550505050565b600090565b6144cd6144c0565b6144d881848461449b565b505050565b5b818110156144fc576144f16000826144c5565b6001810190506144de565b5050565b601f82111561454157614512816143eb565b61451b84614400565b8101602085101561452a578190505b61453e61453685614400565b8301826144dd565b50505b505050565b600082821c905092915050565b600061456460001984600802614546565b1980831691505092915050565b600061457d8383614553565b9150826002028217905092915050565b6145968261334a565b67ffffffffffffffff8111156145af576145ae6143bc565b5b6145b98254613c82565b6145c4828285614500565b600060209050601f8311600181146145f757600084156145e5578287015190505b6145ef8582614571565b865550614657565b601f198416614605866143eb565b60005b8281101561462d57848901518255600182019150602085019450602081019050614608565b8683101561464a5784890151614646601f891682614553565b8355505b6001600288020188555050505b505050505050565b600061466a826132e7565b9150614675836132e7565b925082820390508181111561468d5761468c613ce2565b5b92915050565b60006060820190506146a8600083018661341b565b6146b5602083018561341b565b6146c260408301846133da565b949350505050565b7f4661696c65640000000000000000000000000000000000000000000000000000600082015250565b6000614700600683613355565b915061470b826146ca565b602082019050919050565b6000602082019050818103600083015261472f816146f3565b9050919050565b7f4e6f74206f776e65720000000000000000000000000000000000000000000000600082015250565b600061476c600983613355565b915061477782614736565b602082019050919050565b6000602082019050818103600083015261479b8161475f565b9050919050565b7f416c72656164792066756e646564000000000000000000000000000000000000600082015250565b60006147d8600e83613355565b91506147e3826147a2565b602082019050919050565b60006020820190508181036000830152614807816147cb565b9050919050565b7f4e6f7420656e6f75676820766f74657300000000000000000000000000000000600082015250565b6000614844601083613355565b915061484f8261480e565b602082019050919050565b6000602082019050818103600083015261487381614837565b9050919050565b600081519050614889816132f1565b92915050565b6000602082840312156148a5576148a46132dd565b5b60006148b38482850161487a565b91505092915050565b7f4e6f7420656e6f75676820544c00000000000000000000000000000000000000600082015250565b60006148f2600d83613355565b91506148fd826148bc565b602082019050919050565b60006020820190508181036000830152614921816148e5565b9050919050565b7f416c726561647920636c61696d65640000000000000000000000000000000000600082015250565b600061495e600f83613355565b915061496982614928565b602082019050919050565b6000602082019050818103600083015261498d81614951565b9050919050565b6000819050919050565b60006149b96149b46149af84614994565b61392c565b6132e7565b9050919050565b6149c98161499e565b82525050565b60006060820190506149e4600083018661341b565b6149f1602083018561341b565b6149fe60408301846149c0565b949350505050565b7f4e6f7420612076616c6964206d656d6265720000000000000000000000000000600082015250565b6000614a3c601283613355565b9150614a4782614a06565b602082019050919050565b60006020820190508181036000830152614a6b81614a2f565b9050919050565b6000606082019050614a87600083018661341b565b614a9460208301856133da565b614aa160408301846133da565b94935050505056fea26469706673582212206e133628b3b0ec5f92f435f08cb5654127a5bfc3dd9e31785c5d3d3dc899ba1464736f6c634300081c0033",
  "linkReferences": {},
  "deployedLinkReferences": {}
}