{
  "_format": "hh-sol-artifact-1",
  "contractName": "MyGov",
  "sourceName": "contracts/MyGov.sol",
  "abi": [
    {
      "inputs": [
        {
          "internalType": "address",
          "name": "_tlToken",
          "type": "address"
        }
      ],
      "stateMutability": "nonpayable",
      "type": "constructor"
    },
    {
      "inputs": [
        {
          "internalType": "address",
          "name": "spender",
          "type": "address"
        },
        {
          "internalType": "uint256",
          "name": "allowance",
          "type": "uint256"
        },
        {
          "internalType": "uint256",
          "name": "needed",
          "type": "uint256"
        }
      ],
      "name": "ERC20InsufficientAllowance",
      "type": "error"
    },
    {
      "inputs": [
        {
          "internalType": "address",
          "name": "sender",
          "type": "address"
        },
        {
          "internalType": "uint256",
          "name": "balance",
          "type": "uint256"
        },
        {
          "internalType": "uint256",
          "name": "needed",
          "type": "uint256"
        }
      ],
      "name": "ERC20InsufficientBalance",
      "type": "error"
    },
    {
      "inputs": [
        {
          "internalType": "address",
          "name": "approver",
          "type": "address"
        }
      ],
      "name": "ERC20InvalidApprover",
      "type": "error"
    },
    {
      "inputs": [
        {
          "internalType": "address",
          "name": "receiver",
          "type": "address"
        }
      ],
      "name": "ERC20InvalidReceiver",
      "type": "error"
    },
    {
      "inputs": [
        {
          "internalType": "address",
          "name": "sender",
          "type": "address"
        }
      ],
      "name": "ERC20InvalidSender",
      "type": "error"
    },
    {
      "inputs": [
        {
          "internalType": "address",
          "name": "spender",
          "type": "address"
        }
      ],
      "name": "ERC20InvalidSpender",
      "type": "error"
    },
    {
      "inputs": [
        {
          "internalType": "address",
          "name": "owner",
          "type": "address"
        }
      ],
      "name": "OwnableInvalidOwner",
      "type": "error"
    },
    {
      "inputs": [
        {
          "internalType": "address",
          "name": "account",
          "type": "address"
        }
      ],
      "name": "OwnableUnauthorizedAccount",
      "type": "error"
    },
    {
      "anonymous": false,
      "inputs": [
        {
          "indexed": true,
          "internalType": "address",
          "name": "owner",
          "type": "address"
        },
        {
          "indexed": true,
          "internalType": "address",
          "name": "spender",
          "type": "address"
        },
        {
          "indexed": false,
          "internalType": "uint256",
          "name": "value",
          "type": "uint256"
        }
      ],
      "name": "Approval",
      "type": "event"
    },
    {
      "anonymous": false,
      "inputs": [
        {
          "indexed": true,
          "internalType": "address",
          "name": "previousOwner",
          "type": "address"
        },
        {
          "indexed": true,
          "internalType": "address",
          "name": "newOwner",
          "type": "address"
        }
      ],
      "name": "OwnershipTransferred",
      "type": "event"
    },
    {
      "anonymous": false,
      "inputs": [
        {
          "indexed": true,
          "internalType": "address",
          "name": "from",
          "type": "address"
        },
        {
          "indexed": true,
          "internalType": "address",
          "name": "to",
          "type": "address"
        },
        {
          "indexed": false,
          "internalType": "uint256",
          "name": "value",
          "type": "uint256"
        }
      ],
      "name": "Transfer",
      "type": "event"
    },
    {
      "inputs": [],
      "name": "MAX_SUPPLY",
      "outputs": [
        {
          "internalType": "uint256",
          "name": "",
          "type": "uint256"
        }
      ],
      "stateMutability": "view",
      "type": "function"
    },
    {
      "inputs": [
        {
          "internalType": "address",
          "name": "owner",
          "type": "address"
        },
        {
          "internalType": "address",
          "name": "spender",
          "type": "address"
        }
      ],
      "name": "allowance",
      "outputs": [
        {
          "internalType": "uint256",
          "name": "",
          "type": "uint256"
        }
      ],
      "stateMutability": "view",
      "type": "function"
    },
    {
      "inputs": [
        {
          "internalType": "address",
          "name": "spender",
          "type": "address"
        },
        {
          "internalType": "uint256",
          "name": "value",
          "type": "uint256"
        }
      ],
      "name": "approve",
      "outputs": [
        {
          "internalType": "bool",
          "name": "",
          "type": "bool"
        }
      ],
      "stateMutability": "nonpayable",
      "type": "function"
    },
    {
      "inputs": [
        {
          "internalType": "address",
          "name": "account",
          "type": "address"
        }
      ],
      "name": "balanceOf",
      "outputs": [
        {
          "internalType": "uint256",
          "name": "",
          "type": "uint256"
        }
      ],
      "stateMutability": "view",
      "type": "function"
    },
    {
      "inputs": [],
      "name": "decimals",
      "outputs": [
        {
          "internalType": "uint8",
          "name": "",
          "type": "uint8"
        }
      ],
      "stateMutability": "view",
      "type": "function"
    },
    {
      "inputs": [
        {
          "internalType": "address",
          "name": "memberaddr",
          "type": "address"
        },
        {
          "internalType": "uint256",
          "name": "projectid",
          "type": "uint256"
        }
      ],
      "name": "delegateVoteTo",
      "outputs": [],
      "stateMutability": "nonpayable",
      "type": "function"
    },
    {
      "inputs": [
        {
          "internalType": "uint256",
          "name": "amount",
          "type": "uint256"
        }
      ],
      "name": "donateMyGovToken",
      "outputs": [],
      "stateMutability": "nonpayable",
      "type": "function"
    },
    {
      "inputs": [
        {
          "internalType": "uint256",
          "name": "amount",
          "type": "uint256"
        }
      ],
      "name": "donateTLToken",
      "outputs": [],
      "stateMutability": "nonpayable",
      "type": "function"
    },
    {
      "inputs": [
        {
          "internalType": "uint256",
          "name": "",
          "type": "uint256"
        },
        {
          "internalType": "address",
          "name": "",
          "type": "address"
        }
      ],
      "name": "extraVotes",
      "outputs": [
        {
          "internalType": "uint256",
          "name": "",
          "type": "uint256"
        }
      ],
      "stateMutability": "view",
      "type": "function"
    },
    {
      "inputs": [],
      "name": "faucet",
      "outputs": [],
      "stateMutability": "nonpayable",
      "type": "function"
    },
    {
      "inputs": [
        {
          "internalType": "address",
          "name": "",
          "type": "address"
        }
      ],
      "name": "faucetClaimed",
      "outputs": [
        {
          "internalType": "bool",
          "name": "",
          "type": "bool"
        }
      ],
      "stateMutability": "view",
      "type": "function"
    },
    {
      "inputs": [
        {
          "internalType": "uint256",
          "name": "projectid",
          "type": "uint256"
        }
      ],
      "name": "getIsProjectFunded",
      "outputs": [
        {
          "internalType": "bool",
          "name": "",
          "type": "bool"
        }
      ],
      "stateMutability": "view",
      "type": "function"
    },
    {
      "inputs": [],
      "name": "getNoOfFundedProjects",
      "outputs": [
        {
          "internalType": "uint256",
          "name": "count",
          "type": "uint256"
        }
      ],
      "stateMutability": "view",
      "type": "function"
    },
    {
      "inputs": [],
      "name": "getNoOfProjectProposals",
      "outputs": [
        {
          "internalType": "uint256",
          "name": "",
          "type": "uint256"
        }
      ],
      "stateMutability": "view",
      "type": "function"
    },
    {
      "inputs": [],
      "name": "getNoOfSurveys",
      "outputs": [
        {
          "internalType": "uint256",
          "name": "",
          "type": "uint256"
        }
      ],
      "stateMutability": "view",
      "type": "function"
    },
    {
      "inputs": [
        {
          "internalType": "uint256",
          "name": "activityid",
          "type": "uint256"
        }
      ],
      "name": "getProjectInfo",
      "outputs": [
        {
          "internalType": "string",
          "name": "",
          "type": "string"
        },
        {
          "internalType": "uint256",
          "name": "",
          "type": "uint256"
        },
        {
          "internalType": "uint256[]",
          "name": "",
          "type": "uint256[]"
        },
        {
          "internalType": "uint256[]",
          "name": "",
          "type": "uint256[]"
        }
      ],
      "stateMutability": "view",
      "type": "function"
    },
    {
      "inputs": [
        {
          "internalType": "uint256",
          "name": "projectid",
          "type": "uint256"
        }
      ],
      "name": "getProjectNextTLPayment",
      "outputs": [
        {
          "internalType": "int256",
          "name": "",
          "type": "int256"
        }
      ],
      "stateMutability": "view",
      "type": "function"
    },
    {
      "inputs": [
        {
          "internalType": "uint256",
          "name": "projectid",
          "type": "uint256"
        }
      ],
      "name": "getProjectOwner",
      "outputs": [
        {
          "internalType": "address",
          "name": "",
          "type": "address"
        }
      ],
      "stateMutability": "view",
      "type": "function"
    },
    {
      "inputs": [
        {
          "internalType": "uint256",
          "name": "surveyid",
          "type": "uint256"
        }
      ],
      "name": "getSurveyInfo",
      "outputs": [
        {
          "internalType": "string",
          "name": "",
          "type": "string"
        },
        {
          "internalType": "uint256",
          "name": "",
          "type": "uint256"
        },
        {
          "internalType": "uint256",
          "name": "",
          "type": "uint256"
        },
        {
          "internalType": "uint256",
          "name": "",
          "type": "uint256"
        }
      ],
      "stateMutability": "view",
      "type": "function"
    },
    {
      "inputs": [
        {
          "internalType": "uint256",
          "name": "surveyid",
          "type": "uint256"
        }
      ],
      "name": "getSurveyOwner",
      "outputs": [
        {
          "internalType": "address",
          "name": "",
          "type": "address"
        }
      ],
      "stateMutability": "view",
      "type": "function"
    },
    {
      "inputs": [
        {
          "internalType": "uint256",
          "name": "surveyid",
          "type": "uint256"
        }
      ],
      "name": "getSurveyResults",
      "outputs": [
        {
          "internalType": "uint256",
          "name": "",
          "type": "uint256"
        },
        {
          "internalType": "uint256[]",
          "name": "",
          "type": "uint256[]"
        }
      ],
      "stateMutability": "view",
      "type": "function"
    },
    {
      "inputs": [
        {
          "internalType": "uint256",
          "name": "projectid",
          "type": "uint256"
        }
      ],
      "name": "getTLReceivedByProject",
      "outputs": [
        {
          "internalType": "uint256",
          "name": "total",
          "type": "uint256"
        }
      ],
      "stateMutability": "view",
      "type": "function"
    },
    {
      "inputs": [
        {
          "internalType": "uint256",
          "name": "",
          "type": "uint256"
        },
        {
          "internalType": "address",
          "name": "",
          "type": "address"
        }
      ],
      "name": "hasDelegated",
      "outputs": [
        {
          "internalType": "bool",
          "name": "",
          "type": "bool"
        }
      ],
      "stateMutability": "view",
      "type": "function"
    },
    {
      "inputs": [
        {
          "internalType": "uint256",
          "name": "",
          "type": "uint256"
        },
        {
          "internalType": "address",
          "name": "",
          "type": "address"
        }
      ],
      "name": "hasVoted",
      "outputs": [
        {
          "internalType": "bool",
          "name": "",
          "type": "bool"
        }
      ],
      "stateMutability": "view",
      "type": "function"
    },
    {
      "inputs": [
        {
          "internalType": "uint256",
          "name": "",
          "type": "uint256"
        },
        {
          "internalType": "address",
          "name": "",
          "type": "address"
        }
      ],
      "name": "hasVotedForPayment",
      "outputs": [
        {
          "internalType": "bool",
          "name": "",
          "type": "bool"
        }
      ],
      "stateMutability": "view",
      "type": "function"
    },
    {
      "inputs": [
        {
          "internalType": "address",
          "name": "user",
          "type": "address"
        }
      ],
      "name": "isContractMember",
      "outputs": [
        {
          "internalType": "bool",
          "name": "",
          "type": "bool"
        }
      ],
      "stateMutability": "view",
      "type": "function"
    },
    {
      "inputs": [
        {
          "internalType": "address",
          "name": "",
          "type": "address"
        }
      ],
      "name": "isMember",
      "outputs": [
        {
          "internalType": "bool",
          "name": "",
          "type": "bool"
        }
      ],
      "stateMutability": "view",
      "type": "function"
    },
    {
      "inputs": [],
      "name": "name",
      "outputs": [
        {
          "internalType": "string",
          "name": "",
          "type": "string"
        }
      ],
      "stateMutability": "view",
      "type": "function"
    },
    {
      "inputs": [],
      "name": "owner",
      "outputs": [
        {
          "internalType": "address",
          "name": "",
          "type": "address"
        }
      ],
      "stateMutability": "view",
      "type": "function"
    },
    {
      "inputs": [
        {
          "internalType": "uint256",
          "name": "",
          "type": "uint256"
        }
      ],
      "name": "paymentVotes",
      "outputs": [
        {
          "internalType": "uint256",
          "name": "",
          "type": "uint256"
        }
      ],
      "stateMutability": "view",
      "type": "function"
    },
    {
      "inputs": [
        {
          "internalType": "uint256",
          "name": "",
          "type": "uint256"
        }
      ],
      "name": "proposals",
      "outputs": [
        {
          "internalType": "string",
          "name": "weburl",
          "type": "string"
        },
        {
          "internalType": "uint256",
          "name": "votedeadline",
          "type": "uint256"
        },
        {
          "internalType": "address",
          "name": "owner",
          "type": "address"
        },
        {
          "internalType": "uint256",
          "name": "yesVotes",
          "type": "uint256"
        },
        {
          "internalType": "bool",
          "name": "funded",
          "type": "bool"
        },
        {
          "internalType": "uint256",
          "name": "reservedTime",
          "type": "uint256"
        },
        {
          "internalType": "uint256",
          "name": "lastPaidIndex",
          "type": "uint256"
        }
      ],
      "stateMutability": "view",
      "type": "function"
    },
    {
      "inputs": [],
      "name": "renounceOwnership",
      "outputs": [],
      "stateMutability": "nonpayable",
      "type": "function"
    },
    {
      "inputs": [
        {
          "internalType": "uint256",
          "name": "projectid",
          "type": "uint256"
        }
      ],
      "name": "reserveProjectGrant",
      "outputs": [],
      "stateMutability": "nonpayable",
      "type": "function"
    },
    {
      "inputs": [
        {
          "internalType": "string",
          "name": "weburl",
          "type": "string"
        },
        {
          "internalType": "uint256",
          "name": "votedeadline",
          "type": "uint256"
        },
        {
          "internalType": "uint256[]",
          "name": "paymentamounts",
          "type": "uint256[]"
        },
        {
          "internalType": "uint256[]",
          "name": "payschedule",
          "type": "uint256[]"
        }
      ],
      "name": "submitProjectProposal",
      "outputs": [
        {
          "internalType": "uint256",
          "name": "",
          "type": "uint256"
        }
      ],
      "stateMutability": "nonpayable",
      "type": "function"
    },
    {
      "inputs": [
        {
          "internalType": "string",
          "name": "weburl",
          "type": "string"
        },
        {
          "internalType": "uint256",
          "name": "surveydeadline",
          "type": "uint256"
        },
        {
          "internalType": "uint256",
          "name": "numchoices",
          "type": "uint256"
        },
        {
          "internalType": "uint256",
          "name": "atmostchoices",
          "type": "uint256"
        }
      ],
      "name": "submitSurvey",
      "outputs": [
        {
          "internalType": "uint256",
          "name": "",
          "type": "uint256"
        }
      ],
      "stateMutability": "nonpayable",
      "type": "function"
    },
    {
      "inputs": [
        {
          "internalType": "uint256",
          "name": "",
          "type": "uint256"
        }
      ],
      "name": "surveys",
      "outputs": [
        {
          "internalType": "string",
          "name": "weburl",
          "type": "string"
        },
        {
          "internalType": "uint256",
          "name": "surveydeadline",
          "type": "uint256"
        },
        {
          "internalType": "uint256",
          "name": "numchoices",
          "type": "uint256"
        },
        {
          "internalType": "uint256",
          "name": "atmostchoices",
          "type": "uint256"
        },
        {
          "internalType": "address",
          "name": "owner",
          "type": "address"
        },
        {
          "internalType": "uint256",
          "name": "takerCount",
          "type": "uint256"
        }
      ],
      "stateMutability": "view",
      "type": "function"
    },
    {
      "inputs": [],
      "name": "symbol",
      "outputs": [
        {
          "internalType": "string",
          "name": "",
          "type": "string"
        }
      ],
      "stateMutability": "view",
      "type": "function"
    },
    {
      "inputs": [
        {
          "internalType": "uint256",
          "name": "surveyid",
          "type": "uint256"
        },
        {
          "internalType": "uint256[]",
          "name": "choices",
          "type": "uint256[]"
        }
      ],
      "name": "takeSurvey",
      "outputs": [],
      "stateMutability": "nonpayable",
      "type": "function"
    },
    {
      "inputs": [],
      "name": "tlToken",
      "outputs": [
        {
          "internalType": "contract ITLToken",
          "name": "",
          "type": "address"
        }
      ],
      "stateMutability": "view",
      "type": "function"
    },
    {
      "inputs": [],
      "name": "totalSupply",
      "outputs": [
        {
          "internalType": "uint256",
          "name": "",
          "type": "uint256"
        }
      ],
      "stateMutability": "view",
      "type": "function"
    },
    {
      "inputs": [
        {
          "internalType": "address",
          "name": "to",
          "type": "address"
        },
        {
          "internalType": "uint256",
          "name": "amount",
          "type": "uint256"
        }
      ],
      "name": "transfer",
      "outputs": [
        {
          "internalType": "bool",
          "name": "",
          "type": "bool"
        }
      ],
      "stateMutability": "nonpayable",
      "type": "function"
    },
    {
      "inputs": [
        {
          "internalType": "address",
          "name": "from",
          "type": "address"
        },
        {
          "internalType": "address",
          "name": "to",
          "type": "address"
        },
        {
          "internalType": "uint256",
          "name": "value",
          "type": "uint256"
        }
      ],
      "name": "transferFrom",
      "outputs": [
        {
          "internalType": "bool",
          "name": "",
          "type": "bool"
        }
      ],
      "stateMutability": "nonpayable",
      "type": "function"
    },
    {
      "inputs": [
        {
          "internalType": "address",
          "name": "newOwner",
          "type": "address"
        }
      ],
      "name": "transferOwnership",
      "outputs": [],
      "stateMutability": "nonpayable",
      "type": "function"
    },
    {
      "inputs": [
        {
          "internalType": "uint256",
          "name": "projectid",
          "type": "uint256"
        },
        {
          "internalType": "bool",
          "name": "choice",
          "type": "bool"
        }
      ],
      "name": "voteForProjectPayment",
      "outputs": [],
      "stateMutability": "nonpayable",
      "type": "function"
    },
    {
      "inputs": [
        {
          "internalType": "uint256",
          "name": "projectid",
          "type": "uint256"
        },
        {
          "internalType": "bool",
          "name": "choice",
          "type": "bool"
        }
      ],
      "name": "voteForProjectProposal",
      "outputs": [],
      "stateMutability": "nonpayable",
      "type": "function"
    },
    {
      "inputs": [
        {
          "internalType": "uint256",
          "name": "projectid",
          "type": "uint256"
        }
      ],
      "name": "withdrawProjectTLPayment",
      "outputs": [],
      "stateMutability": "nonpayable",
      "type": "function"
    }
  ],
  "bytecode": "0x60806040523480156200001157600080fd5b5060405162003945380380620039458339810160408190526200003491620002cb565b336040518060400160405280600581526020016426bca3b7bb60d91b8152506040518060400160405280600481526020016326a3a7ab60e11b8152508160039081620000819190620003a2565b506004620000908282620003a2565b5050506001600160a01b038116620000c357604051631e4fbdf760e01b8152600060048201526024015b60405180910390fd5b620000ce8162000108565b50600680546001600160a01b0319166001600160a01b03831617905562000101306a084595161401484a0000006200015a565b5062000496565b600580546001600160a01b038381166001600160a01b0319831681179093556040519116919082907f8be0079c531659141344cd1fd0a4f28419497f9722a3daafe3b4186f6b6457e090600090a35050565b6001600160a01b038216620001865760405163ec442f0560e01b815260006004820152602401620000ba565b620001946000838362000198565b5050565b6001600160a01b038316620001c7578060026000828254620001bb91906200046e565b909155506200023b9050565b6001600160a01b038316600090815260208190526040902054818110156200021c5760405163391434e360e21b81526001600160a01b03851660048201526024810182905260448101839052606401620000ba565b6001600160a01b03841660009081526020819052604090209082900390555b6001600160a01b038216620002595760028054829003905562000278565b6001600160a01b03821660009081526020819052604090208054820190555b816001600160a01b0316836001600160a01b03167fddf252ad1be2c89b69c2b068fc378daa952ba7f163c4a11628f55a4df523b3ef83604051620002be91815260200190565b60405180910390a3505050565b600060208284031215620002de57600080fd5b81516001600160a01b0381168114620002f657600080fd5b9392505050565b634e487b7160e01b600052604160045260246000fd5b600181811c908216806200032857607f821691505b6020821081036200034957634e487b7160e01b600052602260045260246000fd5b50919050565b601f8211156200039d57600081815260208120601f850160051c81016020861015620003785750805b601f850160051c820191505b81811015620003995782815560010162000384565b5050505b505050565b81516001600160401b03811115620003be57620003be620002fd565b620003d681620003cf845462000313565b846200034f565b602080601f8311600181146200040e5760008415620003f55750858301515b600019600386901b1c1916600185901b17855562000399565b600085815260208120601f198616915b828110156200043f578886015182559484019460019091019084016200041e565b50858210156200045e5787850151600019600388901b60f8161c191681555b5050505050600190811b01905550565b808201808211156200049057634e487b7160e01b600052601160045260246000fd5b92915050565b61349f80620004a66000396000f3fe608060405234801561001057600080fd5b506004361061028a5760003560e01c806373cbccba1161015c578063a230c524116100ce578063dd62ed3e11610087578063dd62ed3e1461065a578063de5f72fd14610693578063ef269ae31461069b578063f22449ba146106ae578063f2fde38b146106c1578063fabf5968146106d457600080fd5b8063a230c524146105e3578063a5e898e114610606578063a9059cbb14610619578063b70e36ce1461062c578063bd2757641461063f578063bf50556d1461065257600080fd5b806389903dc71161012057806389903dc71461056e5780638da5cb5b1461059157806392256aec146105a257806395d89b41146105b5578063a0b75d8c146105bd578063a1669b32146105d057600080fd5b806373cbccba146104d85780637c405164146104f8578063853cc4b61461050b57806386e68b901461051e578063875b50761461054357600080fd5b806339c94d2d11610200578063619aa727116101b9578063619aa727146104635780636632fa1814610476578063702798df1461048957806370a082311461049c57806370a56c73146104af578063715018a6146104d057600080fd5b806339c94d2d146103c457806342caaeb4146103d957806343859632146103ec57806355f3985b1461041a578063579b5a47146104485780635d801b371461045b57600080fd5b806318160ddd1161025257806318160ddd1461035d57806323b872dd1461036557806323fd498b146103785780632e8f341314610380578063313ce567146103a357806332cb6b0c146103b257600080fd5b8063013cf08b1461028f57806306fdde03146102be578063076ef625146102d3578063095ea7b31461030c5780630eab64091461032f575b600080fd5b6102a261029d366004612cbd565b6106f7565b6040516102b59796959493929190612d1c565b60405180910390f35b6102c66107e1565b6040516102b59190612d69565b6102fe6102e1366004612d98565b600b60209081526000928352604080842090915290825290205481565b6040519081526020016102b5565b61031f61031a366004612dc4565b610873565b60405190151581526020016102b5565b61031f61033d366004612d98565b600e60209081526000928352604080842090915290825290205460ff1681565b6002546102fe565b61031f610373366004612dee565b61088d565b6009546102fe565b61039361038e366004612cbd565b6108b1565b6040516102b59493929190612e2a565b604051601281526020016102b5565b6102fe6a084595161401484a00000081565b6103d76103d2366004612cbd565b610a49565b005b6103d76103e7366004612e67565b610b22565b61031f6103fa366004612d98565b600a60209081526000928352604080842090915290825290205460ff1681565b61031f610428366004612d98565b600c60209081526000928352604080842090915290825290205460ff1681565b6102fe610456366004612cbd565b610d63565b6008546102fe565b61031f610471366004612e97565b610dde565b6102fe610484366004612cbd565b610dfc565b6103d7610497366004612efe565b610e6a565b6102fe6104aa366004612e97565b61102e565b6104c26104bd366004612cbd565b611049565b6040516102b5929190612f85565b6103d76110f1565b6102fe6104e6366004612cbd565b600d6020526000908152604090205481565b61031f610506366004612cbd565b611105565b6103d7610519366004612cbd565b611137565b61053161052c366004612cbd565b61141c565b6040516102b596959493929190612fa6565b610556610551366004612cbd565b6114fb565b6040516001600160a01b0390911681526020016102b5565b61031f61057c366004612e97565b60076020526000908152604090205460ff1681565b6005546001600160a01b0316610556565b6105566105b0366004612cbd565b611533565b6102c661156b565b600654610556906001600160a01b031681565b6103d76105de366004612dc4565b61157a565b61031f6105f1366004612e97565b600f6020526000908152604090205460ff1681565b6102fe61061436600461302d565b6116dc565b61031f610627366004612dc4565b611aac565b6103d761063a366004612cbd565b611b55565b6103d761064d366004612cbd565b611c26565b6102fe611e6c565b6102fe6106683660046130d1565b6001600160a01b03918216600090815260016020908152604080832093909416825291909152205490565b6103d7611ecd565b6102fe6106a93660046130fb565b611f66565b6103d76106bc366004612e67565b6122b0565b6103d76106cf366004612e97565b6124fc565b6106e76106e2366004612cbd565b612537565b6040516102b59493929190613155565b6009818154811061070757600080fd5b906000526020600020906009020160009150905080600001805461072a9061319f565b80601f01602080910402602001604051908101604052809291908181526020018280546107569061319f565b80156107a35780601f10610778576101008083540402835291602001916107a3565b820191906000526020600020905b81548152906001019060200180831161078657829003601f168201915b50505060018401546004850154600586015460068701546007880154600890980154969793966001600160a01b03909316955090935060ff16919087565b6060600380546107f09061319f565b80601f016020809104026020016040519081016040528092919081815260200182805461081c9061319f565b80156108695780601f1061083e57610100808354040283529160200191610869565b820191906000526020600020905b81548152906001019060200180831161084c57829003601f168201915b5050505050905090565b600033610881818585612728565b60019150505b92915050565b60003361089b858285612735565b6108a68585856127b4565b506001949350505050565b6060600080600080600886815481106108cc576108cc6131d3565b90600052602060002090600702016040518060e00160405290816000820180546108f59061319f565b80601f01602080910402602001604051908101604052809291908181526020018280546109219061319f565b801561096e5780601f106109435761010080835404028352916020019161096e565b820191906000526020600020905b81548152906001019060200180831161095157829003601f168201915b505050505081526020016001820154815260200160028201548152602001600382015481526020016004820160009054906101000a90046001600160a01b03166001600160a01b03166001600160a01b0316815260200160058201805480602002602001604051908101604052809291908181526020018280548015610a1357602002820191906000526020600020905b8154815260200190600101908083116109ff575b50505091835250506006919091015460209182015281519082015160408301516060909301519199909850919650945092505050565b80610a533361102e565b1015610ab25760405162461bcd60e51b815260206004820152602360248201527f4e6f7420656e6f756768204d474f5620746f6b656e7320666f7220646f6e617460448201526234b7b760e91b60648201526084015b60405180910390fd5b610abc3382612813565b15610ad95760405162461bcd60e51b8152600401610aa9906131e9565b670de0b6b3a764000081610aec3361102e565b610af69190613298565b1015610b1457336000908152600f60205260409020805460ff191690555b610b1f3330836127b4565b50565b610b2b33610dde565b610b6f5760405162461bcd60e51b81526020600482015260156024820152744f6e6c79206d656d626572732063616e20766f746560581b6044820152606401610aa9565b6000828152600e6020908152604080832033845290915290205460ff1615610bd95760405162461bcd60e51b815260206004820152601e60248201527f416c726561647920766f74656420666f722074686973207061796d656e7400006044820152606401610aa9565b60098281548110610bec57610bec6131d3565b9060005260206000209060090201600101544210610c1c5760405162461bcd60e51b8152600401610aa9906132ab565b60098281548110610c2f57610c2f6131d3565b600091825260209091206006600990920201015460ff16610c875760405162461bcd60e51b8152602060048201526012602482015271141c9bda9958dd081b9bdd08199d5b99195960721b6044820152606401610aa9565b60098281548110610c9a57610c9a6131d3565b90600052602060002090600902016003018054905060098381548110610cc257610cc26131d3565b90600052602060002090600902016008015410610d155760405162461bcd60e51b8152602060048201526011602482015270416c6c207061796d656e7473206d61646560781b6044820152606401610aa9565b6000828152600e602090815260408083203384529091529020805460ff191660011790558015610d5f576000828152600d60205260408120805491610d59836132cc565b91905055505b5050565b60008060098381548110610d7957610d796131d3565b9060005260206000209060090201905060005b8160080154811015610dd757816002018181548110610dad57610dad6131d3565b906000526020600020015483610dc391906132e5565b925080610dcf816132cc565b915050610d8c565b5050919050565b6001600160a01b03166000908152600f602052604090205460ff1690565b60008060098381548110610e1257610e126131d3565b906000526020600020906009020190508060030180549050816008015410610e3e575060001992915050565b80600301816008015481548110610e5757610e576131d3565b9060005260206000200154915050919050565b610e7333610dde565b610ebf5760405162461bcd60e51b815260206004820152601d60248201527f4f6e6c79206d656d626572732063616e2074616b6520737572766579730000006044820152606401610aa9565b600060088481548110610ed457610ed46131d3565b9060005260206000209060070201905080600101544210610f075760405162461bcd60e51b8152600401610aa9906132ab565b6003810154821115610f4e5760405162461bcd60e51b815260206004820152601060248201526f546f6f206d616e792063686f6963657360801b6044820152606401610aa9565b60005b82811015611010578160020154848483818110610f7057610f706131d3565b9050602002013510610fb55760405162461bcd60e51b815260206004820152600e60248201526d496e76616c69642063686f69636560901b6044820152606401610aa9565b81600501848483818110610fcb57610fcb6131d3565b9050602002013581548110610fe257610fe26131d3565b60009182526020822001805491610ff8836132cc565b91905055508080611008906132cc565b915050610f51565b50600681018054906000611023836132cc565b919050555050505050565b6001600160a01b031660009081526020819052604090205490565b6000606060088381548110611060576110606131d3565b90600052602060002090600702016006015460088481548110611085576110856131d3565b9060005260206000209060070201600501808054806020026020016040519081016040528092919081815260200182805480156110e157602002820191906000526020600020905b8154815260200190600101908083116110cd575b5050505050905091509150915091565b6110f9612968565b6111036000612995565b565b60006009828154811061111a5761111a6131d3565b600091825260209091206006600990920201015460ff1692915050565b60006009828154811061114c5761114c6131d3565b60009182526020909120600990910201600681015490915060ff16801561117f575060048101546001600160a01b031633145b6111ba5760405162461bcd60e51b815260206004820152600c60248201526b155b985d5d1a1bdc9a5e995960a21b6044820152606401610aa9565b60038101546008820154106111fc5760405162461bcd60e51b8152602060048201526008602482015267105b1b081c185a5960c21b6044820152606401610aa9565b80600301816008015481548110611215576112156131d3565b9060005260206000200154816007015461122f91906132e5565b42101561126c5760405162461bcd60e51b815260206004820152600b60248201526a139bdd08191d59481e595d60aa1b6044820152606401610aa9565b6112746129e7565b6000838152600d602052604090205461128e9060646132f8565b10156112dc5760405162461bcd60e51b815260206004820152601c60248201527f4e6f7420656e6f75676820766f74657320666f72207061796d656e74000000006044820152606401610aa9565b600654600482015460088301546002840180546001600160a01b039485169463a9059cbb941692908110611312576113126131d3565b6000918252602090912001546040516001600160e01b031960e085901b1681526001600160a01b03909216600483015260248201526044016020604051808303816000875af1158015611369573d6000803e3d6000fd5b505050506040513d601f19601f8201168201806040525081019061138d919061330f565b506008810180549060006113a0836132cc565b90915550506000828152600d602052604081208190555b600954811015611417576000838152600e6020908152604080832033845290915290205460ff1615611405576000838152600e602090815260408083203384529091529020805460ff191690555b8061140f816132cc565b9150506113b7565b505050565b6008818154811061142c57600080fd5b906000526020600020906007020160009150905080600001805461144f9061319f565b80601f016020809104026020016040519081016040528092919081815260200182805461147b9061319f565b80156114c85780601f1061149d576101008083540402835291602001916114c8565b820191906000526020600020905b8154815290600101906020018083116114ab57829003601f168201915b50505050600183015460028401546003850154600486015460069096015494959294919350916001600160a01b03169086565b600060088281548110611510576115106131d3565b60009182526020909120600460079092020101546001600160a01b031692915050565b600060098281548110611548576115486131d3565b60009182526020909120600460099092020101546001600160a01b031692915050565b6060600480546107f09061319f565b6000818152600a6020908152604080832033845290915290205460ff16156115d45760405162461bcd60e51b815260206004820152600d60248201526c105b1c9958591e481d9bdd1959609a1b6044820152606401610aa9565b6000818152600c6020908152604080832033845290915290205460ff16156116325760405162461bcd60e51b8152602060048201526011602482015270105b1c9958591e4819195b1959d85d1959607a1b6044820152606401610aa9565b61163b82610dde565b6116915760405162461bcd60e51b815260206004820152602160248201527f596f752063616e6e6f742064656c656761746520746f206e6f6e2d6d656d62656044820152603960f91b6064820152608401610aa9565b6000818152600c602090815260408083203384528252808320805460ff19166001179055838352600b82528083206001600160a01b03861684529091528120805491610d59836132cc565b60006116e733610dde565b6117455760405162461bcd60e51b815260206004820152602960248201527f4f6e6c79206d656d626572732063616e207375626d69742070726f6a6563742060448201526870726f706f73616c7360b81b6064820152608401610aa9565b674563918244f400006117573361102e565b101561179e5760405162461bcd60e51b81526020600482015260166024820152750d481351d3d5881d1bdad95b9cc81c995c5d5a5c995960521b6044820152606401610aa9565b6117b033674563918244f40000612813565b156117cd5760405162461bcd60e51b8152600401610aa9906131e9565b6006546040516323b872dd60e01b815233600482015230602482015268d8d726b7177a80000060448201526001600160a01b03909116906323b872dd906064016020604051808303816000875af115801561182c573d6000803e3d6000fd5b505050506040513d601f19601f82011682018060405250810190611850919061330f565b61189c5760405162461bcd60e51b815260206004820152601860248201527f3430303020544c20746f6b656e732072657175697265642e00000000000000006044820152606401610aa9565b670de0b6b3a7640000674563918244f400006118b73361102e565b6118c19190613298565b10156118df57336000908152600f60205260409020805460ff191690555b6118f23330674563918244f400006127b4565b604080516101406020601f8b01819004028201810190925261012081018981526009928291908c908c908190850183828082843760009201919091525050509082525060208082018a905260408051898302818101840183528a82529190930192918a918a918291908501908490808284376000920191909152505050908252506040805160208781028281018201909352878252928301929091889188918291850190849080828437600092018290525093855250503360208085019190915260408401839052606084018390526080840183905260a09093018290525083546001810185559381522081519192600902019081906119f29082613390565b50602082810151600183015560408301518051611a159260028501920190612c66565b5060608201518051611a31916003840191602090910190612c66565b5060808201516004820180546001600160a01b0319166001600160a01b0390921691909117905560a0820151600582015560c082015160068201805460ff191691151591909117905560e0820151600782015561010090910151600890910155600954611aa090600190613298565b98975050505050505050565b6000611ab83383612813565b15611ad55760405162461bcd60e51b8152600401610aa9906131e9565b670de0b6b3a7640000821115611b09576001600160a01b0383166000908152600f60205260409020805460ff191660011790555b670de0b6b3a764000082611b1c3361102e565b611b269190613298565b1015611b4457336000908152600f60205260409020805460ff191690555b611b4e8383612a59565b9392505050565b6006546040516323b872dd60e01b8152336004820152306024820152604481018390526001600160a01b03909116906323b872dd906064016020604051808303816000875af1158015611bac573d6000803e3d6000fd5b505050506040513d601f19601f82011682018060405250810190611bd0919061330f565b610b1f5760405162461bcd60e51b815260206004820152602160248201527f4e6f7420656e6f75676820544c20746f6b656e7320666f7220646f6e6174696f6044820152603760f91b6064820152608401610aa9565b600060098281548110611c3b57611c3b6131d3565b6000918252602090912060099091020160048101549091506001600160a01b03163314611c965760405162461bcd60e51b81526020600482015260096024820152682737ba1037bbb732b960b91b6044820152606401610aa9565b80600101544210611cb95760405162461bcd60e51b8152600401610aa9906132ab565b600681015460ff1615611cff5760405162461bcd60e51b815260206004820152600e60248201526d105b1c9958591e48199d5b99195960921b6044820152606401610aa9565b611d076129e7565b6005820154611d1790600a6132f8565b1015611d585760405162461bcd60e51b815260206004820152601060248201526f4e6f7420656e6f75676820766f74657360801b6044820152606401610aa9565b6000805b6002830154811015611da757826002018181548110611d7d57611d7d6131d3565b906000526020600020015482611d9391906132e5565b915080611d9f816132cc565b915050611d5c565b506006546040516370a0823160e01b815230600482015282916001600160a01b0316906370a0823190602401602060405180830381865afa158015611df0573d6000803e3d6000fd5b505050506040513d601f19601f82011682018060405250810190611e149190613450565b1015611e525760405162461bcd60e51b815260206004820152600d60248201526c139bdd08195b9bdd59da081513609a1b6044820152606401610aa9565b5060068101805460ff191660011790554260079091015550565b6000805b600954811015611ec95760098181548110611e8d57611e8d6131d3565b600091825260209091206006600990920201015460ff1615611eb75781611eb3816132cc565b9250505b80611ec1816132cc565b915050611e70565b5090565b3360009081526007602052604090205460ff1615611f1f5760405162461bcd60e51b815260206004820152600f60248201526e105b1c9958591e4818db185a5b5959608a1b6044820152606401610aa9565b611f323033670de0b6b3a76400006127b4565b336000908152600f602090815260408083208054600160ff1991821681179092556007909352922080549091169091179055565b6000671bc16d674ec80000683635c9adc5dea00000611f8433610dde565b611fd05760405162461bcd60e51b815260206004820152601f60248201527f4f6e6c79206d656d626572732063616e207375626d69742073757276657973006044820152606401610aa9565b81611fda3361102e565b10156120285760405162461bcd60e51b815260206004820152601f60248201527f4174206c656173742032204d474f5620746f6b656e73207265717569726564006044820152606401610aa9565b6120323383612813565b1561204f5760405162461bcd60e51b8152600401610aa9906131e9565b6006546040516323b872dd60e01b8152336004820152306024820152604481018390526001600160a01b03909116906323b872dd906064016020604051808303816000875af11580156120a6573d6000803e3d6000fd5b505050506040513d601f19601f820116820180604052508101906120ca919061330f565b6121205760405162461bcd60e51b815260206004820152602160248201527f4174206c65617374203130303020544c20746f6b656e732072657175697265646044820152601760f91b6064820152608401610aa9565b670de0b6b3a7640000826121333361102e565b61213d9190613298565b101561215b57336000908152600f60205260409020805460ff191690555b6121663330846127b4565b604080516101006020601f8b01819004028201810190925260e081018981526008928291908c908c908190850183828082843760009201919091525050509082525060208101899052604081018890526060810187905233608082015260a0018767ffffffffffffffff8111156121df576121df61332c565b604051908082528060200260200182016040528015612208578160200160208202803683370190505b5081526000602091820181905283546001810185559381522081519192600702019081906122369082613390565b506020828101516001830155604083015160028301556060830151600383015560808301516004830180546001600160a01b0319166001600160a01b0390921691909117905560a083015180516122939260058501920190612c66565b5060c09190910151600690910155600854611aa090600190613298565b6122b933610dde565b6122fd5760405162461bcd60e51b81526020600482015260156024820152744f6e6c79206d656d626572732063616e20766f746560581b6044820152606401610aa9565b6000828152600a6020908152604080832033845290915290205460ff16158061233e57506000828152600b6020908152604080832033845290915290205415155b61238a5760405162461bcd60e51b815260206004820152601760248201527f596f752068617665206e6f20766f746573206c6566742e0000000000000000006044820152606401610aa9565b6009828154811061239d5761239d6131d3565b600091825260209091206006600990920201015460ff16156123f25760405162461bcd60e51b815260206004820152600e60248201526d105b1c9958591e48199d5b99195960921b6044820152606401610aa9565b60098281548110612405576124056131d3565b90600052602060002090600902016001015442106124355760405162461bcd60e51b8152600401610aa9906132ab565b6000828152600a6020908152604080832033845290915290205460ff1615612498576000828152600b6020908152604080832033845290915290205461247d90600190613298565b6000838152600b602090815260408083203384529091529020555b80156124d557600982815481106124b1576124b16131d3565b6000918252602082206005600990920201018054916124cf836132cc565b91905055505b506000908152600a602090815260408083203384529091529020805460ff19166001179055565b612504612968565b6001600160a01b03811661252e57604051631e4fbdf760e01b815260006004820152602401610aa9565b610b1f81612995565b60606000606080600060098681548110612553576125536131d3565b90600052602060002090600902016040518061012001604052908160008201805461257d9061319f565b80601f01602080910402602001604051908101604052809291908181526020018280546125a99061319f565b80156125f65780601f106125cb576101008083540402835291602001916125f6565b820191906000526020600020905b8154815290600101906020018083116125d957829003601f168201915b50505050508152602001600182015481526020016002820180548060200260200160405190810160405280929190818152602001828054801561265857602002820191906000526020600020905b815481526020019060010190808311612644575b50505050508152602001600382018054806020026020016040519081016040528092919081815260200182805480156126b057602002820191906000526020600020905b81548152602001906001019080831161269c575b505050918352505060048201546001600160a01b03166020808301919091526005830154604080840191909152600684015460ff1615156060808501919091526007850154608085015260089094015460a0909301929092528351908401519184015193909201519199909850919650945092505050565b6114178383836001612a67565b6001600160a01b038381166000908152600160209081526040808320938616835292905220546000198110156127ae578181101561279f57604051637dc7a0d960e11b81526001600160a01b03841660048201526024810182905260448101839052606401610aa9565b6127ae84848484036000612a67565b50505050565b6001600160a01b0383166127de57604051634b637e8f60e11b815260006004820152602401610aa9565b6001600160a01b0382166128085760405163ec442f0560e01b815260006004820152602401610aa9565b611417838383612b3c565b60008080805b6009548110156128985760098181548110612836576128366131d3565b9060005260206000209060090201600101544210801561287857506000818152600a602090815260408083206001600160a01b038a16845290915290205460ff165b156128865760019250612898565b80612890816132cc565b915050612819565b5060005b60095481101561291b57600981815481106128b9576128b96131d3565b906000526020600020906009020160010154421080156128fb57506000818152600c602090815260408083206001600160a01b038a16845290915290205460ff165b15612909576001915061291b565b80612913816132cc565b91505061289c565b5060006129278661102e565b905060006129358683613298565b905080158015612949575083806129495750825b1561295b576001945050505050610887565b5060009695505050505050565b6005546001600160a01b031633146111035760405163118cdaa760e01b8152336004820152602401610aa9565b600580546001600160a01b038381166001600160a01b0319831681179093556040519116919082907f8be0079c531659141344cd1fd0a4f28419497f9722a3daafe3b4186f6b6457e090600090a35050565b600080805b600854811015612a5357612a2e60088281548110612a0c57612a0c6131d3565b60009182526020909120600460079092020101546001600160a01b0316610dde565b15612a415781612a3d816132cc565b9250505b80612a4b816132cc565b9150506129ec565b50919050565b6000336108818185856127b4565b6001600160a01b038416612a915760405163e602df0560e01b815260006004820152602401610aa9565b6001600160a01b038316612abb57604051634a1406b160e11b815260006004820152602401610aa9565b6001600160a01b03808516600090815260016020908152604080832093871683529290522082905580156127ae57826001600160a01b0316846001600160a01b03167f8c5be1e5ebec7d5bd14f71427d1e84f3dd0314c0f7b2291e5b200ac8c7c3b92584604051612b2e91815260200190565b60405180910390a350505050565b6001600160a01b038316612b67578060026000828254612b5c91906132e5565b90915550612bd99050565b6001600160a01b03831660009081526020819052604090205481811015612bba5760405163391434e360e21b81526001600160a01b03851660048201526024810182905260448101839052606401610aa9565b6001600160a01b03841660009081526020819052604090209082900390555b6001600160a01b038216612bf557600280548290039055612c14565b6001600160a01b03821660009081526020819052604090208054820190555b816001600160a01b0316836001600160a01b03167fddf252ad1be2c89b69c2b068fc378daa952ba7f163c4a11628f55a4df523b3ef83604051612c5991815260200190565b60405180910390a3505050565b828054828255906000526020600020908101928215612ca1579160200282015b82811115612ca1578251825591602001919060010190612c86565b50611ec99291505b80821115611ec95760008155600101612ca9565b600060208284031215612ccf57600080fd5b5035919050565b6000815180845260005b81811015612cfc57602081850181015186830182015201612ce0565b506000602082860101526020601f19601f83011685010191505092915050565b60e081526000612d2f60e083018a612cd6565b6020830198909852506001600160a01b039590951660408601526060850193909352901515608084015260a083015260c090910152919050565b602081526000611b4e6020830184612cd6565b80356001600160a01b0381168114612d9357600080fd5b919050565b60008060408385031215612dab57600080fd5b82359150612dbb60208401612d7c565b90509250929050565b60008060408385031215612dd757600080fd5b612de083612d7c565b946020939093013593505050565b600080600060608486031215612e0357600080fd5b612e0c84612d7c565b9250612e1a60208501612d7c565b9150604084013590509250925092565b608081526000612e3d6080830187612cd6565b6020830195909552506040810192909252606090910152919050565b8015158114610b1f57600080fd5b60008060408385031215612e7a57600080fd5b823591506020830135612e8c81612e59565b809150509250929050565b600060208284031215612ea957600080fd5b611b4e82612d7c565b60008083601f840112612ec457600080fd5b50813567ffffffffffffffff811115612edc57600080fd5b6020830191508360208260051b8501011115612ef757600080fd5b9250929050565b600080600060408486031215612f1357600080fd5b83359250602084013567ffffffffffffffff811115612f3157600080fd5b612f3d86828701612eb2565b9497909650939450505050565b600081518084526020808501945080840160005b83811015612f7a57815187529582019590820190600101612f5e565b509495945050505050565b828152604060208201526000612f9e6040830184612f4a565b949350505050565b60c081526000612fb960c0830189612cd6565b602083019790975250604081019490945260608401929092526001600160a01b0316608083015260a090910152919050565b60008083601f840112612ffd57600080fd5b50813567ffffffffffffffff81111561301557600080fd5b602083019150836020828501011115612ef757600080fd5b60008060008060008060006080888a03121561304857600080fd5b873567ffffffffffffffff8082111561306057600080fd5b61306c8b838c01612feb565b909950975060208a0135965060408a013591508082111561308c57600080fd5b6130988b838c01612eb2565b909650945060608a01359150808211156130b157600080fd5b506130be8a828b01612eb2565b989b979a50959850939692959293505050565b600080604083850312156130e457600080fd5b6130ed83612d7c565b9150612dbb60208401612d7c565b60008060008060006080868803121561311357600080fd5b853567ffffffffffffffff81111561312a57600080fd5b61313688828901612feb565b9099909850602088013597604081013597506060013595509350505050565b6080815260006131686080830187612cd6565b85602084015282810360408401526131808186612f4a565b905082810360608401526131948185612f4a565b979650505050505050565b600181811c908216806131b357607f821691505b602082108103612a5357634e487b7160e01b600052602260045260246000fd5b634e487b7160e01b600052603260045260246000fd5b6020808252606d908201527f53696e63652074686973207472616e7366657220656e647320796f7572206d6560408201527f6d626572736869702064756520746f2062616c616e636520616e6420796f752060608201527f6861766520756e66696e697368656420766f74696e672c2070726f636573732060808201526c34b99031b0b731b2b63632b21760991b60a082015260c00190565b634e487b7160e01b600052601160045260246000fd5b8181038181111561088757610887613282565b602080825260079082015266115e1c1a5c995960ca1b604082015260600190565b6000600182016132de576132de613282565b5060010190565b8082018082111561088757610887613282565b808202811582820484141761088757610887613282565b60006020828403121561332157600080fd5b8151611b4e81612e59565b634e487b7160e01b600052604160045260246000fd5b601f82111561141757600081815260208120601f850160051c810160208610156133695750805b601f850160051c820191505b8181101561338857828155600101613375565b505050505050565b815167ffffffffffffffff8111156133aa576133aa61332c565b6133be816133b8845461319f565b84613342565b602080601f8311600181146133f357600084156133db5750858301515b600019600386901b1c1916600185901b178555613388565b600085815260208120601f198616915b8281101561342257888601518255948401946001909101908401613403565b50858210156134405787850151600019600388901b60f8161c191681555b5050505050600190811b01905550565b60006020828403121561346257600080fd5b505191905056fea2646970667358221220fddaa3e9fee7264a75a2e2ddb9bce12157afe3eb0e6ed3a25e226bbd4a80955e64736f6c63430008140033",
  "linkReferences": {},
  "deployedLinkReferences": {}
}